:020000040800F2
:1000000008090020D9010008C12E0008052D0008AC
:10001000BD2E0008390D0008A536000800000000BC
:100020000000000000000000000000005D35000836
:100030003D0D000800000000C52E000861350008D5
:10004000F3010008F3010008F3010008F3010008C0
:10005000F3010008F3010008F3010008F3010008B0
:10006000F3010008F3010008F3010008F3010008A0
:10007000F3010008F3010008F3010008F301000890
:10008000F3010008F3010008F3010008F301000880
:10009000F3010008F3010008F3010008F301000870
:1000A000F3010008F3010008F3010008F301000860
:1000B00069350008F3010008F3010008F3010008A6
:1000C000F3010008F3010008F3010008F301000840
:1000D000F3010008813600088D36000899360008C3
:1000E000F3010008F3010008F301000800F002F832
:1000F00000F063F814A696E8000CB244B344DA4565
:1001000001D100F05AF8BAE80F000FA696E83000C7
:10011000A5EB040504EB0607AAEB0704A7F101070A
:100120004FEA15154FEA3414A4F10104AC4201D38F
:1001300000F043F813F0010F18BFFB1A43F001035E
:1001400000F001F8DBE718474C7900006C790000FB
:10015000103A24BF78C878C1FAD8520724BF30C8F3
:1001600030C144BF04680C60704700007047000055
:100170000023002400250026103A28BF78C1FBD8B0
:10018000520728BF30C148BF0B607047662907F08F
:10019000CA82752900F09C80632900F01884002031
:1001A00070471FB500F032FC04000020002106F06B
:1001B00047F9E0601FBD10B510BD00F047FD1146C6
:1001C000FFF7EFFF03F0C6FA00F065FD03B4FFF799
:1001D000F2FF03BC00F0A8FD09488047094800472A
:1001E000FEE7FEE7FEE7FEE7FEE7FEE7FEE7FEE7E7
:1001F000FEE7FEE704480549054A064B7047000044
:1002000065350008ED0000080803002008090020FB
:1002100008050020080500200FB4044910B503AA02
:10022000029800F0E1FB10BC5DF814FB880100208F
:1002300070B5044685690068C10601D5302600E026
:100240002026C00707D070BDD4E901213046904771
:10025000206A401C20626D1EF6D570BD70B5044644
:1002600085690078C00707D170BDD4E9012120203D
:100270009047206A401C20626D1EF6D570BD70B597
:100280000C460546012A05D02878800600D5EA6983
:10029000002302E0012305E05B1C934202D2E05CF4
:1002A0000028F9D1A869E618C01AA861286A18447C
:1002B00028622846FFF7BCFF04E0D5E9012114F8C5
:1002C000010B9047B442F8D32846FFF7C7FF70BD33
:1002D0002DE9F0410646002410687529314616A51F
:1002E00010D0AFF30080002802DA404213A507E0E7
:1002F00031688A0701D512A502E0490704D511A586
:10030000012401E0AFF3008000210A2206F1240756
:1003100009E0B0FBF2FCB0FBF2F302FB1C00303052
:1003200078541846491C0028F3D123462A46304603
:10033000BDE8F04100F0DAB8000000002D00000038
:100340002B000000200000002DE9F05F89460446E4
:100350004FF0000ADFF874B1FB44C0F820A020463B
:10036000E1688847002874D0252806D0D4E9012107
:100370009047206A401C2062F1E700265F46204635
:10038000E16888472028054607DB312D05D278191A
:1003900010F8200C08B10643F1E7B00701D526F0AC
:1003A0000406C4F81CA00027C4F818A02A2D09D000
:1003B000284605F001F938B304EB8708303DC8F84A
:1003C000185019E059F8041B204604EB870291618C
:1003D000E1688847012F054618D1E069002820DA36
:1003E00026F020061DE0D8F8180000EB800005EB91
:1003F00040003038C8F818002046E16888470546B4
:1004000005F0DAF80028EED1012F0AD02E2D08D100
:100410002046E16888477F1C0546022F46F02006EB
:10042000C4DBA069002803DA404246F00106A0615F
:10043000F00701D026F010066C2D0BD0682D09D0E6
:100440004C2D39D06A2D35D0742D35D07A2D33D03E
:1004500016E038E0E1682F4620468847B842054656
:1004600009D16C2F26D04FF48060E1680643204606
:100470008847054604E06C2F1AD04FF4807006437D
:100480000DB3A5F14100192802D8203546F40066C5
:100490004A462946204626604E46FFF777FE80B141
:1004A00001280BD0F61D26F0070000F1080956E7D9
:1004B0004020E4E78020D8E70020D6E706F10409D1
:1004C0004DE7284652E7206ABDE8F09FBE74000061
:1004D00070477047704710B500F09CFA006810BD77
:1004E00010B5044600F096FA046010BD2DE9F047FF
:1004F0000D4699469246044600F124080168880694
:1005000004D5E06921F01001216000E00120A8423B
:1005100001DD471B00E00027A1697A1902EB090001
:10052000081AA0612078C00602D42046FFF780FE9A
:10053000002608E0D4E901211AF806009047206A55
:10054000401C761C20624E45F4DB2078C0060AD59C
:100550002046FFF76DFE06E0D4E9012130209047E8
:10056000206A401C2062381EA7F10107F4DC07E076
:10057000D4E9012118F805009047206A401C206248
:10058000281EA5F10105F3DC2046FFF767FE207861
:10059000000602D50220BDE8F0870120FBE72DE927
:1005A000FF4F0C461E464FF0FF378BB0D2E90001DB
:1005B000DDF860800A908A46C1F30A5505B93D46C8
:1005C000002108464FF00000BAF1000F00F440008F
:1005D00005DA00EB80004FF4400101EA50004FEAD9
:1005E0009059B9F1010F00DDB9460A9850EA4A0066
:1005F0000ED044F61050A5F2FF3545432F14B8F144
:10060000000F1ED07542291E1EDDC9F100021CE03C
:10061000B8F1010F4FF0000001D0302103E0F243A8
:1006200005E02154401CB042FBDB30460022002193
:1006300021540B99C1F80880C1E900200FB0BDE832
:10064000F08FBD1B6D1CDEE74A4600DA694206A842
:1006500000F082FA06AB93E8070003AB83E80700DB
:1006600050460A9904F054FB8DE80700A0F50050AD
:100670001F3800900398002D0ADD42F21F014A4600
:100680000844002303A90390684604F0BDFD09E077
:10069000A0F500504A461F38002303A9039068467E
:1006A00004F0C7FD8DE807000004000C03D04FF0F4
:1006B000FF30410800E01046B8F1000F03D00022DF
:1006C000009215461EE0751E05D400F0A7F93032E1
:1006D00062556D1EF9D5B3460122084302D00022AF
:1006E0007F1C04E02078302801D100227F1E002AE0
:1006F000099784D01DE0112D07DA00F08FF9303210
:1007000062556D1C50EA0102F5D1084302D00098F1
:10071000C8B10EE00021681E05E0235C625C6354F2
:100720002254401E491C8142F7DBAB46A81B401EE9
:100730000990002004F80B000B98099AC0F8088073
:10074000C0E9002B7AE711264FF0000857E72DE9A2
:10075000F04F88460446D21D22F0070191B0D1E93E
:100760000001CDE90A0104F09BFE02460B98C00F80
:1007700001D02D2007E02068810701D52B2002E061
:10078000202101EAC000032A099001D0072A05DBD5
:1007900003464146204600F09FF90BE12078800691
:1007A00001D5E06900E00620B8F1650F814606D06A
:1007B000B8F1660F18D0B8F1670F70D131E00020A2
:1007C000B9F1110F009001DB112301E009F10103E0
:1007D0000AAA01A90CA8FFF7E2FEDDE90C700026C9
:1007E00009F10105834647E001204B4600904FF098
:1007F00000470AAA01A90CA8FFF7D1FEDDE90DB058
:100800000C995D46002610B909F101000D18B9EBED
:10081000050003D4C0F1FF3609F10105A5EB09007D
:100820002BE0B9F1010F01DA4FF001090020B9F115
:10083000110F0090484601DD112300E003460AAA8B
:1008400001A90CA8FFF7ABFEDDE90C704D460026B0
:100850008346207800070AD4AB4500DA5D4601A83C
:10086000012D04DD411911F8011C302907D04F4535
:1008700002DA17F1040F04DA012082460FE06D1E40
:10088000EEE7002F02DCED1B3E4403E0781CA8429B
:1008900000DD7D1CB81B00F1010A4FF000472078F5
:1008A000000703D4AA4501DB4FF0FF3A0021B7F15E
:1008B000004F0DF143088DF8431024D002202B2364
:1008C000002F01DA7F422D230A21021EA0F1010030
:1008D00000DC5FB197FBF1FC97FBF1F201FB1C7CA4
:1008E00017460CF1300C08F801CDEEE7A8F1010035
:1008F00003702188090501D5452100E06521A0F19B
:10090000010800F8011C09980FA9A1EB0807FF1DB9
:1009100000B10120411901EBEA70A1693844081ABD
:10092000401EA0612078C00602D42046FFF780FC5C
:10093000099828B1D4E901219047206A401C20621F
:100940002078C00622D52046FFF772FC1EE0002E5C
:1009500004DBB34502DD01A8805D00E03020D4E96E
:1009600001219047206A401C2062761CAAF10100F8
:100970005FEA000A0AD100F049F8C0680168405CEB
:10098000D4E901219047206A401C2062281EA5F16D
:100990000105DCDC07E0D4E9012118F8010B9047E0
:1009A000206A401C2062381EA7F10107F3DC2046B4
:1009B000FFF754FC032011B041E610B5436913B1B1
:1009C000AFF3008001E0FFF75AFC012010BD127860
:1009D00000F124010A7000224A700122EDE711683B
:1009E0004FF0FF32E9E70000074B70B50D467B443E
:1009F00000F05FF80446284600F020F910B14FF0EF
:100A0000FF3070BD204670BDB72C00000048704715
:100A100070000020004870475000002030B5B0F151
:100A20000A0271F100034FEA900E4EEA817EB0EBAC
:100A30000E0061EB91014FEA101E4EEA017E10EBB1
:100A40000E0041EB11114FEA102E4EEA016E10EB31
:100A50000E0041EB11214FEA104E4EEA014E10EB11
:100A60000E0041EB1141401841F100014FEAD00066
:100A700040EA41704FEAD1014FEA810444EA9074A0
:100A800010EB800544EB01046D1944EB0404521B88
:100A9000A3414FF0000348BF0A3200D530BD401CCF
:100AA00041F1000130BD000001694A1C0261087873
:100AB000704700B58FB0CDE901310021059105499E
:100AC0007944CDE9031011466846FFF73DFC0FB0AD
:100AD00000BD0000E5FFFFFF2DE9F0411F46044681
:100AE00003260168072A01F4006004DB08B116A59B
:100AF00005E016A503E008B115A500E015A521F055
:100B000010002060A069C01EA0610FB1401EA0614E
:100B10002046FFF78DFB4FB1D4E9012138469047BD
:100B2000206A401C2062C01C206206E0206AFAE7AE
:100B3000D4E9012115F8010B9047761EF8D2204622
:100B4000FFF78CFBBDE8F0814E414E006E616E00F8
:100B5000494E4600696E66002DE9F047814616460B
:100B60008AB0354878440DC88DE80D003248784485
:100B7000801C03AC0DC884E80D0041F69B3008448E
:100B8000372190FBF1F290FBF1F5A5F1800501FB17
:100B900012041B3C02D56442012000E00020DFF873
:100BA00098A080460027FA44AAF1BE0A0EE0E007AA
:100BB0000AD03246684607EB470101230AEB810160
:100BC00004F037FB8DE8070064107F1C002CEED189
:100BD000194F7F44AE3F19E0E80715D007EB04102A
:100BE0000DF1180A90E80E008AE80E00C068F04285
:100BF00001D1981908903246012306A903A804F0F0
:100C000018FB03AB83E807006D10641C002DE3D1D3
:100C10004FF0010332466946B8F1000F03A802D035
:100C200004F0F2FA01E004F004FBC9E90001C9F89C
:100C300008200AB0BDE8F0870C6E0000007B00F0D1
:100C40008000704700487047500000207546FFF74D
:100C5000F9FFAE4605006946534620F00700854679
:100C600018B020B5FFF7C6FABDE820404FF00006E7
:100C70004FF000074FF000084FF0000BAC46ACE817
:100C8000C009ACE8C009ACE8C009ACE8C00921F073
:100C900007018D46704710B50446AFF3008020462B
:100CA000BDE81040FFF792BA4FF0013C50F8042B1A
:100CB00051F8043B9A4221D1A2EB0C03934313EA6F
:100CC000CC1317D150F8042B51F8043B9A4215D19C
:100CD000A2EB0C03934313EACC130BD150F8042B73
:100CE00051F8043B9A4209D1A2EB0C03934313EA57
:100CF000CC13DBD04FF00000704700BFD01A01BA10
:100D0000B1FA81F101F0180122FA01F0CB40DBB217
:100D1000C0B2C01AC1F120012CFA01F3D11A9143DB
:100D200011EAC311E6D1704701491820ABBEFEE7B6
:100D30002600020070470000FEE700007047000038
:100D4000014690F82100022816D10868D1E90FC3A6
:100D5000026822F00E020260026822F001020260C4
:100D6000012000FA03F2CCF8042081F821000020D1
:100D7000002281F82020704704208863012000228F
:100D800081F820207047000090F82110022923D11B
:100D90000268116821F00E0111602F211368C4F25E
:100DA00002018A4240F20401C4F2020123F001036D
:100DB000136015DD3023C4F202039A421CD0442391
:100DC000C4F202039A421BD05823C4F202039A428F
:100DD0001CD14FF4803321E004218163012070474E
:100DE0000823C4F202039A420ED01C23C4F2020369
:100DF0009A420BD1102311E04FF480730EE000BF34
:100E00004FF480530AE000BF012307E001F1680CB2
:100E10004FF08073624508BF4FF480130B600121CF
:100E200080F82110426B002180F8201022B180B59B
:100E300090470021BDE8804008467047B0B50446A1
:100E400000F01EF9054640F24400C2F200000078AE
:100E5000611C18BF044400BF00F012F9401BA042FF
:100E6000FAD3B0BD2DE9F04F82B00E68002E00F02D
:100E7000FD8041F20042C4F20102042340F2004E20
:100E8000904208BF03234FF6FF7CC4F2010E00938B
:100E900000240123C1F2100C4FF0000A4FF00009AA
:100EA00044E000BF012704F00C030F229A402BEA14
:100EB000020207FA03F34FEA9A051A4346F825207F
:100EC0004E6840F20C45F202DEF8082054BF22EAD8
:100ED000080242EA0802C4F20105CEF808202A6896
:100EE000B30254BF22EA080242EA08022A60B303AE
:100EF000DEF8042054BF22EA080242EA0802F303A3
:100F0000CEF80420DEF800204FF0010354BF22EA9F
:100F1000080242EA0802CEF800200E680AF1010A2F
:100F200036FA0AF204F1040400F0A08003FA0AFB86
:100F300016EA0B08F1D04E68664511DC122E55D822
:100F4000DFE806F0340A444854545454545454547A
:100F500054545454544C5000D1F80C9046E000BF07
:100F60004FF6FF72C1F2210296420FDC0022C1F25D
:100F7000110296421AD00022C1F21202964215D0F6
:100F80000022C1F22102964210D02FE00022C1F2CD
:100F9000220296420AD00022C1F23102964205D0C6
:100FA0000022C1F23202964220D100BF8A684AB1C3
:100FB000012A14BFC0F814B0C0F810B04FF00809EF
:100FC00014E000BF4FF0040910E000BFCA6802F14E
:100FD00008090BE04FF0000908E000BFCA6802F101
:100FE000040903E0CA6802F10C0900BF2246064664
:100FF000B8F5807F24BF203A043637680F25954026
:1010000027EA050509FA02F22A433260CA79D206B4
:101010007FF583AF41F21803C4F202031A68AEF5FC
:101020007E7642F001021A601A6802F00102019213
:10103000019A2AF0030256F802B040F60002C4F208
:101040000102904210D040F60042C4F201029042E8
:101050003FF428AF41F20002C4F20102009F904227
:1010600008BF02271FE700BF00271CE702B0BDE84A
:10107000F08F0000002A08BF0904016170470000DA
:1010800040F20430C2F200000068704740F24400B1
:1010900040F20431C2F20000C2F2000100780A6896
:1010A000104408607047000080B542F20000C4F2AE
:1010B0000200016841F010010160032000F08CF88B
:1010C0000F2000F005F800F027F8002080BD000098
:1010D00070B540F24406C2F2000640F24C0132788C
:1010E000C2F200014FF47A730968B3FBF2F20446CE
:1010F000B1FBF2F1084600F019FC0F2C4FF001058E
:1011000008D838B94FF0FF3021460022002500F002
:1011100037F87460284670BD82B041F21800C4F2FE
:1011200002000168022241F001010160016801F042
:10113000010101910199416841F08051416040688D
:1011400000F08050009000980420C4F20100016873
:1011500062F31A61016002B070470000002848BFC6
:10116000704700F01F01012202FA01F11C2202EA7D
:10117000D0004EF20012CEF2000281507047000003
:1011800010B54EF60C5CCEF2000CDCF80030C3F368
:10119000022E8EF00704042C28BF0424BEF10303A2
:1011A0004FF0FF3E0EFA04F438BF0023A1439940EC
:1011B0000EFA03F39A43114300F00F0200F160436B
:1011C0000901043A03F564436244002848BF02F170
:1011D0000C03197010BD00004EF60C51CEF2000148
:1011E0000A684FF6FF031A4060F30A2242F080605B
:1011F00040F0FD7008607047002804BF0120704770
:101200002DE9F04381B042F20008C4F2020804461E
:10121000D8F800000D4600F0070088420CD2D8F83C
:10122000000020F007002843C8F80000D8F80000AC
:1012300000F00700A8426ED1206841F2040981073E
:10124000C4F2020917D5410705D5D9F8001041F4B9
:10125000E061C9F80010010705D5D9F8001041F484
:101260006051C9F80010D9F80010A26821F0F0010F
:101270001143C9F80010C00744D1D8F8000000F0AD
:101280000700A8420CD9D8F8000020F00700284336
:10129000C8F80000D8F8000000F00700A8423AD1D2
:1012A0002068410707D5D9F80010E26821F4E06111
:1012B0001143C9F80010000708D5D9F800002169CA
:1012C00020F4605040EAC100C9F80000D9F80010CD
:1012D00042F2004001F00C02042AC0F2F40059D09E
:1012E000082A45D147F6A613C1F38342C0F600038E
:1012F0009A5CC90342D440F60010C0F23D0050434E
:1013000048E000BF606802280AD001282AD159F8B5
:10131000041C890308D4012001B0BDE8F08300BF9C
:1013200059F8041C8901F6D5D9F8001021F0030101
:101330000843C9F80000FFF7A3FE064641F28837CC
:10134000D9F80000616800F00C00B0EB810F94D078
:10135000FFF796FE801BB842F2D9032001B0BDE82A
:10136000F08300BF59F8041C8907D4D5DCE700BF1F
:1013700041F20020C0F27A000CE000BFD9F8001062
:1013800047F6A413C1F34041C0F60003595C504333
:10139000B0FBF1F0D9F8001047F68C12C1F303113D
:1013A000C0F60002515C40F24C0220FA01F140F21A
:1013B0004800C2F200000068C2F200021160FFF7AC
:1013C00087FE002001B0BDE8F083000040F24C0031
:1013D00041F20401C2F20000C4F20201006809688F
:1013E00047F69C12C1F30221C0F60002515CC840CE
:1013F0007047000040F24C0041F20401C2F20000CC
:10140000C4F202010068096847F69C12C1F3C221C8
:10141000C0F60002515CC84070470000002804BFBD
:10142000012070472DE9F04182B00446007841F276
:101430000006C007C4F202060CD0706800F00C0071
:10144000042840F081803068800303D5606800285C
:1014500000F04E81207880071BD5706810F00C0FCB
:1014600009D0706800F00C00082840F08B8070688C
:10147000C00300F187803068800703D52069012808
:1014800040F036813068616920F0F80040EAC10020
:1014900030602078000713D4207840072CD4E56909
:1014A000002D00F02081706800F00C00082840F04A
:1014B000AF80012D40F00C81012002B0BDE8F08129
:1014C000A069002800F08C800020C4F24220012195
:1014D000C0F88014FFF7D4FD054600BF706A80078E
:1014E00000F1BA80FFF7CCFD401B0228F6D903209B
:1014F00002B0BDE8F08100BFF0695FEAC00808D41F
:10150000F06940F08050F061F06900F08050009088
:10151000009847F20007C4F200073868C0054DD4B0
:10152000386840F480703860FFF7AAFD054600BFB8
:101530003868C00542D4FFF7A3FD401B6428F7D9E3
:10154000032002B0BDE8F081706800F00C000828AC
:1015500003D17068C0033FF576AF6068002800F0E3
:101560000981B0F5A02F00F01D81B0F5803F00F09B
:101570001D81306820F480303060306820F4802095
:1015800017E100BF2069002840F20000C4F24220A9
:1015900000F08C8001210160FFF772FD054600BF5D
:1015A000306880073FF56EAFFFF76AFD401B0228E9
:1015B000F6D9032002B0BDE8F08100BFE068002842
:1015C00000F09A80052800F0B180012800F0B28078
:1015D000306A20F001003062306A20F00400ACE094
:1015E0000020C4F242200021C0F88014FFF748FD1B
:1015F000054600BF706A80077FF54EAFFFF740FDDC
:10160000401B0228F6D9032002B0BDE8F08100BFDC
:101610000027C4F2422700203866FFF731FD022D73
:1016200005460DD13068800140F1D680FFF728FDD6
:10163000401B02284FF00300F4D902B0BDE8F0814E
:10164000306880014FD5FFF71BFD401B02284FF08B
:101650000300F5D9F1E700BF40F24C00C2F20000F0
:10166000006844F6D351C1F26201A0FB0101480AAF
:10167000019000BF00BF0198411E002801913FF476
:101680000BAF00BF0198411E002801913FF404AF49
:1016900000BF0198411E002801913FF4FDAE00BF3C
:1016A0000198411E00280191E4D1F5E60021016076
:1016B000FFF7E6FC054600BF306880077FF5E9AE1E
:1016C000FFF7DEFC401B02284FF00300F4D9B4E71B
:1016D0007068216A00F480328A4209D1616A00F49C
:1016E0007010884204D1002002B0BDE8F08100BF34
:1016F000012002B0BDE8F081306A20F001003062C4
:10170000306A20F004003062FFF7BAFC054641F26F
:10171000883700BF306A800722D5FFF7B1FC401B35
:10172000B8424FF00300F5D987E700BF306A40F0B8
:1017300004003062306A40F001003062FFF7A0FC24
:10174000054641F2883700BF306A800708D4FFF7AA
:1017500097FC401BB842F7D9032002B0BDE8F081E6
:10176000B8F1000F3FF59BAEF06920F08050F061BA
:1017700095E600BF306820F480303060306820F497
:1017800080203060FFF77CFC054600BF3068800396
:101790007FF560AEFFF774FC401B64284FF0030038
:1017A000F4D94AE7306840F480203060306840F473
:1017B00080303060FFF764FC054600BF306880036E
:1017C0003FF548AEFFF75CFC401B6428F6D90320C8
:1017D00002B0BDE8F08100BF206AB0F5803F05D1BE
:1017E0007168A26821F40031114371607168626A06
:1017F00021F4741111430843706001203866FFF72B
:101800003FFC0446306880013FF56DAFFFF738FCC0
:10181000001B02284FF00300F4D90EE770B538B171
:101820000446406A30B10020206104F1140007E052
:10183000012070BD6068B0F5827F03D004F11C0008
:10184000002101600026A66294F8510020B92046CC
:1018500084F8506000F038F8022084F8510094E8D1
:10186000071001F48271036802F4044223F040037C
:101870000360236911440CF40062114403F0020276
:101880006369114403F00102A369E569114403F49B
:101890000072114405F03802256A114405F08002F7
:1018A000A56A114305F4005211430160042101EAC5
:1018B00013414160C16921F40061C1610120666585
:1018C00084F85100304670BD80B586B043F6000103
:1018D0000068C4F2000100228842049202D006B0DF
:1018E00080BD00BF41F21800C4F20200426842F419
:1018F00080424260426802F480420192019A02688A
:1019000042F008020260006800F0080001900198AF
:101910004FF420400290022003900320059001F52F
:10192000544002A9FFF79EFA06B080BD411E002078
:10193000B0EB116F1CBF012070474EF21002CEF2C7
:10194000000251604EF62351CEF20001F0230B70DD
:1019500007219060116070477047000070470000D9
:1019600090F83C20012A4FF0020236D010B580F8E2
:101970003D200268D2F804E0D2F808C00C682EF0CE
:101980007003234340F2FF74C4F20004A242536088
:101990000ADCB2F1804F13D040F20043C4F20003DE
:1019A0009A420DD011E000BF42F60043C4F2010399
:1019B0009A4205D040F60003C4F200039A4204D1D3
:1019C00049682CF08003194391600121002280F8BE
:1019D0003D1080F83C20BDE81040104670470000E4
:1019E000002804BF0120704710B5044690F83D0060
:1019F00028B9002084F83C00204600F067F8022057
:101A000084F83D00206840F2FF730268C4F20003CE
:101A100042F6004C9842C4F2010C15DCB0F1804F44
:101A20001AD040F20041C4F20001884214D098421A
:101A300018DCB0F1804F1DD040F20041C4F200012B
:101A4000884217D01AE000BF604505D040F600017B
:101A5000C4F200018842EAD1A16822F070020A4370
:101A60009842E6DD604505D040F60001C4F2000171
:101A7000884203D1216922F440720A43A36922F00B
:101A80008001D4F804E0E268194360450160C26255
:101A9000C0F828E002D16169CCF830100121416121
:101AA000002084F8461084F83E1084F83F1084F833
:101AB000401084F8411084F8421084F8431084F8F0
:101AC000441084F8451084F83D1010BD80B582B0F4
:101AD0000068B0F1804F15D042F60041C4F2010118
:101AE00088420CD141F21800C4F20200016841F4AE
:101AF00000610160006800F400600190019802B08C
:101B000080BD00BF41F21800C4F20200416800220B
:101B100041F00101416040680E2100F00100009099
:101B200000981C20FFF72CFB1C2002B0BDE8804071
:101B3000FFF714BB90F83D1001291CBF012070472E
:101B4000022180F83D10006840F2FF71C4F20001EC
:101B5000884209DCB0F1804F12D040F20041C4F25B
:101B6000000188420CD012E042F60041C4F20101AB
:101B7000884205D040F60001C4F20001884206D137
:101B8000816801F00701062904BF00207047016841
:101B900041F00101016000207047000090F83D1005
:101BA00001291CBF01207047022180F83D10006808
:101BB00040F2FF72C168C4F20002904241F001019C
:101BC000C16009DCB0F1804F12D040F20041C4F294
:101BD000000188420CD012E042F60041C4F201013B
:101BE000884205D040F60001C4F20001884206D1C7
:101BF000816801F00701062904BF002070470168D1
:101C000041F00101016000207047000090F83C2085
:101C1000012A4FF0020200F0C58080B580F83D2017
:101C2000D0F800C04FF67772DCF8083023EA0202E1
:101C3000CCF808200B684F2B28DC1F2B44DD202B11
:101C400045D0302B43D0402B40F0AE80D1F804E09B
:101C5000C968DCF82030DCF8202022F00102CCF842
:101C60002020DCF8182022F0F00242EA011123F0D3
:101C70000A0242EA0E02CCF81810CCF82020DCF858
:101C8000081041F0470121F0300180E06F2B27DD83
:101C9000B3F5005F48D0B3F5805F7AD0702B40F089
:101CA0008380D1E901E3C968DCF8082043EA0E0328
:101CB00022F47F4243EA01211143CCF80810DCF8FA
:101CC000081041F0770162E00BB1102B6CD1DCF809
:101CD000081021F07001194341F0070157E000BFDF
:101CE000502B35D0602B5FD1D1F804E0C968DCF807
:101CF0002030DCF8202022F01002CCF82020DCF884
:101D0000182022F4704242EA013123F0A00242EA94
:101D10000E12CCF81810CCF82020DCF8081041F096
:101D2000670121F0100132E0D1E901E3C968DCF874
:101D3000082043EA0E0322F47F4243EA01211143C3
:101D4000CCF80810DCF8081041F480411FE000BF17
:101D5000D1F804E0C968DCF82030DCF8202022F05B
:101D60000102CCF82020DCF8182022F0F00242EA30
:101D7000011123F00A0242EA0E02CCF81810CCF846
:101D80002020DCF8081041F0570121F02001CCF8A8
:101D900008100022012180F83D10002180F83C103D
:101DA000BDE88040104670470122F3E7704700000D
:101DB00010B5016804460869800744BFC8685FEA37
:101DC000807039D40869400744BFC8685FEA407032
:101DD0003ED40869000744BFC8685FEA007045D474
:101DE0000869C00644BFC8685FEAC0604AD4086991
:101DF000C0071CBFC8685FEAC07051D108690006FF
:101E000044BFC8685FEA006052D40869400644BF16
:101E1000C8685FEA406053D40869800646BFC86856
:101E20005FEA806010BD6FF0200220460A61BDE8C5
:101E30001040FFF793BD00BF6FF002000861012062
:101E400020778869800743D02046FFF7AFFF45E041
:101E50006FF00400086102202077886910F4407F49
:101E600040D02046FFF7A2FF42E000BF6FF008001D
:101E7000086104202077C86980073DD02046FFF71D
:101E800095FF3FE06FF01000086108202077C869D7
:101E900010F4407F3AD02046FFF788FF3CE000BFB7
:101EA0006FF001000861204600F03EF82168A5E7C8
:101EB0006FF0800008612046FFF74EFD2168A4E71F
:101EC0006FF040000861204600F0C4F82168A3E7E5
:101ED000204600F025F8204600F024F82168002074
:101EE00020776FE7204600F01BF8204600F01AF834
:101EF0002168002020776CE7204600F011F820468A
:101F000000F010F821680020207769E7204600F0F3
:101F100007F8204600F006F821680020207766E7E1
:101F200070470000704700000068B0F1804F18BF94
:101F3000704710B540F20004C2F200042078032874
:101F40001ED0022838D0012853D13120207140F210
:101F50002C20E11CC2F2000003224FF0FF3300F0FE
:101F600093FD40F2B001C2F20001CA7B002048722A
:101F7000002A01F111004FD0024601F1100034E0B7
:101F80003320207140F22C20E11CC2F20000032219
:101F90004FF0FF3300F078FD40F2B001C2F20001D3
:101FA0000A7B0020C873002A01F10E003ED00246D1
:101FB00001F10D0019E000BF3220207140F22C2009
:101FC000E11CC2F2000003224FF0FF3300F05CFD81
:101FD00040F2B001C2F200014A7A0020087301F118
:101FE0000B006AB3024601F10A00012111700021C1
:101FF000017020780130C1B2032988BF0120207010
:1020000040F2E410C2F2000000684FF25F0141624A
:10201000BDE81040704700BF0A7C91F812C0013241
:10202000D3B263450A74E2D8E3E700BF4A7B91F874
:1020300012C00132D3B263454A73D8D8D9E700BF82
:102040008A7A91F812C00132D3B263458A72CED82F
:10205000CFE70000704700007047000070470000A5
:10206000B0B582B0044600680168C368426901F0F7
:102070002F05202D03F0200506D12DB1204602B0FA
:10208000BDE8B04001F07CBA5FEA017C1EBF02F0FF
:10209000010E03F4907212EB0E0243D1226BCD06B7
:1020A00018D5012A16D113F0100213D00021019186
:1020B00001680191416801910199406940063BD452
:1020C000A08DE18DE28D002A18BF884240F0F28198
:1020D00002B0B0BD0A0640F1E78013F0800200F0C4
:1020E000E38094F841102129F2D1A168B1F5805F15
:1020F00003D12169002900F06382216A4A1C22620F
:1021000009784160E18C01390A04E184E0D1C168B9
:1021100021F08001C160C16841F04001C16002B09E
:10212000B0BD00BFCA0718BF13F4807240F0D08062
:102130004A0700F1D380D8E0E06B016849688AB2B1
:10214000002AC5D0A38D9A42C2D2E1858069202899
:1021500000F09E80206850E8030F216820F4807012
:1021600041E80302DAB1206850E8030F216820F447
:10217000807041E8030292B1206850E8030F2168A3
:1021800020F4807041E803024AB1206850E8030F50
:10219000216820F4807041E80302002ADAD1206827
:1021A00050E8050F216820F0010041E80502C2B3A4
:1021B000206850E8050F216820F0010041E8050281
:1021C0007AB3206850E8050F216820F0010041E84B
:1021D000050232B3206850E8050F216820F00100A5
:1021E00041E80502002ADAD11BE000BF206850E870
:1021F000050F216820F0400041E80502DAB12068AF
:1022000050E8050F216820F0400041E8050292B136
:10221000206850E8050F216820F0400041E80502E1
:102220004AB1206850E8050F216820F0400041E8DD
:102230000502002ADAD1202084F842000020206321
:10224000206850E8030F216820F0100041E80302E5
:10225000DAB1206850E8030F216820F0100041E84F
:10226000030292B1206850E8030F216820F01000AB
:1022700041E803024AB1206850E8030F216820F0CA
:10228000100041E80302002ADAD1E06BFEF758FDA6
:1022900002206063A08DE18D401A81B2204602B019
:1022A000BDE8B040FFF7D8BE49067FF511AF13F087
:1022B00040013FF40DAFC16821F04001C160202111
:1022C000204684F8411002B0BDE8B04000F018BDCF
:1022D000626C42F0010262644A0706D5BEF1000F4B
:1022E00003D0626C42F0020262648A0706D5BEF136
:1022F000000F03D0626C42F004026264BCF1000F74
:1023000006D55EEA050203D0626C42F00802626400
:10231000626C002A3FF4DCAE890604D51DB120466C
:1023200001F02EF920684069616C00F0400001F076
:102330000801401800F0B680206850E8030F2168BB
:1023400020F4907041E80302BAB3206850E8030F0C
:10235000216820F4907041E8030272B3206850E8CD
:10236000030F216820F4907041E803022AB320682B
:1023700050E8030F216820F4907041E80302002A1E
:10238000DAD11AE0206850E8050F216820F001003A
:1023900041E80502DAB1206850E8050F216820F015
:1023A000010041E8050292B1206850E8050F21685C
:1023B00020F0010041E805024AB1206850E8050F0D
:1023C000216820F0010041E80502002ADAD1206BE3
:1023D000012824D1206850E8030F216820F0100064
:1023E00041E80302DAB1206850E8030F216820F0C9
:1023F000100041E8030292B1206850E8030F216801
:1024000020F0100041E803024AB1206850E8030FB1
:10241000216820F0100041E80302002ADAD12020D0
:1024200084F842000020206320684069400640F1A3
:10243000C180206850E8050F216820F0400041E885
:102440000502DAB1206850E8050F216820F040004D
:1024500041E8050292B1206850E8050F216820F09C
:10246000400041E805024AB1206850E8050F2168A4
:1024700020F0400041E80502002ADAD1E06B002894
:1024800000F0988043F27551C0F600014163FEF7F9
:102490007BFC00283FF41CAEE06B416B02B0BDE852
:1024A000B04008472046FFF7D9FD0020606402B025
:1024B000B0BD00BF401A00BF216851E8031F226869
:1024C00021F4907142E80313BBB3216851E8031F64
:1024D000226821F4907142E8031373B3216851E834
:1024E000031F226821F4907142E803132BB3216883
:1024F00051E8031F226821F4907142E80313002B76
:10250000DAD11AE0216851E8051F226821F00101A3
:1025100042E80513DBB1216851E8051F226821F06C
:10252000010142E8051393B1216851E8051F2268B3
:1025300021F0010142E805134BB1216851E8051F64
:10254000226821F0010142E80513002BDAD1202195
:1025500084F8421000212163216851E8031F22689A
:1025600021F0100142E80313DBB1216851E8031F99
:10257000226821F0100142E8031393B1216851E869
:10258000031F226821F0100142E803134BB12168B8
:1025900051E8031F226821F0100142E80313002BC9
:1025A000DAD1022281B22046626302B0BDE8B040B7
:1025B000FFF752BD204602B0BDE8B040FFF74EBD68
:1025C000216A31F8022B6FF35F224260216299E5A4
:1025D000002804BF0120704710B5044690F8410060
:1025E00028B9002084F84000204600F063F8242039
:1025F00084F841002068D4E90212C36823F4005330
:10260000C360036923F440531A430261D4E90423ED
:102610001143C268194341F20C639A431143C160EC
:102620004169A26921F44071114343F60002C4F2EA
:1026300001029042416103D0FEF7C8FE02E000BFF4
:10264000FEF7D8FED4E90023192148439900B0FBD6
:10265000F1F048F21F5CC5F2EB1CA0FB0C314FF609
:102660009C734909C0F6FF7301FB0300322303EB9F
:102670000010A0FB0C03F02000EA531000EB011047
:10268000C3F34311084490601069202120F4904066
:102690001061506920F02A005061D06840F4005069
:1026A000D0600020606484F8411084F842106063B8
:1026B00010BD000070B586B0006844F20041C4F25D
:1026C0000001002688420596CDE90366029641D0B6
:1026D00044F60001C4F2000188426DD043F60001C7
:1026E000C4F20101884240F0A28041F21800C4F215
:1026F0000200016840F6000441F480410160016875
:10270000C4F2010401F4804101910199016802AD14
:1027100041F0040101600068294600F004000190C6
:1027200001984FF40070029002200390032005905E
:102730002046FEF797FB4FF4806002900020CDE921
:10274000030020462946FEF78DFB252002210022AA
:10275000252467E041F21800C4F20200416840F607
:10276000000441F4003141604168C4F2010401F405
:10277000003101910199016802AD41F0040101604D
:102780000068294600F0040001900198042002909E
:1027900002200390032005902046FEF763FB0820EB
:1027A000CDE90206204629460496FEF75BFB26206B
:1027B00000210022262435E041F21800C4F2020074
:1027C000416802AD41F480214160416801F48021FB
:1027D00001910199016841F00801016000682946F2
:1027E00000F00800019001984FF4806002900220F0
:1027F00003900320059040F60000C4F2010000F5AC
:1028000080642046FEF72EFB4FF40060029000200B
:10281000CDE9030020462946FEF724FB27200121AD
:1028200000222724FEF7ACFC2046FEF797FC06B0FA
:1028300070BD000090F84230202B07D100294FF0E6
:10284000010318BF002A05D1184670470223184615
:10285000704700BF00230363816222218285C28505
:10286000436480F842100169006819B1C16841F4FD
:102870008071C160416941F001014161C16841F06D
:102880002001C16018467047006844F20041C4F25C
:10289000000188422AD044F60001C4F200018842B7
:1028A00014D043F60001C4F20101884218BF7047FA
:1028B00080B540F2B001C2F200010878532823D15C
:1028C00001208870481C0021017045E040F2B000F2
:1028D000C2F20000C179027E002A4BD0522963D097
:1028E00042294CD10121C176704700BF40F2B000AF
:1028F000C2F20000C178532918D101214171011D94
:1029000000220A7048E000BF8A78502820D0012AAF
:102910001ED14A7840F22C13C2F200039854501C86
:10292000C2B20F2A487017D9881CCCE742795029C7
:102930002ED0012A2CD1027990F801C0831883F897
:102940007010511CBCF1030F017125D9811CD7E710
:10295000502808BF012A2BD040F22C2040F2B001B1
:10296000C2F20000C2F200010122BDE88040FFF780
:1029700061BF00BF3E2902BF012181757047C11DA3
:1029800040F2BC20C2F200000122FFF753BF00BF9B
:10299000502908BF012A2FD0C11C40F27420C2F276
:1029A00000000122FFF746BF01218176704700BF7A
:1029B00040F22C12C2F200021378881C032B2DD097
:1029C000022B43D0012B7FF47EAF01234B72CB75DA
:1029D000D2F801E0D2F80530D2F809C040F2000187
:1029E000B2F80D20C2F20001C1F806E0C1F80A30C9
:1029F000C1F80EC04A8266E790F8703090F87120F6
:102A0000432B00F105018377C27737D0572B37D09E
:102A1000462B7FF475AF00F1140333E00123CB7331
:102A20000323CB75D2F801E0D2F80530D2F809C003
:102A300040F20001B2F80D20C2F20001C1F82EE010
:102A4000C1F83230C1F836C04A873CE701230B7326
:102A50000223CB75D2F801E0D2F80530D2F809C0D4
:102A600040F20001B2F80D20C2F20001C1F81AE0F4
:102A7000C1F81E30C1F822C0CA8424E7831D01E0DA
:102A800000F115031A703BE72DE9F04381B00446CD
:102A900090F84100202840F0B180884600294FF08E
:102AA000010000F0D6801646002A00F0D2800020F7
:102AB000606421201D4684F84100FEF7E1FAA684F7
:102AC000E684A1680646B1F5805F03D1206900283D
:102AD00000F0988047464FF00008E18C20680029FC
:102AE00000F0968005F101090BE000BF47B317F82D
:102AF000011B4160E18C0139E184E18C002900F087
:102B0000878001680906F1D4B9F1000F0AD0EDB150
:102B1000FEF7B6FA801BA84218D82068016809069B
:102B2000F6D5E3E701680906E0D4016809065CBF51
:102B300001685FEA0161D9D401680906F2D5D5E7D9
:102B400038F8021B00276FF35F21D2E7206850E8B6
:102B5000030F216820F4D07041E80302BAB3206863
:102B600050E8030F216820F4D07041E8030272B3EB
:102B7000206850E8030F216820F4D07041E8030278
:102B80002AB3206850E8030F216820F4D07041E890
:102B90000302002ADAD11AE0206850E8050F216804
:102BA00020F0010041E80502DAB1206850E8050F85
:102BB000216820F0010041E8050292B1206850E848
:102BC000050F216820F0010041E805024AB12068A4
:102BD00050E8050F216820F0010041E80502002AB5
:102BE000DAD1202084F8410084F84200002084F8E3
:102BF0004000032001B0BDE8F08300BF022001B017
:102C0000BDE8F0830027E18C206800297FF46AAFDB
:102C10000168490619D4FDB1691C0DD10168490646
:102C200013D4016849065CBF01685FEA41610CD4B6
:102C300001684906F2D508E0FEF722FA801BA84297
:102C40000AD8206800684006F6D5202084F84100A4
:102C5000002001B0BDE8F083206850E8030F216830
:102C600020F4D07041E80302002A3ED0206850E8EA
:102C7000030F216820F4D07041E80302AAB3206852
:102C800050E8030F216820F4D07041E8030262B3DA
:102C9000206850E8030F216820F4D07041E8030257
:102CA000002AD9D121E000BF206850E8050F216833
:102CB00020F0010041E80502002A3FF492AF2068AD
:102CC00050E8050F216820F0010041E80502002AC4
:102CD0003FF487AF206850E8050F216820F001001D
:102CE00041E80502002A3FF47CAF206850E8050F58
:102CF000216820F0010041E80502002AD4D170E7E4
:102D000070470000FEE7000070B51420FEF796F84B
:102D100040F20005C2F20005AC7844F03006F0B293
:102D200000F0D2F844F03400C0B200F0CDF806F064
:102D3000FB0000F0C9F80520FEF780F8AC7844F0FD
:102D40003006F0B200F0C0F844F03400C0B200F039
:102D5000BBF806F0FB0000F0B7F80120FEF76EF8B4
:102D6000AC7844F03006F0B200F0AEF844F0340035
:102D7000C0B200F0A9F806F0FB0000F0A5F8AC78AE
:102D800044F02006F0B200F09FF844F02400C0B2F6
:102D900000F09AF806F0FB0000F096F8AC7844F0EA
:102DA0002006F0B200F090F844F02400C0B200F029
:102DB0008BF806F0FB0000F087F8AC7864F07F0633
:102DC000F0B200F081F844F08400C0B200F07CF86A
:102DD00006F0FB0000F078F8AC78204600F074F8BC
:102DE00044F0040000F070F804F0FB0000F06CF810
:102DF000AC7864F07F06F0B200F066F844F084002E
:102E0000C0B200F061F806F0FB0000F05DF8AC78AD
:102E1000204600F059F844F0040000F055F804F0A2
:102E2000FB0000F051F8AC7844F01006F0B200F06E
:102E30004BF844F01400C0B200F046F806F0FB0076
:102E400000F042F80220FDF7F9FFAC78204600F0D0
:102E50003BF844F0040000F037F804F0FB0000F009
:102E600033F8AC7864F03F06F0B200F02DF844F08F
:102E7000C400C0B200F028F806F0FB0000F024F80F
:102E8000AC7864F07F06F0B200F01EF844F08400E5
:102E9000C0B200F019F806F0FB0000F015F8AC78AD
:102EA000204600F011F844F0040000F00DF804F0A2
:102EB000FB00BDE8704000F007B80000FEE700002E
:102EC000FEE70000704700002DE9F04148F2981835
:102ED0000546C4F22128012040F22C17C8F804004E
:102EE000C2F2000778690021416200BF416A31B92E
:102EF000416A21B9416A11B9416A0029F6D001211C
:102F0000C8F8001000214162416A31B9416A21B913
:102F1000416A11B9416A0029F6D00021C8F80410AD
:102F2000416200BF416A31B9416A21B9416A11B9B0
:102F3000416A0029F6D040F60044C4F2010400269C
:102F4000204680210022C8F80060FEF793F8204652
:102F500040210122FEF78EF878694662416A31B954
:102F6000416A21B9416A11B9416A0029F6D0204667
:102F7000402100220026FEF77DF87869466200BFF6
:102F8000416A31B9416A21B9416A11B9416A0029DE
:102F9000F6D0204680210122FEF76CF82046402121
:102FA0000122FEF767F8786900214162416A31B970
:102FB000416A21B9416A11B9416A0029F6D0204617
:102FC000402100220026FEF755F87869466200BFCE
:102FD000416A31B9416A21B9416A11B9416A00298E
:102FE000F6D0204680210122FEF744F820464021F9
:102FF0000122FEF73FF8786900214162416A31B948
:10300000416A21B9416A11B9416A0029F6D02046C6
:10301000402100220026FEF72DF87869466200BFA5
:10302000416A31B9416A21B9416A11B9416A00293D
:10303000F6D0204680210122FEF71CF820464021D0
:103040000122FEF717F8786900214162416A31B91F
:10305000416A21B9416A11B9416A0029F6D0204676
:10306000402100220026FEF705F87869466200BF7D
:10307000416A31B9416A21B9416A11B9416A0029ED
:10308000F6D0204680210122FDF7F4FF20464021A2
:103090000122FDF7EFFF786900214162416A31B9F1
:1030A000416A21B9416A11B9416A0029F6D0204626
:1030B000402100220026FDF7DDFF7869466200BF4F
:1030C000416A31B9416A21B9416A11B9416A00299D
:1030D000F6D0204680210122FDF7CCFF204640217A
:1030E0000122FDF7C7FF786900214162416A31B9C9
:1030F000416A21B9416A11B9416A0029F6D02046D6
:10310000402100220026FDF7B5FF7869466200BF26
:10311000416A31B9416A21B9416A11B9416A00294C
:10312000F6D0204680210122FDF7A4FF2046402151
:103130000122FDF79FFF786900214162416A31B9A0
:10314000416A21B9416A11B9416A0029F6D0204685
:10315000402100220026FDF78DFF7869466200BFFE
:10316000416A31B9416A21B9416A11B9416A0029FC
:10317000F6D02046802100220026FDF77BFF204666
:1031800040210122FDF776FF78694662416A31B934
:10319000416A21B9416A11B9416A0029F6D0204635
:1031A000402100220026FDF765FF7869466200BFD6
:1031B000416A31B9416A21B9416A11B9416A0029AC
:1031C000F6D02046802100220026FDF753FF20463E
:1031D00040210122FDF74EFF78694662416A31B90C
:1031E000416A21B9416A11B9416A0029F6D02046E5
:1031F000402100220026FDF73DFF7869466200BFAE
:10320000416A31B9416A21B9416A11B9416A00295B
:10321000F6D0EA0920468021FDF72CFF2046402108
:103220000122FDF727FF786900214162416A31B927
:10323000416A21B9416A11B9416A0029F6D0204694
:10324000402100220026FDF715FF7869466200BF85
:10325000416A31B9416A21B9416A11B9416A00290B
:10326000F6D0C5F3801220468021FDF703FF2046EB
:1032700040210122FDF7FEFE78690021416200BF76
:10328000416A31B9416A21B9416A11B9416A0029DB
:10329000F6D02046402100220026FDF7EBFE78699B
:1032A000466200BF416A31B9416A21B9416A11B928
:1032B000416A0029F6D0C5F3401220468021FDF76F
:1032C000D9FE204640210122FDF7D4FE7869002175
:1032D000416200BF416A31B9416A21B9416A11B9FD
:1032E000416A0029F6D02046402100220026FDF741
:1032F000C1FE7869466200BF416A31B9416A21B9AD
:10330000416A11B9416A0029F6D0C5F3001220467E
:103310008021FDF7AFFE204640210122FDF7AAFEE5
:1033200078690021416200BF416A31B9416A21B91F
:10333000416A11B9416A0029F6D020464021002295
:103340000026FDF797FE7869466200BF416A31B9F1
:10335000416A21B9416A11B9416A0029F6D0C5F321
:10336000C00220468021FDF785FE20464021012233
:10337000FDF780FE78690021416200BF416A31B9E2
:10338000416A21B9416A11B9416A0029F6D0204643
:10339000402100220026FDF76DFE7869466200BFDD
:1033A000416A31B9416A21B9416A11B9416A0029BA
:1033B000F6D0C5F3800220468021FDF75BFE204653
:1033C00040210122FDF756FE78690021416200BFCD
:1033D000416A31B9416A21B9416A11B9416A00298A
:1033E000F6D02046402100220026FDF743FE7869F2
:1033F000466200BF416A31B9416A21B9416A11B9D7
:10340000416A0029F6D0C5F3400220468021FDF72D
:1034100031FE204640210122FDF72CFE7869002173
:10342000416200BF416A31B9416A21B9416A11B9AB
:10343000416A0029F6D02046402100220026FDF7EF
:1034400019FE7869466200BF416A31B9416A21B903
:10345000416A11B9416A0029F6D005F001022046FF
:103460008021FDF707FE204640210122FDF702FEE4
:1034700078690021416200BF416A31B9416A21B9CE
:10348000416A11B9416A0029F6D020464021002244
:103490000025FDF7EFFD7869456200BF416A31B94B
:1034A000416A21B9416A11B9416A0029F6D0204622
:1034B000802100220025FDF7DDFD2046402101226C
:1034C000FDF7D8FD78694562416A31B9416A21B991
:1034D000416A11B9416A0029F6D0204640210022F4
:1034E0000024FDF7C7FD7869446200BF416A31B925
:1034F000416A21B9416A11B9416A0029F6D0002117
:10350000C8F80410416200BF416A31B9416A21B96B
:10351000416A11B9416A0029F6D00021C8F80010AB
:10352000416200BF416A31B9416A21B9416A11B9AA
:10353000416A0029F6D00121C8F80010002141623B
:10354000416A31B9416A21B9416A11B9416A002918
:10355000F6D00120C8F80400BDE8F08170470000F3
:10356000FDF794BD7047000040F2E410C2F2000085
:10357000FEF71EBC406A0021C185C184FEF76EBD06
:1035800081B090F84210222921D183680246B3F518
:10359000805F09D152F8281F52F8183C002B63D0E5
:1035A00003685B680AE000BF52F8281F13B903697B
:1035B000002BF5D003685B6803F07F030B70116884
:1035C00001311160C18D01390A04C18502D001B0F9
:1035D000704700BF0168CA6822F02002CA60CA684A
:1035E00022F48072CA604A6922F001024A612021F5
:1035F00080F8421000214163026B012A3CD1016333
:10360000016851E8031F026821F0100142E803132A
:10361000DBB1016851E8031F026821F0100142E8A4
:10362000031393B1016851E8031F026821F01001F0
:1036300042E803134BB1016851E8031F026821F00F
:10364000100142E80313002BDAD101680A68D206A0
:1036500006D5002200920A680092496800910099FC
:10366000818D01B0FEF7F8BC026852686FF35F22EB
:1036700021F8022B8162A5E701B0FFF705B9000030
:1036800040F22C20C2F20000FEF7EABC40F27420A7
:10369000C2F20000FEF7E4BC40F2BC20C2F200001F
:1036A000FEF7DEBCFEE70000F0B581B040F2B001ED
:1036B000C2F20001097A009004291BD80446DFE811
:1036C00001F003090F191D0040F22C20C2F2000086
:1036D0000AE000BF40F27420C2F2000004E000BF24
:1036E00040F2BC20C2F20000694601224FF0FF33D5
:1036F000FFF7CAF95DF8040BF0BD00BF40F200050A
:10370000C2F20005A87824F00F0140EA010646F055
:103710000107F8B2FFF7D8FB46F00500C0B2FFF78B
:10372000D3FB07F0FB00FFF7CFFBA87840EA0414B7
:1037300044F00105E8B2FFF7C7FB44F00500C0B252
:10374000FFF7C2FB05F0FB00FFF7BEFB5DF8040BC3
:10375000F0BD00009EB0FDF7A7FC00240120CDE9DC
:103760001944CDE91744149018904FF4E0104FF429
:1037700080314FF4003202251D9014A81591169245
:10378000CDE91B51FDF74AFE20B1EFF3108072B670
:10379000FEE700BF0F20CDE90E054FF48060CDE9B4
:1037A00011040EA802211094FDF726FD20B1EFF3BD
:1037B000108072B6FEE700BF41F21800C4F20200AA
:1037C000016840F6000941F0100101600168C4F28F
:1037D000010901F0100114911499016809F50066BE
:1037E00041F0200101600168002201F020011491E4
:1037F000149901684FF4005741F004010160016819
:10380000002401F0040114911499016841F00801A9
:10381000016000684FF4005100F008001490149803
:103820003046FDF727FC09F58065284645F2FC3156
:10383000002245F2FC3AFDF71DFC48464FF41941C1
:103840000022FDF717FC149714AF4FF0010B4FF057
:10385000020830463946CDE915B4CDF85C80FDF755
:1038600001FBF320CDE91404484639461694FDF7D0
:10387000F9FA28463946CDE914ABCDE91648FDF7EB
:10388000F1FA4FF41940CDE9140B48463946CDE919
:103890001648FDF7E7FA40F22C15C2F2000509F5CB
:1038A0001051284640F8141F48214FF6FF72179414
:1038B000CDE91544CDE90E44C0E90114C0E9032463
:1038C000C0E90544FEF78CF820B1EFF3108072B622
:1038D000FEE700BF4FF480501435149014A9284619
:1038E000FEF794F920B1EFF3108072B6FEE700BF47
:1038F0000EA92846FEF734F820B1EFF3108072B617
:10390000FEE700BF40F22C2009F54051C2F2000052
:1039100000240C264FF4E13280E81600C0E903448D
:10392000C0E90564C461FEF753FE28B1EFF31080CF
:1039300072B600BFFEE700BF40F27420A9F5444113
:10394000C2F200004FF4612280E81600C0E903448F
:10395000C0E90564C461FEF73BFE28B1EFF31080B7
:1039600072B600BFFEE700BF40F28C10A9F55041CF
:10397000C2F200004FF4827200244FF4007380E81A
:1039800016000A21C0E90344C0E90543C461C0E947
:103990000844C0E90A41FDF741FF28B1EFF3108068
:1039A00072B600BFFEE700BF40F2E410C2F20000B2
:1039B0004FF080414FF6FF731794CDE91544CDE9E0
:1039C0000E444FF4E15280E81600C0E903348461EC
:1039D000FEF706F820B1EFF3108072B6FEE700BFE5
:1039E0004FF48050149040F2E410C2F2000014A989
:1039F000FEF70CF920B1EFF3108072B6FEE700BFBE
:103A000040F2E416C2F200060EA93046FDF7A8FF08
:103A100020B1EFF3108072B6FEE700BF40F2BC2089
:103A2000A9F54041C2F2000000270C234FF4E13217
:103A300080E88600C0E90377C0E90537C761FEF773
:103A4000C7FD18B1EFF3108072B6FEE748F28C1490
:103A500040F2001A2846C4F22124C4F2212AFEF7BB
:103A600069F84FF0000B0125C4F824B0C4F82CB05D
:103A70006561A56065602560CAF8BC50CAF8B050A1
:103A8000CAF8AC50FFF740F940F2B007C2F20007A5
:103A90004FF002080FF60C600D210A22CAF8A05060
:103AA00087F80880FCF7B8FB40F22C20C2F2000037
:103AB0003946012287F80880FEF7BCFE40F27420E8
:103AC000F91CC2F200000122FEF7B4FE30684FF686
:103AD000DC71416230463E46FEF760F840F2000776
:103AE000C2F20007A56113E0F07A002804BF0120AC
:103AF000CAF8BC00B07B002804BF0120CAF8B0009F
:103B0000707C00284FF0010008BFCAF8AC00F074C8
:103B100048F28C11C4F2212151F8040CC04341F841
:103B2000040CBD780420307265F07F06F0B2FFF718
:103B3000CBF945F08400C0B2FFF7C6F906F0FB00F0
:103B4000FFF7C2F9BD7865F06F06F0B2FFF7BCF978
:103B500045F09400C0B2FFF7B7F906F0FB0040F261
:103B6000B004C2F20004FFF7AFF9617E0FF64450D3
:103B7000FCF752FB7878032800F0BA80022800F0A6
:103B80005581012840F0548340F2B00BC2F2000B83
:103B90009BF80B00012840F0B182BD78042065F04D
:103BA0007F068BF80800F0B2FFF78EF945F084002D
:103BB000C0B2FFF789F906F0FB00FFF785F940F284
:103BC0000000C2F2000087783846FFF77DF947F021
:103BD0000400FFF779F907F0FB00FFF775F947F6E6
:103BE000C410C0F60000FCF717FB40F20000C2F260
:103BF0000000857865F03F06F0B2FFF765F945F003
:103C0000C400C0B2FFF760F906F0FB00FFF75CF9F3
:103C100040F20000C2F2000087783846FFF754F9FE
:103C200047F00400FFF750F907F0FB0040F20007EF
:103C3000C2F20007FFF748F9DBF8281047F6F61044
:103C4000C0F60000FCF7E8FABD7865F06F06F0B248
:103C5000FFF73AF945F09400C0B2FFF735F906F0E6
:103C6000FB00FFF731F9BD7845F04006F0B2FFF7F1
:103C70002BF945F04400C0B2FFF726F906F0FB002F
:103C8000FFF722F9DBF8341047F6EB10C0F600001E
:103C9000FCF7C2FABD7865F02F06F0B2FFF714F911
:103CA00045F0D400C0B2FFF70FF906F0FB00FFF7B4
:103CB0000BF9BD7845F04006F0B2FFF705F945F085
:103CC0004400C0B2FFF700F906F0FB00FFF7FCF874
:103CD000DBF86C0003F0B0F9024647F6DC10C0F6E2
:103CE00000000B46DF210091FCF796FA9EE200BF30
:103CF000607C012840F04481BD78042065F07F0697
:103D00002072F0B2FFF7E0F845F08400C0B2FFF790
:103D1000DBF806F0FB00FFF7D7F840F20000C2F234
:103D2000000087783846FFF7CFF847F00400FFF728
:103D3000CBF807F0FB00FFF7C7F847F6D410C0F642
:103D40000000FCF769FA40F20000C2F2000085783A
:103D500065F03F06F0B2FFF7B7F845F0C400C0B217
:103D6000FFF7B2F806F0FB00FFF7AEF840F20000F4
:103D7000C2F2000087783846FFF7A6F847F0040043
:103D8000FFF7A2F807F0FB0040F20007C2F20007BD
:103D9000FFF79AF8616E47F6F610C0F60000FCF7E0
:103DA0003BFABD7865F06F06F0B2FFF78DF845F08D
:103DB0009400C0B2FFF788F806F0FB00FFF784F824
:103DC000BD7845F04006F0B2FFF77EF845F04400BC
:103DD000C0B2FFF779F806F0FB00FFF775F8A16EA7
:103DE00047F6EB10C0F60000FCF716FABD7865F058
:103DF0002F06F0B2FFF768F845F0D400C0B2FFF725
:103E000063F806F0FB00FFF75FF8BD7845F0400669
:103E1000F0B2FFF759F845F04400C0B2FFF754F88C
:103E200006F0FB00FFF750F8606D9CE0A07B0128D6
:103E300040F0CA80BD78042065F07F062072F0B2A1
:103E4000FFF742F845F08400C0B2FFF73DF806F0F6
:103E5000FB00FFF739F840F20000C2F2000087785B
:103E60003846FFF731F847F00400FFF72DF807F068
:103E7000FB00FFF729F847F6CC10C0F60000FCF76E
:103E8000CBF940F20000C2F20000857865F03F06F1
:103E9000F0B2FFF719F845F0C400C0B2FFF714F80C
:103EA00006F0FB00FFF710F840F20000C2F200003D
:103EB00087783846FFF708F847F00400FFF704F862
:103EC00007F0FB0040F20007C2F20007FEF7FCFF1C
:103ED000A16C47F6F610C0F60000FCF79DF9BD781E
:103EE00065F06F06F0B2FEF7EFFF45F09400C0B248
:103EF000FEF7EAFF06F0FB00FEF7E6FFBD7845F0AF
:103F00004006F0B2FEF7E0FF45F04400C0B2FEF715
:103F1000DBFF06F0FB00FEF7D7FFE16C47F6EB1086
:103F2000C0F60000FCF778F9BD7865F02F06F0B216
:103F3000FEF7CAFF45F0D400C0B2FEF7C5FF06F099
:103F4000FB00FEF7C1FFBD7845F04006F0B2FEF77A
:103F5000BBFF45F04400C0B2FEF7B6FF06F0FB0021
:103F6000FEF7B2FFE06B03F067F8024647F6DC109D
:103F7000C0F600000B46DF210091FCF74DF957E138
:103F8000BD7865F07F06F0B2FEF79EFF45F0840035
:103F9000C0B2FEF799FF06F0FB00FEF795FF40F276
:103FA0000000C2F2000087783846FEF78DFF47F028
:103FB0000400FEF789FF07F0FB00FEF785FF47F6D8
:103FC000D410C0F6000022E0BD7865F07F06F0B2A4
:103FD000FEF77AFF45F08400C0B2FEF775FF06F0E9
:103FE000FB00FEF771FF40F20000C2F2000087788C
:103FF0003846FEF769FF47F00400FEF765FF07F05B
:10400000FB00FEF761FF47F6CC10C0F60000FCF79E
:1040100003F940F20000C2F20000857865F03F0627
:10402000F0B2FEF751FF45F0C400C0B2FEF74CFFFE
:1040300006F0FB00FEF748FF40F20000C2F200006D
:1040400087783846FEF740FF47F00400FEF73CFF54
:1040500007F0FB0040F20007C2F20007FEF734FF52
:1040600047F6B614C0F600042046FCF7D5F8BD7834
:1040700065F06F06F0B2FEF727FF45F09400C0B27E
:10408000FEF722FF06F0FB00FEF71EFFBD7845F0AD
:104090004006F0B2FEF718FF45F04400C0B2FEF74C
:1040A00013FF06F0FB00FEF70FFF47F60120C0F6F6
:1040B0000000FCF7B1F8BD7865F02F06F0B2FEF70E
:1040C00003FF45F0D400C0B2FEF7FEFE06F0FB0091
:1040D000FEF7FAFEBD7845F04006F0B2FEF7F4FEBA
:1040E00045F04400C0B2FEF7EFFE06F0FB00FEF71D
:1040F000EBFE2046FCF790F89AE000BFBD7865F033
:104100007F06F0B2FEF7E0FE45F08400C0B2FEF795
:10411000DBFE06F0FB00FEF7D7FE40F20000C2F225
:10412000000087783846FEF7CFFE47F00400FEF720
:10413000CBFE07F0FB00FEF7C7FE47F6C410C0F643
:104140000000FCF769F840F20000C2F20000857838
:1041500065F03F06F0B2FEF7B7FE45F0C400C0B20E
:10416000FEF7B2FE06F0FB00FEF7AEFE40F20000E6
:10417000C2F2000087783846FEF7A6FE47F004003A
:10418000FEF7A2FE07F0FB0040F20007C2F20007B4
:10419000FEF79AFE47F6B614C0F600042046FCF778
:1041A0003BF8BD7865F06F06F0B2FEF78DFE45F086
:1041B0009400C0B2FEF788FE06F0FB00FEF784FE16
:1041C000BD7845F04006F0B2FEF77EFE45F04400B3
:1041D000C0B2FEF779FE06F0FB00FEF775FE47F66B
:1041E0000120C0F60000FCF717F8BD7865F02F0637
:1041F000F0B2FEF769FE45F0D400C0B2FEF764FEEF
:1042000006F0FB00FEF760FEBD7845F04006F0B218
:10421000FEF75AFE45F04400C0B2FEF755FE06F028
:10422000FB00FEF751FE2046FBF7F6FF4FF0000BB8
:10423000BD7865F07F06F0B2FEF746FE45F08400DB
:10424000C0B2FEF741FE06F0FB00FEF73DFEBD7872
:1042500065F01F06F0B2FEF737FE45F0E400C0B28D
:10426000FEF732FE06F0FB00FEF72EFE48F28C143D
:10427000C4F2212460690FF6202100280FF62020C7
:1042800008BF0846FBF7C8FFBD7865F03F06F0B2EF
:10429000FEF71AFE45F0C400C0B2FEF715FE06F0A8
:1042A000FB00FEF711FEBD7865F01F06F0B2FEF7C9
:1042B0000BFE45F0E400C0B2FEF706FE06F0FB0080
:1042C000FEF702FEA0680FF6E01100280FF6E010DE
:1042D00008BF0846FBF7A0FFBD7865F05F06F0B2A7
:1042E000FEF7F2FD45F0A400C0B2FEF7EDFD06F0CA
:1042F000FB00FEF7E9FDBD7845F02006F0B2FEF7C1
:10430000E3FD45F02400C0B2FEF7DEFD06F0FB0041
:10431000FEF7DAFD60680FF6A01100280FF6A01076
:1043200008BF0846FBF778FFBD7865F01F06F0B2BE
:10433000FEF7CAFD45F0E400C0B2FEF7C5FD06F089
:10434000FB00FEF7C1FDBD7845F02006F0B2FEF798
:10435000BBFD45F02400C0B2FEF7B6FD06F0FB0041
:10436000FEF7B2FD20680FF6601100280FF660100E
:1043700008BF0846FBF750FF40F2B006C2F2000645
:10438000F07D012840F08481B87948F2A06349F6B5
:10439000B065C0F20103CFF6AE75F97900FB0350AA
:1043A00042F2107B3A7A01FB0B004FF47A757B7A6C
:1043B00002FB0500B97A4FF0640803FB080001EB2B
:1043C0008101FA7A00EB41001044706202F0EEFFC6
:1043D0000021C4F2483103F065F84FF0565103F064
:1043E00061F80021CCF2482102F052FE797BF066A0
:1043F000387BBA7B01FB08F100FB051002EB82025F
:10440000F97B00EB420008444DF25001401AF06283
:1044100002F0CCFF01464CF20000C4F27F4002F0F3
:10442000CFFE0021CBF6807102F032FE0021C4F2F3
:10443000201103F037F8306302F0FEFD4EF248150C
:1044400044F2AE78C1F27A45C4F20D082A464346DA
:1044500002F0C8F801F066FA0B460021024600207F
:10446000C3F6F47102F0FAFC4CF6CD44CCF6CC4421
:104470004CF6CC432246C3F6DC7302F0B3F840F2AC
:104480000009C4F2240902460B460020494601F007
:10449000BBFA02F03DFA584528BF5846316BB0626E
:1044A000084602F0C9FD2A46434602F09BF801F097
:1044B00039FA0B464CF6CC4102462046C3F6F87159
:1044C00002F0CCFC45F6294242F6F503CCF28F22ED
:1044D000C3F6DC7302F086F802460B46002049461C
:1044E00001F092FA02F014FA584528BF58464FF0EE
:1044F000000B706386F817B0F07D022800F0CC80C6
:10450000F07D032840F0868197F82E0048F2A063E2
:1045100049F6B065C0F20103CFF6AE7597F82F10DB
:1045200000FB035042F2107897F8302001FB08009E
:104530004FF47A7597F8313002FB050097F8321086
:10454000642403FB040001EB810197F8332000EBA6
:1045500041001044306502F029FF0021C4F24831C7
:1045600002F0A0FF4FF0565102F09CFF0021CCF268
:10457000482102F08DFD97F83510706597F83400EA
:1045800097F83620614300FB051002EB820297F892
:10459000371000EB420008444DF25001401AF0651C
:1045A00002F004FF01464CF20000C4F27F4002F02A
:1045B00007FE0021CBF6807102F06AFD0021C4F2F3
:1045C000201102F06FFF306602F036FD4EF2481403
:1045D00044F2AE75C1F27A44C4F20D0522462B4670
:1045E00002F000F801F09EF90B460021024600207F
:1045F000C3F6F47102F032FC4CF6CD47CCF6CC4752
:104600004CF6CC433A46C3F6DC7301F0EBFF40F2C4
:104610000009C4F2240902460B460020494601F075
:10462000F3F902F075F9404528BF4046316E7066D7
:10463000084602F001FD22462B4601F0D3FF01F0AF
:1046400071F90B464CF6CC4102463846C3F6F87178
:1046500002F004FC45F6294242F6F503CCF28F2223
:10466000C3F6DC7301F0BEFF02460B46002049464C
:1046700001F0CAF902F04CF9404528BF4046B06647
:1046800086F817B0307F012800F0C78019E100BF1D
:10469000F07D02287FF434AFB87E48F2A06349F67B
:1046A000B065C0F20103CFF6AE75F97E00FB035092
:1046B00042F210783A7F01FB08004FF47A757B7F55
:1046C00002FB0500B97F642403FB040001EB8101B8
:1046D000FA7F00EB41001044B06302F067FE002156
:1046E000C4F2483102F0DEFE4FF0565102F0DAFE1D
:1046F0000021CCF2482102F0CBFC97F82110F063A6
:1047000097F8200097F82220614300FB051002EB88
:10471000820297F8231000EB420008444DF250014A
:10472000401A306402F042FE01464CF20000C4F22E
:104730007F4002F045FD0021CBF6807102F0A8FC1D
:104740000021C4F2201102F0ADFE706402F074FC8E
:104750004EF2481B44F2AE75C1F27A4BC4F20D051D
:104760005A462B4601F03EFF01F0DCF80B460021D3
:1047700002460020C3F6F47102F070FB4CF6CD4403
:10478000CCF6CC444CF6CC432246C3F6DC7301F0A5
:1047900029FF40F20009C4F2240902460B4600201A
:1047A000494601F031F902F0B3F8404528BF4046D0
:1047B000716CB064084602F03FFC5A462B464FF03D
:1047C000000B01F00FFF01F0ADF80B464CF6CC41A9
:1047D00002462046C3F6F87102F040FB45F6294236
:1047E00042F6F503CCF28F22C3F6DC7301F0FAFE39
:1047F00002460B460020494601F006F902F088F80F
:10480000404528BF4046F06486F817B0F07D032885
:104810003FF47AAE307F012853D1707F002850D00A
:10482000776D00213846C4F2182102F0B6FCE8B1D9
:10483000B16D384602F002FF4FF0804102F09FFC5C
:1048400000283ED100213846C4F2102102F097FC26
:10485000B8BBC82086F819B0A6F81CB086F81BB003
:1048600086F81AB0FCF7EAFA2BE000BF707E28B198
:10487000F07E08B30120707623E000BF01250220FE
:104880007576307240F2BC20F11DC2F200000122A8
:10489000FDF7D0FF0FF240400D210A223576FBF7DD
:1048A000BBFC0EE041542B434D47463D312563256B
:1048B0006300000025750000B07E002818BF86F850
:1048C00019B0307F002854D1706D0021C4F210213E
:1048D00002F063FC00284CD1012030777075022073
:1048E000307286F818B0DAF8A000F11DC043CAF89B
:1048F000A00040F2BC20C2F200000122FDF79AFFA6
:104900000FF2E830222122220D230A270097FBF71D
:1049100083FCB07D30B9B07D20B9B07D10B9B07DD9
:104920000028F6D040F2B001706DC2F20001D1E96A
:10493000195602F081FB024647F61620CDE90056D3
:1049400040F2B006C0F600000B461A21C2F2000683
:104950000291FBF761FC86F816B0776D00213846AE
:10496000C4F2102102F019FC002804BF0120707766
:10497000B76501203072DAF8000040F20007C2F299
:104980000007C8B90A20FCF759FADAF8000098B90C
:10499000DAF8000048B9DAF8000030B9DAF80000B7
:1049A00018B9DAF800000028F2D078780130C1B2E6
:1049B000032988BF01207870DAF8040058BB0A2068
:1049C000FCF73CFADAF8040028BBDAF8040048B92E
:1049D000DAF8040030B9DAF8040018B9DAF804009B
:1049E0000028F2D048F28C11C4F2212148695023EA
:1049F000C04348614869B179B0FA80F0400921F0BC
:104A000001010844B071C2B247F60E20C0F60000A2
:104A10005321FBF701FCDAF8100060BB0A20FCF719
:104A20000DFADAF8100030BBDAF8100048B9DAF8FD
:104A3000100030B9DAF8100018B9DAF810000028C0
:104A4000F2D048F28C11C4F2212188685023C0436F
:104A500088608868B179B0FA80F0400921F00201DD
:104A600041EA4000B071C2B247F60E20C0F6000025
:104A70005321FBF7D1FBDAF8140060BB0A20FCF7E6
:104A8000DDF9DAF8140030BBDAF8140048B9DAF8C6
:104A9000140030B9DAF8140018B9DAF81400002854
:104AA000F2D048F28C11C4F2212148685023C0434F
:104AB00048604868B179B0FA80F0400921F00401FB
:104AC00041EA8000B071C2B247F60E20C0F6000085
:104AD0005321FBF7A1FBDAF8180060BB0A20FCF7B2
:104AE000ADF9DAF8180030BBDAF8180048B9DAF88E
:104AF000180030B9DAF8180018B9DAF818000028E8
:104B0000F2D048F28C11C4F2212108685023C0432E
:104B100008600868B179B0FA80F0400921F0080116
:104B200041EAC000B071C2B247F60E20C0F60000E4
:104B30005321FBF771FBDAF81C0018BB0A20FCF7C5
:104B40007DF9DAF81C00E8B9DAF81C0048B9DAF89F
:104B50001C0030B9DAF81C0018B9DAF81C0000287B
:104B6000F2D048F28C11C4F2212188695023C0434D
:104B7000886188695321B0FA80F0420962A0727599
:104B8000FBF74AFBB079012248F28C1322EA0001BC
:104B9000C4F22123596100F0020182EA51019960B7
:104BA00000F0040100F0080082EA910182EAD000DE
:104BB00059601860707D47F6D501B0FA80F0400961
:104BC0009861306AC2F2E9610130414342F2DD424C
:104BD0004FEA7101C0F20612914230623ED8F06E87
:104BE00002F02AFA80460D91F06BB16CD6F828B02D
:104BF000D6F834900C9102F01FFA54468246706D3C
:104C0000F76C0E4602F018FA40F2B002C2F200024F
:104C1000936E526E0D4650210A910C99CDE90823EE
:104C2000069047F65F200D9B039640F2B006049174
:104C3000059740F20007C0F6000053214246CDE937
:104C400000B9CDF808A0A246C2F200064FF0000B52
:104C5000C2F200070795FBF7DFFA306A4CF6CD4148
:104C6000CCF6CC41484349F699114FEA7000C1F6A1
:104C7000991188423EF64CAFF07C00283EF434AFE8
:104C800001287EF445AF0020CAF8BC00CAF8B00085
:104C9000CAF8AC00FEF73BBF44313A204F4E00004B
:104CA00044313A4F4646000044323A204F4E00000D
:104CB00044323A4F4646000044333A204F4E0000FB
:104CC00044333A4F4646000044343A204F4E0000E9
:104CD00044343A4F46460000415444303836383365
:104CE00039303434323B25632563000041542B4373
:104CF0004D47533D256330383638333930343432FC
:104D0000256325632563000025635725632563001C
:104D10005FEA400C08BF91F0000F4FEA8C234FEA86
:104D2000C12243EA51514FEA1C5018BF00F5F04030
:104D30004FEA300018BF41F000415FEA6C5C00F0C0
:104D40002980BCF1FF3F08BF40F080407047130C42
:104D500006BF12044FF0100C4FF0000C130E04BFEE
:104D600012020CF1080C130F04BF12010CF1040C19
:104D7000930F04BF92000CF1020CD30F04BF52003A
:104D80000CF1010C11464FF00002A0F11F00A0EB46
:104D90000C00704711F0004F08BF704731F0004120
:104DA0003FF4D5AF0B0C06BF09044FF0100C4FF0C9
:104DB000000C0B0E04BF09020CF1080C0B0F04BF12
:104DC00009010CF1040C8B0F04BF89000CF1020CDB
:104DD000CB0F04BF49000CF1010CCCF1200322FAE7
:104DE00003F341EA030102FA0CF2A0EB0C0000F11C
:104DF0000100704723F07F4720F07F4C80EA0300DA
:104E000000F00040ACEB070303F57C5303F1FF0314
:104E10002DE9804909B44FEA144324EA03484FEAD4
:104E2000154B25EA0B4E0FF2042606EB13273E78AE
:104E300003FB0667C7F5000707FB06F64FEAD646F1
:104E400006F102064FEA543707FB066CCCF1005C12
:104E50004FEA1C472CEA074C0CFB06F507FB06F44F
:104E600004EB15464FEA961649085FEA320234BF52
:104E700000204FF000404FEAD13706FB07FC4FEA15
:104E80001C4C0CFB0BF7D21B03FB0CF761EB07016F
:104E90000CFB0EF7B0EB074072EB17420CFB08F768
:104EA00034BFA2EB0742B2EB074261EB17414FEA76
:104EB0000C444FEA910706FB07FC4FEA1C4C0CFB25
:104EC0000BF7B0EBC74072EB573203FB0CF734BF64
:104ED000A2EBC742B2EBC74261EB57310CFB0EF7B6
:104EE000B0EBC70072EB57720CFB08F734BFA2EBB4
:104EF000C702B2EBC70261EB57714FEA816141EA29
:104F000092114FEA826242EA90124FEA806004EB0B
:104F1000CC04039F4FEAD13706FB07FC4FEA1C4C39
:104F20000CFB0BF7D21B03FB0CF761EB07010CFB2F
:104F30000EF7B0EB074072EB17420CFB08F734BFDB
:104F4000A2EB0742B2EB074261EB17414FEA8C55E7
:104F500004EB9C244FEA910706FB07FC4FEA1C4C2C
:104F60000CFB0BF7B0EBC74072EB573203FB0CF7AF
:104F700034BFA2EBC742B2EBC74261EB57310CFB27
:104F80000EF7B0EBC70072EB57720CFB08F734BF9B
:104F9000A2EBC702B2EBC70261EB57714FEA816126
:104FA00041EA92114FEA826242EA90124FEA80602F
:104FB00015EB4C2544F100044FEAD13706FB07FC02
:104FC0004FEA1C4C0CFB0BF7D21B03FB0CF761EBFD
:104FD00007010CFB0EF7B0EB074072EB17420CFB1E
:104FE00008F734BFA2EB0742B2EB074261EB17416F
:104FF0004FEA813141EA92414FEA823242EA9042DD
:105000004FEA80304FEA0C7615EB1C1544F1000492
:1050100048EA03434EEA0B484FF0000EB2EB080C8F
:1050200071EB030724BF624639464EEB0E0E4FF07C
:10503000000B0018524149414BEB0B0BB2EB080C33
:1050400071EB03077BF1000B24BF624639464EEB40
:105050000E0E4FF0000B0018524149414BEB0B0B69
:10506000B2EB080C71EB03077BF1000B24BF624627
:1050700039464EEB0E0E51EA020718BF46F0010604
:1050800016EB0E7655F1000254F1000103D5BDE890
:105090008901BDE80088BDE88901BDE80048B6196E
:1050A000524141EB0101A3F10103704780807F7EF3
:1050B0007D7C7B7A7978777676757473727171708E
:1050C0006F6E6E6D6C6C6B6A6A6968686766666540
:1050D0006464636362616160605F5F5E5E5D5D5CCE
:1050E0005C5B5B5A5A59595858575756565555553F
:1050F0005454535352525251515050504F4F4F4E9F
:105100004E4D4D4D4C4C4C4B4B4B4A4A4A494949EC
:10511000484848474747474646464545454444442E
:105120004443434343424242424141419C46002B57
:1051300030D477002BD04FEA37071CB503B44FF0BB
:1051400010004FF01001BAF1000F06D0BCF1000FB3
:10515000DCBF40F0080040F008014FF000000FBC39
:10516000BDE810400BF1010BBBF1010F08BF5FEA76
:10517000170722BF12F1010211F101014FF00041A6
:1051800043F1000300F0004043EA00007047F9D308
:105190005708D0E746EA06464FEA164613F1400F95
:1051A0001FDD13F1200FDFBF16430A460021203315
:1051B0005B42BED0C3F1200746EA06464FEA1646D8
:1051C00002FA07F746EA070622FA03F2C3F12007BC
:1051D00001FA07F742EA070221FA03F14FF0000350
:1051E000A7E746EA020646EA06464FEA164646EAB8
:1051F0000106BCBF46EA0646360C4FF000034FF0EE
:1052000000024FF0000194E72DE9804C70B49A46FB
:10521000934691E8380007C831EA400C48BF34EAA9
:10522000430C03D5FFF7E6FDFFF780FFF0BCBDE8B8
:10523000008C2DE9804C70B49A46934691E8380072
:1052400007C810F0804F08BF13F0804F03D100F063
:1052500005F8FFF76BFFF0BCBDE8008C20F07F473E
:1052600023F07F4C80EA030000F0004007EB0C03C2
:10527000A3F57C53A3F1FE0392F0000F00F0B3807E
:1052800095F0000F00F077802DE901494FEA1140B9
:1052900021EA00484FEA144624EA064700FB06FCD0
:1052A00008FB06F607FB08F818EB06484CEB164C13
:1052B00000FB07F718EB07484CEB17404FEA124B7F
:1052C00022EA0B4E4FEA154625EA06470BFB06FC81
:1052D0000EFB06F607FB0EFE1EEB064E4CEB164CC5
:1052E0000BFB07F71EEB074E4CEB174B18EB0B08AD
:1052F00040F1000018EB0E0B58EB000840F10000E5
:105300008F1A4FF000014FF000063CBFC943661BE7
:1053100014BFB5EB040C00213CBFC943F61B4FEA98
:10532000174427EA04454FEA1C472CEA074C04FBC4
:10533000076205FB07F70CFB05F616EB074642EB89
:10534000174204FB0CFC16EB0C4642EB1C421BEB19
:10535000060658EB020241414EEA8E0E46EA9E06D0
:1053600001D5BDE80189B619524141EB0101A3F114
:105370000103BDE801894FEA144524EA05464FEAD6
:10538000114721EA074C05FB07F406FB07F70CFB66
:1053900006F111EB074144EB174405FB0CFC11EB44
:1053A0000C4144EB1C444FEA124722EA074C05FB30
:1053B00007F206FB07F70CFB06F616EB074642EB77
:1053C000174205FB0CFC16EB0C4642EB1C456A1819
:1053D00054F1000148BF7047B619524141EB010139
:1053E000A3F10103704795F0000F37D04FEA114247
:1053F00021EA02464FEA144724EA074C02FB07F170
:1054000006FB07F70CFB06F414EB074441EB1741CE
:1054100002FB0CFC14EB0C4441EB1C414FEA15471A
:1054200025EA074C02FB07F506FB07F70CFB06F61F
:1054300016EB074645EB174502FB0CFC16EB0C463A
:1054400045EB1C42121951F1000148BF7047B619D3
:10545000524141EB0101A3F1010370474FEA1445AA
:1054600024EA05464FEA114721EA074C05FB07F1FC
:1054700006FB07F70CFB06F212EB074241EB174164
:1054800005FB0CFC12EB0C4251EB1C414FF00006EB
:1054900048BF7047921841EB0101A3F10103704727
:1054A000490050EAC12018BF04204A0D18BF40F03F
:1054B000010040F2FF72B2EB515F08BF40F0020002
:1054C000012808BF052070472DE9F0414F1E00EB71
:1054D000C7010446D1E9000115461E4637F0060211
:1054E0000DD02A46334601F093FA7F1E04EBC70322
:1054F000D3E9002300F0BAFF37F00602F1D1022F02
:1055000025D0042F13D0062F18BFBDE8F0812A46FE
:10551000334601F07DFAD4E90A2300F0A7FF2A46BA
:10552000334601F075FAD4E9082300F09FFF2A46BC
:10553000334601F06DFAD4E9062300F097FF2A46BE
:10554000334601F065FAD4E9042300F08FFF2A46C0
:10555000334601F05DFAD4E9022300F087FF2A46C2
:10556000334601F055FAD4E90023BDE8F04100F0DC
:105570007DBF0000002213461046014901F032B8F9
:105580000000F03F012202F002B900F06FBF0022DC
:1055900013461046114601F025B840F201320020B2
:1055A0004FF0E04102F0F3B8024A0020110702F088
:1055B000EEB8000001FDFFFF30380A2801D20120BB
:1055C00070470020704700002DE9F04DC84A0024C4
:1055D00090B0914205DA21F00043934201D805D101
:1055E00020B110B0BDE8F04DFFF7CCBFB1F5801F82
:1055F0001BDA53EA000209D0002911DA0120FAF778
:105600006FFF10B0BDE8F04DFFF7C1BF0220FAF701
:1056100067FFFFF7AFFF10B081F00041BDE8F08DEC
:105620006FF03504362202F0B2F804EB2152C1F3D8
:105630001308B049A2F2FF33414401F4801282F012
:105640007F6103EB225281F04051009241EA080150
:105650000022A94B01F002FC044608F10200A74E0B
:10566000C0F313000D467E44032867D2D6E9002319
:10567000204601F011F91ED10098002802BFD6E99A
:10568000000110B0BDE8F08D01F06FF907460C463F
:105690009B4A9C4B01F0BCF906460D469A4A9B4B2F
:1056A0003846214601F0B4F910B032462B46BDE829
:1056B000F04D00F0DBBE4FF05532954B20462946A9
:1056C00001F0A6F90022934B01F0D6FA06460F46E8
:1056D00022462B461046194601F09AF932463B46BF
:1056E00001F096F9064600980F46F0B101F03DF939
:1056F00080468A46824A834B01F08AF932463B460D
:1057000001F0BAFA22462B4601F0A8FB05460C46EA
:105710007D4A7E4B4046514601F07AF910B02A4648
:105720002346BDE8F04D01F099BB0B4610B0324660
:1057300020462946BDE8F04D01F090BB00224FF015
:105740008043204600F092FE02460B462046294642
:1057500000F048FF06460F46009801F006F9CDE933
:10576000040132463B461046394601F051F90C908F
:1057700069480C9A4044019009910B46104601F08B
:1057800047F98246024665488B46C8F151080B46E8
:1057900008F5D72803217844FFF796FE52465B466A
:1057A00001F036F90A905E480D9152465B4604219D
:1057B0007844FFF789FE099B0C9A01F029F9844689
:1057C00001980D9B40EA080860460A9A00F04EFED8
:1057D00083460891B8F1000F4EDD4FF0FF322046AE
:1057E000294601F0D4FF22462B4601F011F98046EC
:1057F00000988A4660B3DDE90401414A414B01F05B
:1058000007F9099100905A4640465146089B00F01E
:105810002DFE32463B4601F0FBF8099B009A00F052
:1058200025FE4246534601F027FA22462B4601F058
:1058300015FB04460D46DDE90401334A334B01F004
:10584000E7F810B022462B46BDE8F04D01F006BB4C
:105850005A464046089B00F009FE32463B4601F09E
:10586000D7F84246534601F007FA10B022462B46BD
:10587000BDE8F04D01F000BA009840B3DDE9040145
:105880001F4A204B01F0C4F880468A465A462046FB
:105890002946089B01F0E2FA32463B4601F0B8F88F
:1058A0004246534601F0DAFA22462B4601F0D6FA78
:1058B00004460D46DDE90401134A144B01F0A8F833
:1058C00010B022462B46BDE8F04D01F0C7BA0B469A
:1058D0005A462046294601F0C1FA32463B4601F0BD
:1058E00097F810B022462B46BDE8F04D01F0C4B940
:1058F0000000F07F645F09000000F03F8622000096
:10590000763C7935EF39EA3D0000E0FE422EE63F75
:105910005555D53F0000E03F86EBF9FF1E21000002
:105920001C2100002DE9F041044630480025814249
:1059300005DA21F00042824201D805D124B1204687
:10594000BDE8F041FFF71EBEB1F5801F1BDA52EA39
:10595000040008D000290FDA0120FAF7C1FDBDE8E4
:10596000F041FFF714BE0220FAF7BAFDFFF702FE7E
:1059700081F00041BDE8F0816FF035053622204608
:1059800001F005FF044605EB2150A0F2FF32D00FD5
:1059900040F2FF331B1A0D4663F31F55104400F00D
:1059A000E4FF06460F4629462046FFF70DFE104A43
:1059B000104B01F02DF804460D460F4A0F4B3046B0
:1059C000394601F025F822462B4600F04FFD0546EA
:1059D0000C460B4A0B4B3046394601F019F82A4663
:1059E0002346BDE8F04100F041BD00000000F07F1B
:1059F0000EE526157BCBDB3F362BF111F3FE593D2F
:105A000000609F501344D33F2DE9F04D1D460C46D6
:105A100094B0174621F0004123F00043002814BF42
:105A20004FF0010C4FF0000C0CEB440CFB4A0CEB5C
:105A300002064FEA620C66452BD33E0018BF0126D2
:105A400006EB45061644F64A964222D3F54A53EA37
:105A5000070C02D0944205D148B914B00020114679
:105A6000BDE8F08D002808BF4FF0000C01D04FF0CA
:105A7000010C0CEB440212F5001F0AD8002F14BFD2
:105A80004FF0010C4FF0000C0CEB450212F5001F1B
:105A900007D914B03A462B462146BDE8F04DFFF732
:105AA00074BD0022DFF880A3002CB8BF534526DA6E
:105AB000DFF878C36345A8BF022220DADFF864C3A9
:105AC0009C451CDCDFF868C30CEB235CBCF1140FB5
:105AD00008DDCCF1340627FA06FC0CFA06F6BE42C5
