:020000040800F2
:10000000800900200D02000891340008D532000854
:100010008D3400087D0F0008813C000800000000BE
:100020000000000000000000000000002D3B000860
:10003000810F00080000000095340008313B0008E3
:1000400027020008270200082702000827020008EC
:1000500027020008270200082702000827020008DC
:1000600027020008270200082702000827020008CC
:1000700027020008270200082702000827020008BC
:1000800027020008270200082702000827020008AC
:10009000270200082702000827020008270200089C
:1000A000270200082702000827020008270200088C
:1000B000393B0008453B00082702000827020008DA
:1000C000270200082702000827020008270200086C
:1000D000270200085D3C0008693C0008753C0008E8
:1000E00027020008270200082702000800F002F893
:1000F00000F07DF814A696E8000CB244B344DA454B
:1001000001D100F074F8BAE80F000FA696E83000AD
:10011000A5EB040504EB0607AAEB0704A7F101070A
:100120004FEA15154FEA3414A4F10104AC4201D38F
:1001300000F05DF813F0010F18BFFB1A43F0010344
:1001400000F001F8DBE71847F8850000188600008A
:10015000103A24BF78C878C1FAD8520724BF30C8F3
:1001600030C144BF04680C60704700007047000055
:100170000023002400250026103A28BF78C1FBD8B0
:10018000520728BF30C148BF0B607047662908F08E
:100190007E80692900F0C880642900F0C580752937
:1001A00000F0C2806F2900F05981782900F0808129
:1001B0000368DB0928BF41F08001632900F0E78470
:1001C000E32900F00D85002070471FB500F040FDC9
:1001D00004000020002106F0E7FE401C60600020C3
:1001E000002106F0CBFEE0601FBD10B510BD00F091
:1001F0004FFE1146FFF7E9FF03F09AFD00F06DFE98
:1002000003B4FFF7F2FF03BC00F0B0FE09488047DB
:1002100009480047FEE7FEE7FEE7FEE7FEE7FEE7E8
:10022000FEE7FEE7FEE7FEE704480549054A064B00
:1002300070470000353B0008ED00000880030020F7
:100240008009002080050020800500200FB40449AB
:1002500010B503AA029800F0A7FC10BC5DF814FBCF
:10026000B801002070B5044685690068C10601D553
:10027000302600E02026C00707D070BDD4E9012158
:1002800030469047206A401C20626D1EF6D570BD36
:1002900070B5044685690078C00707D170BDD4E900
:1002A000012120209047206A401C20626D1EF6D557
:1002B00070BD09684A0501D540B27047C905FCD533
:1002C00000B2704709684A0501D5C0B27047C90538
:1002D000FCD580B2704770B50C460546012A05D0A2
:1002E0002878800600D5EA69002302E0012305E0B2
:1002F0005B1C934202D2E05C0028F9D1A869E618A1
:10030000C01AA861286A184428622846FFF7AAFF85
:1003100004E0D5E9012114F8010B9047B442F8D369
:100320002846FFF7B5FF70BD2DE9F04106460024D1
:1003300010687529314616A510D0FFF7BAFF0028BE
:1003400002DA404213A507E031688A0701D512A5F9
:1003500002E0490704D511A5012401E0FFF7B2FF2F
:1003600000210A2206F1240709E0B0FBF2FCB0FBF1
:10037000F2F302FB1C00303078541846491C002868
:10038000F3D123462A463046BDE8F04100F08EB94D
:10039000000000002D0000002B00000020000000E5
:1003A0002DE9FF5F15468A460446DFF8AC80F84425
:1003B0000027D8E900103E46CDE9001010E03AF8D9
:1003C00016106A4602A800F017FC411C07D02178DD
:1003D000890603D5E269391891420DD80744761C85
:1003E0002078800602D5E069B84205DDAE42E6DB42
:1003F0003AF816000028E2D1A069C01BA06120468F
:10040000FFF730FFD8E90010CDE90010002017E019
:100410003AF818106A4602A800F0EEFBB0F1FF3F70
:1004200081460BD000250DF1080B05E0D4E9012130
:100430001BF8050090476D1C4D45F7D308F10100EE
:10044000B0428046E4DB206A384420622046FFF751
:100450001FFFBDE8FF9F0000D27F000070B504467B
:1004600021461068FFF72EFF002104F1240505E066
:1004700000F007023032C0086A54491C0028F7D146
:100480002068002308A2050708D500F020000843D3
:1004900004D0E069012305A2401EE0612046BDE8CA
:1004A000704000F003B900000000000030000000C0
:1004B00070B504460D4621461068FFF703FF2188FA
:1004C000090502D50F4A7A4402E00E4A7A440E32F8
:1004D000002104F1240305E000F00F060009965DF9
:1004E0005E54491C0028F7D120780023000704D56A
:1004F000702D02D009B1022311322046BDE87040B0
:1005000000F0D4B8C27E00002DE9F05F89460446B1
:100510004FF0000ADFF874B1FB44C0F820A0204679
:10052000E1688847002874D0252806D0D4E9012145
:100530009047206A401C2062F1E700265F46204673
:10054000E16888472028054607DB312D05D2781958
:1005500010F8200C08B10643F1E7B00701D526F0EA
:100560000406C4F81CA00027C4F818A02A2D09D03E
:10057000284605F0BFFD38B304EB8708303DC8F8C6
:10058000185019E059F8041B204604EB87029161CA
:10059000E1688847012F054618D1E069002820DA74
:1005A00026F020061DE0D8F8180000EB800005EBCF
:1005B00040003038C8F818002046E16888470546F2
:1005C00005F098FD0028EED1012F0AD02E2D08D17C
:1005D0002046E16888477F1C0546022F46F020062A
:1005E000C4DBA069002803DA404246F00106A0619E
:1005F000F00701D026F010066C2D0BD0682D09D025
:100600004C2D39D06A2D35D0742D35D07A2D33D07C
:1006100016E038E0E1682F4620468847B842054694
:1006200009D16C2F26D04FF48060E1680643204644
:100630008847054604E06C2F1AD04FF480700643BB
:100640000DB3A5F14100192802D8203546F4006603
:100650004A462946204626604E46FFF797FD80B160
:1006600001280BD0F61D26F0070000F1080956E717
:100670004020E4E78020D8E70020D6E706F104090F
:100680004DE7284652E7206ABDE8F09F987E0000BB
:1006900070477047704710B500F0DEFA006810BD73
:1006A00010B5044600F0D8FA046010BD2DE9F047FB
:1006B0000D4699469246044600F1240801688806D2
:1006C00004D5E06921F01001216000E00120A8427A
:1006D00001DD471B00E00027A1697A1902EB090040
:1006E000081AA0612078C00602D42046FFF7BAFDA0
:1006F000002608E0D4E901211AF806009047206A94
:10070000401C761C20624E45F4DB2078C0060AD5DA
:100710002046FFF7A7FD06E0D4E9012130209047ED
:10072000206A401C2062381EA7F10107F4DC07E0B4
:10073000D4E9012118F805009047206A401C206286
:10074000281EA5F10105F3DC2046FFF7A1FD207866
:10075000000602D50220BDE8F0870120FBE72DE965
:10076000FF4F0C461E464FF0FF378BB0D2E9000119
:10077000DDF860800A908A46C1F30A5505B93D4606
:10078000002108464FF00000BAF1000F00F44000CD
:1007900005DA00EB80004FF4400101EA50004FEA17
:1007A0009059B9F1010F00DDB9460A9850EA4A00A4
:1007B0000ED044F61050A5F2FF3545432F14B8F182
:1007C000000F1ED07542291E1EDDC9F100021CE07B
:1007D000B8F1010F4FF0000001D0302103E0F243E7
:1007E00005E02154401CB042FBDB304600220021D2
:1007F00021540B99C1F80880C1E900200FB0BDE871
:10080000F08FBD1B6D1CDEE74A4600DA694206A880
:1008100000F0C4FA06AB93E8070003AB83E80700D7
:1008200050460A9905F012F88DE80700A0F500502F
:100830001F3800900398002D0ADD42F21F014A463E
:100840000844002303A90390684605F07BFA09E0F9
:10085000A0F500504A461F38002303A903906846BC
:1008600005F085FA8DE807000004000C03D04FF076
:10087000FF30410800E01046B8F1000F03D000221D
:10088000009215461EE0751E05D400F0E9F93032DD
:1008900062556D1EF9D5B3460122084302D00022ED
:1008A0007F1C04E02078302801D100227F1E002A1E
:1008B000099784D01DE0112D07DA00F0D1F930320C
:1008C00062556D1C50EA0102F5D1084302D0009830
:1008D000C8B10EE00021681E05E0235C625C635431
:1008E0002254401E491C8142F7DBAB46A81B401E28
:1008F0000990002004F80B000B98099AC0F80880B2
:10090000C0E9002B7AE711264FF0000857E72DE9E0
:10091000F04F88460446D21D22F0070191B0D1E97C
:100920000001CDE90A0105F059FB02460B98C00F02
:1009300001D02D2007E02068810701D52B2002E09F
:10094000202101EAC000032A099001D0072A05DB13
:1009500003464146204600F0E1F90BE1207880068D
:1009600001D5E06900E00620B8F1650F814606D0A8
:10097000B8F1660F18D0B8F1670F70D131E00020E0
:10098000B9F1110F009001DB112301E009F101031E
:100990000AAA01A90CA8FFF7E2FEDDE90C70002607
:1009A00009F10105834647E001204B4600904FF0D6
:1009B00000470AAA01A90CA8FFF7D1FEDDE90DB096
:1009C0000C995D46002610B909F101000D18B9EB2C
:1009D000050003D4C0F1FF3609F10105A5EB0900BC
:1009E0002BE0B9F1010F01DA4FF001090020B9F154
:1009F000110F0090484601DD112300E003460AAACA
:100A000001A90CA8FFF7ABFEDDE90C704D460026EE
:100A10008346207800070AD4AB4500DA5D4601A87A
:100A2000012D04DD411911F8011C302907D04F4573
:100A300002DA17F1040F04DA012082460FE06D1E7E
:100A4000EEE7002F02DCED1B3E4403E0781CA842D9
:100A500000DD7D1CB81B00F1010A4FF00047207833
:100A6000000703D4AA4501DB4FF0FF3A0021B7F19C
:100A7000004F0DF143088DF8431024D002202B23A2
:100A8000002F01DA7F422D230A21021EA0F101006E
:100A900000DC5FB197FBF1FC97FBF1F201FB1C7CE2
:100AA00017460CF1300C08F801CDEEE7A8F1010073
:100AB00003702188090501D5452100E06521A0F1D9
:100AC000010800F8011C09980FA9A1EB0807FF1DF8
:100AD00000B10120411901EBEA70A1693844081AFC
:100AE000401EA0612078C00602D42046FFF7BAFB62
:100AF000099828B1D4E901219047206A401C20625E
:100B00002078C00622D52046FFF7ACFB1EE0002E61
:100B100004DBB34502DD01A8805D00E03020D4E9AC
:100B200001219047206A401C2062761CAAF1010036
:100B30005FEA000A0AD100F08BF8C0680168405CE7
:100B4000D4E901219047206A401C2062281EA5F1AB
:100B50000105DCDC07E0D4E9012118F8010B90471E
:100B6000206A401C2062381EA7F10107F3DC2046F2
:100B7000FFF78EFB032011B041E610B5436913B1B6
:100B8000AFF3008001E0FFF7A6FB012010BD127853
:100B900000F124010A7000224A700122EDE7116879
:100BA0004FF0FF32E9E70000074B70B50D467B447C
:100BB00000F0A1F80446284600F062F910B14FF0A9
:100BC000FF3070BD204670BDD330000010B54369C2
:100BD00013B1AFF3008001E0FFF7E2FB012010BD8D
:100BE000128800F1240182840022C2840122EDE7F0
:100BF00011684FF0FF32E9E72DE9F04116460C4647
:100C0000054600F01DF8036893F80101012807D09C
:100C1000FF2C12D8185D80B101202C70BDE8F08146
:100C2000D3F807013246214603F20713C7182846B6
:100C3000BC46BDE8F041002360474FF0FF30EDE7D0
:100C400010B500F005F8001D10BD00BF5D63000089
:100C50000048704788000020004870476800002066
:100C600030B5B0F10A0271F100034FEA900E4EEA7E
:100C7000817EB0EB0E0061EB91014FEA101E4EEA4F
:100C8000017E10EB0E0041EB11114FEA102E4EEADF
:100C9000016E10EB0E0041EB11214FEA104E4EEAAF
:100CA000014E10EB0E0041EB1141401841F10001E3
:100CB0004FEAD00040EA41704FEAD1014FEA810487
:100CC00044EA907410EB800544EB01046D1944EB89
:100CD0000404521BA3414FF0000348BF0A3200D561
:100CE00030BD401C41F1000130BD000001694A1CCB
:100CF00002610878704700B58FB0CDE9013100215D
:100D0000059105497944CDE9031011466846FFF77E
:100D1000FBFB0FB000BD0000E5FFFFFF2DE9F04138
:100D20001F46044603260168072A01F4006004DB1D
:100D300008B116A505E016A503E008B115A500E069
:100D400015A521F010002060A069C01EA0610FB1A0
:100D5000401EA0612046FFF785FA4FB1D4E901217A
:100D600038469047206A401C2062C01C206206E082
:100D7000206AFAE7D4E9012115F8010B9047761EA5
:100D8000F8D22046FFF784FABDE8F0814E414E00CC
:100D90006E616E00494E4600696E66002DE9F047AF
:100DA000814616468AB0354878440DC88DE80D0056
:100DB00032487844801C03AC0DC884E80D0041F62D
:100DC0009B300844372190FBF1F290FBF1F5A5F13F
:100DD000800501FB12041B3C02D56442012000E0A7
:100DE0000020DFF898A080460027FA44AAF1BE0A46
:100DF0000EE0E0070AD03246684607EB47010123C0
:100E00000AEB810104F0B3FF8DE8070064107F1C3A
:100E1000002CEED1194F7F44AE3F19E0E80715D002
:100E200007EB04100DF1180A90E80E008AE80E0096
:100E3000C068F04201D1981908903246012306A9F2
:100E400003A804F094FF03AB83E807006D10641C53
:100E5000002DE3D14FF0010332466946B8F1000F8F
:100E600003A802D004F06EFF01E004F080FFC9E99E
:100E70000001C9F808200AB0BDE8F08760770000DB
:100E8000007B00F080007047004870476800002039
:100E90007546FFF7F9FFAE4605006946534620F058
:100EA0000700854618B020B5FFF7BEF9BDE8204021
:100EB0004FF000064FF000074FF000084FF0000B16
:100EC000AC46ACE8C009ACE8C009ACE8C009ACE885
:100ED000C00921F007018D46704710B50446AFF3F5
:100EE00000802046BDE81040FFF78AB94FF0013C72
:100EF00050F8042B51F8043B9A4221D1A2EB0C0389
:100F0000934313EACC1317D150F8042B51F8043B48
:100F10009A4215D1A2EB0C03934313EACC130BD1E5
:100F200050F8042B51F8043B9A4209D1A2EB0C0370
:100F3000934313EACC13DBD04FF00000704700BF9F
:100F4000D01A01BAB1FA81F101F0180122FA01F0C8
:100F5000CB40DBB2C0B2C01AC1F120012CFA01F3C0
:100F6000D11A914311EAC311E6D170470149182003
:100F7000ABBEFEE72600020070470000FEE700005F
:100F800070470000014690F82100022816D1086839
:100F9000D1E90FC3026822F00E020260026822F05B
:100FA00001020260012000FA03F2CCF8042081F86B
:100FB00021000020002281F820207047042088634F
:100FC0000120002281F820207047000090F82110B5
:100FD000022923D10268116821F00E0111602F212E
:100FE0001368C4F202018A4240F20401C4F2020111
:100FF00023F00103136015DD3023C4F202039A428B
:101000001CD04423C4F202039A421BD05823C4F2DA
:1010100002039A421CD14FF4803321E00421816302
:10102000012070470823C4F202039A420ED01C2309
:10103000C4F202039A420BD1102311E04FF48073E3
:101040000EE000BF4FF480530AE000BF012307E029
:1010500001F1680C4FF08073624508BF4FF48013B4
:101060000B60012180F82110426B002180F82010D4
:1010700022B180B590470021BDE880400846704706
:10108000B0B5044600F01EF9054640F25800C2F221
:1010900000000078611C18BF044400BF00F012F982
:1010A000401BA042FAD3B0BD2DE9F04F82B00E68CC
:1010B000002E00F0FD8041F20042C4F20102042340
:1010C00040F2004E904208BF03234FF6FF7CC4F26B
:1010D000010E009300240123C1F2100C4FF0000A0E
:1010E0004FF0000944E000BF012704F00C030F2279
:1010F0009A402BEA020207FA03F34FEA9A051A43D1
:1011000046F825204E6840F20C45F202DEF8082031
:1011100054BF22EA080242EA0802C4F20105CEF8EE
:1011200008202A68B30254BF22EA080242EA0802F1
:101130002A60B303DEF8042054BF22EA080242EA20
:101140000802F303CEF80420DEF800204FF001037C
:1011500054BF22EA080242EA0802CEF800200E68D4
:101160000AF1010A36FA0AF204F1040400F0A08040
:1011700003FA0AFB16EA0B08F1D04E68664511DC4B
:10118000122E55D8DFE806F0340A4448545454541B
:101190005454545454545454544C5000D1F80C905A
:1011A00046E000BF4FF6FF72C1F2210296420FDC0B
:1011B0000022C1F2110296421AD00022C1F212029C
:1011C000964215D00022C1F22102964210D02FE0A3
:1011D0000022C1F2220296420AD00022C1F231025C
:1011E000964205D00022C1F23202964220D100BFC1
:1011F0008A684AB1012A14BFC0F814B0C0F810B010
:101200004FF0080914E000BF4FF0040910E000BFE0
:10121000CA6802F108090BE04FF0000908E000BFBE
:10122000CA6802F1040903E0CA6802F10C0900BFB0
:1012300022460646B8F5807F24BF203A0436376838
:101240000F25954027EA050509FA02F22A43326084
:10125000CA79D2067FF583AF41F21803C4F20203C4
:101260001A68AEF57E7642F001021A601A6802F042
:1012700001020192019A2AF0030256F802B040F6E8
:101280000002C4F20102904210D040F60042C4F2C3
:10129000010290423FF428AF41F20002C4F2010281
:1012A000009F904208BF02271FE700BF00271CE7EE
:1012B00002B0BDE8F08F0000002A08BF09040161F8
:1012C0007047000040F27C30C2F2000000687047B6
:1012D00040F2580040F27C31C2F20000C2F200013C
:1012E00000780A68104408607047000080B542F238
:1012F0000000C4F20200016841F010010160032007
:1013000000F08CF80F2000F005F800F027F800201E
:1013100080BD000070B540F25806C2F2000640F2EF
:1013200060013278C2F200014FF47A730968B3FBAE
:10133000F2F20446B1FBF2F1084600F019FC0F2C62
:101340004FF0010508D838B94FF0FF302146002290
:10135000002500F037F87460284670BD82B041F275
:101360001800C4F202000168022241F0010101608C
:10137000016801F0010101910199416841F080513A
:101380004160406800F08050009000980420C4F252
:101390000100016862F31A61016002B07047000049
:1013A000002848BF704700F01F01012202FA01F136
:1013B0001C2202EAD0004EF20012CEF2000281504E
:1013C0007047000010B54EF60C5CCEF2000CDCF855
:1013D0000030C3F3022E8EF00704042C28BF04242F
:1013E000BEF103034FF0FF3E0EFA04F438BF0023B2
:1013F000A14399400EFA03F39A43114300F00F0200
:1014000000F160430901043A03F564436244002893
:1014100048BF02F10C03197010BD00004EF60C51CC
:10142000CEF200010A684FF6FF031A4060F30A2269
:1014300042F0806040F0FD7008607047002804BFF3
:10144000012070472DE9F04381B042F20008C4F258
:1014500002080446D8F800000D4600F00700884254
:101460000CD2D8F8000020F007002843C8F800008C
:10147000D8F8000000F00700A8426ED1206841F2C1
:1014800004098107C4F2020917D5410705D5D9F827
:10149000001041F4E061C9F80010010705D5D9F842
:1014A000001041F46051C9F80010D9F80010A2688A
:1014B00021F0F0011143C9F80010C00744D1D8F859
:1014C000000000F00700A8420CD9D8F8000020F076
:1014D00007002843C8F80000D8F8000000F0070013
:1014E000A8423AD12068410707D5D9F80010E26830
:1014F00021F4E0611143C9F80010000708D5D9F8BC
:101500000000216920F4605040EAC100C9F80000E1
:10151000D9F8001042F2004001F00C02042AC0F297
:10152000F40059D0082A45D148F24C53C1F3834204
:10153000C0F600039A5CC90342D440F60010C0F222
:101540003D00504348E000BF606802280AD00128EF
:101550002AD159F8041C890308D4012001B0BDE840
:10156000F08300BF59F8041C8901F6D5D9F80010A2
:1015700021F003010843C9F80000FFF7A3FE064667
:1015800041F28837D9F80000616800F00C00B0EB38
:10159000810F94D0FFF796FE801BB842F2D903204A
:1015A00001B0BDE8F08300BF59F8041C8907D4D509
:1015B000DCE700BF41F20020C0F27A000CE000BF7F
:1015C000D9F8001048F23C53C1F34041C0F6000383
:1015D000595C5043B0FBF1F0D9F8001048F22452A6
:1015E000C1F30311C0F60002515C40F2600220FA20
:1015F00001F140F25C00C2F200000068C2F2000299
:101600001160FFF787FE002001B0BDE8F083000005
:1016100040F2600041F20401C2F20000C4F2020193
:101620000068096848F23452C1F30221C0F6000292
:10163000515CC8407047000040F2600041F2040174
:10164000C2F20000C4F202010068096848F2345294
:10165000C1F3C221C0F60002515CC84070470000CF
:10166000002804BF012070472DE9F04182B00446F4
:10167000007841F20006C007C4F202060CD0706880
:1016800000F00C00042840F081803068800303D50E
:101690006068002800F04E81207880071BD57068B4
:1016A00010F00C0F09D0706800F00C00082840F012
:1016B0008B807068C00300F187803068800703D595
:1016C0002069012840F036813068616920F0F80017
:1016D00040EAC10030602078000713D4207840072A
:1016E0002CD4E569002D00F02081706800F00C001A
:1016F000082840F0AF80012D40F00C81012002B09D
:10170000BDE8F081A069002800F08C800020C4F2C0
:1017100042200121C0F88014FFF7D4FD054600BF28
:10172000706A800700F1BA80FFF7CCFD401B0228E9
:10173000F6D9032002B0BDE8F08100BFF0695FEA8E
:10174000C00808D4F06940F08050F061F06900F002
:1017500080500090009847F20007C4F200073868F4
:10176000C0054DD4386840F480703860FFF7AAFD9A
:10177000054600BF3868C00542D4FFF7A3FD401BF3
:101780006428F7D9032002B0BDE8F081706800F04A
:101790000C00082803D17068C0033FF576AF60687D
:1017A000002800F00981B0F5A02F00F01D81B0F5F0
:1017B000803F00F01D81306820F480303060306858
:1017C00020F4802017E100BF2069002840F20000CB
:1017D000C4F2422000F08C8001210160FFF772FD0D
:1017E000054600BF306880073FF56EAFFFF76AFD22
:1017F000401B0228F6D9032002B0BDE8F08100BFEB
:10180000E068002800F09A80052800F0B1800128E7
:1018100000F0B280306A20F001003062306A20F0BF
:101820000400ACE00020C4F242200021C0F8801483
:10183000FFF748FD054600BF706A80077FF54EAF91
:10184000FFF740FD401B0228F6D9032002B0BDE897
:10185000F08100BF0027C4F2422700203866FFF75E
:1018600031FD022D05460DD13068800140F1D68052
:10187000FFF728FD401B02284FF00300F4D902B007
:10188000BDE8F081306880014FD5FFF71BFD401B9C
:1018900002284FF00300F5D9F1E700BF40F26000E5
:1018A000C2F20000006844F6D351C1F26201A0FB0D
:1018B0000101480A019000BF00BF0198411E0028A5
:1018C00001913FF40BAF00BF0198411E0028019128
:1018D0003FF404AF00BF0198411E002801913FF47E
:1018E000FDAE00BF0198411E00280191E4D1F5E64C
:1018F00000210160FFF7E6FC054600BF3068800765
:101900007FF5E9AEFFF7DEFC401B02284FF0030035
:10191000F4D9B4E77068216A00F480328A4209D1B0
:10192000616A00F47010884204D1002002B0BDE862
:10193000F08100BF012002B0BDE8F081306A20F0E4
:1019400001003062306A20F004003062FFF7BAFC18
:10195000054641F2883700BF306A800722D5FFF77D
:10196000B1FC401BB8424FF00300F5D987E700BF38
:10197000306A40F004003062306A40F001003062AA
:10198000FFF7A0FC054641F2883700BF306A8007A8
:1019900008D4FFF797FC401BB842F7D9032002B0E8
:1019A000BDE8F081B8F1000F3FF59BAEF06920F083
:1019B0008050F06195E600BF306820F480303060E0
:1019C000306820F480203060FFF77CFC054600BFC3
:1019D000306880037FF560AEFFF774FC401B64281D
:1019E0004FF00300F4D94AE7306840F480203060BB
:1019F000306840F480303060FFF764FC054600BF7B
:101A0000306880033FF548AEFFF75CFC401B64285C
:101A1000F6D9032002B0BDE8F08100BF206AB0F51E
:101A2000803F05D17168A26821F4003111437160D3
:101A30007168626A21F474111143084370600120D7
:101A40003866FFF73FFC0446306880013FF56DAF14
:101A5000FFF738FC001B02284FF00300F4D90EE713
:101A600070B538B10446406A30B10020206104F1FD
:101A7000140007E0012070BD6068B0F5827F03D0DC
:101A800004F11C00002101600026A66294F85100B8
:101A900020B9204684F8506000F038F8022084F81D
:101AA000510094E8071001F48271036802F40442C3
:101AB00023F040030360236911440CF400621144D5
:101AC00003F002026369114403F00102A369E569AE
:101AD000114403F40072114405F03802256A1144E0
:101AE00005F08002A56A114305F40052114301601C
:101AF000042101EA13414160C16921F40061C1611F
:101B00000120666584F85100304670BD80B586B00E
:101B100043F600010068C4F20001002288420492EA
:101B200002D006B080BD00BF41F21800C4F202002E
:101B3000426842F480424260426802F4804201926C
:101B4000019A026842F008020260006800F0080092
:101B5000019001984FF4204002900220039003204E
:101B6000059001F5544002A9FFF79EFA06B080BD2A
:101B7000411E0020B0EB116F1CBF012070474EF2D8
:101B80001002CEF2000251604EF62351CEF2000157
:101B9000F0230B70072190601160704770470000C0
:101BA0007047000090F83C20012A4FF0020236D026
:101BB00010B580F83D200268D2F804E0D2F808C0E1
:101BC0000C682EF07003234340F2FF74C4F200044B
:101BD000A24253600ADCB2F1804F13D040F20043BE
:101BE000C4F200039A420DD011E000BF42F6004358
:101BF000C4F201039A4205D040F60003C4F2000388
:101C00009A4204D149682CF0800319439160012164
:101C1000002280F83D1080F83C20BDE810401046BE
:101C200070470000002804BF0120704710B504462B
:101C300090F83D0028B9002084F83C00204600F0D0
:101C400067F8022084F83D00206840F2FF730268C4
:101C5000C4F2000342F6004C9842C4F2010C15DCB9
:101C6000B0F1804F1AD040F20041C4F20001884226
:101C700014D0984218DCB0F1804F1DD040F20041E2
:101C8000C4F20001884217D01AE000BF604505D0B9
:101C900040F60001C4F200018842EAD1A16822F0B6
:101CA00070020A439842E6DD604505D040F6000127
:101CB000C4F20001884203D1216922F440720A4330
:101CC000A36922F08001D4F804E0E268194360457A
:101CD0000160C262C0F828E002D16169CCF830101E
:101CE00001214161002084F8461084F83E1084F8F8
:101CF0003F1084F8401084F8411084F8421084F8B2
:101D0000431084F8441084F8451084F83D1010BD49
:101D100080B584B00068B0F1804F1DD040F2004122
:101D2000C4F2000188422FD042F60041C4F2010102
:101D300088420FD141F21C00C4F2020050F8041C8A
:101D400041F4006140F8041C50F8040C00F40060F9
:101D50000390039804B080BD41F21C00C4F202005D
:101D60000168002241F00101016000680E2100F0CD
:101D70000100029002981C20FFF724FB1C2004B0F5
:101D8000BDE88040FFF70CBB41F21C00C4F202002A
:101D90000168002241F00201016000680D2100F09D
:101DA0000200019001981D20FFF70CFB1D2004B0DC
:101DB000BDE88040FFF7F4BA90F83D1001291CBF40
:101DC00001207047022180F83D10006840F2FF7149
:101DD000C4F20001884209DCB0F1804F12D040F219
:101DE0000041C4F2000188420CD012E042F60041EA
:101DF000C4F20101884205D040F60001C4F200019E
:101E0000884206D1816801F00701062904BF00203D
:101E10007047016841F00101016000207047000037
:101E200090F83D1001291CBF01207047022180F865
:101E30003D10006840F2FF72C168C4F20002904297
:101E400041F00101C16009DCB0F1804F12D040F2D5
:101E50000041C4F2000188420CD012E042F6004179
:101E6000C4F20101884205D040F60001C4F200012D
:101E7000884206D1816801F00701062904BF0020CD
:101E80007047016841F001010160002070470000C7
:101E900090F83C20012A4FF0020200F0C58080B586
:101EA00080F83D20D0F800C04FF67772DCF808309B
:101EB00023EA0202CCF808200B684F2B28DC1F2BEA
:101EC00044DD202B45D0302B43D0402B40F0AE805A
:101ED000D1F804E0C968DCF82030DCF8202022F0DA
:101EE0000102CCF82020DCF8182022F0F00242EAAF
:101EF000011123F00A0242EA0E02CCF81810CCF8C5
:101F00002020DCF8081041F0470121F0300180E08A
:101F10006F2B27DDB3F5005F48D0B3F5805F7AD033
:101F2000702B40F08380D1E901E3C968DCF8082018
:101F300043EA0E0322F47F4243EA01211143CCF825
:101F40000810DCF8081041F0770162E00BB1102BAB
:101F50006CD1DCF8081021F07001194341F0070141
:101F600057E000BF502B35D0602B5FD1D1F804E093
:101F7000C968DCF82030DCF8202022F01002CCF810
:101F80002020DCF8182022F4704242EA013123F0CC
:101F9000A00242EA0E12CCF81810CCF82020DCF88F
:101FA000081041F0670121F0100132E0D1E901E3AE
:101FB000C968DCF8082043EA0E0322F47F4243EAB2
:101FC00001211143CCF80810DCF8081041F48041DD
:101FD0001FE000BFD1F804E0C968DCF82030DCF86D
:101FE000202022F00102CCF82020DCF8182022F07A
:101FF000F00242EA011123F00A0242EA0E02CCF892
:102000001810CCF82020DCF8081041F0570121F01E
:102010002001CCF808100022012180F83D10002199
:1020200080F83C10BDE88040104670470122F3E77D
:102030007047000010B5016804460869800744BF76
:10204000C8685FEA807039D40869400744BFC8682F
:102050005FEA40703ED40869000744BFC8685FEA81
:10206000007045D40869C00644BFC8685FEAC06014
:102070004AD40869C0071CBFC8685FEAC07051D164
:102080000869000644BFC8685FEA006052D4086966
:10209000400644BFC8685FEA406053D408698006C0
:1020A00046BFC8685FEA806010BD6FF0200220461E
:1020B0000A61BDE81040FFF773BD00BF6FF002007A
:1020C0000861012020778869800743D02046FFF708
:1020D000AFFF45E06FF004000861022020778869B7
:1020E00010F4407F40D02046FFF7A2FF42E000BF3F
:1020F0006FF00800086104202077C86980073DD090
:102100002046FFF795FF3FE06FF0100008610820C0
:102110002077C86910F4407F3AD02046FFF788FF47
:102120003CE000BF6FF001000861204600F03EF87F
:102130002168A5E76FF0800008612046FFF72EFDBB
:102140002168A4E76FF040000861204600F0DCF849
:102150002168A3E7204600F025F8204600F024F887
:102160002168002020776FE7204600F01BF820460A
:1021700000F01AF82168002020776CE7204600F074
:1021800011F8204600F010F821680020207769E758
:10219000204600F007F8204600F006F821680020ED
:1021A000207766E770470000704700000068B0F1D4
:1021B000804F18BF704710B540F20004C2F200040F
:1021C0002078032822D002283ED0012860D1312077
:1021D000E07140F2A420A11DC2F2000003224FF0E2
:1021E000FF3300F039FF40F2C800C2F200000021C6
:1021F0004172C17B002979D010F8111F0029A0F18C
:1022000001013FD100F119023AE000BF3320E07133
:1022100040F2A420A11DC2F2000003224FF0FF33C0
:1022200000F01AFF40F2C800C2F200000021C173A2
:10223000017B00293ED010F80E1F0029A0F10101FA
:1022400020D100F11B021BE03220E07140F2A420FB
:10225000A11DC2F2000003224FF0FF3300F0FCFE8C
:1022600040F2C800C2F2000000210173417A79B344
:1022700010F80B1F0029A0F1010103D100F11D028C
:1022800001231370024608460121117000210170DC
:1022900020780130C1B2032988BF0120207040F2AC
:1022A0001420C2F2000000684FF23B614162BDE8B9
:1022B00010407047417B01314173417B627891420C
:1022C000E6D910F80E1F0129E0D100F11B02DBE76F
:1022D000817A01318172817A62789142D8D910F87D
:1022E0000B1F0129D2D100F11D02CDE7017C013184
:1022F0000174017C62789142CAD910F8111F01293A
:10230000C4D100F11902BFE7704700007047000018
:1023100070470000B0B582B0044600680168C36829
:10232000426901F02F05202D03F0200506D12DB1C3
:10233000204602B0BDE8B04001F010BC5FEA017C6D
:102340001EBF02F0010E03F4907212EB0E0243D195
:10235000226BCD0618D5012A16D113F0100213D026
:102360000021019101680191416801910199406941
:1023700040063BD4A08DE18DE28D002A18BF884233
:1023800040F0F28102B0B0BD0A0640F1E78013F0E0
:10239000800200F0E38094F841102129F2D1A16875
:1023A000B1F5805F03D12169002900F06382216AC1
:1023B0004A1C226209784160E18C01390A04E184F7
:1023C000E0D1C16821F08001C160C16841F04001E5
:1023D000C16002B0B0BD00BFCA0718BF13F480725D
:1023E00040F0D0804A0700F1D380D8E0E06B01686C
:1023F00049688AB2002AC5D0A38D9A42C2D2E1852B
:102400008069202800F09E80206850E8030F216832
:1024100020F4807041E80302DAB1206850E8030F2D
:10242000216820F4807041E8030292B1206850E8EE
:10243000030F216820F4807041E803024AB120684C
:1024400050E8030F216820F4807041E80302002A5D
:10245000DAD1206850E8050F216820F0010041E83A
:102460000502C2B3206850E8050F216820F0010082
:1024700041E805027AB3206850E8050F216820F092
:10248000010041E8050232B3206850E8050F2168D9
:1024900020F0010041E80502002ADAD11BE000BF6C
:1024A000206850E8050F216820F0400041E805024F
:1024B000DAB1206850E8050F216820F0400041E8BB
:1024C000050292B1206850E8050F216820F0400015
:1024D00041E805024AB1206850E8050F216820F064
:1024E000400041E80502002ADAD1202084F84200A9
:1024F00000202063206850E8030F216820F01000BE
:1025000041E80302DAB1206850E8030F216820F0A7
:10251000100041E8030292B1206850E8030F2168DF
:1025200020F0100041E803024AB1206850E8030F90
:10253000216820F0100041E80302002ADAD1E06BA4
:10254000FEF720FD02206063A08DE18D401A81B26C
:10255000204602B0BDE8B040FFF7D8BE49067FF57F
:1025600011AF13F040013FF40DAFC16821F04001FD
:10257000C1602021204684F8411002B0BDE8B0407F
:1025800000F0A6BE626C42F0010262644A0706D502
:10259000BEF1000F03D0626C42F0020262648A074F
:1025A00006D5BEF1000F03D0626C42F004026264F3
:1025B000BCF1000F06D55EEA050203D0626C42F062
:1025C00008026264626C002A3FF4DCAE890604D51E
:1025D0001DB1204601F0C2FA20684069616C00F02C
:1025E000400001F00801401800F0B680206850E873
:1025F000030F216820F4907041E80302BAB3206809
:1026000050E8030F216820F4907041E8030272B390
:10261000206850E8030F216820F4907041E803021D
:102620002AB3206850E8030F216820F4907041E835
:102630000302002ADAD11AE0206850E8050F216869
:1026400020F0010041E80502DAB1206850E8050FEA
:10265000216820F0010041E8050292B1206850E8AD
:10266000050F216820F0010041E805024AB1206809
:1026700050E8050F216820F0010041E80502002A1A
:10268000DAD1206B012824D1206850E8030F21689B
:1026900020F0100041E80302DAB1206850E8030F8F
:1026A000216820F0100041E8030292B1206850E850
:1026B000030F216820F0100041E803024AB12068AE
:1026C00050E8030F216820F0100041E80302002ABF
:1026D000DAD1202084F8420000202063206840697D
:1026E000400640F1C180206850E8050F216820F0C5
:1026F000400041E80502DAB1206850E8050F216882
:1027000020F0400041E8050292B1206850E8050F32
:10271000216820F0400041E805024AB1206850E8F5
:10272000050F216820F0400041E80502002ADAD1B7
:10273000E06B002800F0988043F65131C0F60001AC
:102740004163FEF743FC00283FF41CAEE06B416B95
:1027500002B0BDE8B04008472046FFF7D9FD002091
:10276000606402B0B0BD00BF401A00BF216851E8EC
:10277000031F226821F4907142E80313BBB3216860
:1027800051E8031F226821F4907142E8031373B3E8
:10279000216851E8031F226821F4907142E8031375
:1027A0002BB3216851E8031F226821F4907142E89D
:1027B0000313002BDAD11AE0216851E8051F2268C3
:1027C00021F0010142E80513DBB1216851E8051F42
:1027D000226821F0010142E8051393B1216851E814
:1027E000051F226821F0010142E805134BB1216861
:1027F00051E8051F226821F0010142E80513002B72
:10280000DAD1202184F8421000212163216851E8A7
:10281000031F226821F0100142E80313DBB1216895
:1028200051E8031F226821F0100142E8031393B11D
:10283000216851E8031F226821F0100142E80313C8
:102840004BB1216851E8031F226821F0100142E8D2
:102850000313002BDAD1022281B22046626302B058
:10286000BDE8B040FFF752BD204602B0BDE8B04021
:10287000FFF74EBD216A31F8022B6FF35F224260F1
:10288000216299E5002804BF0120704710B5044675
:1028900090F8410028B9002084F84000204600F05C
:1028A00063F8242084F841002068D4E90212C36848
:1028B00023F40053C360036923F440531A430261B5
:1028C000D4E904231143C268194341F20C639A43CB
:1028D0001143C1604169A26921F44071114343F67B
:1028E0000002C4F201029042416103D0FEF790FE63
:1028F00002E000BFFEF7A0FED4E9002319214843FF
:102900009900B0FBF1F048F21F5CC5F2EB1CA0FB94
:102910000C314FF69C734909C0F6FF7301FB0300AD
:10292000322303EB0010A0FB0C03F02000EA53104D
:1029300000EB0110C3F3431108449060106920219B
:1029400020F490401061506920F02A005061D06856
:1029500040F40050D0600020606484F8411084F896
:102960004210606310BD000070B586B0006844F28C
:102970000041C4F20001002688420596CDE90366B5
:10298000029641D044F60001C4F2000188426DD0A5
:1029900043F60001C4F20101884240F0A28041F2F6
:1029A0001800C4F20200016840F6000441F48041BE
:1029B00001600168C4F2010401F4804101910199B0
:1029C000016802AD41F0040101600068294600F091
:1029D0000400019001984FF40070029002200390CF
:1029E000032005902046FEF75FFB4FF480600290C5
:1029F0000020CDE9030020462946FEF755FB25209F
:102A000002210022252467E041F21800C4F20200EE
:102A1000416840F6000441F4003141604168C4F26D
:102A2000010401F4003101910199016802AD41F006
:102A3000040101600068294600F00400019001983B
:102A40000420029002200390032005902046FEF708
:102A50002BFB0820CDE90206204629460496FEF706
:102A600023FB262000210022262435E041F2180015
:102A7000C4F20200416802AD41F480214160416826
:102A800001F4802101910199016841F00801016080
:102A90000068294600F00800019001984FF480601A
:102AA0000290022003900320059040F60000C4F23B
:102AB000010000F580642046FEF7F6FA4FF400604E
:102AC00002900020CDE9030020462946FEF7ECFAEB
:102AD0002720012100222724FEF774FC2046FEF760
:102AE0005FFC06B070BD000090F84230202B07D18B
:102AF00000294FF0010318BF002A05D1184670477E
:102B000002231846704700BF00230363816222211D
:102B10008285C285436480F842100169006819B15A
:102B2000C16841F48071C160416941F001014161B6
:102B3000C16841F02001C160184670472DE9F04F8F
:102B400086B0006844F20041C4F20001884219D006
:102B500044F60001C4F20001884221D043F600018E
:102B6000C4F20101884240F06F8140F2C800C2F215
:102B70000000017853293FD101218170411C0020C0
:102B800008701BE140F2C800C2F20000C17853296E
:102B900048D101214171011D00220A7021E100BFCD
:102BA00040F2C800C2F2000090F8231000294FD074
:102BB00090F8231001296FD1C1793E2940F0D281CC
:102BC00040F24411C2F20001C96A00224A6242F294
:102BD0000F7242F2107300BF4F6A974208D84F6AD3
:102BE000974205D84F6A974202D84F6A9F42F3D363
:102BF00001218175B6E100BF8278502900F0DA80AA
:102C0000012A40F0D780427840F24413C2F2000318
:102C100013449975511CCAB20F2A417040F2CE80FC
:102C2000811CACE74279502900F0D680012A40F09F
:102C3000D380037940F244174278C2F200071F4460
:102C40003973591C032A017140F2CB80811CA3E720
:102C5000C179502904D101220277002280F8202076
:102C6000027F002A00F07E8190F8202048F25F5316
:102C7000C0F600039A5C8A421CBF0021017790F8DD
:102C80002010013180F8201090F82010072924BF6F
:102C9000012180F8221065E190F82310022940F00C
:102CA000AB80C179422903D101228276002282774A
:102CB000827E8AB1827F48F23E53C0F600039A5C5E
:102CC0008A421CBF00228276827F01328277827F15
:102CD000052A24BF01220276432903D10122C276AC
:102CE0000022C277C27E002A00F03C81C27F48F2F7
:102CF0004453C0F600039A5C8A421CBF0021C1768F
:102D0000C17F0131C177C17F0729C0F02B8100222B
:102D100040F244114276C2F20001C96A4EF66023C5
:102D20004A624EF65F224F6A974208D84F6A97422E
:102D300005D84F6A974202D84F6A9F42F3D30022C8
:102D40004A624EF65F224EF660234F6A974208D8D9
:102D50004F6A974205D84F6A974202D84F6A9F42FE
:102D6000F3D300224A624EF65F224EF660234F6A8A
:102D7000974208D84F6A974205D84F6A974202D8BF
:102D80004F6A9F42F3D300224A624EF65F224EF60C
:102D900060234F6A974200F2E5804F6A974200F243
:102DA000E1804F6A974200F2DD804F6A9F42F0D384
:102DB000D8E000BF502908BF012A49D040F2A42022
:102DC00040F2C801C2F20000C2F20001012206B0C6
:102DD000BDE8F04FFFF788BE502908BF012A00F078
:102DE000A980C11C40F2EC20C2F20000012206B012
:102DF000BDE8F04FFFF778BE90F82310032923D1E8
:102E0000C1794F2904D101224277002280F8212084
:102E1000427F002A00F0A68090F8212048F25C53FF
:102E2000C0F600039A5C8A4240F0988090F8211026
:102E3000013180F8211090F821100229C0F0928011
:102E400000F119018CE000BF06B0BDE8F08F00BFB3
:102E500040F24412C2F2000292F816C0ACF1010135
:102E6000CBB2022B00F102013FF689AE50A454F818
:102E700023404CA7059451A454F8234057F823E06D
:102E800004945AA454F823805BA454F823905DA4BE
:102E900054F823A05EA454F823B060A454F823404F
:102EA00049A5039460A454F823404AA6029461A45F
:102EB00054F823404AA7019461A454F8234055F8DC
:102EC0002350009461A456F8236057F8237054F8F7
:102ED000233001248EF8004080F817C0D07D059C77
:102EE0002070107E049C2070507E2870907E307080
:102EF000D07E3870107F88F80000507F89F800007D
:102F0000907F8AF80000D07F8BF8000092F82000B4
:102F1000039F387092F82100029F387092F82200C7
:102F2000019F387092F82300009F387092F82400B7
:102F3000187024E640F24411C2F200010B7B4A7B78
:102F4000572B00F1050180F82D3080F82E2017D086
:102F5000462B13D0432B08BF82711DE600F11D01E3
:102F600000220A70C11D40F23430C2F2000001227A
:102F700006B0BDE8F04FFFF7B7BD00BFC2740BE667
:102F8000037D012B04D1012280F82B2004E600BF31
:102F9000012323EA020248F2A413C4F221231A6097
:102FA000FAE500BFD1000020D4000020D7000020A7
:102FB0001C00002030000020440000201D000020E4
:102FC00031000020450000201E00002032000020BB
:102FD000460000201F000020330000204700002092
:102FE00020000020340000204800002021000020A4
:102FF000350000204900002022000020360000207B
:103000004A00002023000020370000204B00002051
:1030100024000020380000204C0000202500002063
:10302000390000204D000020260000203A0000203A
:103030004E000020270000203B0000204F00002011
:10304000280000203C000020500000202900002023
:103050003D000020510000202DE9F04381B00446DE
:1030600090F84100202840F0B180884600294FF0B8
:10307000010000F0D6801646002A00F0D280002021
:10308000606421201D4684F84100FEF71BF9A684E8
:10309000E684A1680646B1F5805F03D12069002867
:1030A00000F0988047464FF00008E18C2068002926
:1030B00000F0968005F101090BE000BF47B317F857
:1030C000011B4160E18C0139E184E18C002900F0B1
:1030D000878001680906F1D4B9F1000F0AD0EDB17B
:1030E000FEF7F0F8801BA84218D82068016809068E
:1030F000F6D5E3E701680906E0D4016809065CBF7C
:1031000001685FEA0161D9D401680906F2D5D5E703
:1031100038F8021B00276FF35F21D2E7206850E8E0
:10312000030F216820F4D07041E80302BAB320688D
:1031300050E8030F216820F4D07041E8030272B315
:10314000206850E8030F216820F4D07041E80302A2
:103150002AB3206850E8030F216820F4D07041E8BA
:103160000302002ADAD11AE0206850E8050F21682E
:1031700020F0010041E80502DAB1206850E8050FAF
:10318000216820F0010041E8050292B1206850E872
:10319000050F216820F0010041E805024AB12068CE
:1031A00050E8050F216820F0010041E80502002ADF
:1031B000DAD1202084F8410084F84200002084F80D
:1031C0004000032001B0BDE8F08300BF022001B041
:1031D000BDE8F0830027E18C206800297FF46AAF06
:1031E0000168490619D4FDB1691C0DD10168490671
:1031F00013D4016849065CBF01685FEA41610CD4E1
:1032000001684906F2D508E0FEF75CF8801BA84289
:103210000AD8206800684006F6D5202084F84100CE
:10322000002001B0BDE8F083206850E8030F21685A
:1032300020F4D07041E80302002A3ED0206850E814
:10324000030F216820F4D07041E80302AAB320687C
:1032500050E8030F216820F4D07041E8030262B304
:10326000206850E8030F216820F4D07041E8030281
:10327000002AD9D121E000BF206850E8050F21685D
:1032800020F0010041E80502002A3FF492AF2068D7
:1032900050E8050F216820F0010041E80502002AEE
:1032A0003FF487AF206850E8050F216820F0010047
:1032B00041E80502002A3FF47CAF206850E8050F82
:1032C000216820F0010041E80502002AD4D170E70E
:1032D00070470000FEE7000070B51420FDF7D0FE37
:1032E00040F20005C2F200056C7944F03006F0B2FD
:1032F00000F0D2F844F03400C0B200F0CDF806F08F
:10330000FB0000F0C9F80520FDF7BAFE6C7944F027
:103310003006F0B200F0C0F844F03400C0B200F063
:10332000BBF806F0FB0000F0B7F80120FDF7A8FE9F
:103330006C7944F03006F0B200F0AEF844F034009E
:10334000C0B200F0A9F806F0FB0000F0A5F86C7917
:1033500044F02006F0B200F09FF844F02400C0B220
:1033600000F09AF806F0FB0000F096F86C7944F053
:103370002006F0B200F090F844F02400C0B200F053
:103380008BF806F0FB0000F087F86C7964F07F069C
:10339000F0B200F081F844F08400C0B200F07CF894
:1033A00006F0FB0000F078F86C79204600F074F825
:1033B00044F0040000F070F804F0FB0000F06CF83A
:1033C0006C7964F07F06F0B200F066F844F0840097
:1033D000C0B200F061F806F0FB0000F05DF86C7917
:1033E000204600F059F844F0040000F055F804F0CD
:1033F000FB0000F051F86C7944F01006F0B200F0D8
:103400004BF844F01400C0B200F046F806F0FB00A0
:1034100000F042F80220FDF733FE6C79204600F000
:103420003BF844F0040000F037F804F0FB0000F033
:1034300033F86C7964F03F06F0B200F02DF844F0F8
:10344000C400C0B200F028F806F0FB0000F024F839
:103450006C7964F07F06F0B200F01EF844F084004E
:10346000C0B200F019F806F0FB0000F015F86C7916
:10347000204600F011F844F0040000F00DF804F0CC
:10348000FB00BDE8704000F007B80000FEE7000058
:10349000FEE70000704700002DE9F04148F298185F
:1034A0000546C4F22128012040F24417C8F8040060
:1034B000C2F20007F86A0021416200BF416A31B9D7
:1034C000416A21B9416A11B9416A0029F6D0012146
:1034D000C8F8001000214162416A31B9416A21B93E
:1034E000416A11B9416A0029F6D00021C8F80410D8
:1034F000416200BF416A31B9416A21B9416A11B9DB
:10350000416A0029F6D040F60044C4F201040026C6
:10351000204680210022C8F80060FDF7CDFE20463D
:1035200040210122FDF7C8FEF86A4662416A31B9BE
:10353000416A21B9416A11B9416A0029F6D0204691
:10354000402100220026FDF7B7FEF86A466200BF60
:10355000416A31B9416A21B9416A11B9416A002908
:10356000F6D0204680210122FDF7A6FE204640210C
:103570000122FDF7A1FEF86A00214162416A31B9DA
:10358000416A21B9416A11B9416A0029F6D0204641
:10359000402100220026FDF78FFEF86A466200BF38
:1035A000416A31B9416A21B9416A11B9416A0029B8
:1035B000F6D0204680210122FDF77EFE20464021E4
:1035C0000122FDF779FEF86A00214162416A31B9B2
:1035D000416A21B9416A11B9416A0029F6D02046F1
:1035E000402100220026FDF767FEF86A466200BF10
:1035F000416A31B9416A21B9416A11B9416A002968
:10360000F6D0204680210122FDF756FE20464021BB
:103610000122FDF751FEF86A00214162416A31B989
:10362000416A21B9416A11B9416A0029F6D02046A0
:10363000402100220026FDF73FFEF86A466200BFE7
:10364000416A31B9416A21B9416A11B9416A002917
:10365000F6D0204680210122FDF72EFE2046402193
:103660000122FDF729FEF86A00214162416A31B961
:10367000416A21B9416A11B9416A0029F6D0204650
:10368000402100220026FDF717FEF86A466200BFBF
:10369000416A31B9416A21B9416A11B9416A0029C7
:1036A000F6D0204680210122FDF706FE204640216B
:1036B0000122FDF701FEF86A00214162416A31B939
:1036C000416A21B9416A11B9416A0029F6D0204600
:1036D000402100220026FDF7EFFDF86A466200BF98
:1036E000416A31B9416A21B9416A11B9416A002977
:1036F000F6D0204680210122FDF7DEFD2046402144
:103700000122FDF7D9FDF86A00214162416A31B911
:10371000416A21B9416A11B9416A0029F6D02046AF
:10372000402100220026FDF7C7FDF86A466200BF6F
:10373000416A31B9416A21B9416A11B9416A002926
:10374000F6D02046802100220026FDF7B5FD204658
:1037500040210122FDF7B0FDF86A4662416A31B9A5
:10376000416A21B9416A11B9416A0029F6D020465F
:10377000402100220026FDF79FFDF86A466200BF47
:10378000416A31B9416A21B9416A11B9416A0029D6
:10379000F6D02046802100220026FDF78DFD204630
:1037A00040210122FDF788FDF86A4662416A31B97D
:1037B000416A21B9416A11B9416A0029F6D020460F
:1037C000402100220026FDF777FDF86A466200BF1F
:1037D000416A31B9416A21B9416A11B9416A002986
:1037E000F6D0EA0920468021FDF766FD20464021FB
:1037F0000122FDF761FDF86A00214162416A31B999
:10380000416A21B9416A11B9416A0029F6D02046BE
:10381000402100220026FDF74FFDF86A466200BFF6
:10382000416A31B9416A21B9416A11B9416A002935
:10383000F6D0C5F3801220468021FDF73DFD2046DD
:1038400040210122FDF738FDF86A0021416200BFE6
:10385000416A31B9416A21B9416A11B9416A002905
:10386000F6D02046402100220026FDF725FDF86A0B
:10387000466200BF416A31B9416A21B9416A11B952
:10388000416A0029F6D0C5F3401220468021FDF799
:1038900013FD204640210122FDF70EFDF86A0021AC
:1038A000416200BF416A31B9416A21B9416A11B927
:1038B000416A0029F6D02046402100220026FDF76B
:1038C000FBFCF86A466200BF416A31B9416A21B91E
:1038D000416A11B9416A0029F6D0C5F300122046A9
:1038E0008021FDF7E9FC204640210122FDF7E4FCA0
:1038F000F86A0021416200BF416A31B9416A21B9C9
:10390000416A11B9416A0029F6D0204640210022BF
:103910000026FDF7D1FCF86A466200BF416A31B962
:10392000416A21B9416A11B9416A0029F6D0C5F34B
:10393000C00220468021FDF7BFFC20464021012225
:10394000FDF7BAFCF86A0021416200BF416A31B953
:10395000416A21B9416A11B9416A0029F6D020466D
:10396000402100220026FDF7A7FCF86A466200BF4E
:10397000416A31B9416A21B9416A11B9416A0029E4
:10398000F6D0C5F3800220468021FDF795FC204645
:1039900040210122FDF790FCF86A0021416200BF3E
:1039A000416A31B9416A21B9416A11B9416A0029B4
:1039B000F6D02046402100220026FDF77DFCF86A63
:1039C000466200BF416A31B9416A21B9416A11B901
:1039D000416A0029F6D0C5F3400220468021FDF758
:1039E0006BFC204640210122FDF766FCF86A0021AD
:1039F000416200BF416A31B9416A21B9416A11B9D6
:103A0000416A0029F6D02046402100220026FDF719
:103A100053FCF86A466200BF416A31B9416A21B974
:103A2000416A11B9416A0029F6D005F00102204629
:103A30008021FDF741FC204640210122FDF73CFC9E
:103A4000F86A0021416200BF416A31B9416A21B977
:103A5000416A11B9416A0029F6D02046402100226E
:103A60000025FDF729FCF86A456200BF416A31B9BB
:103A7000416A21B9416A11B9416A0029F6D020464C
:103A8000802100220025FDF717FC2046402101225D
:103A9000FDF712FCF86A4562416A31B9416A21B901
:103AA000416A11B9416A0029F6D02046402100221E
:103AB0000024FDF701FCF86A446200BF416A31B995
:103AC000416A21B9416A11B9416A0029F6D0002141
:103AD000C8F80410416200BF416A31B9416A21B996
:103AE000416A11B9416A0029F6D00021C8F80010D6
:103AF000416200BF416A31B9416A21B9416A11B9D5
:103B0000416A0029F6D00121C8F800100021416265
:103B1000416A31B9416A21B9416A11B9416A002942
:103B2000F6D00120C8F80400BDE8F081704700001D
:103B3000FDF7CEBB7047000040F21420C2F2000037
:103B4000FEF778BA40F25C20C2F20000FEF772BACB
:103B5000406A0021C185C184FEF7DABB81B090F8CC
:103B60004210222921D183680246B3F5805F09D132
:103B700052F8281F52F8183C002B63D003685B688A
:103B80000AE000BF52F8281F13B90369002BF5D0D3
:103B900003685B6803F07F030B70116801311160EB
:103BA000C18D01390A04C18502D001B0704700BF40
:103BB0000168CA6822F02002CA60CA6822F48072D2
:103BC000CA604A6922F001024A61202180F842104D
:103BD00000214163026B012A3CD10163016851E875
:103BE000031F026821F0100142E80313DBB10168F2
:103BF00051E8031F026821F0100142E8031393B15A
:103C0000016851E8031F026821F0100142E8031324
:103C10004BB1016851E8031F026821F0100142E82E
:103C20000313002BDAD101680A68D20606D50022F8
:103C300000920A680092496800910099818D01B054
:103C4000FEF764BB026852686FF35F2221F8022B13
:103C50008162A5E701B0FEF771BF000040F2A42029
:103C6000C2F20000FEF756BB40F2EC20C2F20000A8
:103C7000FEF750BB40F23430C2F20000FEF74ABB00
:103C8000FEE70000F0B581B040F2C801C2F20001C9
:103C9000097A009004291BD80446DFE801F00309E3
:103CA0000F191D0040F2A420C2F200000AE000BF7C
:103CB00040F2EC20C2F2000004E000BF40F23430D9
:103CC000C2F20000694601224FF0FF33FFF7C4F94A
:103CD0005DF8040BF0BD00BF40F20005C2F2000524
:103CE000687924F00F0140EA010646F00107F8B2B6
:103CF000FFF7D2FB46F00500C0B2FFF7CDFB07F09F
:103D0000FB00FFF7C9FB687940EA041444F00105A1
:103D1000E8B2FFF7C1FB44F00500C0B2FFF7BCFBFF
:103D200005F0FB00FFF7B8FB5DF8040BF0BD0000E9
:103D3000A2B0FDF7DBFA00240120CDE91D44CDE956
:103D40001B4418901C904FF4E0104FF480314FF456
:103D500000320225219018A819911A92CDE91F511D
:103D6000FDF77EFC20B1EFF3108072B6FEE700BFD6
:103D70000F20CDE912054FF48060CDE9150412A89B
:103D800002211494FDF75AFB20B1EFF3108072B6B4
:103D9000FEE700BF41F21800C4F20200016840F6DD
:103DA000000841F0100101600168C4F2010801F04F
:103DB000100118911899016808F5006641F020017A
:103DC00001600168002201F0200118911899016832
:103DD0004FF4005741F0040101600168002401F034
:103DE000040118911899016841F008010160006808
:103DF0004FF4005100F00800189018983046FDF775
:103E00005BFA08F58065284645F2FC31002245F250
:103E1000FC3AFDF751FA40464FF419410022FDF7F4
:103E20004BFA189718AF4FF0010B4FF002093046CC
:103E30003946CDE919B4CDF86C90FDF735F9F3208A
:103E4000CDE91804404639461A94FDF72DF9284665
:103E50003946CDE918ABCDE91A49FDF725F94FF4FC
:103E60001940CDE9180B40463946CDE91A49474675
:103E7000FDF71AF908F5105140F24418C2F2000893
:103E8000404640F82C1F48214FF6FF721B94CDE9A5
:103E90001944CDE91244C0E90114C0E90324C0E982
:103EA0000544FDF7BFFE28B1EFF3108072B600BFE6
:103EB000FEE700BF4FF4805008F12C05189018A9B8
:103EC0002846FDF7E5FF28B1EFF3108072B600BF7A
:103ED000FEE700BF12A92846FDF764FE20B1EFF30C
:103EE000108072B6FEE700BF40F2A42007F54051F3
:103EF000C2F2000000240C264FF4E13280E81600E4
:103F0000C0E90344C0E90564C461FEF7BBFC28B105
:103F1000EFF3108072B600BFFEE700BF40F2EC2066
:103F2000A7F54441C2F200004FF4FA2280E81600DF
:103F3000C0E90344C0E90564C461FEF7A3FC28B1ED
:103F4000EFF3108072B600BFFEE700BF40F2BC1076
:103F5000A7F55041C2F200004FF4827200244FF4E2
:103F6000007380E816000A21C0E90344C0E9054354
:103F7000C461C0E90844C0E90A41FDF771FD28B1F8
:103F8000EFF3108072B600BFFEE700BF40F21420CE
:103F9000C2F200004FF080414FF6FF731B94CDE951
:103FA0001944CDE912444FF4E15280E81600C0E90B
:103FB00003348461FDF736FE20B1EFF3108072B652
:103FC000FEE700BF4FF48050189040F21420C2F278
:103FD000000018A9FDF75CFF20B1EFF3108072B666
:103FE000FEE700BF40F21426C2F2000612A93046D6
:103FF000FDF7D8FD20B1EFF3108072B6FEE700BFE9
:1040000040F23430A7F54041C2F2000000240C23F6
:104010004FF4E13280E81600C0E90344C0E90534FA
:10402000C461FEF72FFC18B1EFF3108072B6FEE703
:1040300040F25C20A7F58231C2F200004FF6FF7318
:104040001B94CDE91944CDE9124448F6A04280E81A
:104050001600C0E903348461FDF7E4FD20B1EFF3FD
:10406000108072B6FEE700BF4FF48050189040F207
:104070005C20C2F2000018A9FDF70AFF20B1EFF39F
:10408000108072B6FEE700BF40F25C20C2F2000072
:1040900012A9FDF787FD18B1EFF3108072B6FEE7A5
:1040A00048F28C1B40F200142846C4F2212BC4F2C3
:1040B0002124FDF781FE4FF000094FF0010ACBF8F3
:1040C0002490CBF82C90CBF814A0CBF808A0CBF818
:1040D00004A0CBF800A0C4F8BCA0C4F8B0A0C4F8F9
:1040E000ACA0FFF7F9F840F2C807C2F2000740F2AF
:1040F0003430C4F8A0A00224F91DC2F2000001224D
:104100003C721191FEF7F0FC40F2A420C2F20000D4
:10411000394601223C72FEF7E7FC40F2EC20F91C24
:10412000C2F200000122FEF7DFFC30684FF6DC71BE
:1041300041623046FDF774FE40F20006C2F200060E
:10414000CBF818A01AE000BF41542B434D47463D21
:10415000312563256300000053797374656D206910
:104160007320416374697665256300000020C4F8FC
:10417000BC00C4F8B000C4F8AC00B87497F82200D2
:10418000002849D097F82400002845D10220387231
:10419000AFF24C000D210A22FCF758F8032087F8F3
:1041A0002300787E30B1787E20B1787E10B1787EA1
:1041B0000028F6D14FF4FA7087F824A0FCF760FFCE
:1041C000022087F819A0387287F823A040F2343013
:1041D0001199C2F200000122FEF786FC48F2F0605D
:1041E000C0F60000222122220D230A250095FCF7AB
:1041F0002DF8B87D30B9B87D20B9B87D10B9B87D3B
:104200000028F6D0032087F82300AFF2B4001A216B
:10421000FCF71CF887F8169004203872B078012853
:1042200040F08E80F87A012840F01A81747964F0A9
:104230007F05E8B2FFF730F944F08400C0B2FFF721
:104240002BF905F0FB00FFF727F975792846FFF7F2
:1042500023F945F00400FFF71FF905F0FB00FFF715
:104260001BF948F27550C0F60000FBF7EFFF7479B8
:1042700064F03F05E8B2FFF70FF944F0C400C0B2A4
:10428000FFF70AF905F0FB00FFF706F975792846F4
:10429000FFF702F945F00400FFF7FEF805F0FB0018
:1042A000FFF7FAF8F96B48F2A750C0F60000FBF7E9
:1042B000CDFF747964F06F05E8B2FFF7EDF844F0D4
:1042C0009400C0B2FFF7E8F805F0FB00FFF7E4F850
:1042D000747944F04005E8B2FFF7DEF844F044009A
:1042E000C0B2FFF7D9F805F0FB00FFF7D5F8B96CBD
:1042F00048F29C50C0F60000FBF7A8FF747964F008
:104300002F05E8B2FFF7C8F844F0D400C0B2FFF7B9
:10431000C3F805F0FB00FFF7BFF8747944F04005DF
:10432000E8B2FFF7B9F844F04400C0B2FFF7B4F8C0
:1043300005F0FB00FFF7B0F8D8F8080047E100BF30
:10434000B078022840F0B280B87B012840F04C8160
:10435000747964F07F05E8B2FFF79EF844F08400BA
:10436000C0B2FFF799F805F0FB00FFF795F87579F3
:104370002846FFF791F845F00400FFF78DF805F0A7
:10438000FB00FFF789F848F27D50C0F60000FBF70C
:104390005DFF747964F03F05E8B2FFF77DF844F003
:1043A000C400C0B2FFF778F805F0FB00FFF774F81F
:1043B00075792846FFF770F845F00400FFF76CF8B0
:1043C00005F0FB00FFF768F8396E48F2A750C0F619
:1043D0000000FBF73BFF747964F06F05E8B2FFF76C
:1043E0005BF844F09400C0B2FFF756F805F0FB000C
:1043F000FFF752F8747944F04005E8B2FFF74CF843
:1044000044F04400C0B2FFF747F805F0FB00FFF7A7
:1044100043F8796E48F29C50C0F60000FBF716FF97
:10442000747964F02F05E8B2FFF736F844F0D40051
:10443000C0B2FFF731F805F0FB00FFF72DF87479F3
:1044400044F04005E8B2FFF727F844F04400C0B25A
:10445000FFF722F805F0FB00FFF71EF8386DB6E015
:104460007479C8F8089064F07F05E8B2C7F83C900A
:10447000C7F84890FFF710F844F08400C0B2FFF787
:104480000BF805F0FB00FFF707F875792846FFF7F2
:1044900003F845F00400FEF7FFFF05F0FB00FEF710
:1044A000FBFF48F27550C0F60000E8E0B078032842
:1044B00040F04E81787C012840F0BC80747964F033
:1044C0007F05E8B2FEF7E8FF44F08400C0B2FEF7D3
:1044D000E3FF05F0FB00FEF7DFFF75792846FEF7E6
:1044E000DBFF45F00400FEF7D7FF05F0FB00FEF709
:1044F000D3FF48F28550C0F60000FBF7A7FE7479A1
:1045000064F03F05E8B2FEF7C7FF44F0C400C0B254
:10451000FEF7C2FF05F0FB00FEF7BEFF75792846E7
:10452000FEF7BAFF45F00400FEF7B6FF05F0FB000A
:10453000FEF7B2FFD8F8001048F2A750C0F600000E
:10454000FBF784FE747964F06F05E8B2FEF7A4FF10
:1045500044F09400C0B2FEF79FFF05F0FB00FEF7A9
:104560009BFF747944F04005E8B2FEF795FF44F0F4
:104570004400C0B2FEF790FF05F0FB00FEF78CFF91
:10458000D8F8041048F29C50C0F60000FBF75EFE1D
:10459000747964F02F05E8B2FEF77EFF44F0D40092
:1045A000C0B2FEF779FF05F0FB00FEF775FF7479E6
:1045B00044F04005E8B2FEF76FFF44F04400C0B29B
:1045C000FEF76AFF05F0FB00FEF766FFF86E03F0EA
:1045D000E7FA024648F28D50C0F600000B46DF2194
:1045E0000091FBF733FEB3E07479C7F8509064F0A4
:1045F0007F05E8B2C7F86090C7F86490FEF74CFFFB
:1046000044F08400C0B2FEF747FF05F0FB00FEF760
:1046100043FF75792846FEF73FFF45F00400FEF79B
:104620003BFF05F0FB00FEF737FF48F27D50C0F678
:10463000000024E07479C7F86C9064F07F05E8B25C
:10464000C8F80090C8F80490FEF726FF44F08400F4
:10465000C0B2FEF721FF05F0FB00FEF71DFF7579E4
:104660002846FEF719FF45F00400FEF715FF05F098
:10467000FB00FEF711FF48F28550C0F60000FBF783
:10468000E5FD747964F03F05E8B2FEF705FF44F0FC
:10469000C400C0B2FEF700FF05F0FB00FEF7FCFE11
:1046A00075792846FEF7F8FE45F00400FEF7F4FEA3
:1046B00005F0FB00FEF7F0FE48F26759C0F600096E
:1046C0004846FBF7C3FD747964F06F05E8B2FEF766
:1046D000E3FE44F09400C0B2FEF7DEFE05F0FB00FE
:1046E000FEF7DAFE747944F04005E8B2FEF7D4FE36
:1046F00044F04400C0B2FEF7CFFE05F0FB00FEF729
:10470000CBFE48F2B250C0F60000FBF79FFD747973
:1047100064F02F05E8B2FEF7BFFE44F0D400C0B24B
:10472000FEF7BAFE05F0FB00FEF7B6FE747944F022
:104730004005E8B2FEF7B0FE44F04400C0B2FEF718
:10474000ABFE05F0FB00FEF7A7FE4846FBF77EFD3B
:10475000747964F07F05E8B2FEF79EFE44F08400B1
:10476000C0B2FEF799FE05F0FB00FEF795FE7479E6
:1047700064F01F05E8B2FEF78FFE44F0E400C0B21B
:10478000FEF78AFE05F0FB00FEF786FEDBF814005C
:104790000FF6BC2100280FF6C02008BF0846FBF723
:1047A00055FD747964F03F05E8B2FEF775FE44F0FC
:1047B000C400C0B2FEF770FE05F0FB00FEF76CFE11
:1047C000747964F01F05E8B2FEF766FE44F0E40079
:1047D000C0B2FEF761FE05F0FB00FEF75DFEDBF800
:1047E00008000FF67C2100280FF67C2008BF084641
:1047F000FBF72CFD747964F05F05E8B2FEF74CFE20
:1048000044F0A400C0B2FEF747FE05F0FB00FEF73F
:1048100043FE747944F02005E8B2FEF73DFE44F013
:104820002400C0B2FEF738FE05F0FB00FEF734FEB0
:10483000DBF804000FF6382100280FF63C2008BFF3
:104840000846FBF703FD747964F01F05E8B2FEF734
:1048500023FE44F0E400C0B2FEF71EFE05F0FB00AC
:10486000FEF71AFE747944F02005E8B2FEF714FE54
:1048700044F02400C0B2FEF70FFE05F0FB00FEF787
:104880000BFEDBF800000FF6F81100280FF6F81009
:1048900008BF0846FBF7DAFCF87D012800F05081DC
:1048A000F87D022800F00B82F87D032840F0C080DC
:1048B00096F8440048F2A06349F6B065C0F20103DF
:1048C000CFF6AE7596F8451000FB035042F2107912
:1048D00096F8462001FB09004FF47A7596F84730A8
:1048E00002FB050096F84810642403FB040001EB6A
:1048F000810196F8492000EB41001044B86603F0AE
:1049000009FB0021C4F2483103F080FB4FF05651FF
:1049100003F07CFB0021CCF2482103F06DF9F8662E
:1049200096F84A0096F84B1096F84C20614300FB2D
:10493000051002EB820296F84D1000EB420008448D
:104940004DF25001401A786703F0E4FA01464CF248
:104950000000C4F27F4003F0E7F90021CBF680713C
:1049600003F04AF90021C4F2201103F04FFBB867AD
:1049700003F016F94EF2481A44F2AE75C1F27A4AC3
:10498000C4F20D0552462B4602F0E0FB01F068FD33
:104990000B46002102460020C3F6F47103F012F822
:1049A0004CF6CD44CCF6CC444CF6CC432246C3F670
:1049B000DC7302F0CBFB40F2000BC4F2240B024686
:1049C0000B460020594601F0BDFD02F055FD48455B
:1049D00028BF4846B96FC8F80000084603F0E0F861
:1049E00052462B4602F0B2FB01F03AFD0B464CF664
:1049F000CC4102462046C3F6F87102F0E3FF45F6CB
:104A0000294242F6F503CCF28F22C3F6DC7302F0A2
:104A10009DFB02460B460020594601F093FD02F033
:104A20002BFD484528BF4846C8F804000020F8750B
:104A30003079D8F808A003F06DFA054650462946AB
:104A400003F04AF948F28C1BC4F2212B50BB40F210
:104A50000000C2F20000D7F83C900469A14521D8BB
:104A6000B96C86691091B1421CD8386D29460F90F7
:104A700003F032F9B0B9386EA0420E9012D8786EB9
:104A8000B0420D900ED8F86E29460C9003F024F930
:104A900040B9D8F80050A54204D8D8F80440B44230
:104AA00040F2D081787D40F2001440F200060228E6
:104AB000C4F221244FF000094FF0010AC2F20006AF
:104AC00018D040F2012087F81890B88248F2E860C8
:104AD000C0F60000532101225023CBF8189087F82C
:104AE00008A0FBF7B3FB787D012800F0CD820228F7
:104AF00040F0218487F814A097F82400002800F0E3
:104B00001C84387E002840F01884787E002840F00D
:104B10001484022087F819A0387287F8230040F225
:104B200034301199C2F200000122FDF7DDFF0FF6CB
:104B3000DC400D210A22FBF789FB00F0FEBB00BF21
:104B4000307F48F2A06349F6B065C0F20103CFF6AA
:104B5000AE75717F00FB035042F21079B27F01FB0A
:104B600009004FF47A75F37F02FB050096F82010D8
:104B7000642403FB040001EB810196F8212000EB83
:104B800041001044786303F0C5F90021C4F24831B4
:104B900003F03CFA4FF0565103F038FA0021CCF202
:104BA000482103F029F8C8F8080096F8220096F882
:104BB000231096F82420614300FB051002EB8202CB
:104BC00096F8251000EB420008444DF25001401ABF
:104BD000386403F09FF901464CF20000C4F27F40B4
:104BE00003F0A2F80021CBF6807103F005F8002154
:104BF000C4F2201103F00AFA786402F0D1FF4EF2F9
:104C0000481A44F2AE75C1F27A4AC4F20D05524612
:104C10002B4602F09BFA01F023FC0B4600210246D2
:104C20000020C3F6F47102F0CDFE4CF6CD44CCF674
:104C3000CC444CF6CC432246C3F6DC7302F086FA31
:104C400040F2000BC4F2240B02460B4600205946EA
:104C500001F078FC02F010FC484528BF4846796C0A
:104C6000F863084602F09CFF52462B4602F06EFAAB
:104C700001F0F6FB0B464CF6CC4102462046C3F64B
:104C8000F87102F09FFE45F6294242F6F503CCF298
:104C90008F22C3F6DC7302F059FA02460B4600205D
:104CA000594601F04FFC02F0E7FB0021484528BFC0
:104CB0004846B864F975F87D02287FF4F5AD96F89A
:104CC000300048F2A06349F6B065C0F20103CFF6A8
:104CD000AE7596F8311000FB035042F2107996F849
:104CE000322001FB09004FF47A7596F8333002FB4D
:104CF000050096F83410642403FB040001EB8101E5
:104D000096F8352000EB41001044F86403F002F9F6
:104D10000021C4F2483103F079F94FF0565103F005
:104D200075F90021CCF2482102F066FF386596F84B
:104D3000360096F8371096F83820614300FB0510CE
:104D400002EB820296F8391000EB420008444DF263
:104D50005001401AB86503F0DDF801464CF200003E
:104D6000C4F27F4002F0E0FF0021CBF6807102F038
:104D700043FF0021C4F2201103F048F9F86502F066
:104D80000FFF4EF2481A44F2AE75C1F27A4AC4F2ED
:104D90000D0552462B4602F0D9F901F061FB0B4696
:104DA000002102460020C3F6F47102F00BFE4CF61F
:104DB000CD44CCF6CC444CF6CC432246C3F6DC734F
:104DC00002F0C4F940F2000BC4F2240B02460B4679
:104DD0000020594601F0B6FB02F04EFB484528BFC3
:104DE0004846F96D3866084602F0DAFE52462B4610
:104DF00002F0ACF901F034FB0B464CF6CC41024614
:104E00002046C3F6F87102F0DDFD45F6294242F670
:104E1000F503CCF28F22C3F6DC7302F097F9024659
:104E20000B460020594601F08DFB02F025FB0021C6
:104E3000484528BF48467866F975F87D03283FF451
:104E400037ADF5E540F20000C2F20000C07803F093
:104E500061F806465046314602F03EFFE0B140F2AE
:104E6000C800C2F20000856B0021284602F026FF30
:104E700040B95046294603F095F94FF0804102F0C1
:104E800039FF00BB40F2C801C2F200010120C1F8A5
:104E900038A081F8250016E040F20000C2F20000C0
:104EA000C068814509D840F20001C2F20001496999
:104EB0008C4298BF854240F2EB8140F2C800C2F2BA
:104EC0000000002181630F98314602F013FFE8B91A
:104ED00040F2C800C2F20000456D0021284602F0F1
:104EE000EDFE40B90F98294603F05CF94FF0804180
:104EF00002F000FF80B940F2C8010F98C2F2000131
:104F00004865012081F8260006E000BF40F2C80095
:104F1000C2F20000002141650C98314602F0EAFE21
:104F2000E0B940F2C800C2F20000056F0021284637
:104F300002F0C4FE40B90C98294603F033F94FF053
:104F4000804102F0D7FE78B940F2C8010C98C2F255
:104F500000010867012081F8270005E040F2C80041
:104F6000C2F200000021016740F2C800C2F2000056
:104F7000407D022872D048F28C1B40F2001440F2AF
:104F8000C80740F200060028C4F2212BC4F22124F5
:104F90004FF000094FF0010AC2F20007C2F200060A
:104FA0007FF4A2AD87F815A097F8240000286BD0F5
:104FB000787E00287FF497AD022087F819A0387218
:104FC00087F823A040F234301199C2F20000012288
:104FD000FDF78AFD48F2F060C0F60000222122228F
:104FE0000D230A270097FBF731F940F2C800C2F2FF
:104FF0000000807D90B940F2C800C2F20000807DC0
:1050000060B940F2C800C2F20000807D30B940F2C1
:10501000C800C2F20000807D0028E6D040F2C80738
:10502000C2F20007032087F823000FF2CC701A2188
:10503000FBF70CF948F28C1B40F2001440F200061A
:105040004FF00009C4F2212BC4F221244FF0010AD1
:10505000C2F2000687F8169045E500BF40F2C80787
:1050600048F28C1B40F2001440F200064FF0010A97
:10507000C2F20007C4F2212BC4F221244FF0000930
:10508000C2F2000687F815A087F8149097F824005C
:10509000002800F05281787E002840F04E8197F879
:1050A00025000126C8B3022087F82590387287F8BA
:1050B000236040F234301199C2F200000122FDF762
:1050C00013FD48F2F060C0F60000222122220D23D9
:1050D0000A250095FBF7BAF8B87D30B9B87D20B93C
:1050E000B87D10B9B87D0028F6D0032087F82300DA
:1050F000D7E90E04BD6C02F053FD024648F2CC50D5
:10510000C0F600000B461A21CDE900450291FBF7DD
:105110009DF84FF0000987F8169097F82600C8B35D
:10512000022087F82690387287F8236040F23430E6
:105130001199C2F200000122FDF7D6FC48F2F0609E
:10514000C0F60000222122220D230A260096FBF73A
:105150007DF8B87D30B9B87D20B9B87D10B9B87D7B
:105160000028F6D0032087F82300786DD7E918458A
:1051700002F016FD024648F22060C0F600000B4621
:105180001A21CDE900450291FBF760F84FF00009C4
:1051900087F8169097F8270048F28C1B40F200140D
:1051A00040F200060028C4F2212BC4F221244FF063
:1051B000010AC2F2000600F0C080022087F82790A2
:1051C000387287F823A040F234301199C2F20000FF
:1051D0000122FDF789FC48F2F060C0F600002221B0
:1051E00022220D230A260096FBF730F8B87D30B94D
:1051F000B87D20B9B87D10B9B87D0028F6D003205D
:1052000087F82300386F02F0CBFC0246D8E9000390
:10521000CDE9000348F27460C0F600000B461A2185
:105220000291FBF713F848F28C1B40F2001440F295
:1052300000064FF000094FF0010AC4F2212BC4F21E
:105240002124C2F2000687F8169087F82CA074E09B
:1052500044313A204F4E000044313A4F4646000058
:1052600044323A204F4E000044323A4F4646000046
:1052700044333A204F4E000044333A4F4646000034
:1052800044343A204F4E000044343A4F4646000022
:105290000D9A8A423FF611AE0E9A82423FF60DAE4B
:1052A000109888423FF609AE0F98314602F014FD7F
:1052B00000287FF402AE0C98314602F00DFD002864
:1052C0007FF4FBAD40F2C800C2F20000407D01282F
:1052D00015D140F2C802C2F200020020107548F257
:1052E0008C10C4F221200121816148F2E860117222
:1052F000C0F60000532100225023FAF7A7FF40F226
:10530000C80748F28C1B40F2001440F200064FF030
:105310000009C2F20007C4F2212BC4F221244FF08D
:10532000010AC2F2000687F81590C7F83890C7F84E
:105330005490C7F8709087F8149097F82800C8B375
:1053400097F82400A0B3787E90BB0220387287F8CB
:1053500023A040F234301199C2F200000122FDF77F
:10536000C3FB48F2F060C0F60000222122220D2388
:105370000A250095FAF76AFFB87D30B9B87D20B9E3
:10538000B87D10B9B87D0028F6D0032087F8230037
:10539000F87A0FF28C4101280FF2904008BF0846BE
:1053A0001A21FAF753FFC82087F81690FBF768FE1A
:1053B00087F8289097F82900D8B397F82400B0B35D
:1053C000787EA0BB0220387287F823A040F23430E8
:1053D0001199C2F200000122FDF786FB48F2F0604D
:1053E000C0F60000222122220D230A250095FAF79B
:1053F0002DFFB87D30B9B87D20B9B87D10B9B87D22
:105400000028F6D0032087F82300B87B48F2C86153
:1054100001280FF22840C0F6000108BF08461A21F3
:10542000FAF714FFC82087F81690FBF729FE87F8D3
:10543000299097F82A00E8B397F82400C0B3787E43
:10544000B0BB0220387287F823A040F234301199A3
:10545000C2F200000122FDF747FB48F2F060C0F6FF
:105460000000222122220D230A250095FAF7EEFEE4
:10547000B87D30B9B87D20B9B87D10B9B87D0028A5
:10548000F6D0032087F82300787C48F2D461012805
:1054900048F2BF50C0F60000C0F6000108BF084641
:1054A0001A21FAF7D3FEC82087F81690FBF7E8FD1B
:1054B00087F82A9087F808A02068A8B90A20FBF787
:1054C000DFFD206880B9206830B9206820B92068E5
:1054D00010B920680028F6D0B0780130B070B078EC
:1054E000042828BF86F802A0606828BB0A20FBF7C2
:1054F000C7FD606800BB606830B9606820B960684B
:1055000010B960680028F6D0DBF814005023C043BF
:10551000CBF81400DBF81400B979B0FA80F0400938
:1055200021F001010844B871C2B248F2E060C0F64F
:1055300000005321FAF78AFE206930BB0A20FBF7EE
:105540009FFD206908BB206930B9206920B9206916
:1055500010B920690028F6D0DBF808005023C043BA
:10556000CBF80800DBF80800B979B0FA80F0400900
:1055700021F0020141EA4000B871C2B248F2E06095
:10558000C0F600005321FAF761FE606930BB0A20C3
:10559000FBF776FD606908BB606930B9606920B9C6
:1055A000606910B960690028F6D0DBF80400502368
:1055B000C043CBF80400DBF80400B979B0FA80F0FE
:1055C000400921F0040141EA8000B871C2B248F2FA
:1055D000E060C0F600005321FAF738FEA06930BB46
:1055E0000A20FBF74DFDA06908BBA06930B9A0698E
:1055F00020B9A06910B9A0690028F6D0DBF8000036
:105600005023C043CBF80000DBF80000B979B0FAB2
:1056100080F0400921F0080141EAC000B871C2B22F
:1056200048F2E060C0F600005321FAF70FFEE0698F
:1056300000BB387DF0B90A20FBF722FDE069C8B94C
:10564000E06930B9E06920B9E06910B9E069002883
:10565000F6D0DBF818005321C043CBF81800DBF874
:10566000180050232AEA000248F2E860C0F6000061
:10567000FAF7ECFD97F82B0040B148F2E860C0F66D
:105680000000532101225023FAF7E0FDB87947F2D8
:1056900007522AEA0001CBF8141000F002018AEA4E
:1056A0005101CBF8081000F0040100F008008AEA6C
:1056B00091018AEAD000CBF80410CBF80000386BD7
:1056C0004AF68B710130C8F6F8214143C0F250729E
:1056D000914238635CD8D8F8000087F808A00E9093
:1056E000D8F804000D90D8F8080002F059FACDE976
:1056F0000F1040F2C800C2F2000040F2C801D0F81A
:1057000048A0006DC2F20001FF6BD1F8609002F07A
:1057100047FA064640F2C800C2F20000D0F864B072
:10572000C06E0C4602F03CFA0D460E9906900891A8
:105730000D9948F20B7009915021DDE90F320A9161
:10574000CDE9007A40F2C807029640F200060394C1
:1057500040F20014CDF814B048F28C1BC0F60000E3
:105760005321C2F20007C2F20006C4F22124CDF890
:1057700010904FF00009C4F2212B07954FF0010A59
:10578000FAF764FD5BF8040CC0434BF8040C386B6B
:105790004CF6CD41CCF6CC41484349F699114FEA3D
:1057A0007000C1F6991188423EF6E8ACB87C012839
:1057B0003EF4DCACB87C00287EF4E0ACF87A48F229
:1057C0008C1B002808BFC4F8BCA0B87B40F20006C0
:1057D000002808BFC4F8B0A0787CC4F2212B0028B0
:1057E0004FF001004FF00009C2F2000608BFC4F8F4
:1057F000AC00FEF7C2BC00BF5741524E494E472095
:105800004C4556454C20312563000000415444303E
:105810003836383339303434323B25632563000061
:105820004E4F44452031204F4E2563004E4F444596
:105830002031204F46462563000000004E4F44456E
:105840002032204F46462563000000005FEA400CEE
:1058500008BF91F0000F4FEA8C234FEAC12243EAC0
:1058600051514FEA1C5018BF00F5F0404FEA30008C
:1058700018BF41F000415FEA6C5C00F02980BCF188
:10588000FF3F08BF40F080407047130C06BF120472
:105890004FF0100C4FF0000C130E04BF12020CF16D
:1058A000080C130F04BF12010CF1040C930F04BF7A
:1058B00092000CF1020CD30F04BF52000CF1010C4A
:1058C00011464FF00002A0F11F00A0EB0C00704742
:1058D00011F0004F08BF704731F000413FF4D5AFE1
:1058E0000B0C06BF09044FF0100C4FF0000C0B0E10
:1058F00004BF09020CF1080C0B0F04BF09010CF1E5
:10590000040C8B0F04BF89000CF1020CCB0F04BFF9
:1059100049000CF1010CCCF1200322FA03F341EA17
:10592000030102FA0CF2A0EB0C0000F10100704739
:1059300023F07F4720F07F4C80EA030000F0004016
:10594000ACEB070303F57C5303F1FF032DE980491A
:1059500009B44FEA144324EA03484FEA154B25EAF9
:105960000B4E0FF2042606EB13273E7803FB066767
:10597000C7F5000707FB06F64FEAD64606F1020612
:105980004FEA543707FB066CCCF1005C4FEA1C472A
:105990002CEA074C0CFB06F507FB06F404EB154656
:1059A0004FEA961649085FEA320234BF00204FF0F2
:1059B00000404FEAD13706FB07FC4FEA1C4C0CFBBA
:1059C0000BF7D21B03FB0CF761EB07010CFB0EF787
:1059D000B0EB074072EB17420CFB08F734BFA2EBA9
:1059E0000742B2EB074261EB17414FEA0C444FEA22
:1059F000910706FB07FC4FEA1C4C0CFB0BF7B0EBC6
:105A0000C74072EB573203FB0CF734BFA2EBC7421F
:105A1000B2EBC74261EB57310CFB0EF7B0EBC7009E
:105A200072EB57720CFB08F734BFA2EBC702B2EB64
:105A3000C70261EB57714FEA816141EA92114FEA67
:105A4000826242EA90124FEA806004EBCC04039F2A
:105A50004FEAD13706FB07FC4FEA1C4C0CFB0BF757
:105A6000D21B03FB0CF761EB07010CFB0EF7B0EB4D
:105A7000074072EB17420CFB08F734BFA2EB07425A
:105A8000B2EB074261EB17414FEA8C5504EB9C24C3
:105A90004FEA910706FB07FC4FEA1C4C0CFB0BF787
:105AA000B0EBC74072EB573203FB0CF734BFA2EBED
:105AB000C742B2EBC74261EB57310CFB0EF7B0EBBC
:105AC000C70072EB57720CFB08F734BFA2EBC7029A
:105AD000B2EBC70261EB57714FEA816141EA921163
