:020000040800F2
:10000000A80900200D0200085D350008A133000892
:10001000593500087D0F00084D3D00080000000024
:10002000000000000000000000000000F93B000894
:10003000810F00080000000061350008FD3B00084A
:1000400027020008270200082702000827020008EC
:1000500027020008270200082702000827020008DC
:1000600027020008270200082702000827020008CC
:1000700027020008270200082702000827020008BC
:1000800027020008270200082702000827020008AC
:10009000270200082702000827020008270200089C
:1000A000270200082702000827020008270200088C
:1000B000053C0008113C0008270200082702000840
:1000C000270200082702000827020008270200086C
:1000D00027020008293D0008353D0008413D000881
:1000E00027020008270200082702000800F002F893
:1000F00000F07DF814A696E8000CB244B344DA454B
:1001000001D100F074F8BAE80F000FA696E83000AD
:10011000A5EB040504EB0607AAEB0704A7F101070A
:100120004FEA15154FEA3414A4F10104AC4201D38F
:1001300000F05DF813F0010F18BFFB1A43F0010344
:1001400000F001F8DBE71847308700005087000017
:10015000103A24BF78C878C1FAD8520724BF30C8F3
:1001600030C144BF04680C60704700007047000055
:100170000023002400250026103A28BF78C1FBD8B0
:10018000520728BF30C148BF0B607047662908F08E
:100190000481692900F0C880642900F0C5807529B0
:1001A00000F0C2806F2900F05981782900F0808129
:1001B0000368DB0928BF41F08001632900F0E78470
:1001C000E32900F00D85002070471FB500F040FDC9
:1001D00004000020002106F06DFF401C606000203C
:1001E000002106F051FFE0601FBD10B510BD00F00A
:1001F0004FFE1146FFF7E9FF03F000FE00F06DFE31
:1002000003B4FFF7F2FF03BC00F0B0FE09488047DB
:1002100009480047FEE7FEE7FEE7FEE7FEE7FEE7E8
:10022000FEE7FEE7FEE7FEE704480549054A064B00
:1002300070470000013C0008ED000008A803002002
:10024000A8090020A8050020A80500200FB4044933
:1002500010B503AA029800F0A7FC10BC5DF814FBCF
:100260009401002070B5044685690068C10601D577
:10027000302600E02026C00707D070BDD4E9012158
:1002800030469047206A401C20626D1EF6D570BD36
:1002900070B5044685690078C00707D170BDD4E900
:1002A000012120209047206A401C20626D1EF6D557
:1002B00070BD09684A0501D540B27047C905FCD533
:1002C00000B2704709684A0501D5C0B27047C90538
:1002D000FCD580B2704770B50C460546012A05D0A2
:1002E0002878800600D5EA69002302E0012305E0B2
:1002F0005B1C934202D2E05C0028F9D1A869E618A1
:10030000C01AA861286A184428622846FFF7AAFF85
:1003100004E0D5E9012114F8010B9047B442F8D369
:100320002846FFF7B5FF70BD2DE9F04106460024D1
:1003300010687529314616A510D0FFF7BAFF0028BE
:1003400002DA404213A507E031688A0701D512A5F9
:1003500002E0490704D511A5012401E0FFF7B2FF2F
:1003600000210A2206F1240709E0B0FBF2FCB0FBF1
:10037000F2F302FB1C00303078541846491C002868
:10038000F3D123462A463046BDE8F04100F08EB94D
:10039000000000002D0000002B00000020000000E5
:1003A0002DE9FF5F15468A460446DFF8AC80F84425
:1003B0000027D8E900103E46CDE9001010E03AF8D9
:1003C00016106A4602A800F017FC411C07D02178DD
:1003D000890603D5E269391891420DD80744761C85
:1003E0002078800602D5E069B84205DDAE42E6DB42
:1003F0003AF816000028E2D1A069C01BA06120468F
:10040000FFF730FFD8E90010CDE90010002017E019
:100410003AF818106A4602A800F0EEFBB0F1FF3F70
:1004200081460BD000250DF1080B05E0D4E9012130
:100430001BF8050090476D1C4D45F7D308F10100EE
:10044000B0428046E4DB206A384420622046FFF751
:100450001FFFBDE8FF9F0000DE80000070B504466E
:1004600021461068FFF72EFF002104F1240505E066
:1004700000F007023032C0086A54491C0028F7D146
:100480002068002308A2050708D500F020000843D3
:1004900004D0E069012305A2401EE0612046BDE8CA
:1004A000704000F003B900000000000030000000C0
:1004B00070B504460D4621461068FFF703FF2188FA
:1004C000090502D50F4A7A4402E00E4A7A440E32F8
:1004D000002104F1240305E000F00F060009965DF9
:1004E0005E54491C0028F7D120780023000704D56A
:1004F000702D02D009B1022311322046BDE87040B0
:1005000000F0D4B8CE7F00002DE9F05F89460446A4
:100510004FF0000ADFF874B1FB44C0F820A0204679
:10052000E1688847002874D0252806D0D4E9012145
:100530009047206A401C2062F1E700265F46204673
:10054000E16888472028054607DB312D05D2781958
:1005500010F8200C08B10643F1E7B00701D526F0EA
:100560000406C4F81CA00027C4F818A02A2D09D03E
:10057000284605F045FE38B304EB8708303DC8F83F
:10058000185019E059F8041B204604EB87029161CA
:10059000E1688847012F054618D1E069002820DA74
:1005A00026F020061DE0D8F8180000EB800005EBCF
:1005B00040003038C8F818002046E16888470546F2
:1005C00005F01EFE0028EED1012F0AD02E2D08D1F5
:1005D0002046E16888477F1C0546022F46F020062A
:1005E000C4DBA069002803DA404246F00106A0619E
:1005F000F00701D026F010066C2D0BD0682D09D025
:100600004C2D39D06A2D35D0742D35D07A2D33D07C
:1006100016E038E0E1682F4620468847B842054694
:1006200009D16C2F26D04FF48060E1680643204644
:100630008847054604E06C2F1AD04FF480700643BB
:100640000DB3A5F14100192802D8203546F4006603
:100650004A462946204626604E46FFF797FD80B160
:1006600001280BD0F61D26F0070000F1080956E717
:100670004020E4E78020D8E70020D6E706F104090F
:100680004DE7284652E7206ABDE8F09FA47F0000AE
:1006900070477047704710B500F0DEFA006810BD73
:1006A00010B5044600F0D8FA046010BD2DE9F047FB
:1006B0000D4699469246044600F1240801688806D2
:1006C00004D5E06921F01001216000E00120A8427A
:1006D00001DD471B00E00027A1697A1902EB090040
:1006E000081AA0612078C00602D42046FFF7BAFDA0
:1006F000002608E0D4E901211AF806009047206A94
:10070000401C761C20624E45F4DB2078C0060AD5DA
:100710002046FFF7A7FD06E0D4E9012130209047ED
:10072000206A401C2062381EA7F10107F4DC07E0B4
:10073000D4E9012118F805009047206A401C206286
:10074000281EA5F10105F3DC2046FFF7A1FD207866
:10075000000602D50220BDE8F0870120FBE72DE965
:10076000FF4F0C461E464FF0FF378BB0D2E9000119
:10077000DDF860800A908A46C1F30A5505B93D4606
:10078000002108464FF00000BAF1000F00F44000CD
:1007900005DA00EB80004FF4400101EA50004FEA17
:1007A0009059B9F1010F00DDB9460A9850EA4A00A4
:1007B0000ED044F61050A5F2FF3545432F14B8F182
:1007C000000F1ED07542291E1EDDC9F100021CE07B
:1007D000B8F1010F4FF0000001D0302103E0F243E7
:1007E00005E02154401CB042FBDB304600220021D2
:1007F00021540B99C1F80880C1E900200FB0BDE871
:10080000F08FBD1B6D1CDEE74A4600DA694206A880
:1008100000F0C4FA06AB93E8070003AB83E80700D7
:1008200050460A9905F098F88DE80700A0F50050A9
:100830001F3800900398002D0ADD42F21F014A463E
:100840000844002303A90390684605F001FB09E072
:10085000A0F500504A461F38002303A903906846BC
:1008600005F00BFB8DE807000004000C03D04FF0EF
:10087000FF30410800E01046B8F1000F03D000221D
:10088000009215461EE0751E05D400F0E9F93032DD
:1008900062556D1EF9D5B3460122084302D00022ED
:1008A0007F1C04E02078302801D100227F1E002A1E
:1008B000099784D01DE0112D07DA00F0D1F930320C
:1008C00062556D1C50EA0102F5D1084302D0009830
:1008D000C8B10EE00021681E05E0235C625C635431
:1008E0002254401E491C8142F7DBAB46A81B401E28
:1008F0000990002004F80B000B98099AC0F80880B2
:10090000C0E9002B7AE711264FF0000857E72DE9E0
:10091000F04F88460446D21D22F0070191B0D1E97C
:100920000001CDE90A0105F0DFFB02460B98C00F7C
:1009300001D02D2007E02068810701D52B2002E09F
:10094000202101EAC000032A099001D0072A05DB13
:1009500003464146204600F0E1F90BE1207880068D
:1009600001D5E06900E00620B8F1650F814606D0A8
:10097000B8F1660F18D0B8F1670F70D131E00020E0
:10098000B9F1110F009001DB112301E009F101031E
:100990000AAA01A90CA8FFF7E2FEDDE90C70002607
:1009A00009F10105834647E001204B4600904FF0D6
:1009B00000470AAA01A90CA8FFF7D1FEDDE90DB096
:1009C0000C995D46002610B909F101000D18B9EB2C
:1009D000050003D4C0F1FF3609F10105A5EB0900BC
:1009E0002BE0B9F1010F01DA4FF001090020B9F154
:1009F000110F0090484601DD112300E003460AAACA
:100A000001A90CA8FFF7ABFEDDE90C704D460026EE
:100A10008346207800070AD4AB4500DA5D4601A87A
:100A2000012D04DD411911F8011C302907D04F4573
:100A300002DA17F1040F04DA012082460FE06D1E7E
:100A4000EEE7002F02DCED1B3E4403E0781CA842D9
:100A500000DD7D1CB81B00F1010A4FF00047207833
:100A6000000703D4AA4501DB4FF0FF3A0021B7F19C
:100A7000004F0DF143088DF8431024D002202B23A2
:100A8000002F01DA7F422D230A21021EA0F101006E
:100A900000DC5FB197FBF1FC97FBF1F201FB1C7CE2
:100AA00017460CF1300C08F801CDEEE7A8F1010073
:100AB00003702188090501D5452100E06521A0F1D9
:100AC000010800F8011C09980FA9A1EB0807FF1DF8
:100AD00000B10120411901EBEA70A1693844081AFC
:100AE000401EA0612078C00602D42046FFF7BAFB62
:100AF000099828B1D4E901219047206A401C20625E
:100B00002078C00622D52046FFF7ACFB1EE0002E61
:100B100004DBB34502DD01A8805D00E03020D4E9AC
:100B200001219047206A401C2062761CAAF1010036
:100B30005FEA000A0AD100F08BF8C0680168405CE7
:100B4000D4E901219047206A401C2062281EA5F1AB
:100B50000105DCDC07E0D4E9012118F8010B90471E
:100B6000206A401C2062381EA7F10107F3DC2046F2
:100B7000FFF78EFB032011B041E610B5436913B1B6
:100B8000AFF3008001E0FFF7A6FB012010BD127853
:100B900000F124010A7000224A700122EDE7116879
:100BA0004FF0FF32E9E70000074B70B50D467B447C
:100BB00000F0A1F80446284600F062F910B14FF0A9
:100BC000FF3070BD204670BD9F31000010B54369F5
:100BD00013B1AFF3008001E0FFF7E2FB012010BD8D
:100BE000128800F1240182840022C2840122EDE7F0
:100BF00011684FF0FF32E9E72DE9F04116460C4647
:100C0000054600F01DF8036893F80101012807D09C
:100C1000FF2C12D8185D80B101202C70BDE8F08146
:100C2000D3F807013246214603F20713C7182846B6
:100C3000BC46BDE8F041002360474FF0FF30EDE7D0
:100C400010B500F005F8001D10BD00BF696400007C
:100C50000048704798000020004870477800002046
:100C600030B5B0F10A0271F100034FEA900E4EEA7E
:100C7000817EB0EB0E0061EB91014FEA101E4EEA4F
:100C8000017E10EB0E0041EB11114FEA102E4EEADF
:100C9000016E10EB0E0041EB11214FEA104E4EEAAF
:100CA000014E10EB0E0041EB1141401841F10001E3
:100CB0004FEAD00040EA41704FEAD1014FEA810487
:100CC00044EA907410EB800544EB01046D1944EB89
:100CD0000404521BA3414FF0000348BF0A3200D561
:100CE00030BD401C41F1000130BD000001694A1CCB
:100CF00002610878704700B58FB0CDE9013100215D
:100D0000059105497944CDE9031011466846FFF77E
:100D1000FBFB0FB000BD0000E5FFFFFF2DE9F04138
:100D20001F46044603260168072A01F4006004DB1D
:100D300008B116A505E016A503E008B115A500E069
:100D400015A521F010002060A069C01EA0610FB1A0
:100D5000401EA0612046FFF785FA4FB1D4E901217A
:100D600038469047206A401C2062C01C206206E082
:100D7000206AFAE7D4E9012115F8010B9047761EA5
:100D8000F8D22046FFF784FABDE8F0814E414E00CC
:100D90006E616E00494E4600696E66002DE9F047AF
:100DA000814616468AB0354878440DC88DE80D0056
:100DB00032487844801C03AC0DC884E80D0041F62D
:100DC0009B300844372190FBF1F290FBF1F5A5F13F
:100DD000800501FB12041B3C02D56442012000E0A7
:100DE0000020DFF898A080460027FA44AAF1BE0A46
:100DF0000EE0E0070AD03246684607EB47010123C0
:100E00000AEB810105F039F88DE8070064107F1CBA
:100E1000002CEED1194F7F44AE3F19E0E80715D002
:100E200007EB04100DF1180A90E80E008AE80E0096
:100E3000C068F04201D1981908903246012306A9F2
:100E400003A805F01AF803AB83E807006D10641CD3
:100E5000002DE3D14FF0010332466946B8F1000F8F
:100E600003A802D004F0F4FF01E005F006F8C9E998
:100E70000001C9F808200AB0BDE8F08770780000CA
:100E8000007B00F080007047004870477800002029
:100E90007546FFF7F9FFAE4605006946534620F058
:100EA0000700854618B020B5FFF7BEF9BDE8204021
:100EB0004FF000064FF000074FF000084FF0000B16
:100EC000AC46ACE8C009ACE8C009ACE8C009ACE885
:100ED000C00921F007018D46704710B50446AFF3F5
:100EE00000802046BDE81040FFF78AB94FF0013C72
:100EF00050F8042B51F8043B9A4221D1A2EB0C0389
:100F0000934313EACC1317D150F8042B51F8043B48
:100F10009A4215D1A2EB0C03934313EACC130BD1E5
:100F200050F8042B51F8043B9A4209D1A2EB0C0370
:100F3000934313EACC13DBD04FF00000704700BF9F
:100F4000D01A01BAB1FA81F101F0180122FA01F0C8
:100F5000CB40DBB2C0B2C01AC1F120012CFA01F3C0
:100F6000D11A914311EAC311E6D170470149182003
:100F7000ABBEFEE72600020070470000FEE700005F
:100F800070470000014690F82100022816D1086839
:100F9000D1E90FC3026822F00E020260026822F05B
:100FA00001020260012000FA03F2CCF8042081F86B
:100FB00021000020002281F820207047042088634F
:100FC0000120002281F820207047000090F82110B5
:100FD000022923D10268116821F00E0111602F212E
:100FE0001368C4F202018A4240F20401C4F2020111
:100FF00023F00103136015DD3023C4F202039A428B
:101000001CD04423C4F202039A421BD05823C4F2DA
:1010100002039A421CD14FF4803321E00421816302
:10102000012070470823C4F202039A420ED01C2309
:10103000C4F202039A420BD1102311E04FF48073E3
:101040000EE000BF4FF480530AE000BF012307E029
:1010500001F1680C4FF08073624508BF4FF48013B4
:101060000B60012180F82110426B002180F82010D4
:1010700022B180B590470021BDE880400846704706
:10108000B0B5044600F026F9054640F25800C2F219
:1010900000000078611C18BF044400BF00F01AF97A
:1010A000401BA042FAD3B0BD2DE9F04F82B00E68CC
:1010B000002E00F0FD8041F20042C4F20102042340
:1010C00040F2004E904208BF03234FF6FF7CC4F26B
:1010D000010E009300240123C1F2100C4FF0000A0E
:1010E0004FF0000944E000BF012704F00C030F2279
:1010F0009A402BEA020207FA03F34FEA9A051A43D1
:1011000046F825204E6840F20C45F202DEF8082031
:1011100054BF22EA080242EA0802C4F20105CEF8EE
:1011200008202A68B30254BF22EA080242EA0802F1
:101130002A60B303DEF8042054BF22EA080242EA20
:101140000802F303CEF80420DEF800204FF001037C
:1011500054BF22EA080242EA0802CEF800200E68D4
:101160000AF1010A36FA0AF204F1040400F0A08040
:1011700003FA0AFB16EA0B08F1D04E68664511DC4B
:10118000122E55D8DFE806F0340A4448545454541B
:101190005454545454545454544C5000D1F80C905A
:1011A00046E000BF4FF6FF72C1F2210296420FDC0B
:1011B0000022C1F2110296421AD00022C1F212029C
:1011C000964215D00022C1F22102964210D02FE0A3
:1011D0000022C1F2220296420AD00022C1F231025C
:1011E000964205D00022C1F23202964220D100BFC1
:1011F0008A684AB1012A14BFC0F814B0C0F810B010
:101200004FF0080914E000BF4FF0040910E000BFE0
:10121000CA6802F108090BE04FF0000908E000BFBE
:10122000CA6802F1040903E0CA6802F10C0900BFB0
:1012300022460646B8F5807F24BF203A0436376838
:101240000F25954027EA050509FA02F22A43326084
:10125000CA79D2067FF583AF41F21803C4F20203C4
:101260001A68AEF57E7642F001021A601A6802F042
:1012700001020192019A2AF0030256F802B040F6E8
:101280000002C4F20102904210D040F60042C4F2C3
:10129000010290423FF428AF41F20002C4F2010281
:1012A000009F904208BF02271FE700BF00271CE7EE
:1012B00002B0BDE8F08F0000C26802EA010391436A
:1012C00041EA034101617047002A08BF0904016136
:1012D0007047000040F2A030C2F200000068704782
:1012E00040F2580040F2A031C2F20000C2F2000108
:1012F00000780A68104408607047000080B542F228
:101300000000C4F20200016841F0100101600320F6
:1013100000F08CF80F2000F005F800F027F800200E
:1013200080BD000070B540F25806C2F2000640F2DF
:1013300060013278C2F200014FF47A730968B3FB9E
:10134000F2F20446B1FBF2F1084600F019FC0F2C52
:101350004FF0010508D838B94FF0FF302146002280
:10136000002500F037F87460284670BD82B041F265
:101370001800C4F202000168022241F0010101607C
:10138000016801F0010101910199416841F080512A
:101390004160406800F08050009000980420C4F242
:1013A0000100016862F31A61016002B07047000039
:1013B000002848BF704700F01F01012202FA01F126
:1013C0001C2202EAD0004EF20012CEF2000281503E
:1013D0007047000010B54EF60C5CCEF2000CDCF845
:1013E0000030C3F3022E8EF00704042C28BF04241F
:1013F000BEF103034FF0FF3E0EFA04F438BF0023A2
:10140000A14399400EFA03F39A43114300F00F02EF
:1014100000F160430901043A03F564436244002883
:1014200048BF02F10C03197010BD00004EF60C51BC
:10143000CEF200010A684FF6FF031A4060F30A2259
:1014400042F0806040F0FD7008607047002804BFE3
:10145000012070472DE9F04381B042F20008C4F248
:1014600002080446D8F800000D4600F00700884244
:101470000CD2D8F8000020F007002843C8F800007C
:10148000D8F8000000F00700A8426ED1206841F2B1
:1014900004098107C4F2020917D5410705D5D9F817
:1014A000001041F4E061C9F80010010705D5D9F832
:1014B000001041F46051C9F80010D9F80010A2687A
:1014C00021F0F0011143C9F80010C00744D1D8F849
:1014D000000000F00700A8420CD9D8F8000020F066
:1014E00007002843C8F80000D8F8000000F0070003
:1014F000A8423AD12068410707D5D9F80010E26820
:1015000021F4E0611143C9F80010000708D5D9F8AB
:101510000000216920F4605040EAC100C9F80000D1
:10152000D9F8001042F2004001F00C02042AC0F287
:10153000F40059D0082A45D148F25C63C1F38342D4
:10154000C0F600039A5CC90342D440F60010C0F212
:101550003D00504348E000BF606802280AD00128DF
:101560002AD159F8041C890308D4012001B0BDE830
:10157000F08300BF59F8041C8901F6D5D9F8001092
:1015800021F003010843C9F80000FFF7A3FE064657
:1015900041F28837D9F80000616800F00C00B0EB28
:1015A000810F94D0FFF796FE801BB842F2D903203A
:1015B00001B0BDE8F08300BF59F8041C8907D4D5F9
:1015C000DCE700BF41F20020C0F27A000CE000BF6F
:1015D000D9F8001048F24C63C1F34041C0F6000353
:1015E000595C5043B0FBF1F0D9F8001048F2346276
:1015F000C1F30311C0F60002515C40F2600220FA10
:1016000001F140F25C00C2F200000068C2F2000288
:101610001160FFF787FE002001B0BDE8F0830000F5
:1016200040F2600041F20401C2F20000C4F2020183
:101630000068096848F24462C1F30221C0F6000262
:10164000515CC8407047000040F2600041F2040164
:10165000C2F20000C4F202010068096848F2446264
:10166000C1F3C221C0F60002515CC84070470000BF
:10167000002804BF012070472DE9F04182B00446E4
:10168000007841F20006C007C4F202060CD0706870
:1016900000F00C00042840F081803068800303D5FE
:1016A0006068002800F04E81207880071BD57068A4
:1016B00010F00C0F09D0706800F00C00082840F002
:1016C0008B807068C00300F187803068800703D585
:1016D0002069012840F036813068616920F0F80007
:1016E00040EAC10030602078000713D4207840071A
:1016F0002CD4E569002D00F02081706800F00C000A
:10170000082840F0AF80012D40F00C81012002B08C
:10171000BDE8F081A069002800F08C800020C4F2B0
:1017200042200121C0F88014FFF7D4FD054600BF18
:10173000706A800700F1BA80FFF7CCFD401B0228D9
:10174000F6D9032002B0BDE8F08100BFF0695FEA7E
:10175000C00808D4F06940F08050F061F06900F0F2
:1017600080500090009847F20007C4F200073868E4
:10177000C0054DD4386840F480703860FFF7AAFD8A
:10178000054600BF3868C00542D4FFF7A3FD401BE3
:101790006428F7D9032002B0BDE8F081706800F03A
:1017A0000C00082803D17068C0033FF576AF60686D
:1017B000002800F00981B0F5A02F00F01D81B0F5E0
:1017C000803F00F01D81306820F480303060306848
:1017D00020F4802017E100BF2069002840F20000BB
:1017E000C4F2422000F08C8001210160FFF772FDFD
:1017F000054600BF306880073FF56EAFFFF76AFD12
:10180000401B0228F6D9032002B0BDE8F08100BFDA
:10181000E068002800F09A80052800F0B1800128D7
:1018200000F0B280306A20F001003062306A20F0AF
:101830000400ACE00020C4F242200021C0F8801473
:10184000FFF748FD054600BF706A80077FF54EAF81
:10185000FFF740FD401B0228F6D9032002B0BDE887
:10186000F08100BF0027C4F2422700203866FFF74E
:1018700031FD022D05460DD13068800140F1D68042
:10188000FFF728FD401B02284FF00300F4D902B0F7
:10189000BDE8F081306880014FD5FFF71BFD401B8C
:1018A00002284FF00300F5D9F1E700BF40F26000D5
:1018B000C2F20000006844F6D351C1F26201A0FBFD
:1018C0000101480A019000BF00BF0198411E002895
:1018D00001913FF40BAF00BF0198411E0028019118
:1018E0003FF404AF00BF0198411E002801913FF46E
:1018F000FDAE00BF0198411E00280191E4D1F5E63C
:1019000000210160FFF7E6FC054600BF3068800754
:101910007FF5E9AEFFF7DEFC401B02284FF0030025
:10192000F4D9B4E77068216A00F480328A4209D1A0
:10193000616A00F47010884204D1002002B0BDE852
:10194000F08100BF012002B0BDE8F081306A20F0D4
:1019500001003062306A20F004003062FFF7BAFC08
:10196000054641F2883700BF306A800722D5FFF76D
:10197000B1FC401BB8424FF00300F5D987E700BF28
:10198000306A40F004003062306A40F0010030629A
:10199000FFF7A0FC054641F2883700BF306A800798
:1019A00008D4FFF797FC401BB842F7D9032002B0D8
:1019B000BDE8F081B8F1000F3FF59BAEF06920F073
:1019C0008050F06195E600BF306820F480303060D0
:1019D000306820F480203060FFF77CFC054600BFB3
:1019E000306880037FF560AEFFF774FC401B64280D
:1019F0004FF00300F4D94AE7306840F480203060AB
:101A0000306840F480303060FFF764FC054600BF6A
:101A1000306880033FF548AEFFF75CFC401B64284C
:101A2000F6D9032002B0BDE8F08100BF206AB0F50E
:101A3000803F05D17168A26821F4003111437160C3
:101A40007168626A21F474111143084370600120C7
:101A50003866FFF73FFC0446306880013FF56DAF04
:101A6000FFF738FC001B02284FF00300F4D90EE703
:101A700070B538B10446406A30B10020206104F1ED
:101A8000140007E0012070BD6068B0F5827F03D0CC
:101A900004F11C00002101600026A66294F85100A8
:101AA00020B9204684F8506000F038F8022084F80D
:101AB000510094E8071001F48271036802F40442B3
:101AC00023F040030360236911440CF400621144C5
:101AD00003F002026369114403F00102A369E5699E
:101AE000114403F40072114405F03802256A1144D0
:101AF00005F08002A56A114305F40052114301600C
:101B0000042101EA13414160C16921F40061C1610E
:101B10000120666584F85100304670BD80B586B0FE
:101B200043F600010068C4F20001002288420492DA
:101B300002D006B080BD00BF41F21800C4F202001E
:101B4000426842F480424260426802F4804201925C
:101B5000019A026842F008020260006800F0080082
:101B6000019001984FF4204002900220039003203E
:101B7000059001F5544002A9FFF796FA06B080BD22
:101B8000411E0020B0EB116F1CBF012070474EF2C8
:101B90001002CEF2000251604EF62351CEF2000147
:101BA000F0230B70072190601160704770470000B0
:101BB0007047000090F83C20012A4FF0020236D016
:101BC00010B580F83D200268D2F804E0D2F808C0D1
:101BD0000C682EF07003234340F2FF74C4F200043B
:101BE000A24253600ADCB2F1804F13D040F20043AE
:101BF000C4F200039A420DD011E000BF42F6004348
:101C0000C4F201039A4205D040F60003C4F2000377
:101C10009A4204D149682CF0800319439160012154
:101C2000002280F83D1080F83C20BDE810401046AE
:101C300070470000002804BF0120704710B504461B
:101C400090F83D0028B9002084F83C00204600F0C0
:101C500067F8022084F83D00206840F2FF730268B4
:101C6000C4F2000342F6004C9842C4F2010C15DCA9
:101C7000B0F1804F1AD040F20041C4F20001884216
:101C800014D0984218DCB0F1804F1DD040F20041D2
:101C9000C4F20001884217D01AE000BF604505D0A9
:101CA00040F60001C4F200018842EAD1A16822F0A6
:101CB00070020A439842E6DD604505D040F6000117
:101CC000C4F20001884203D1216922F440720A4320
:101CD000A36922F08001D4F804E0E268194360456A
:101CE0000160C262C0F828E002D16169CCF830100E
:101CF00001214161002084F8461084F83E1084F8E8
:101D00003F1084F8401084F8411084F8421084F8A1
:101D1000431084F8441084F8451084F83D1010BD39
:101D200080B584B00068B0F1804F1DD040F2004112
:101D3000C4F2000188422FD042F60041C4F20101F2
:101D400088420FD141F21C00C4F2020050F8041C7A
:101D500041F4006140F8041C50F8040C00F40060E9
:101D60000390039804B080BD41F21C00C4F202004D
:101D70000168002241F00101016000680E2100F0BD
:101D80000100029002981C20FFF724FB1C2004B0E5
:101D9000BDE88040FFF70CBB41F21C00C4F202001A
:101DA0000168002241F00201016000680D2100F08D
:101DB0000200019001981D20FFF70CFB1D2004B0CC
:101DC000BDE88040FFF7F4BA90F83D1001291CBF30
:101DD00001207047022180F83D10006840F2FF7139
:101DE000C4F20001884209DCB0F1804F12D040F209
:101DF0000041C4F2000188420CD012E042F60041DA
:101E0000C4F20101884205D040F60001C4F200018D
:101E1000884206D1816801F00701062904BF00202D
:101E20007047016841F00101016000207047000027
:101E300090F83D1001291CBF01207047022180F855
:101E40003D10006840F2FF72C168C4F20002904287
:101E500041F00101C16009DCB0F1804F12D040F2C5
:101E60000041C4F2000188420CD012E042F6004169
:101E7000C4F20101884205D040F60001C4F200011D
:101E8000884206D1816801F00701062904BF0020BD
:101E90007047016841F001010160002070470000B7
:101EA00090F83C20012A4FF0020200F0C58080B576
:101EB00080F83D20D0F800C04FF67772DCF808308B
:101EC00023EA0202CCF808200B684F2B28DC1F2BDA
:101ED00044DD202B45D0302B43D0402B40F0AE804A
:101EE000D1F804E0C968DCF82030DCF8202022F0CA
:101EF0000102CCF82020DCF8182022F0F00242EA9F
:101F0000011123F00A0242EA0E02CCF81810CCF8B4
:101F10002020DCF8081041F0470121F0300180E07A
:101F20006F2B27DDB3F5005F48D0B3F5805F7AD023
:101F3000702B40F08380D1E901E3C968DCF8082008
:101F400043EA0E0322F47F4243EA01211143CCF815
:101F50000810DCF8081041F0770162E00BB1102B9B
:101F60006CD1DCF8081021F07001194341F0070131
:101F700057E000BF502B35D0602B5FD1D1F804E083
:101F8000C968DCF82030DCF8202022F01002CCF800
:101F90002020DCF8182022F4704242EA013123F0BC
:101FA000A00242EA0E12CCF81810CCF82020DCF87F
:101FB000081041F0670121F0100132E0D1E901E39E
:101FC000C968DCF8082043EA0E0322F47F4243EAA2
:101FD00001211143CCF80810DCF8081041F48041CD
:101FE0001FE000BFD1F804E0C968DCF82030DCF85D
:101FF000202022F00102CCF82020DCF8182022F06A
:10200000F00242EA011123F00A0242EA0E02CCF881
:102010001810CCF82020DCF8081041F0570121F00E
:102020002001CCF808100022012180F83D10002189
:1020300080F83C10BDE88040104670470122F3E76D
:102040007047000010B5016804460869800744BF66
:10205000C8685FEA807039D40869400744BFC8681F
:102060005FEA40703ED40869000744BFC8685FEA71
:10207000007045D40869C00644BFC8685FEAC06004
:102080004AD40869C0071CBFC8685FEAC07051D154
:102090000869000644BFC8685FEA006052D4086956
:1020A000400644BFC8685FEA406053D408698006B0
:1020B00046BFC8685FEA806010BD6FF0200220460E
:1020C0000A61BDE81040FFF773BD00BF6FF002006A
:1020D0000861012020778869800743D02046FFF7F8
:1020E000AFFF45E06FF004000861022020778869A7
:1020F00010F4407F40D02046FFF7A2FF42E000BF2F
:102100006FF00800086104202077C86980073DD07F
:102110002046FFF795FF3FE06FF0100008610820B0
:102120002077C86910F4407F3AD02046FFF788FF37
:102130003CE000BF6FF001000861204600F03EF86F
:102140002168A5E76FF0800008612046FFF72EFDAB
:102150002168A4E76FF040000861204600F0DCF839
:102160002168A3E7204600F025F8204600F024F877
:102170002168002020776FE7204600F01BF82046FA
:1021800000F01AF82168002020776CE7204600F064
:1021900011F8204600F010F821680020207769E748
:1021A000204600F007F8204600F006F821680020DD
:1021B000207766E770470000704700000068B0F1C4
:1021C000804F18BF704710B540F20004C2F20004FF
:1021D0002078032822D002283ED0012860D1312067
:1021E000E07140F2C820A11DC2F2000003224FF0AE
:1021F000FF3300F097FF40F2D800C2F20000002148
:102200004172C17B002979D010F8111F0029A0F17B
:1022100001013FD100F11E023AE000BF3320E0711E
:1022200040F2C820A11DC2F2000003224FF0FF338C
:1022300000F078FF40F2D800C2F200000021C17324
:10224000017B00293ED010F80E1F0029A0F10101EA
:1022500020D100F120021BE03220E07140F2C820C2
:10226000A11DC2F2000003224FF0FF3300F05AFF1D
:1022700040F2D800C2F2000000210173417A79B324
:1022800010F80B1F0029A0F1010103D100F1220277
:1022900001231370024608460121117000210170CC
:1022A00020780130C1B2032988BF0120207040F29C
:1022B0003820C2F2000000684FF23B614162BDE885
:1022C00010407047417B01314173417B62789142FC
:1022D000E6D910F80E1F0129E0D100F12002DBE75A
:1022E000817A01318172817A62789142D8D910F86D
:1022F0000B1F0129D2D100F12202CDE7017C01316F
:102300000174017C62789142CAD910F8111F012929
:10231000C4D100F11E02BFE7704700007047000003
:1023200070470000B0B582B0044600680168C36819
:10233000426901F02F05202D03F0200506D12DB1B3
:10234000204602B0BDE8B04001F06EBC5FEA017CFF
:102350001EBF02F0010E03F4907212EB0E0243D185
:10236000226BCD0618D5012A16D113F0100213D016
:102370000021019101680191416801910199406931
:1023800040063BD4A08DE18DE28D002A18BF884223
:1023900040F0F28102B0B0BD0A0640F1E78013F0D0
:1023A000800200F0E38094F841102129F2D1A16865
:1023B000B1F5805F03D12169002900F06382216AB1
:1023C0004A1C226209784160E18C01390A04E184E7
:1023D000E0D1C16821F08001C160C16841F04001D5
:1023E000C16002B0B0BD00BFCA0718BF13F480724D
:1023F00040F0D0804A0700F1D380D8E0E06B01685C
:1024000049688AB2002AC5D0A38D9A42C2D2E1851A
:102410008069202800F09E80206850E8030F216822
:1024200020F4807041E80302DAB1206850E8030F1D
:10243000216820F4807041E8030292B1206850E8DE
:10244000030F216820F4807041E803024AB120683C
:1024500050E8030F216820F4807041E80302002A4D
:10246000DAD1206850E8050F216820F0010041E82A
:102470000502C2B3206850E8050F216820F0010072
:1024800041E805027AB3206850E8050F216820F082
:10249000010041E8050232B3206850E8050F2168C9
:1024A00020F0010041E80502002ADAD11BE000BF5C
:1024B000206850E8050F216820F0400041E805023F
:1024C000DAB1206850E8050F216820F0400041E8AB
:1024D000050292B1206850E8050F216820F0400005
:1024E00041E805024AB1206850E8050F216820F054
:1024F000400041E80502002ADAD1202084F8420099
:1025000000202063206850E8030F216820F01000AD
:1025100041E80302DAB1206850E8030F216820F097
:10252000100041E8030292B1206850E8030F2168CF
:1025300020F0100041E803024AB1206850E8030F80
:10254000216820F0100041E80302002ADAD1E06B94
:10255000FEF718FD02206063A08DE18D401A81B264
:10256000204602B0BDE8B040FFF7D8BE49067FF56F
:1025700011AF13F040013FF40DAFC16821F04001ED
:10258000C1602021204684F8411002B0BDE8B0406F
:1025900000F004BF626C42F0010262644A0706D593
:1025A000BEF1000F03D0626C42F0020262648A073F
:1025B00006D5BEF1000F03D0626C42F004026264E3
:1025C000BCF1000F06D55EEA050203D0626C42F052
:1025D00008026264626C002A3FF4DCAE890604D50E
:1025E0001DB1204601F020FB20684069616C00F0BD
:1025F000400001F00801401800F0B680206850E863
:10260000030F216820F4907041E80302BAB32068F8
:1026100050E8030F216820F4907041E8030272B380
:10262000206850E8030F216820F4907041E803020D
:102630002AB3206850E8030F216820F4907041E825
:102640000302002ADAD11AE0206850E8050F216859
:1026500020F0010041E80502DAB1206850E8050FDA
:10266000216820F0010041E8050292B1206850E89D
:10267000050F216820F0010041E805024AB12068F9
:1026800050E8050F216820F0010041E80502002A0A
:10269000DAD1206B012824D1206850E8030F21688B
:1026A00020F0100041E80302DAB1206850E8030F7F
:1026B000216820F0100041E8030292B1206850E840
:1026C000030F216820F0100041E803024AB120689E
:1026D00050E8030F216820F0100041E80302002AAF
:1026E000DAD1202084F8420000202063206840696D
:1026F000400640F1C180206850E8050F216820F0B5
:10270000400041E80502DAB1206850E8050F216871
:1027100020F0400041E8050292B1206850E8050F22
:10272000216820F0400041E805024AB1206850E8E5
:10273000050F216820F0400041E80502002ADAD1A7
:10274000E06B002800F0988043F61D41C0F60001C0
:102750004163FEF73BFC00283FF41CAEE06B416B8D
:1027600002B0BDE8B04008472046FFF7D9FD002081
:10277000606402B0B0BD00BF401A00BF216851E8DC
:10278000031F226821F4907142E80313BBB3216850
:1027900051E8031F226821F4907142E8031373B3D8
:1027A000216851E8031F226821F4907142E8031365
:1027B0002BB3216851E8031F226821F4907142E88D
:1027C0000313002BDAD11AE0216851E8051F2268B3
:1027D00021F0010142E80513DBB1216851E8051F32
:1027E000226821F0010142E8051393B1216851E804
:1027F000051F226821F0010142E805134BB1216851
:1028000051E8051F226821F0010142E80513002B61
:10281000DAD1202184F8421000212163216851E897
:10282000031F226821F0100142E80313DBB1216885
:1028300051E8031F226821F0100142E8031393B10D
:10284000216851E8031F226821F0100142E80313B8
:102850004BB1216851E8031F226821F0100142E8C2
:102860000313002BDAD1022281B22046626302B048
:10287000BDE8B040FFF752BD204602B0BDE8B04011
:10288000FFF74EBD216A31F8022B6FF35F224260E1
:10289000216299E5002804BF0120704710B5044665
:1028A00090F8410028B9002084F84000204600F04C
:1028B00063F8242084F841002068D4E90212C36838
:1028C00023F40053C360036923F440531A430261A5
:1028D000D4E904231143C268194341F20C639A43BB
:1028E0001143C1604169A26921F44071114343F66B
:1028F0000002C4F201029042416103D0FEF790FE53
:1029000002E000BFFEF7A0FED4E9002319214843EE
:102910009900B0FBF1F048F21F5CC5F2EB1CA0FB84
:102920000C314FF69C734909C0F6FF7301FB03009D
:10293000322303EB0010A0FB0C03F02000EA53103D
:1029400000EB0110C3F3431108449060106920218B
:1029500020F490401061506920F02A005061D06846
:1029600040F40050D0600020606484F8411084F886
:102970004210606310BD000070B586B0006844F27C
:102980000041C4F20001002688420596CDE90366A5
:10299000029641D044F60001C4F2000188426DD095
:1029A00043F60001C4F20101884240F0A28041F2E6
:1029B0001800C4F20200016840F6000441F48041AE
:1029C00001600168C4F2010401F4804101910199A0
:1029D000016802AD41F0040101600068294600F081
:1029E0000400019001984FF40070029002200390BF
:1029F000032005902046FEF757FB4FF480600290BD
:102A00000020CDE9030020462946FEF74DFB252096
:102A100002210022252467E041F21800C4F20200DE
:102A2000416840F6000441F4003141604168C4F25D
:102A3000010401F4003101910199016802AD41F0F6
:102A4000040101600068294600F00400019001982B
:102A50000420029002200390032005902046FEF7F8
:102A600023FB0820CDE90206204629460496FEF7FE
:102A70001BFB262000210022262435E041F218000D
:102A8000C4F20200416802AD41F480214160416816
:102A900001F4802101910199016841F00801016070
:102AA0000068294600F00800019001984FF480600A
:102AB0000290022003900320059040F60000C4F22B
:102AC000010000F580642046FEF7EEFA4FF4006046
:102AD00002900020CDE9030020462946FEF7E4FAE3
:102AE0002720012100222724FEF774FC2046FEF750
:102AF0005FFC06B070BD000090F84230202B07D17B
:102B000000294FF0010318BF002A05D1184670476D
:102B100002231846704700BF00230363816222210D
:102B20008285C285436480F842100169006819B14A
:102B3000C16841F48071C160416941F001014161A6
:102B4000C16841F02001C160184670472DE9F04F7F
:102B500087B0006844F20041C4F2000188421BD0F3
:102B600044F60001C4F20001884223D043F600017C
:102B7000C4F2010188421CBF07B0BDE8F08F40F2EB
:102B8000D800C2F20000017853293FD101218170A1
:102B9000411C002008706AE040F2D800C2F2000038
:102BA000C178532946D101214171011D00220A70CB
:102BB00027E100BF40F2D804C2F2000494F82800D4
:102BC000002863D094F82800012840F08380E07941
:102BD0003E2840F0EF8140F2F010C2F200000068A1
:102BE0000021416242F20F7142F21072436A8B423D
:102BF00008D8436A8B4205D8436A8B4202D8436A9D
:102C00009342F3D30120A075D4E100BF827850290C
:102C100028D0012A26D1427840F25413C2F2000390
:102C2000134483F82A10511CCAB20F2A41701ED9CE
:102C3000811CAEE74279502900F0DE80012A40F085
:102C4000DB80037940F254174278C2F200071F4438
:102C500087F82010591C032A017140F2D280811C90
:102C6000A4E700BF502908BF012A00F0D58040F238
:102C7000C82040F2D801C2F20000C2F200010122D5
:102C800007B0BDE8F04FFFF737BF00BFE07950282D
:102C900004D101212177002184F82110217F00290E
:102CA00000F0888194F8211048F26F62C0F60002AB
:102CB000515C81421CBF0020207794F82100013034
:102CC00084F8210094F82100072824BF012084F80B
:102CD00027006FE194F82800022840F01781E0797E
:102CE000422803D10121A1760021E177A17E89B19B
:102CF000E17F48F24E62C0F60002515C81421CBF87
:102D00000021A176E17F0131E177E17F052924BF30
:102D100001212176432804D10121E176002184F8A4
:102D20002010E17E002900F0458194F8201048F23F
:102D30005462C0F60002515C81421CBF0020E07664
:102D400094F82000013084F8200094F8200007282F
:102D5000C0F03081002140F2F0106176C2F2000034
:102D600000684EF6602241624EF65F21436A8B4254
:102D700008D8436A8B4205D8436A8B4202D8436A1B
:102D80009342F3D3002141624EF65F214EF660225A
:102D9000436A8B4208D8436A8B4205D8436A8B4208
:102DA00002D8436A9342F3D3002141624EF65F2179
:102DB0004EF66022436A8B4208D8436A8B4205D89C
:102DC000436A8B4202D8436A9342F3D300214162A3
:102DD0004EF65F214EF66022436A8B4200F2EA8093
:102DE000436A8B4200F2E680436A8B4200F2E28043
:102DF000436A9342F0D3DDE0502908BF012A00F076
:102E0000A980C11C40F21030C2F20000012207B0BC
:102E1000BDE8F04FFFF770BE40F25412C2F200025C
:102E200092F82A30591ECCB2022C00F102013FF672
:102E3000B0AE8FA757F824C090A796A557F8247076
:102E400055F82450069705959BA555F824809DA517
:102E500055F824909EA555F824A0A0A555F824B0B7
:102E6000A1A555F8245088A70495A2A555F824508B
:102E700057F824E00395A2A555F8245088A602959A
:102E8000A2A555F8245089A70195A3A556F824605A
:102E900057F8247055F8244001258CF80050C3756C
:102EA00092F82B00069B187092F82C008EF8000008
:102EB00092F82D00059B187092F82E00307092F851
:102EC0002F00387092F8300088F8000092F8310036
:102ED00089F8000092F832008AF8000092F8330076
:102EE0008BF8000092F83400049B187092F83500BB
:102EF000039B187092F83600029B187092F8370006
:102F0000019B187092F83800207042E694F828006F
:102F1000032835D1E0794F2804D1012161770021C0
:102F200084F82210617F002944D094F8221048F2DE
:102F30006C62C0F60002515C814237D194F82200E5
:102F4000013084F8220094F82200022832D304F1E0
:102F500019002DE040F25411C2F2000191F8203026
:102F600091F82120572B00F1050180F8333080F8CB
:102F7000342033D0462B39D0432B08BF827115E65D
:102F800094F8280004281DD194F8240080B394F804
:102F90002400B8B1E0790D2858D1012000216076D5
:102FA00084F8241084F831000CE000BF04F11D0007
:102FB0000021017040F25830E11DC2F200000122F0
:102FC000FFF79AFD40F25830E11DC2F200000122E5
:102FD00007B0BDE8F04FFFF78FBD00BF037D012BA9
:102FE0002AD1012280F83020E0E500BFC274DDE57F
:102FF000E079542805D101216176A177002184F878
:103000002310A17F0029DDD094F8231040F2640240
:10301000C2F20002515C814226D194F823000130B3
:1030200084F8230094F823000928CBD3012084F8E6
:103030002400002015E000BF012323EA020248F229
:10304000A413C4F221231A60B0E500BF94F8251040
:1030500040F25412C2F200021144087494F82500A0
:10306000013084F82500ADE70020A0776076A9E75D
:10307000E1000020E4000020E70000201C00002008
:1030800030000020440000201D00002031000020FE
:10309000450000201E0000203200002046000020D5
:1030A0001F000020330000204700002020000020E7
:1030B00034000020480000202100002035000020BE
:1030C0004900002022000020360000204A00002095
:1030D00023000020370000204B00002024000020A7
:1030E000380000204C00002025000020390000207E
:1030F0004D000020260000203A0000204E00002055
:10310000270000203B0000204F0000202800002066
:103110003C00002050000020290000203D0000203D
:10312000510000202DE9F04381B0044690F84100A1
:10313000202840F0B180884600294FF0010000F0BF
:10314000D6801646002A00F0D2800020606421203C
:103150001D4684F84100FEF7BDF8A684E684A16808
:103160000646B1F5805F03D12069002800F0988001
:1031700047464FF00008E18C2068002900F0968057
:1031800005F101090BE000BF47B317F8011B4160CF
:10319000E18C0139E184E18C002900F0878001682D
:1031A0000906F1D4B9F1000F0AD0EDB1FEF792F89B
:1031B000801BA84218D8206801680906F6D5E3E705
:1031C00001680906E0D4016809065CBF01685FEA8E
:1031D0000161D9D401680906F2D5D5E738F8021B98
:1031E00000276FF35F21D2E7206850E8030F2168C2
:1031F00020F4D07041E80302BAB3206850E8030F0E
:10320000216820F4D07041E8030272B3206850E8CE
:10321000030F216820F4D07041E803022AB320682C
:1032200050E8030F216820F4D07041E80302002A1F
:10323000DAD11AE0206850E8050F216820F001007B
:1032400041E80502DAB1206850E8050F216820F056
:10325000010041E8050292B1206850E8050F21689D
:1032600020F0010041E805024AB1206850E8050F4E
:10327000216820F0010041E80502002ADAD120206F
:1032800084F8410084F84200002084F840000320C4
:1032900001B0BDE8F08300BF022001B0BDE8F083BB
:1032A0000027E18C206800297FF46AAF0168490695
:1032B00019D4FDB1691C0DD10168490613D4016808
:1032C00049065CBF01685FEA41610CD401684906A8
:1032D000F2D508E0FDF7FEFF801BA8420AD820685F
:1032E00000684006F6D5202084F84100002001B097
:1032F000BDE8F083206850E8030F216820F4D07007
:1033000041E80302002A3ED0206850E8030F2168FC
:1033100020F4D07041E80302AAB3206850E8030FFC
:10332000216820F4D07041E8030262B3206850E8BD
:10333000030F216820F4D07041E80302002AD9D19C
:1033400021E000BF206850E8050F216820F001004F
:1033500041E80502002A3FF492AF206850E8050FCB
:10336000216820F0010041E80502002A3FF487AF00
:10337000206850E8050F216820F0010041E80502AF
:10338000002A3FF47CAF206850E8050F216820F048
:10339000010041E80502002AD4D170E7704700001F
:1033A000FEE7000070B51420FDF76AFE40F200054C
:1033B000C2F200056C7944F03006F0B200F0D2F8A9
:1033C00044F03400C0B200F0CDF806F0FB0000F08D
:1033D000C9F80520FDF754FE6C7944F03006F0B2D0
:1033E00000F0C0F844F03400C0B200F0BBF806F0C2
:1033F000FB0000F0B7F80120FDF742FE6C7944F0C5
:103400003006F0B200F0AEF844F03400C0B200F084
:10341000A9F806F0FB0000F0A5F86C7944F020064E
:10342000F0B200F09FF844F02400C0B200F09AF827
:1034300006F0FB0000F096F86C7944F02006F0B23C
:1034400000F090F844F02400C0B200F08BF806F0D1
:10345000FB0000F087F86C7964F07F06F0B200F0B2
:1034600081F844F08400C0B200F07CF806F0FB0064
:1034700000F078F86C79204600F074F844F004000D
:1034800000F070F804F0FB0000F06CF86C7964F068
:103490007F06F0B200F066F844F08400C0B200F09D
:1034A00061F806F0FB0000F05DF86C79204600F052
:1034B00059F844F0040000F055F804F0FB0000F067
:1034C00051F86C7944F01006F0B200F04BF844F07B
:1034D0001400C0B200F046F806F0FB0000F042F81D
:1034E0000220FDF7CDFD6C79204600F03BF844F05A
:1034F000040000F037F804F0FB0000F033F86C79BA
:1035000064F03F06F0B200F02DF844F0C400C0B201
:1035100000F028F806F0FB0000F024F86C7964F065
:103520007F06F0B200F01EF844F08400C0B200F054
:1035300019F806F0FB0000F015F86C79204600F051
:1035400011F844F0040000F00DF804F0FB00BDE8B1
:10355000704000F007B80000FEE70000FEE7000042
:10356000704700002DE9F04148F298180546C4F272
:103570002128012040F2F017C8F80400C2F2000729
:1035800038680021416200BF416A31B9416A21B9FE
:10359000416A11B9416A0029F6D00121C8F800102A
:1035A00000214162416A31B9416A21B9416A11B9C8
:1035B000416A0029F6D00021C8F80410416200BF1A
:1035C000416A31B9416A21B9416A11B9416A002998
:1035D000F6D040F60044C4F20104002620468021C3
:1035E0000022C8F80060FDF76FFE2046402101224E
:1035F000FDF76AFE38684662416A31B9416A21B90D
:10360000416A11B9416A0029F6D0204640210022C2
:103610000026FDF759FE3868466200BF416A31B99D
:10362000416A21B9416A11B9416A0029F6D02046A0
:1036300080210122FDF748FE204640210122FDF7AE
:1036400043FE386800214162416A31B9416A21B9BB
:10365000416A11B9416A0029F6D020464021002272
:103660000026FDF731FE3868466200BF416A31B975
:10367000416A21B9416A11B9416A0029F6D0204650
:1036800080210122FDF720FE204640210122FDF786
:103690001BFE386800214162416A31B9416A21B993
:1036A000416A11B9416A0029F6D020464021002222
:1036B0000026FDF709FE3868466200BF416A31B94D
:1036C000416A21B9416A11B9416A0029F6D0204600
:1036D00080210122FDF7F8FD204640210122FDF75F
:1036E000F3FD386800214162416A31B9416A21B96C
:1036F000416A11B9416A0029F6D0204640210022D2
:103700000026FDF7E1FD3868466200BF416A31B925
:10371000416A21B9416A11B9416A0029F6D02046AF
:1037200080210122FDF7D0FD204640210122FDF736
:10373000CBFD386800214162416A31B9416A21B943
:10374000416A11B9416A0029F6D020464021002281
:103750000026FDF7B9FD3868466200BF416A31B9FD
:10376000416A21B9416A11B9416A0029F6D020465F
:1037700080210122FDF7A8FD204640210122FDF70E
:10378000A3FD386800214162416A31B9416A21B91B
:10379000416A11B9416A0029F6D020464021002231
:1037A0000026FDF791FD3868466200BF416A31B9D5
:1037B000416A21B9416A11B9416A0029F6D020460F
:1037C00080210122FDF780FD204640210122FDF7E6
:1037D0007BFD386800214162416A31B9416A21B9F3
:1037E000416A11B9416A0029F6D0204640210022E1
:1037F0000026FDF769FD3868466200BF416A31B9AD
:10380000416A21B9416A11B9416A0029F6D02046BE
:10381000802100220026FDF757FD2046402101228D
:10382000FDF752FD38684662416A31B9416A21B9F3
:10383000416A11B9416A0029F6D020464021002290
:103840000026FDF741FD3868466200BF416A31B984
:10385000416A21B9416A11B9416A0029F6D020466E
:10386000802100220026FDF72FFD20464021012265
:10387000FDF72AFD38684662416A31B9416A21B9CB
:10388000416A11B9416A0029F6D020464021002240
:103890000026FDF719FD3868466200BF416A31B95C
:1038A000416A21B9416A11B9416A0029F6D0EA0991
:1038B00020468021FDF708FD204640210122FDF72A
:1038C00003FD386800214162416A31B9416A21B97A
:1038D000416A11B9416A0029F6D0204640210022F0
:1038E0000026FDF7F1FC3868466200BF416A31B935
:1038F000416A21B9416A11B9416A0029F6D0C5F37C
:10390000801220468021FDF7DFFC20464021012265
:10391000FDF7DAFC38680021416200BF416A31B925
:10392000416A21B9416A11B9416A0029F6D020469D
:10393000402100220026FDF7C7FC3868466200BF20
:10394000416A31B9416A21B9416A11B9416A002914
:10395000F6D0C5F3401220468021FDF7B5FC204685
:1039600040210122FDF7B0FC38680021416200BF10
:10397000416A31B9416A21B9416A11B9416A0029E4
:10398000F6D02046402100220026FDF79DFC386835
:10399000466200BF416A31B9416A21B9416A11B931
:1039A000416A0029F6D0C5F3001220468021FDF7B8
:1039B0008BFC204640210122FDF786FC386800215F
:1039C000416200BF416A31B9416A21B9416A11B906
:1039D000416A0029F6D02046402100220026FDF74A
:1039E00073FC3868466200BF416A31B9416A21B947
:1039F000416A11B9416A0029F6D0C5F3C0022046D8
:103A00008021FDF761FC204640210122FDF75CFC8E
:103A100038680021416200BF416A31B9416A21B969
:103A2000416A11B9416A0029F6D02046402100229E
:103A30000026FDF749FC3868466200BF416A31B98B
:103A4000416A21B9416A11B9416A0029F6D0C5F32A
:103A5000800220468021FDF737FC204640210122CC
:103A6000FDF732FC38680021416200BF416A31B97C
:103A7000416A21B9416A11B9416A0029F6D020464C
:103A8000402100220026FDF71FFC3868466200BF77
:103A9000416A31B9416A21B9416A11B9416A0029C3
:103AA000F6D0C5F3400220468021FDF70DFC2046EC
:103AB00040210122FDF708FC38680021416200BF67
:103AC000416A31B9416A21B9416A11B9416A002993
:103AD000F6D02046402100220026FDF7F5FB38688D
:103AE000466200BF416A31B9416A21B9416A11B9E0
:103AF000416A0029F6D005F0010220468021FDF739
:103B0000E3FB204640210122FDF7DEFB386800215F
:103B1000416200BF416A31B9416A21B9416A11B9B4
:103B2000416A0029F6D02046402100220025FDF7F9
:103B3000CBFB3868456200BF416A31B9416A21B99F
:103B4000416A11B9416A0029F6D02046802100223D
:103B50000025FDF7B9FB204640210122FDF7B4FB0B
:103B600038684562416A31B9416A21B9416A11B97F
:103B7000416A0029F6D02046402100220024FDF7AA
:103B8000A3FB3868446200BF416A31B9416A21B978
:103B9000416A11B9416A0029F6D00021C8F8041021
:103BA000416200BF416A31B9416A21B9416A11B924
:103BB000416A0029F6D00021C8F80010416200BF18
:103BC000416A31B9416A21B9416A11B9416A002992
:103BD000F6D00121C8F8001000214162416A31B9D4
:103BE000416A21B9416A11B9416A0029F6D0012020
:103BF000C8F80400BDE8F08170470000FDF770BB15
:103C00007047000040F23820C2F20000FEF71ABAF6
:103C100040F28020C2F20000FEF714BA406A002190
:103C2000C185C184FEF77CBB81B090F84210222987
:103C300021D183680246B3F5805F09D152F8281F6D
:103C400052F8183C002B63D003685B680AE000BFA1
:103C500052F8281F13B90369002BF5D003685B687D
:103C600003F07F030B70116801311160C18D0139C0
:103C70000A04C18502D001B0704700BF0168CA685C
:103C800022F02002CA60CA6822F48072CA604A69BF
:103C900022F001024A61202180F842100021416394
:103CA000026B012A3CD10163016851E8031F0268DD
:103CB00021F0100142E80313DBB1016851E8031F52
:103CC000026821F0100142E8031393B1016851E842
:103CD000031F026821F0100142E803134BB1016891
:103CE00051E8031F026821F0100142E80313002B82
:103CF000DAD101680A68D20606D5002200920A6865
:103D00000092496800910099818D01B0FEF706BBD1
:103D1000026852686FF35F2221F8022B8162A5E7E7
:103D200001B0FEF713BF000040F2C820C2F200004D
:103D3000FEF7F8BA40F21030C2F20000FEF7F2BA15
:103D400040F25830C2F20000FEF7ECBAFEE7000085
:103D5000F0B581B040F2D801C2F20001097A0090BA
:103D600004291BD80446DFE801F003090F191D00E0
:103D700040F2C820C2F200000AE000BF40F210305A
:103D8000C2F2000004E000BF40F25830C2F200006E
:103D9000694601224FF0FF33FFF7C4F95DF8040BC9
:103DA000F0BD00BF40F20005C2F20005687924F0C2
:103DB0000F0140EA010646F00107F8B2FFF7D2FB17
:103DC00046F00500C0B2FFF7CDFB07F0FB00FFF7A0
:103DD000C9FB687940EA041444F00105E8B2FFF732
:103DE000C1FB44F00500C0B2FFF7BCFB05F0FB00CF
:103DF000FFF7B8FB5DF8040BF0BD0000A4B0FDF7C1
:103E00007DFA00240120CDE91F44CDE91D441A901C
:103E10001E904FF4E0104FF480314FF40032022531
:103E200023901AA81B911C92CDE92151FDF720FC8B
:103E300020B1EFF3108072B6FEE700BF0F20CDE98E
:103E400014054FF48060CDE9170414A802211694DC
:103E5000FDF7FCFA20B1EFF3108072B6FEE700BF69
:103E600041F21800C4F20200016840F6000A41F075
:103E7000100101600168C4F2010A01F010011A91F9
:103E80001A9901680AF5006841F020010160016893
:103E9000002201F020011A911A9901684FF400558F
:103EA00041F0040101600168002401F004011A914D
:103EB0001A99016841F00801016000684FF400514F
:103EC00000F008001A901A984046FDF7FDF90AF52F
:103ED0008066304645F2FC31002245F2FC3BFDF79E
:103EE000F3F950464FF419410022FDF7EDF91AAFEE
:103EF0001A9501254FF0020940463946CDE91B5479
:103F0000CDF87490FDF7D0F8F320CDE91A045046AF
:103F100039461C94FDF7C8F830463946CDE91AB544
:103F2000CDE91C49FDF7C0F84FF41940CDE91A0559
:103F300050463946CDE91C49FDF7B6F840F2F0107D
:103F40000AF51051C2F200004FF6FF731D94CDE93F
:103F50001B44CDE91444482280E81600C0E903342C
:103F6000C0E90544FDF766FE20B1EFF3108072B69C
:103F7000FEE700BF4FF480501A9040F2F010C2F2FA
:103F800000001AA9CDF84C80FDF78AFF20B1EFF3AD
:103F9000108072B6FEE700BF40F2F010C2F20000DF
:103FA00014A9FDF707FE28B1EFF3108072B600BF29
:103FB000FEE700BF40F2C8200AF54051C2F20000FF
:103FC00000240C254FF4E13280E81600C0E90344D8
:103FD000C0E90554C461FEF75DFC28B1EFF3108021
:103FE00072B600BFFEE700BF40F21030AAF54441B0
:103FF000C2F200004FF4FA2280E81600C0E9034440
:10400000C0E90554C461FEF745FC28B1EFF3108008
:1040100072B600BFFEE700BF40F29810AAF550410B
:10402000C2F200004FF4827200244FF4007380E863
:1040300016000A21C0E90344C0E90543C461C0E990
:104040000844C0E90A41FDF713FD28B1EFF31080E1
:1040500072B600BFFEE700BF40F23820C2F2000097
:104060004FF080414FF6FF731D94CDE91B44CDE91D
:1040700014444FF4E15280E81600C0E9033484612F
:10408000FDF7D8FD20B1EFF3108072B6FEE700BF58
:104090004FF480501A9040F23820C2F200001AA962
:1040A000FDF7FEFE20B1EFF3108072B6FEE700BF11
:1040B00040F23827C2F2000714A93846FDF77AFD0E
:1040C00020B1EFF3108072B6FEE700BF40F2583027
:1040D000AAF54041C2F2000000240C234FF4E13263
:1040E00080E81600C0E90344C0E90534C461FEF766
:1040F000D1FB18B1EFF3108072B6FEE740F28020DA
:10410000AAF58231C2F200004FF6FF731D94CDE98B
:104110001B44CDE9144448F6A04280E81600C0E9EB
:1041200003348461FDF786FD20B1EFF3108072B691
:10413000FEE700BF4FF480501A9040F28020C2F298
:1041400000001AA9FDF7ACFE20B1EFF3108072B6A3
:10415000FEE700BF40F28020C2F2000014A9FDF784
:1041600029FD18B1EFF3108072B6FEE740F2F010AF
:1041700048F28C1440F20015C2F20000C4F221246F
:10418000C4F22125FDF720FE4FF000084FF0010A90
:10419000C4F82480C4F82C80C4F814A0C4F808A083
:1041A000C4F804A0C4F800A0C5F8BCA0C5F8B0A02D
:1041B000C5F8ACA0C4F818A0FFF7F4F8C5F8A0A0A3
:1041C00040F2D805C2F2000540F258300224E91D41
:1041D000C2F2000001222C721291FEF78DFC40F217
:1041E000C820C2F20000294601222C72FEF784FC8E
:1041F00040F21030E91CC2F200000122FEF77CFC04
:1042000038684FF6DC7141623846FDF711FE40F226
:10421000541BC2F2000B07E00020C4F8BC00C4F835
:10422000B000C4F8AC00A87413984FF40051FDF727
:1042300043F895F8270020B195F82900002800F0F0
:10424000D585E87A28B9CBF81C80C5F84480C5F834
:104250005080A87B40F2000A002804BFC5F85880AF
:10426000C5E91A88687CC2F2000A00284FF00400F1
:1042700004BFC5F87480CBE9028828729AF802005E
:10428000012840F09380EF7A9AF8054064F07F06A9
:10429000F0B2FFF767F944F08400C0B2FFF762F9AB
:1042A00006F0FB00FFF75EF99AF805603046FFF76D
:1042B00059F946F00400FFF755F906F0FB00FFF747
:1042C00051F90FF6C850FBF7C1FF9AF8054064F0AA
:1042D0003F06F0B2FFF746F944F0C400C0B2FFF762
:1042E00041F906F0FB00FFF73DF99AF8056030460A
:1042F000FFF738F946F00400FFF734F906F0FB0049
:10430000FFF730F9012F40F08D81696C48F292601F
:10431000C0F60000FBF79AFF9AF8054064F06F06BC
:10432000F0B2FFF71FF944F09400C0B2FFF71AF99A
:1043300006F0FB00FFF716F99AF8054044F0400636
:10434000F0B2FFF70FF944F04400C0B2FFF70AF9EA
:1043500006F0FB00FFF706F9296D48F28560C0F60C
:104360000000FBF773FF9AF8054064F02F06F0B2E7
:10437000FFF7F8F844F0D400C0B2FFF7F3F806F006
:10438000FB00FFF7EFF89AF8054044F04006F0B262
:10439000FFF7E8F844F04400C0B2FFF7E3F806F096
:1043A000FB00FFF7DFF8DBF81C002EE19AF80200B3
:1043B000022840F09380AF7B9AF8054064F07F06B6
:1043C000F0B2FFF7CFF844F08400C0B2FFF7CAF8AC
:1043D00006F0FB00FFF7C6F89AF805603046FFF7D5
:1043E000C1F846F00400FFF7BDF806F0FB00FFF748
:1043F000B9F80FF6A840FBF729FF9AF8054064F0DA
:104400003F06F0B2FFF7AEF844F0C400C0B2FFF7C9
:10441000A9F806F0FB00FFF7A5F89AF8056030460A
:10442000FFF7A0F846F00400FFF79CF806F0FB0049
:10443000FFF798F8012F40F0F580A96E48F29260DE
:10444000C0F60000FBF702FF9AF8054064F06F0623
:10445000F0B2FFF787F844F09400C0B2FFF782F89B
:1044600006F0FB00FFF77EF89AF8054044F040069E
:10447000F0B2FFF777F844F04400C0B2FFF772F8EB
:1044800006F0FB00FFF76EF8E96E48F28560C0F6B3
:104490000000FBF7DBFE9AF8054064F02F06F0B24F
:1044A000FFF760F844F0D400C0B2FFF75BF806F005
:1044B000FB00FFF757F89AF8054044F04006F0B2C9
:1044C000FFF750F844F04400C0B2FFF74BF806F095
:1044D000FB00FFF747F8A86D97E000BF9AF80200CD
:1044E000032840F0EF806F7C9AF8054064F07F0667
:1044F000F0B2FFF737F844F08400C0B2FFF732F8AB
:1045000006F0FB00FFF72EF89AF805603046FFF73B
:1045100029F846F00400FFF725F806F0FB00FFF746
:1045200021F80FF68830FBF791FE9AF8054064F009
:104530003F06F0B2FFF716F844F0C400C0B2FFF730
:1045400011F806F0FB00FFF70DF89AF80560304609
:10455000FFF708F846F00400FFF704F806F0FB0048
:10456000FFF700F8012F5DD1DBF8081048F29260E8
:10457000C0F60000FBF76AFE9AF8054064F06F068B
:10458000F0B2FEF7EFFF44F09400C0B2FEF7EAFF8E
:1045900006F0FB00FEF7E6FF9AF8054044F04006FF
:1045A000F0B2FEF7DFFF44F04400C0B2FEF7DAFFDE
:1045B00006F0FB00FEF7D6FFDBF80C1048F2856032
:1045C000C0F60000FBF742FE9AF8054064F02F06A3
:1045D000F0B2FEF7C7FF44F0D400C0B2FEF7C2FF4E
:1045E00006F0FB00FEF7BEFF9AF8054044F04006D7
:1045F000F0B2FEF7B7FF44F04400C0B2FEF7B2FFDE
:1046000006F0FB00FEF7AEFF686F03F04FFB0246BB
:1046100048F29F60C0F600000B46DF210091FBF7D7
:1046200015FE4FE048F27767C0F600073846FBF703
:104630000DFE9AF8054064F06F06F0B2FEF792FFA7
:1046400044F09400C0B2FEF78DFF06F0FB00FEF7C9
:1046500089FF9AF8054044F04006F0B2FEF782FF69
:1046600044F04400C0B2FEF77DFF06F0FB00FEF709
:1046700079FF48F2AE60C0F60000FBF7E7FD9AF85C
:10468000054064F02F06F0B2FEF76CFF44F0D40052
:10469000C0B2FEF767FF06F0FB00FEF763FF9AF873
:1046A000054044F04006F0B2FEF75CFF44F04400E1
:1046B000C0B2FEF757FF06F0FB00FEF753FF384687
:1046C000FBF7C4FD9AF8054064F07F06F0B2FEF7F0
:1046D00049FF44F08400C0B2FEF744FF06F0FB003F
:1046E000FEF740FF9AF8054064F01F06F0B2FEF7AF
:1046F00039FF44F0E400C0B2FEF734FF06F0FB00DF
:10470000FEF730FF48F28C17C4F2212778690FF6C4
:10471000506100280FF6506008BF0846FBF796FD71
:104720009AF8054064F03F06F0B2FEF71BFF44F034
:10473000C400C0B2FEF716FF06F0FB00FEF712FF42
:104740009AF8054064F01F06F0B2FEF70BFF44F044
:10475000E400C0B2FEF706FF06F0FB00FEF702FF22
:10476000B8680FF60C6100280FF60C6008BF084609
:10477000FBF76CFD9AF8054064F05F06F0B2FEF7B7
:10478000F1FE44F0A400C0B2FEF7ECFE06F0FB0020
:10479000FEF7E8FE9AF8054044F02006F0B2FEF776
:1047A000E1FE44F02400C0B2FEF7DCFE06F0FB00A0
:1047B000FEF7D8FE78680FF6506100280FF65060BB
:1047C00008BF0846FBF742FD9AF8054064F01F0653
:1047D000F0B2FEF7C7FE44F0E400C0B2FEF7C2FE3E
:1047E00006F0FB00FEF7BEFE9AF8054044F02006F6
:1047F000F0B2FEF7B7FE44F02400C0B2FEF7B2FEFE
:1048000006F0FB00FEF7AEFE38680FF60C610028DC
:104810000FF60C6008BF0846FBF718FDE87D01287D
:1048200000F05E81E87D022800F01D82E87D03280B
:1048300040F0C3809AF8440049F6B06348F2A0679C
:10484000CFF6AE73C0F201079AF8451000FB0730AF
:1048500042F210799AF8462001FB09004FF47A766B
:104860009AF8473002FB06009AF84810642703FBC9
:10487000070001EB81019AF8492000EB4100104448
:10488000286703F0CDFB0021C4F2483103F044FC5B
:104890004FF0565103F040FC0021CCF2482103F0C8
:1048A00031FA68679AF84A009AF84B109AF84C2047
:1048B000794300FB061002EB82029AF84D1000EBE0
:1048C000420008444DF25001401ACBF8000003F0BA
:1048D000A7FB01464CF20000C4F27F4003F0AAFAA5
:1048E0000021CBF6807103F00DFA0021C4F22011F3
:1048F00003F012FCCBF8040003F0D8F94EF248168E
:1049000044F2AE77C1F27A46C4F20D0732463B4616
:1049100002F0A2FC01F02AFE0B4600210246002014
:10492000C3F6F47103F0D4F84CF6CD44CCF6CC4485
:104930004CF6CC432246C3F6DC7302F08DFC40F209
:104940000008C4F2240802460B460020414601F04C
:104950007FFE02F017FE484528BF4846DBF80410EA
:10496000CBF80800084603F0A1F932463B4602F0B6
:1049700073FC01F0FBFD0B464CF6CC410246204691
:10498000C3F6F87103F0A4F845F6294242F6F503A0
:10499000CCF28F22C3F6DC7302F05EFC02460B46BB
:1049A0000020414601F054FE02F0ECFD484528BFCE
:1049B0004846CBF80C000020E8759AF80400DBF8B4
:1049C0001C6003F02DFB83463046594603F00AFA7B
:1049D00078BB40F20000C2F200006F6CD0F810808B
:1049E000474526D8296DD0F818A0514521D8A86D83
:1049F0000C465946119003F0F5F9D0B9A86E404520
:104A000017D88146E86E5045109012D8686F594605
:104A10000F9003F0E7F960B940F25410C2F20000C1
:104A2000D0F808B0C34504D8D0F80C80D04540F287
:104A30002F8240F2541BC2F2000BDBF8180040F248
:104A4000001401306528C4F221244FF000084FF013
:104A5000010ACBF8180018D3687DCBF8188002281B
:104A60001AD00220687500202876012248F28C11A5
:104A7000C4F22121886148F61B00C0F600005321D2
:104A8000502385F808A0FBF7E1FB687D012800F0C2
:104A90001583022840F0198395F82900002800F0BA
:104AA0001483287E002840F01083687E002840F0A0
:104AB0000C83022085F819A0287285F8280040F29E
:104AC00058301299C2F200000122FEF715F848F69C
:104AD0000000C0F600000D210A22FBF7B7FBF4E24C
:104AE0009AF81C0049F6B06348F2A067CFF6AE739F
:104AF000C0F201079AF81D1000FB073042F2107453
:104B00009AF81E2001FB04004FF47A769AF81F30C1
:104B100002FB06009AF82010642703FB070001EB54
:104B200081019AF8212000EB41001044E86303F072
:104B300077FA0021C4F2483103F0EEFA4FF05651F3
:104B400003F0EAFA0021CCF2482103F0DBF8CBF8BD
:104B50001C009AF822009AF823109AF8242079432E
:104B600000FB061002EB82029AF8251000EB4200CF
:104B700008444DF25001401AA86403F051FA01466E
:104B80004CF20000C4F27F4003F054F90021CBF650
:104B9000807103F0B7F80021C4F2201103F0BCFAD1
:104BA000E86403F083F84EF2481644F2AE77C1F29F
:104BB0007A46C4F20D0732463B4602F04DFB01F047
:104BC000D5FC0B46002102460020C3F6F47102F02A
:104BD0007FFF4CF6CD49CCF6CC494CF6CC434A4647
:104BE000C3F6DC7302F038FB40F20008C4F224087C
:104BF00002460B460020414601F02AFD02F0C2FCAD
:104C0000A04228BF2046E96C6864084603F04EF8CD
:104C100032463B4602F020FB01F0A8FC0B464CF666
:104C2000CC4102464846C3F6F87102F051FF45F602
:104C3000294242F6F503CCF28F22C3F6DC7302F070
:104C40000BFB02460B4600204146002601F000FD0A
:104C500002F098FCA04228BF20462865EE75E87D4A
:104C600002287FF4E3AD9AF8300049F6B06348F2C9
:104C7000A067CFF6AE73C0F201079AF8311000FBBF
:104C8000073042F210799AF8322001FB09004FF404
:104C90007A769AF8333002FB06009AF834106427CB
:104CA00003FB070001EB81019AF8352000EB41007E
:104CB0001044686503F0B4F90021C4F2483103F0F0
:104CC0002BFA4FF0565103F027FA0021CCF248217D
:104CD00003F018F8A8659AF836009AF837109AF891
:104CE0003820794300FB061002EB82029AF8391053
:104CF00000EB420008444DF25001401A286603F0D0
:104D00008FF901464CF20000C4F27F4003F092F8A4
:104D10000021CBF6807102F0F5FF0021C4F22011D2
:104D200003F0FAF9686602F0C1FF4EF2481644F249
:104D3000AE77C1F27A46C4F20D0732463B4602F026
:104D40008BFA01F013FC0B46002102460020C3F64B
:104D5000F47102F0BDFE4CF6CD44CCF6CC444CF6DA
:104D6000CC432246C3F6DC7302F076FA40F2000828
:104D7000C4F2240802460B460020414601F068FCBC
:104D800002F000FC484528BF4846696EA866084600
:104D900002F08CFF32463B4602F05EFA01F0E6FB81
:104DA0000B464CF6CC4102462046C3F6F87102F0A1
:104DB0008FFE45F6294242F6F503CCF28F22C3F668
:104DC000DC7302F049FA02460B46002041460024FB
:104DD00001F03EFC02F0D6FB484528BF4846E86695
:104DE000EC75E87D03283FF425ADE6E50220287246
:104DF0000FF61C300D210A22FBF728FA032085F854
:104E00002800687E30B1687E20B1687E10B1687E6F
:104E10000028F6D185F829A085F819A085F828A0E2
:104E200040F258301299C2F200000122FDF764FEF0
:104E300048F62300C0F60000222122220D230A2773
:104E40000097FBF703FAA87D30B9A87D20B9A87DAB
:104E500010B9A87D0028F6D00FF6C4201A21FBF760
:104E6000F5F9032085F8168085F82800687E00286B
:104E70003FF4E7A9687E00283FF4E3A9687E002894
:104E80003FF4DFA9687E0028F0D1FFF7DAB900BF50
:104E900040F20000C2F20000C07803F0C1F8014601
:104EA00030460E9102F09EFF60B340F2541BC2F2F6
:104EB000000BDBF8180040F2001401306528C4F242
:104EC00021244FF000084FF0010ACBF81800FFF43E
:104ED000DCAD5846D5F840B0C0F8188058460021DF
:104EE0000127002402F070FF40B93046594603F014
:104EF000DFF94FF0804102F083FF70BB2E6485F82C
:104F00002A702AE040F20000C2F20000C068874226
:104F100009D840F20001C2F200014969884598BFF2
:104F2000834540F2B78440F2541BC2F2000BDBF819
:104F3000180040F2001401306428C4F221244FF01C
:104F400000084FF0010ACBF818007FF69EAD01274C
:104F5000CBF818800024C5F8408011980E9902F013
:104F60004FFF98B9EE6D0021304602F02DFF40B999
:104F70001198314603F09CF94FF0804102F040FF58
:104F800028B91198E86585F82B7000E0EC65DDE93B
:104F90000E1002F035FF98B9AE6F0021304602F0D6
:104FA00013FF40B90F98314603F082F94FF080416A
:104FB00002F026FF28B90F98A86785F82C7000E04A
:104FC000AC67687D022800F0538440F2001440F280
:104FD000541B0028C4F221244FF000084FF0010AAE
:104FE000C2F2000B7FF452AD85F815A095F82900A8
:104FF000002863D0687E00287FF447AD022085F842
:1050000019A0287285F828A040F258301299C2F2EF
:1050100000000122FDF770FD48F62300C0F60000F5
:10502000222122220D230A270097FBF70FF9A87DE2
:1050300030B9A87D20B9A87D10B9A87D0028F6D088
:105040000FF6F0001A21FBF701F940F2001440F2CC
:10505000541B03204FF00008C4F221244FF0010A32
:10506000C2F2000B85F8280085F81680687E0028BB
:105070003FF40BAD687E00283FF407AD687E002842
:105080003FF403AD687E0028F0D1FEE44E4F444566
:1050900020313A2020202020202000004E4F44457F
:1050A00020323A2020202020202000004E4F44456E
:1050B00020333A20202020202020000095F82900CD
:1050C00018B1687E002800F0F38295F8320040B1F4
:1050D00095F8290018B1687E002800F0C18185F894
:1050E000328095F82D0040B195F8290018B1687EFE
:1050F000002800F0F38185F82D8095F82E0040B14E
:1051000095F8290018B1687E002800F0398285F8EA
:105110002E8095F82F0040B195F8290018B1687ECF
:10512000002800F0818285F82F8085F808A020688B
:10513000E8B90A20FBF7A4FF2068C0B9206830B99D
:10514000206820B9206810B920680028F6D040F205
:105150000001C2F200018878013088708878042844
:1051600022BF40F20000C2F2000080F802A0606896
:1051700030BB0A20FBF784FF606808BB606830B969
:10518000606820B9606810B960680028F6D048F2FD
:105190008C11C4F2212148695023C04348614869F9
:1051A000A979B0FA80F0400921F001010844A87102
:1051B000C2B248F61300C0F600005321FBF746F8D0
:1051C000206938BB0A20FBF75BFF206910BB206910
:1051D00030B9206920B9206910B920690028F6D0BB
:1051E00048F28C11C4F2212188685023C0438860A2
:1051F0008868A979B0FA80F0400921F0020141EAFB
:105200004000A871C2B248F61300C0F60000532156
:10521000FBF71CF8606938BB0A20FBF731FF6069B7
:1052200010BB606930B9606920B9606910B9606904
:105230000028F6D048F28C11C4F22121486850238E
:10524000C04348604868A979B0FA80F0400921F06D
:10525000040141EA8000A871C2B248F61300C0F60A
:1052600000005321FAF7F2FFA06938BB0A20FBF7D0
:1052700007FFA06910BBA06930B9A06920B9A06977
:1052800010B9A0690028F6D048F28C11C4F221218F
:1052900008685023C04308600868A979B0FA80F014
:1052A000400921F0080141EAC000A871C2B248F6E5
:1052B0001300C0F600005321FAF7C8FFE06910BBE5
:1052C000687D02281FD00A20FBF7DAFEE069D0B91A
:1052D000E06930B9E06920B9E06910B9E0690028F7
:1052E000F6D048F28C11C4F2212188695023C043C2
:1052F0008861886953212AEA000248F61B00C0F63B
:105300000000FAF7A3FF95F8300040B148F61B0003
:10531000C0F60000532101225023FAF797FFA87925
:1053200048F28C122AEA0001C4F22122516100F0F5
:1053300002018AEA5101916000F0040100F00800C6
:105340008AEA91018AEAD00051601060A86B4AF69F
:105350008B710130C8F6F82147F207524143C0F281
:1053600050729142A8634BD8DBE9021085F808A07F
:10537000CDE90E10DBF81410DBF81C0001F1010B75
:1053800040F25411C2F20001C1F814B002F08EFCD8
:10539000CDE91010A86DA96E6C6CD5F850900D91E8
:1053A00002F084FC0646686FD5F86C808A4602F0ED
:1053B0007DFC0F460E99069008910F9948F63E0025
:1053C000CDE9091B50210B910D99DDE9103240F216
:1053D000541BCDE90049CDE9041840F20014C0F691
:1053E00000005321C2F2000BCDE9026A4FF0010A1E
:1053F0004FF00008C4F221240797FAF727FFA86BA3
:105400004CF6CD41CCF6CC41484349F699114FEAD0
:105410007000C1F6991188423EF606AFA87C0128BB
:105420003EF4FAAEA87C00287EF4FEAEE87A40F2A4
:10543000541B002808BFC4F8BCA0A87B4FF000088C
:10544000002808BFC4F8B0A0687CC2F2000B002896
:105450004FF0010008BFC4F8AC00FEF7E4BE00BF87
:10546000022085F819A0287285F828A040F258304B
:105470001299C2F200000122FDF73EFB48F623001C
:10548000C0F60000222122220D230A270097FAF7F6
:10549000DDFEA87D30B9A87D20B9A87D10B9A87D12
:1054A0000028F6D0032085F8280048F2D560C0F621
:1054B00000001A21FAF7CAFE85F81680687E0028D7
:1054C0003FF40DAE687E00283FF409AE687E0028E8
:1054D0003FF405AE687E0028F0D100E60220287275
:1054E00085F828A040F258301299C2F2000001223B
:1054F000FDF702FB48F62300C0F60000222122221D
:105500000D230A270097FAF7A1FEA87D30B9A87DE0
:1055100020B9A87D10B9A87D0028F6D0032085F811
:105520002800E87A48F2DC7101280FF21C40C0F62E
:10553000000108BF08461A21FAF788FE85F8168090
:10554000687E00283FF4D7AD687E00283FF4D3ADD5
:10555000687E00283FF4CFAD687E0028F0D1CAE510
:1055600044313A204F4E000044313A4F4646000045
:1055700044323A204F4E000044323A4F4646000033
:105580000220287285F828A040F258301299C2F201
:1055900000000122FDF7B0FA48F62300C0F6000033
:1055A000222122220D230A270097FAF74FFEA87D19
:1055B00030B9A87D20B9A87D10B9A87D0028F6D003
:1055C000032085F82800A87B48F2E871012848F2FA
:1055D000BB60C0F60000C0F6000108BF08461A21F3
:1055E000FAF734FE85F81680687E00283FF48FAD08
:1055F000687E00283FF48BAD687E00283FF487ADBD
:10560000687E0028F0D182E544333A204F4E0000F6
:1056100044333A4F4646000044343A204F4E00008F
:1056200044343A4F464600000220287285F828A0EC
:1056300040F258301299C2F200000122FDF75CFAE4
:1056400048F62300C0F60000222122220D230A275B
:105650000097FAF7FBFDA87D30B9A87D20B9A87D99
:1056600010B9A87D0028F6D0032085F82800687CB2
:1056700048F2F471012848F2C860C0F60000C0F694
:10568000000108BF08461A21FAF7E0FD85F81680E8
:10569000687E00283FF447AD687E00283FF443ADA4
:1056A000687E00283FF43FAD687E0028F0D13AE5DF
:1056B00095F82A00002840D0022085F82A80287218
:1056C00085F828A040F258301299C2F20000012259
:1056D000FDF712FA48F62300C0F60000222122222C
:1056E0000D230A270097FAF7B1FDA87D30B9A87DF0
:1056F00020B9A87D10B9A87D0028F6D0032085F830
:105700002800D5E910042E6D02F0D0FA024648F2C6
:10571000E660C0F600000B461A21CDE90046029172
:10572000FAF794FD85F81680687E30B1687E20B166
:10573000687E10B1687E0028F6D195F82B0000280D
:1057400040D0022085F82B80287285F828A040F2EE
:1057500058301299C2F200000122FDF7CDF948F647
:105760002300C0F60000222122220D230A270097E1
:10577000FAF76CFDA87D30B9A87D20B9A87D10B9D5
:10578000A87D0028F6D0032085F82800E86DD5E92B
:105790001A4602F08BFA024648F23870C0F6000052
:1057A0000B461A21CDE900460291FAF74FFD85F824
:1057B0001680687E30B1687E20B1687E10B1687E48
:1057C0000028F6D195F82C0040F2001440F2541B4A
:1057D0000028C4F22124C2F2000B3FF476AC022070
:1057E00085F82C80287285F828A040F2583012994C
:1057F000C2F200000122FDF77FF948F62300C0F64F
:105800000000222122220D230A270097FAF71EFD0D
:10581000A87D30B9A87D20B9A87D10B9A87D002841
:10582000F6D0032085F82800A86F02F03FFA024660
:10583000DBE90203CDE9000348F28A70C0F60000FC
:105840000B461A210291FAF701FD85F81680687E51
:1058500000283FF43AAC687E00283FF436AC687EFE
:1058600000283FF432AC687E0028F0D1FFF72DBC51
:1058700040F2001440F2541B01200022C4F2212403
:105880004FF000084FF0010AC2F2000B6875FFF7F5
:10589000EDB800BF109A8A423FF645AB81453FF60E
:1058A00042AB8C423FF63FAB11980E9902F09AFA48
:1058B00000287FF438ABDDE90E1002F0A1FA0028D1
:1058C0003FF431AB40F2541BC2F2000BDBF818007E
:1058D00040F2001401306528C4F221244FF0000882
:1058E0004FF0010ACBF81800FFF4CFA8687D012122
:1058F0000128CBF8188008BF85F8321085F815808C
:10590000C5F84080C5F85C80C5F87880FFF7DDBB3E
:1059100041542B434D47463D31256325630000002C
:1059200053797374656D206973204163746976657A
:10593000256300005741524E494E47204C4556457D
:105940004C203125630000004E4F44452031204F4C
:1059500046462563000000005FEA400C08BF91F056
:10596000000F4FEA8C234FEAC12243EA51514FEA1C
:105970001C5018BF00F5F0404FEA300018BF41F04E
:1059800000415FEA6C5C00F02980BCF1FF3F08BF7A
:1059900040F080407047130C06BF12044FF0100C0B
:1059A0004FF0000C130E04BF12020CF1080C130F81
:1059B00004BF12010CF1040C930F04BF92000CF110
:1059C000020CD30F04BF52000CF1010C11464FF032
:1059D0000002A0F11F00A0EB0C00704711F0004F77
:1059E00008BF704731F000413FF4D5AF0B0C06BF44
:1059F00009044FF0100C4FF0000C0B0E04BF09020D
:105A00000CF1080C0B0F04BF09010CF1040C8B0FF7
:105A100004BF89000CF1020CCB0F04BF49000CF14C
:105A2000010CCCF1200322FA03F341EA030102FA4C
:105A30000CF2A0EB0C0000F10100704723F07F474F
:105A400020F07F4C80EA030000F00040ACEB07033D
:105A500003F57C5303F1FF032DE9804909B44FEAB4
:105A6000144324EA03484FEA154B25EA0B4E0FF284
:105A7000042606EB13273E7803FB0667C7F50007ED
:105A800007FB06F64FEAD64606F102064FEA543700
:105A900007FB066CCCF1005C4FEA1C472CEA074C74
:105AA0000CFB06F507FB06F404EB15464FEA9616C9
:105AB00049085FEA320234BF00204FF000404FEA4D
:105AC000D13706FB07FC4FEA1C4C0CFB0BF7D21B33
:105AD00003FB0CF761EB07010CFB0EF7B0EB074083
