:020000040800F2
:10000000A00900200D0200085135000895330008B2
:100010004D3500087D0F0008413D0008000000003C
:10002000000000000000000000000000ED3B0008A0
:10003000810F00080000000055350008F13B000862
:1000400027020008270200082702000827020008EC
:1000500027020008270200082702000827020008DC
:1000600027020008270200082702000827020008CC
:1000700027020008270200082702000827020008BC
:1000800027020008270200082702000827020008AC
:10009000270200082702000827020008270200089C
:1000A000270200082702000827020008270200088C
:1000B000F93B0008053C0008270200082702000859
:1000C000270200082702000827020008270200086C
:1000D000270200081D3D0008293D0008353D0008A5
:1000E00027020008270200082702000800F002F893
:1000F00000F07DF814A696E8000CB244B344DA454B
:1001000001D100F074F8BAE80F000FA696E83000AD
:10011000A5EB040504EB0607AAEB0704A7F101070A
:100120004FEA15154FEA3414A4F10104AC4201D38F
:1001300000F05DF813F0010F18BFFB1A43F0010344
:1001400000F001F8DBE7184790880000B088000055
:10015000103A24BF78C878C1FAD8520724BF30C8F3
:1001600030C144BF04680C60704700007047000055
:100170000023002400250026103A28BF78C1FBD8B0
:10018000520728BF30C148BF0B607047662908F08E
:10019000AC81692900F0C880642900F0C580752908
:1001A00000F0C2806F2900F05981782900F0808129
:1001B0000368DB0928BF41F08001632900F0E78470
:1001C000E32900F00D85002070471FB500F040FDC9
:1001D00004000020002107F015F8401C606000209A
:1001E000002106F0F9FFE0601FBD10B510BD00F062
:1001F0004FFE1146FFF7E9FF03F0FAFD00F06DFE38
:1002000003B4FFF7F2FF03BC00F0B0FE09488047DB
:1002100009480047FEE7FEE7FEE7FEE7FEE7FEE7E8
:10022000FEE7FEE7FEE7FEE704480549054A064B00
:1002300070470000F53B0008ED000008A003002017
:10024000A0090020A0050020A00500200FB404494B
:1002500010B503AA029800F0A7FC10BC5DF814FBCF
:100260008C01002070B5044685690068C10601D57F
:10027000302600E02026C00707D070BDD4E9012158
:1002800030469047206A401C20626D1EF6D570BD36
:1002900070B5044685690078C00707D170BDD4E900
:1002A000012120209047206A401C20626D1EF6D557
:1002B00070BD09684A0501D540B27047C905FCD533
:1002C00000B2704709684A0501D5C0B27047C90538
:1002D000FCD580B2704770B50C460546012A05D0A2
:1002E0002878800600D5EA69002302E0012305E0B2
:1002F0005B1C934202D2E05C0028F9D1A869E618A1
:10030000C01AA861286A184428622846FFF7AAFF85
:1003100004E0D5E9012114F8010B9047B442F8D369
:100320002846FFF7B5FF70BD2DE9F04106460024D1
:1003300010687529314616A510D0FFF7BAFF0028BE
:1003400002DA404213A507E031688A0701D512A5F9
:1003500002E0490704D511A5012401E0FFF7B2FF2F
:1003600000210A2206F1240709E0B0FBF2FCB0FBF1
:10037000F2F302FB1C00303078541846491C002868
:10038000F3D123462A463046BDE8F04100F08EB94D
:10039000000000002D0000002B00000020000000E5
:1003A0002DE9FF5F15468A460446DFF8AC80F84425
:1003B0000027D8E900103E46CDE9001010E03AF8D9
:1003C00016106A4602A800F017FC411C07D02178DD
:1003D000890603D5E269391891420DD80744761C85
:1003E0002078800602D5E069B84205DDAE42E6DB42
:1003F0003AF816000028E2D1A069C01BA06120468F
:10040000FFF730FFD8E90010CDE90010002017E019
:100410003AF818106A4602A800F0EEFBB0F1FF3F70
:1004200081460BD000250DF1080B05E0D4E9012130
:100430001BF8050090476D1C4D45F7D308F10100EE
:10044000B0428046E4DB206A384420622046FFF751
:100450001FFFBDE8FF9F00002E82000070B504461C
:1004600021461068FFF72EFF002104F1240505E066
:1004700000F007023032C0086A54491C0028F7D146
:100480002068002308A2050708D500F020000843D3
:1004900004D0E069012305A2401EE0612046BDE8CA
:1004A000704000F003B900000000000030000000C0
:1004B00070B504460D4621461068FFF703FF2188FA
:1004C000090502D50F4A7A4402E00E4A7A440E32F8
:1004D000002104F1240305E000F00F060009965DF9
:1004E0005E54491C0028F7D120780023000704D56A
:1004F000702D02D009B1022311322046BDE87040B0
:1005000000F0D4B81E8100002DE9F05F8946044652
:100510004FF0000ADFF874B1FB44C0F820A0204679
:10052000E1688847002874D0252806D0D4E9012145
:100530009047206A401C2062F1E700265F46204673
:10054000E16888472028054607DB312D05D2781958
:1005500010F8200C08B10643F1E7B00701D526F0EA
:100560000406C4F81CA00027C4F818A02A2D09D03E
:10057000284605F0EDFE38B304EB8708303DC8F897
:10058000185019E059F8041B204604EB87029161CA
:10059000E1688847012F054618D1E069002820DA74
:1005A00026F020061DE0D8F8180000EB800005EBCF
:1005B00040003038C8F818002046E16888470546F2
:1005C00005F0C6FE0028EED1012F0AD02E2D08D14D
:1005D0002046E16888477F1C0546022F46F020062A
:1005E000C4DBA069002803DA404246F00106A0619E
:1005F000F00701D026F010066C2D0BD0682D09D025
:100600004C2D39D06A2D35D0742D35D07A2D33D07C
:1006100016E038E0E1682F4620468847B842054694
:1006200009D16C2F26D04FF48060E1680643204644
:100630008847054604E06C2F1AD04FF480700643BB
:100640000DB3A5F14100192802D8203546F4006603
:100650004A462946204626604E46FFF797FD80B160
:1006600001280BD0F61D26F0070000F1080956E717
:100670004020E4E78020D8E70020D6E706F104090F
:100680004DE7284652E7206ABDE8F09FF48000005D
:1006900070477047704710B500F0DEFA006810BD73
:1006A00010B5044600F0D8FA046010BD2DE9F047FB
:1006B0000D4699469246044600F1240801688806D2
:1006C00004D5E06921F01001216000E00120A8427A
:1006D00001DD471B00E00027A1697A1902EB090040
:1006E000081AA0612078C00602D42046FFF7BAFDA0
:1006F000002608E0D4E901211AF806009047206A94
:10070000401C761C20624E45F4DB2078C0060AD5DA
:100710002046FFF7A7FD06E0D4E9012130209047ED
:10072000206A401C2062381EA7F10107F4DC07E0B4
:10073000D4E9012118F805009047206A401C206286
:10074000281EA5F10105F3DC2046FFF7A1FD207866
:10075000000602D50220BDE8F0870120FBE72DE965
:10076000FF4F0C461E464FF0FF378BB0D2E9000119
:10077000DDF860800A908A46C1F30A5505B93D4606
:10078000002108464FF00000BAF1000F00F44000CD
:1007900005DA00EB80004FF4400101EA50004FEA17
:1007A0009059B9F1010F00DDB9460A9850EA4A00A4
:1007B0000ED044F61050A5F2FF3545432F14B8F182
:1007C000000F1ED07542291E1EDDC9F100021CE07B
:1007D000B8F1010F4FF0000001D0302103E0F243E7
:1007E00005E02154401CB042FBDB304600220021D2
:1007F00021540B99C1F80880C1E900200FB0BDE871
:10080000F08FBD1B6D1CDEE74A4600DA694206A880
:1008100000F0C4FA06AB93E8070003AB83E80700D7
:1008200050460A9905F040F98DE80700A0F5005000
:100830001F3800900398002D0ADD42F21F014A463E
:100840000844002303A90390684605F0A9FB09E0CA
:10085000A0F500504A461F38002303A903906846BC
:1008600005F0B3FB8DE807000004000C03D04FF047
:10087000FF30410800E01046B8F1000F03D000221D
:10088000009215461EE0751E05D400F0E9F93032DD
:1008900062556D1EF9D5B3460122084302D00022ED
:1008A0007F1C04E02078302801D100227F1E002A1E
:1008B000099784D01DE0112D07DA00F0D1F930320C
:1008C00062556D1C50EA0102F5D1084302D0009830
:1008D000C8B10EE00021681E05E0235C625C635431
:1008E0002254401E491C8142F7DBAB46A81B401E28
:1008F0000990002004F80B000B98099AC0F80880B2
:10090000C0E9002B7AE711264FF0000857E72DE9E0
:10091000F04F88460446D21D22F0070191B0D1E97C
:100920000001CDE90A0105F087FC02460B98C00FD3
:1009300001D02D2007E02068810701D52B2002E09F
:10094000202101EAC000032A099001D0072A05DB13
:1009500003464146204600F0E1F90BE1207880068D
:1009600001D5E06900E00620B8F1650F814606D0A8
:10097000B8F1660F18D0B8F1670F70D131E00020E0
:10098000B9F1110F009001DB112301E009F101031E
:100990000AAA01A90CA8FFF7E2FEDDE90C70002607
:1009A00009F10105834647E001204B4600904FF0D6
:1009B00000470AAA01A90CA8FFF7D1FEDDE90DB096
:1009C0000C995D46002610B909F101000D18B9EB2C
:1009D000050003D4C0F1FF3609F10105A5EB0900BC
:1009E0002BE0B9F1010F01DA4FF001090020B9F154
:1009F000110F0090484601DD112300E003460AAACA
:100A000001A90CA8FFF7ABFEDDE90C704D460026EE
:100A10008346207800070AD4AB4500DA5D4601A87A
:100A2000012D04DD411911F8011C302907D04F4573
:100A300002DA17F1040F04DA012082460FE06D1E7E
:100A4000EEE7002F02DCED1B3E4403E0781CA842D9
:100A500000DD7D1CB81B00F1010A4FF00047207833
:100A6000000703D4AA4501DB4FF0FF3A0021B7F19C
:100A7000004F0DF143088DF8431024D002202B23A2
:100A8000002F01DA7F422D230A21021EA0F101006E
:100A900000DC5FB197FBF1FC97FBF1F201FB1C7CE2
:100AA00017460CF1300C08F801CDEEE7A8F1010073
:100AB00003702188090501D5452100E06521A0F1D9
:100AC000010800F8011C09980FA9A1EB0807FF1DF8
:100AD00000B10120411901EBEA70A1693844081AFC
:100AE000401EA0612078C00602D42046FFF7BAFB62
:100AF000099828B1D4E901219047206A401C20625E
:100B00002078C00622D52046FFF7ACFB1EE0002E61
:100B100004DBB34502DD01A8805D00E03020D4E9AC
:100B200001219047206A401C2062761CAAF1010036
:100B30005FEA000A0AD100F08BF8C0680168405CE7
:100B4000D4E901219047206A401C2062281EA5F1AB
:100B50000105DCDC07E0D4E9012118F8010B90471E
:100B6000206A401C2062381EA7F10107F3DC2046F2
:100B7000FFF78EFB032011B041E610B5436913B1B6
:100B8000AFF3008001E0FFF7A6FB012010BD127853
:100B900000F124010A7000224A700122EDE7116879
:100BA0004FF0FF32E9E70000074B70B50D467B447C
:100BB00000F0A1F80446284600F062F910B14FF0A9
:100BC000FF3070BD204670BD9331000010B5436901
:100BD00013B1AFF3008001E0FFF7E2FB012010BD8D
:100BE000128800F1240182840022C2840122EDE7F0
:100BF00011684FF0FF32E9E72DE9F04116460C4647
:100C0000054600F01DF8036893F80101012807D09C
:100C1000FF2C12D8185D80B101202C70BDE8F08146
:100C2000D3F807013246214603F20713C7182846B6
:100C3000BC46BDE8F041002360474FF0FF30EDE7D0
:100C400010B500F005F8001D10BD00BFB96500002B
:100C50000048704798000020004870477800002046
:100C600030B5B0F10A0271F100034FEA900E4EEA7E
:100C7000817EB0EB0E0061EB91014FEA101E4EEA4F
:100C8000017E10EB0E0041EB11114FEA102E4EEADF
:100C9000016E10EB0E0041EB11214FEA104E4EEAAF
:100CA000014E10EB0E0041EB1141401841F10001E3
:100CB0004FEAD00040EA41704FEAD1014FEA810487
:100CC00044EA907410EB800544EB01046D1944EB89
:100CD0000404521BA3414FF0000348BF0A3200D561
:100CE00030BD401C41F1000130BD000001694A1CCB
:100CF00002610878704700B58FB0CDE9013100215D
:100D0000059105497944CDE9031011466846FFF77E
:100D1000FBFB0FB000BD0000E5FFFFFF2DE9F04138
:100D20001F46044603260168072A01F4006004DB1D
:100D300008B116A505E016A503E008B115A500E069
:100D400015A521F010002060A069C01EA0610FB1A0
:100D5000401EA0612046FFF785FA4FB1D4E901217A
:100D600038469047206A401C2062C01C206206E082
:100D7000206AFAE7D4E9012115F8010B9047761EA5
:100D8000F8D22046FFF784FABDE8F0814E414E00CC
:100D90006E616E00494E4600696E66002DE9F047AF
:100DA000814616468AB0354878440DC88DE80D0056
:100DB00032487844801C03AC0DC884E80D0041F62D
:100DC0009B300844372190FBF1F290FBF1F5A5F13F
:100DD000800501FB12041B3C02D56442012000E0A7
:100DE0000020DFF898A080460027FA44AAF1BE0A46
:100DF0000EE0E0070AD03246684607EB47010123C0
:100E00000AEB810105F0E1F88DE8070064107F1C12
:100E1000002CEED1194F7F44AE3F19E0E80715D002
:100E200007EB04100DF1180A90E80E008AE80E0096
:100E3000C068F04201D1981908903246012306A9F2
:100E400003A805F0C2F803AB83E807006D10641C2B
:100E5000002DE3D14FF0010332466946B8F1000F8F
:100E600003A802D005F09CF801E005F0AEF8C9E94E
:100E70000001C9F808200AB0BDE8F087C079000079
:100E8000007B00F080007047004870477800002029
:100E90007546FFF7F9FFAE4605006946534620F058
:100EA0000700854618B020B5FFF7BEF9BDE8204021
:100EB0004FF000064FF000074FF000084FF0000B16
:100EC000AC46ACE8C009ACE8C009ACE8C009ACE885
:100ED000C00921F007018D46704710B50446AFF3F5
:100EE00000802046BDE81040FFF78AB94FF0013C72
:100EF00050F8042B51F8043B9A4221D1A2EB0C0389
:100F0000934313EACC1317D150F8042B51F8043B48
:100F10009A4215D1A2EB0C03934313EACC130BD1E5
:100F200050F8042B51F8043B9A4209D1A2EB0C0370
:100F3000934313EACC13DBD04FF00000704700BF9F
:100F4000D01A01BAB1FA81F101F0180122FA01F0C8
:100F5000CB40DBB2C0B2C01AC1F120012CFA01F3C0
:100F6000D11A914311EAC311E6D170470149182003
:100F7000ABBEFEE72600020070470000FEE700005F
:100F800070470000014690F82100022816D1086839
:100F9000D1E90FC3026822F00E020260026822F05B
:100FA00001020260012000FA03F2CCF8042081F86B
:100FB00021000020002281F820207047042088634F
:100FC0000120002281F820207047000090F82110B5
:100FD000022923D10268116821F00E0111602F212E
:100FE0001368C4F202018A4240F20401C4F2020111
:100FF00023F00103136015DD3023C4F202039A428B
:101000001CD04423C4F202039A421BD05823C4F2DA
:1010100002039A421CD14FF4803321E00421816302
:10102000012070470823C4F202039A420ED01C2309
:10103000C4F202039A420BD1102311E04FF48073E3
:101040000EE000BF4FF480530AE000BF012307E029
:1010500001F1680C4FF08073624508BF4FF48013B4
:101060000B60012180F82110426B002180F82010D4
:1010700022B180B590470021BDE880400846704706
:10108000B0B5044600F01EF9054640F26C00C2F20D
:1010900000000078611C18BF044400BF00F012F982
:1010A000401BA042FAD3B0BD2DE9F04F82B00E68CC
:1010B000002E00F0FD8041F20042C4F20102042340
:1010C00040F2004E904208BF03234FF6FF7CC4F26B
:1010D000010E009300240123C1F2100C4FF0000A0E
:1010E0004FF0000944E000BF012704F00C030F2279
:1010F0009A402BEA020207FA03F34FEA9A051A43D1
:1011000046F825204E6840F20C45F202DEF8082031
:1011100054BF22EA080242EA0802C4F20105CEF8EE
:1011200008202A68B30254BF22EA080242EA0802F1
:101130002A60B303DEF8042054BF22EA080242EA20
:101140000802F303CEF80420DEF800204FF001037C
:1011500054BF22EA080242EA0802CEF800200E68D4
:101160000AF1010A36FA0AF204F1040400F0A08040
:1011700003FA0AFB16EA0B08F1D04E68664511DC4B
:10118000122E55D8DFE806F0340A4448545454541B
:101190005454545454545454544C5000D1F80C905A
:1011A00046E000BF4FF6FF72C1F2210296420FDC0B
:1011B0000022C1F2110296421AD00022C1F212029C
:1011C000964215D00022C1F22102964210D02FE0A3
:1011D0000022C1F2220296420AD00022C1F231025C
:1011E000964205D00022C1F23202964220D100BFC1
:1011F0008A684AB1012A14BFC0F814B0C0F810B010
:101200004FF0080914E000BF4FF0040910E000BFE0
:10121000CA6802F108090BE04FF0000908E000BFBE
:10122000CA6802F1040903E0CA6802F10C0900BFB0
:1012300022460646B8F5807F24BF203A0436376838
:101240000F25954027EA050509FA02F22A43326084
:10125000CA79D2067FF583AF41F21803C4F20203C4
:101260001A68AEF57E7642F001021A601A6802F042
:1012700001020192019A2AF0030256F802B040F6E8
:101280000002C4F20102904210D040F60042C4F2C3
:10129000010290423FF428AF41F20002C4F2010281
:1012A000009F904208BF02271FE700BF00271CE7EE
:1012B00002B0BDE8F08F0000002A08BF09040161F8
:1012C0007047000040F29830C2F20000006870479A
:1012D00040F26C0040F29831C2F20000C2F200010C
:1012E00000780A68104408607047000080B542F238
:1012F0000000C4F20200016841F010010160032007
:1013000000F08CF80F2000F005F800F027F800201E
:1013100080BD000070B540F26C06C2F2000640F2DB
:1013200074013278C2F200014FF47A730968B3FB9A
:10133000F2F20446B1FBF2F1084600F019FC0F2C62
:101340004FF0010508D838B94FF0FF302146002290
:10135000002500F037F87460284670BD82B041F275
:101360001800C4F202000168022241F0010101608C
:10137000016801F0010101910199416841F080513A
:101380004160406800F08050009000980420C4F252
:101390000100016862F31A61016002B07047000049
:1013A000002848BF704700F01F01012202FA01F136
:1013B0001C2202EAD0004EF20012CEF2000281504E
:1013C0007047000010B54EF60C5CCEF2000CDCF855
:1013D0000030C3F3022E8EF00704042C28BF04242F
:1013E000BEF103034FF0FF3E0EFA04F438BF0023B2
:1013F000A14399400EFA03F39A43114300F00F0200
:1014000000F160430901043A03F564436244002893
:1014100048BF02F10C03197010BD00004EF60C51CC
:10142000CEF200010A684FF6FF031A4060F30A2269
:1014300042F0806040F0FD7008607047002804BFF3
:10144000012070472DE9F04381B042F20008C4F258
:1014500002080446D8F800000D4600F00700884254
:101460000CD2D8F8000020F007002843C8F800008C
:10147000D8F8000000F00700A8426ED1206841F2C1
:1014800004098107C4F2020917D5410705D5D9F827
:10149000001041F4E061C9F80010010705D5D9F842
:1014A000001041F46051C9F80010D9F80010A2688A
:1014B00021F0F0011143C9F80010C00744D1D8F859
:1014C000000000F00700A8420CD9D8F8000020F076
:1014D00007002843C8F80000D8F8000000F0070013
:1014E000A8423AD12068410707D5D9F80010E26830
:1014F00021F4E0611143C9F80010000708D5D9F8BC
:101500000000216920F4605040EAC100C9F80000E1
:10151000D9F8001042F2004001F00C02042AC0F297
:10152000F40059D0082A45D148F2AC73C1F3834284
:10153000C0F600039A5CC90342D440F60010C0F222
:101540003D00504348E000BF606802280AD00128EF
:101550002AD159F8041C890308D4012001B0BDE840
:10156000F08300BF59F8041C8901F6D5D9F80010A2
:1015700021F003010843C9F80000FFF7A3FE064667
:1015800041F28837D9F80000616800F00C00B0EB38
:10159000810F94D0FFF796FE801BB842F2D903204A
:1015A00001B0BDE8F08300BF59F8041C8907D4D509
:1015B000DCE700BF41F20020C0F27A000CE000BF7F
:1015C000D9F8001048F29C73C1F34041C0F6000303
:1015D000595C5043B0FBF1F0D9F8001048F2847226
:1015E000C1F30311C0F60002515C40F2740220FA0C
:1015F00001F140F27000C2F200000068C2F2000285
:101600001160FFF787FE002001B0BDE8F083000005
:1016100040F2740041F20401C2F20000C4F202017F
:101620000068096848F29472C1F30221C0F6000212
:10163000515CC8407047000040F2740041F2040160
:10164000C2F20000C4F202010068096848F2947214
:10165000C1F3C221C0F60002515CC84070470000CF
:10166000002804BF012070472DE9F04182B00446F4
:10167000007841F20006C007C4F202060CD0706880
:1016800000F00C00042840F081803068800303D50E
:101690006068002800F04E81207880071BD57068B4
:1016A00010F00C0F09D0706800F00C00082840F012
:1016B0008B807068C00300F187803068800703D595
:1016C0002069012840F036813068616920F0F80017
:1016D00040EAC10030602078000713D4207840072A
:1016E0002CD4E569002D00F02081706800F00C001A
:1016F000082840F0AF80012D40F00C81012002B09D
:10170000BDE8F081A069002800F08C800020C4F2C0
:1017100042200121C0F88014FFF7D4FD054600BF28
:10172000706A800700F1BA80FFF7CCFD401B0228E9
:10173000F6D9032002B0BDE8F08100BFF0695FEA8E
:10174000C00808D4F06940F08050F061F06900F002
:1017500080500090009847F20007C4F200073868F4
:10176000C0054DD4386840F480703860FFF7AAFD9A
:10177000054600BF3868C00542D4FFF7A3FD401BF3
:101780006428F7D9032002B0BDE8F081706800F04A
:101790000C00082803D17068C0033FF576AF60687D
:1017A000002800F00981B0F5A02F00F01D81B0F5F0
:1017B000803F00F01D81306820F480303060306858
:1017C00020F4802017E100BF2069002840F20000CB
:1017D000C4F2422000F08C8001210160FFF772FD0D
:1017E000054600BF306880073FF56EAFFFF76AFD22
:1017F000401B0228F6D9032002B0BDE8F08100BFEB
:10180000E068002800F09A80052800F0B1800128E7
:1018100000F0B280306A20F001003062306A20F0BF
:101820000400ACE00020C4F242200021C0F8801483
:10183000FFF748FD054600BF706A80077FF54EAF91
:10184000FFF740FD401B0228F6D9032002B0BDE897
:10185000F08100BF0027C4F2422700203866FFF75E
:1018600031FD022D05460DD13068800140F1D68052
:10187000FFF728FD401B02284FF00300F4D902B007
:10188000BDE8F081306880014FD5FFF71BFD401B9C
:1018900002284FF00300F5D9F1E700BF40F27400D1
:1018A000C2F20000006844F6D351C1F26201A0FB0D
:1018B0000101480A019000BF00BF0198411E0028A5
:1018C00001913FF40BAF00BF0198411E0028019128
:1018D0003FF404AF00BF0198411E002801913FF47E
:1018E000FDAE00BF0198411E00280191E4D1F5E64C
:1018F00000210160FFF7E6FC054600BF3068800765
:101900007FF5E9AEFFF7DEFC401B02284FF0030035
:10191000F4D9B4E77068216A00F480328A4209D1B0
:10192000616A00F47010884204D1002002B0BDE862
:10193000F08100BF012002B0BDE8F081306A20F0E4
:1019400001003062306A20F004003062FFF7BAFC18
:10195000054641F2883700BF306A800722D5FFF77D
:10196000B1FC401BB8424FF00300F5D987E700BF38
:10197000306A40F004003062306A40F001003062AA
:10198000FFF7A0FC054641F2883700BF306A8007A8
:1019900008D4FFF797FC401BB842F7D9032002B0E8
:1019A000BDE8F081B8F1000F3FF59BAEF06920F083
:1019B0008050F06195E600BF306820F480303060E0
:1019C000306820F480203060FFF77CFC054600BFC3
:1019D000306880037FF560AEFFF774FC401B64281D
:1019E0004FF00300F4D94AE7306840F480203060BB
:1019F000306840F480303060FFF764FC054600BF7B
:101A0000306880033FF548AEFFF75CFC401B64285C
:101A1000F6D9032002B0BDE8F08100BF206AB0F51E
:101A2000803F05D17168A26821F4003111437160D3
:101A30007168626A21F474111143084370600120D7
:101A40003866FFF73FFC0446306880013FF56DAF14
:101A5000FFF738FC001B02284FF00300F4D90EE713
:101A600070B538B10446406A30B10020206104F1FD
:101A7000140007E0012070BD6068B0F5827F03D0DC
:101A800004F11C00002101600026A66294F85100B8
:101A900020B9204684F8506000F038F8022084F81D
:101AA000510094E8071001F48271036802F40442C3
:101AB00023F040030360236911440CF400621144D5
:101AC00003F002026369114403F00102A369E569AE
:101AD000114403F40072114405F03802256A1144E0
:101AE00005F08002A56A114305F40052114301601C
:101AF000042101EA13414160C16921F40061C1611F
:101B00000120666584F85100304670BD80B586B00E
:101B100043F600010068C4F20001002288420492EA
:101B200002D006B080BD00BF41F21800C4F202002E
:101B3000426842F480424260426802F4804201926C
:101B4000019A026842F008020260006800F0080092
:101B5000019001984FF4204002900220039003204E
:101B6000059001F5544002A9FFF79EFA06B080BD2A
:101B7000411E0020B0EB116F1CBF012070474EF2D8
:101B80001002CEF2000251604EF62351CEF2000157
:101B9000F0230B70072190601160704770470000C0
:101BA0007047000090F83C20012A4FF0020236D026
:101BB00010B580F83D200268D2F804E0D2F808C0E1
:101BC0000C682EF07003234340F2FF74C4F200044B
:101BD000A24253600ADCB2F1804F13D040F20043BE
:101BE000C4F200039A420DD011E000BF42F6004358
:101BF000C4F201039A4205D040F60003C4F2000388
:101C00009A4204D149682CF0800319439160012164
:101C1000002280F83D1080F83C20BDE810401046BE
:101C200070470000002804BF0120704710B504462B
:101C300090F83D0028B9002084F83C00204600F0D0
:101C400067F8022084F83D00206840F2FF730268C4
:101C5000C4F2000342F6004C9842C4F2010C15DCB9
:101C6000B0F1804F1AD040F20041C4F20001884226
:101C700014D0984218DCB0F1804F1DD040F20041E2
:101C8000C4F20001884217D01AE000BF604505D0B9
:101C900040F60001C4F200018842EAD1A16822F0B6
:101CA00070020A439842E6DD604505D040F6000127
:101CB000C4F20001884203D1216922F440720A4330
:101CC000A36922F08001D4F804E0E268194360457A
:101CD0000160C262C0F828E002D16169CCF830101E
:101CE00001214161002084F8461084F83E1084F8F8
:101CF0003F1084F8401084F8411084F8421084F8B2
:101D0000431084F8441084F8451084F83D1010BD49
:101D100080B584B00068B0F1804F1DD040F2004122
:101D2000C4F2000188422FD042F60041C4F2010102
:101D300088420FD141F21C00C4F2020050F8041C8A
:101D400041F4006140F8041C50F8040C00F40060F9
:101D50000390039804B080BD41F21C00C4F202005D
:101D60000168002241F00101016000680E2100F0CD
:101D70000100029002981C20FFF724FB1C2004B0F5
:101D8000BDE88040FFF70CBB41F21C00C4F202002A
:101D90000168002241F00201016000680D2100F09D
:101DA0000200019001981D20FFF70CFB1D2004B0DC
:101DB000BDE88040FFF7F4BA90F83D1001291CBF40
:101DC00001207047022180F83D10006840F2FF7149
:101DD000C4F20001884209DCB0F1804F12D040F219
:101DE0000041C4F2000188420CD012E042F60041EA
:101DF000C4F20101884205D040F60001C4F200019E
:101E0000884206D1816801F00701062904BF00203D
:101E10007047016841F00101016000207047000037
:101E200090F83D1001291CBF01207047022180F865
:101E30003D10006840F2FF72C168C4F20002904297
:101E400041F00101C16009DCB0F1804F12D040F2D5
:101E50000041C4F2000188420CD012E042F6004179
:101E6000C4F20101884205D040F60001C4F200012D
:101E7000884206D1816801F00701062904BF0020CD
:101E80007047016841F001010160002070470000C7
:101E900090F83C20012A4FF0020200F0C58080B586
:101EA00080F83D20D0F800C04FF67772DCF808309B
:101EB00023EA0202CCF808200B684F2B28DC1F2BEA
:101EC00044DD202B45D0302B43D0402B40F0AE805A
:101ED000D1F804E0C968DCF82030DCF8202022F0DA
:101EE0000102CCF82020DCF8182022F0F00242EAAF
:101EF000011123F00A0242EA0E02CCF81810CCF8C5
:101F00002020DCF8081041F0470121F0300180E08A
:101F10006F2B27DDB3F5005F48D0B3F5805F7AD033
:101F2000702B40F08380D1E901E3C968DCF8082018
:101F300043EA0E0322F47F4243EA01211143CCF825
:101F40000810DCF8081041F0770162E00BB1102BAB
:101F50006CD1DCF8081021F07001194341F0070141
:101F600057E000BF502B35D0602B5FD1D1F804E093
:101F7000C968DCF82030DCF8202022F01002CCF810
:101F80002020DCF8182022F4704242EA013123F0CC
:101F9000A00242EA0E12CCF81810CCF82020DCF88F
:101FA000081041F0670121F0100132E0D1E901E3AE
:101FB000C968DCF8082043EA0E0322F47F4243EAB2
:101FC00001211143CCF80810DCF8081041F48041DD
:101FD0001FE000BFD1F804E0C968DCF82030DCF86D
:101FE000202022F00102CCF82020DCF8182022F07A
:101FF000F00242EA011123F00A0242EA0E02CCF892
:102000001810CCF82020DCF8081041F0570121F01E
:102010002001CCF808100022012180F83D10002199
:1020200080F83C10BDE88040104670470122F3E77D
:102030007047000010B5016804460869800744BF76
:10204000C8685FEA807039D40869400744BFC8682F
:102050005FEA40703ED40869000744BFC8685FEA81
:10206000007045D40869C00644BFC8685FEAC06014
:102070004AD40869C0071CBFC8685FEAC07051D164
:102080000869000644BFC8685FEA006052D4086966
:10209000400644BFC8685FEA406053D408698006C0
:1020A00046BFC8685FEA806010BD6FF0200220461E
:1020B0000A61BDE81040FFF773BD00BF6FF002007A
:1020C0000861012020778869800743D02046FFF708
:1020D000AFFF45E06FF004000861022020778869B7
:1020E00010F4407F40D02046FFF7A2FF42E000BF3F
:1020F0006FF00800086104202077C86980073DD090
:102100002046FFF795FF3FE06FF0100008610820C0
:102110002077C86910F4407F3AD02046FFF788FF47
:102120003CE000BF6FF001000861204600F03EF87F
:102130002168A5E76FF0800008612046FFF72EFDBB
:102140002168A4E76FF040000861204600F0DCF849
:102150002168A3E7204600F025F8204600F024F887
:102160002168002020776FE7204600F01BF820460A
:1021700000F01AF82168002020776CE7204600F074
:1021800011F8204600F010F821680020207769E758
:10219000204600F007F8204600F006F821680020ED
:1021A000207766E770470000704700000068B0F1D4
:1021B000804F18BF704710B540F20004C2F200040F
:1021C0002078032822D002283ED0012860D1312077
:1021D000207240F2C020E11DC2F2000003224FF045
:1021E000FF3300F099FF40F2D800C2F20000002156
:1021F0004172C17B002979D010F8111F0029A0F18C
:1022000001013FD100F11D023AE000BF33202072EE
:1022100040F2C020E11DC2F2000003224FF0FF3364
:1022200000F07AFF40F2D800C2F200000021C17332
:10223000017B00293ED010F80E1F0029A0F10101FA
:1022400020D100F11F021BE03220207240F2C0209A
:10225000E11DC2F2000003224FF0FF3300F05CFFEB
:1022600040F2D800C2F2000000210173417A79B334
:1022700010F80B1F0029A0F1010103D100F1210288
:1022800001231370024608460121117000210170DC
:1022900020780130C1B2032988BF0120207040F2AC
:1022A0003020C2F2000000684FF23B614162BDE89D
:1022B00010407047417B01314173417B627891420C
:1022C000E6D910F80E1F0129E0D100F11F02DBE76B
:1022D000817A01318172817A62789142D8D910F87D
:1022E0000B1F0129D2D100F12102CDE7017C013180
:1022F0000174017C62789142CAD910F8111F01293A
:10230000C4D100F11D02BFE7704700007047000014
:1023100070470000B0B582B0044600680168C36829
:10232000426901F02F05202D03F0200506D12DB1C3
:10233000204602B0BDE8B04001F070BC5FEA017C0D
:102340001EBF02F0010E03F4907212EB0E0243D195
:10235000226BCD0618D5012A16D113F0100213D026
:102360000021019101680191416801910199406941
:1023700040063BD4A08DE18DE28D002A18BF884233
:1023800040F0F28102B0B0BD0A0640F1E78013F0E0
:10239000800200F0E38094F841102129F2D1A16875
:1023A000B1F5805F03D12169002900F06382216AC1
:1023B0004A1C226209784160E18C01390A04E184F7
:1023C000E0D1C16821F08001C160C16841F04001E5
:1023D000C16002B0B0BD00BFCA0718BF13F480725D
:1023E00040F0D0804A0700F1D380D8E0E06B01686C
:1023F00049688AB2002AC5D0A38D9A42C2D2E1852B
:102400008069202800F09E80206850E8030F216832
:1024100020F4807041E80302DAB1206850E8030F2D
:10242000216820F4807041E8030292B1206850E8EE
:10243000030F216820F4807041E803024AB120684C
:1024400050E8030F216820F4807041E80302002A5D
:10245000DAD1206850E8050F216820F0010041E83A
:102460000502C2B3206850E8050F216820F0010082
:1024700041E805027AB3206850E8050F216820F092
:10248000010041E8050232B3206850E8050F2168D9
:1024900020F0010041E80502002ADAD11BE000BF6C
:1024A000206850E8050F216820F0400041E805024F
:1024B000DAB1206850E8050F216820F0400041E8BB
:1024C000050292B1206850E8050F216820F0400015
:1024D00041E805024AB1206850E8050F216820F064
:1024E000400041E80502002ADAD1202084F84200A9
:1024F00000202063206850E8030F216820F01000BE
:1025000041E80302DAB1206850E8030F216820F0A7
:10251000100041E8030292B1206850E8030F2168DF
:1025200020F0100041E803024AB1206850E8030F90
:10253000216820F0100041E80302002ADAD1E06BA4
:10254000FEF720FD02206063A08DE18D401A81B26C
:10255000204602B0BDE8B040FFF7D8BE49067FF57F
:1025600011AF13F040013FF40DAFC16821F04001FD
:10257000C1602021204684F8411002B0BDE8B0407F
:1025800000F006BF626C42F0010262644A0706D5A1
:10259000BEF1000F03D0626C42F0020262648A074F
:1025A00006D5BEF1000F03D0626C42F004026264F3
:1025B000BCF1000F06D55EEA050203D0626C42F062
:1025C00008026264626C002A3FF4DCAE890604D51E
:1025D0001DB1204601F022FB20684069616C00F0CB
:1025E000400001F00801401800F0B680206850E873
:1025F000030F216820F4907041E80302BAB3206809
:1026000050E8030F216820F4907041E8030272B390
:10261000206850E8030F216820F4907041E803021D
:102620002AB3206850E8030F216820F4907041E835
:102630000302002ADAD11AE0206850E8050F216869
:1026400020F0010041E80502DAB1206850E8050FEA
:10265000216820F0010041E8050292B1206850E8AD
:10266000050F216820F0010041E805024AB1206809
:1026700050E8050F216820F0010041E80502002A1A
:10268000DAD1206B012824D1206850E8030F21689B
:1026900020F0100041E80302DAB1206850E8030F8F
:1026A000216820F0100041E8030292B1206850E850
:1026B000030F216820F0100041E803024AB12068AE
:1026C00050E8030F216820F0100041E80302002ABF
:1026D000DAD1202084F8420000202063206840697D
:1026E000400640F1C180206850E8050F216820F0C5
:1026F000400041E80502DAB1206850E8050F216882
:1027000020F0400041E8050292B1206850E8050F32
:10271000216820F0400041E805024AB1206850E8F5
:10272000050F216820F0400041E80502002ADAD1B7
:10273000E06B002800F0988043F61141C0F60001DC
:102740004163FEF743FC00283FF41CAEE06B416B95
:1027500002B0BDE8B04008472046FFF7D9FD002091
:10276000606402B0B0BD00BF401A00BF216851E8EC
:10277000031F226821F4907142E80313BBB3216860
:1027800051E8031F226821F4907142E8031373B3E8
:10279000216851E8031F226821F4907142E8031375
:1027A0002BB3216851E8031F226821F4907142E89D
:1027B0000313002BDAD11AE0216851E8051F2268C3
:1027C00021F0010142E80513DBB1216851E8051F42
:1027D000226821F0010142E8051393B1216851E814
:1027E000051F226821F0010142E805134BB1216861
:1027F00051E8051F226821F0010142E80513002B72
:10280000DAD1202184F8421000212163216851E8A7
:10281000031F226821F0100142E80313DBB1216895
:1028200051E8031F226821F0100142E8031393B11D
:10283000216851E8031F226821F0100142E80313C8
:102840004BB1216851E8031F226821F0100142E8D2
:102850000313002BDAD1022281B22046626302B058
:10286000BDE8B040FFF752BD204602B0BDE8B04021
:10287000FFF74EBD216A31F8022B6FF35F224260F1
:10288000216299E5002804BF0120704710B5044675
:1028900090F8410028B9002084F84000204600F05C
:1028A00063F8242084F841002068D4E90212C36848
:1028B00023F40053C360036923F440531A430261B5
:1028C000D4E904231143C268194341F20C639A43CB
:1028D0001143C1604169A26921F44071114343F67B
:1028E0000002C4F201029042416103D0FEF790FE63
:1028F00002E000BFFEF7A0FED4E9002319214843FF
:102900009900B0FBF1F048F21F5CC5F2EB1CA0FB94
:102910000C314FF69C734909C0F6FF7301FB0300AD
:10292000322303EB0010A0FB0C03F02000EA53104D
:1029300000EB0110C3F3431108449060106920219B
:1029400020F490401061506920F02A005061D06856
:1029500040F40050D0600020606484F8411084F896
:102960004210606310BD000070B586B0006844F28C
:102970000041C4F20001002688420596CDE90366B5
:10298000029641D044F60001C4F2000188426DD0A5
:1029900043F60001C4F20101884240F0A28041F2F6
:1029A0001800C4F20200016840F6000441F48041BE
:1029B00001600168C4F2010401F4804101910199B0
:1029C000016802AD41F0040101600068294600F091
:1029D0000400019001984FF40070029002200390CF
:1029E000032005902046FEF75FFB4FF480600290C5
:1029F0000020CDE9030020462946FEF755FB25209F
:102A000002210022252467E041F21800C4F20200EE
:102A1000416840F6000441F4003141604168C4F26D
:102A2000010401F4003101910199016802AD41F006
:102A3000040101600068294600F00400019001983B
:102A40000420029002200390032005902046FEF708
:102A50002BFB0820CDE90206204629460496FEF706
:102A600023FB262000210022262435E041F2180015
:102A7000C4F20200416802AD41F480214160416826
:102A800001F4802101910199016841F00801016080
:102A90000068294600F00800019001984FF480601A
:102AA0000290022003900320059040F60000C4F23B
:102AB000010000F580642046FEF7F6FA4FF400604E
:102AC00002900020CDE9030020462946FEF7ECFAEB
:102AD0002720012100222724FEF774FC2046FEF760
:102AE0005FFC06B070BD000090F84230202B07D18B
:102AF00000294FF0010318BF002A05D1184670477E
:102B000002231846704700BF00230363816222211D
:102B10008285C285436480F842100169006819B15A
:102B2000C16841F48071C160416941F001014161B6
:102B3000C16841F02001C160184670472DE9F04F8F
:102B400087B0006844F20041C4F2000188421BD003
:102B500044F60001C4F20001884223D043F600018C
:102B6000C4F2010188421CBF07B0BDE8F08F40F2FB
:102B7000D800C2F20000017853293FD101218170B1
:102B8000411C0020087068E040F2D800C2F200004A
:102B9000C178532946D101214171011D00220A70DB
:102BA00029E100BF40F2D804C2F2000494F82700E3
:102BB000002861D094F82700012840F08580E07952
:102BC0003E2840F0EF8140F2E810C2F200000068B9
:102BD0000021416242F20F7142F21072436A8B424D
:102BE00008D8436A8B4205D8436A8B4202D8436AAD
:102BF0009342F3D30120A075D4E100BF827850291D
:102C000026D0012A24D1427840F25413C2F20003A4
:102C1000134483F82210511CCAB20F2A41701CD9E8
:102C2000811CAEE74279502900F0E080012A40F093
:102C3000DD80037940F254174278C2F200071F4446
:102C40003976591C032A017140F2D580811CA5E711
:102C5000502908BF012A00F0D98040F2C02040F27C
:102C6000D801C2F20000C2F20001012207B0BDE8A3
:102C7000F04FFFF739BF00BFE079502804D10121A0
:102C80002177002184F82110217F002900F08A811A
:102C900094F8211048F2BF72C0F60002515C8142E4
:102CA0001CBF0020207794F82100013084F8210017
:102CB00094F821000728C0F0758140F20000C2F2AC
:102CC0000000012141716DE194F82700022840F0D5
:102CD0001781E079422803D10121A1760021E17713
:102CE000A17E89B1E17F48F29E72C0F60002515C7C
:102CF00081421CBF0021A176E17F0131E177E17FB4
:102D0000052924BF01212176432804D10121E17640
:102D1000002184F82010E17E002900F0438194F81E
:102D2000201048F2A472C0F60002515C81421CBF20
:102D30000020E07694F82000013084F8200094F818
:102D400020000728C0F02E81002140F2E8106176B3
:102D5000C2F2000000684EF6602241624EF65F212A
:102D6000436A8B4208D8436A8B4205D8436A8B4238
:102D700002D8436A9342F3D3002141624EF65F21A9
:102D80004EF66022436A8B4208D8436A8B4205D8CC
:102D9000436A8B4202D8436A9342F3D300214162D3
:102DA0004EF65F214EF66022436A8B4208D8436A92
:102DB0008B4205D8436A8B4202D8436A9342F3D3CD
:102DC000002141624EF65F214EF66022436A8B423B
:102DD00000F2E880436A8B4200F2E480436A8B424F
:102DE00000F2E080436A9342F0D3DBE0502908BF51
:102DF000012A00F0A980C11C40F20830C2F2000094
:102E0000012207B0BDE8F04FFFF76EBE40F254124A
:102E1000C2F2000292F82230591ECCB2022C00F10C
:102E200002013FF6AEAE8FA757F824C090A796A533
:102E300057F8247055F82450069705959BA555F82A
:102E400024809DA555F824909EA555F824A0A0A502
:102E500055F824B0A1A555F8245088A70495A2A53B
:102E600055F8245057F824E00395A2A555F82450AE
:102E700088A60295A2A555F8245089A70195A3A577
:102E800056F8246057F8247055F8244001258CF832
:102E90000050C37592F82300069B187092F8240026
:102EA0008EF8000092F82500059B187092F8260015
:102EB000307092F82700387092F8280088F80000E7
:102EC00092F8290089F8000092F82A008AF8000098
:102ED00092F82B008BF8000092F82C00049B1870DD
:102EE00092F82D00039B187092F82E00029B187028
:102EF00092F82F00019B187092F83000207040E685
:102F000094F82700032833D1E0794F2804D1012118
:102F10006177002184F82210617F002942D094F863
:102F2000221048F2BC72C0F60002515C814235D1D9
:102F300094F82200013084F8220094F8220002283C
:102F400030D304F119002BE040F25411C2F2000119
:102F50000B7E4A7E572B00F1050180F8313080F856
:102F6000322033D0462B39D0432B08BF827115E66F
:102F700094F8270004281DD194F8240080B394F815
:102F80002400B8B1E0790D285AD1012000216076E3
:102F900084F8241084F830000CE000BF04F11D0018
:102FA0000021017040F25030E11DC2F20000012208
:102FB000FFF79AFD40F25030E11DC2F200000122FD
:102FC00007B0BDE8F04FFFF78FBD00BF037D012BB9
:102FD0002CD1012280F82F20E0E500BFC274DDE58E
:102FE000E079542805D101216176A177002184F888
:102FF0002310A17F0029DDD094F8231040F20002B5
:10300000C2F20002114491F85810814226D194F87E
:103010002300013084F8230094F823000928C9D341
:10302000012084F82400002015E000BF012323EADA
:10303000020248F2A413C4F221231A60AEE500BFD5
:1030400094F8251040F25412C2F2000211440873A1
:1030500094F82500013084F82500ABE70020A07724
:103060006076A7E7E1000020E4000020E7000020F0
:103070001C00002030000020440000201D00002023
:1030800031000020450000201E00002032000020FA
:10309000460000201F0000203300002047000020D1
:1030A00020000020340000204800002021000020E3
:1030B00035000020490000202200002036000020BA
:1030C0004A00002023000020370000204B00002091
:1030D00024000020380000204C00002025000020A3
:1030E000390000204D000020260000203A0000207A
:1030F0004E000020270000203B0000204F00002051
:10310000280000203C000020500000202900002062
:103110003D000020510000202DE9F04381B004461D
:1031200090F84100202840F0B180884600294FF0F7
:10313000010000F0D6801646002A00F0D280002060
:10314000606421201D4684F84100FEF7BBF8A68488
:10315000E684A1680646B1F5805F03D120690028A6
:1031600000F0988047464FF00008E18C2068002965
:1031700000F0968005F101090BE000BF47B317F896
:10318000011B4160E18C0139E184E18C002900F0F0
:10319000878001680906F1D4B9F1000F0AD0EDB1BA
:1031A000FEF790F8801BA84218D82068016809062D
:1031B000F6D5E3E701680906E0D4016809065CBFBB
:1031C00001685FEA0161D9D401680906F2D5D5E743
:1031D00038F8021B00276FF35F21D2E7206850E820
:1031E000030F216820F4D07041E80302BAB32068CD
:1031F00050E8030F216820F4D07041E8030272B355
:10320000206850E8030F216820F4D07041E80302E1
:103210002AB3206850E8030F216820F4D07041E8F9
:103220000302002ADAD11AE0206850E8050F21686D
:1032300020F0010041E80502DAB1206850E8050FEE
:10324000216820F0010041E8050292B1206850E8B1
:10325000050F216820F0010041E805024AB120680D
:1032600050E8050F216820F0010041E80502002A1E
:10327000DAD1202084F8410084F84200002084F84C
:103280004000032001B0BDE8F08300BF022001B080
:10329000BDE8F0830027E18C206800297FF46AAF45
:1032A0000168490619D4FDB1691C0DD101684906B0
:1032B00013D4016849065CBF01685FEA41610CD420
:1032C00001684906F2D508E0FDF7FCFF801BA84223
:1032D0000AD8206800684006F6D5202084F841000E
:1032E000002001B0BDE8F083206850E8030F21689A
:1032F00020F4D07041E80302002A3ED0206850E854
:10330000030F216820F4D07041E80302AAB32068BB
:1033100050E8030F216820F4D07041E8030262B343
:10332000206850E8030F216820F4D07041E80302C0
:10333000002AD9D121E000BF206850E8050F21689C
:1033400020F0010041E80502002A3FF492AF206816
:1033500050E8050F216820F0010041E80502002A2D
:103360003FF487AF206850E8050F216820F0010086
:1033700041E80502002A3FF47CAF206850E8050FC1
:10338000216820F0010041E80502002AD4D170E74D
:1033900070470000FEE7000070B51420FDF770FED6
:1033A00040F20005C2F20005AC7944F03006F0B2FC
:1033B00000F0D2F844F03400C0B200F0CDF806F0CE
:1033C000FB0000F0C9F80520FDF75AFEAC7944F087
:1033D0003006F0B200F0C0F844F03400C0B200F0A3
:1033E000BBF806F0FB0000F0B7F80120FDF748FE3F
:1033F000AC7944F03006F0B200F0AEF844F034009E
:10340000C0B200F0A9F806F0FB0000F0A5F8AC7916
:1034100044F02006F0B200F09FF844F02400C0B25F
:1034200000F09AF806F0FB0000F096F8AC7944F052
:103430002006F0B200F090F844F02400C0B200F092
:103440008BF806F0FB0000F087F8AC7964F07F069B
:10345000F0B200F081F844F08400C0B200F07CF8D3
:1034600006F0FB0000F078F8AC79204600F074F824
:1034700044F0040000F070F804F0FB0000F06CF879
:10348000AC7964F07F06F0B200F066F844F0840096
:10349000C0B200F061F806F0FB0000F05DF8AC7916
:1034A000204600F059F844F0040000F055F804F00C
:1034B000FB0000F051F8AC7944F01006F0B200F0D7
:1034C0004BF844F01400C0B200F046F806F0FB00E0
:1034D00000F042F80220FDF7D3FDAC79204600F061
:1034E0003BF844F0040000F037F804F0FB0000F073
:1034F00033F8AC7964F03F06F0B200F02DF844F0F8
:10350000C400C0B200F028F806F0FB0000F024F878
:10351000AC7964F07F06F0B200F01EF844F084004D
:10352000C0B200F019F806F0FB0000F015F8AC7915
:10353000204600F011F844F0040000F00DF804F00B
:10354000FB00BDE8704000F007B80000FEE7000097
:10355000FEE70000704700002DE9F04148F298189E
:103560000546C4F22128012040F2E817C8F80400FB
:10357000C2F2000738680021416200BF416A31B9D8
:10358000416A21B9416A11B9416A0029F6D0012185
:10359000C8F8001000214162416A31B9416A21B97D
:1035A000416A11B9416A0029F6D00021C8F8041017
:1035B000416200BF416A31B9416A21B9416A11B91A
:1035C000416A0029F6D040F60044C4F20104002606
:1035D000204680210022C8F80060FDF76DFE2046DD
:1035E00040210122FDF768FE38684662416A31B920
:1035F000416A21B9416A11B9416A0029F6D02046D1
:10360000402100220026FDF757FE3868466200BFC1
:10361000416A31B9416A21B9416A11B9416A002947
:10362000F6D0204680210122FDF746FE20464021AB
:103630000122FDF741FE386800214162416A31B93B
:10364000416A21B9416A11B9416A0029F6D0204680
:10365000402100220026FDF72FFE3868466200BF99
:10366000416A31B9416A21B9416A11B9416A0029F7
:10367000F6D0204680210122FDF71EFE2046402183
:103680000122FDF719FE386800214162416A31B913
:10369000416A21B9416A11B9416A0029F6D0204630
:1036A000402100220026FDF707FE3868466200BF71
:1036B000416A31B9416A21B9416A11B9416A0029A7
:1036C000F6D0204680210122FDF7F6FD204640215C
:1036D0000122FDF7F1FD386800214162416A31B9EC
:1036E000416A21B9416A11B9416A0029F6D02046E0
:1036F000402100220026FDF7DFFD3868466200BF4A
:10370000416A31B9416A21B9416A11B9416A002956
:10371000F6D0204680210122FDF7CEFD2046402133
:103720000122FDF7C9FD386800214162416A31B9C3
:10373000416A21B9416A11B9416A0029F6D020468F
:10374000402100220026FDF7B7FD3868466200BF21
:10375000416A31B9416A21B9416A11B9416A002906
:10376000F6D0204680210122FDF7A6FD204640210B
:103770000122FDF7A1FD386800214162416A31B99B
:10378000416A21B9416A11B9416A0029F6D020463F
:10379000402100220026FDF78FFD3868466200BFF9
:1037A000416A31B9416A21B9416A11B9416A0029B6
:1037B000F6D0204680210122FDF77EFD20464021E3
:1037C0000122FDF779FD386800214162416A31B973
:1037D000416A21B9416A11B9416A0029F6D02046EF
:1037E000402100220026FDF767FD3868466200BFD1
:1037F000416A31B9416A21B9416A11B9416A002966
:10380000F6D02046802100220026FDF755FD2046F7
:1038100040210122FDF750FD38684662416A31B906
:10382000416A21B9416A11B9416A0029F6D020469E
:10383000402100220026FDF73FFD3868466200BFA8
:10384000416A31B9416A21B9416A11B9416A002915
:10385000F6D02046802100220026FDF72DFD2046CF
:1038600040210122FDF728FD38684662416A31B9DE
:10387000416A21B9416A11B9416A0029F6D020464E
:10388000402100220026FDF717FD3868466200BF80
:10389000416A31B9416A21B9416A11B9416A0029C5
:1038A000F6D0EA0920468021FDF706FD204640219A
:1038B0000122FDF701FD386800214162416A31B9FA
:1038C000416A21B9416A11B9416A0029F6D02046FE
:1038D000402100220026FDF7EFFC3868466200BF59
:1038E000416A31B9416A21B9416A11B9416A002975
:1038F000F6D0C5F3801220468021FDF7DDFC20467E
:1039000040210122FDF7D8FC38680021416200BF48
:10391000416A31B9416A21B9416A11B9416A002944
:10392000F6D02046402100220026FDF7C5FC38686D
:10393000466200BF416A31B9416A21B9416A11B991
:10394000416A0029F6D0C5F3401220468021FDF7D8
:10395000B3FC204640210122FDF7AEFC386800216F
:10396000416200BF416A31B9416A21B9416A11B966
:10397000416A0029F6D02046402100220026FDF7AA
:103980009BFC3868466200BF416A31B9416A21B97F
:10399000416A11B9416A0029F6D0C5F300122046E8
:1039A0008021FDF789FC204640210122FDF784FC9F
:1039B00038680021416200BF416A31B9416A21B9CA
:1039C000416A11B9416A0029F6D0204640210022FF
:1039D0000026FDF771FC3868466200BF416A31B9C4
:1039E000416A21B9416A11B9416A0029F6D0C5F38B
:1039F000C00220468021FDF75FFC204640210122C5
:103A0000FDF75AFC38680021416200BF416A31B9B4
:103A1000416A21B9416A11B9416A0029F6D02046AC
:103A2000402100220026FDF747FC3868466200BFAF
:103A3000416A31B9416A21B9416A11B9416A002923
:103A4000F6D0C5F3800220468021FDF735FC2046E4
:103A500040210122FDF730FC38680021416200BF9F
:103A6000416A31B9416A21B9416A11B9416A0029F3
:103A7000F6D02046402100220026FDF71DFC3868C4
:103A8000466200BF416A31B9416A21B9416A11B940
:103A9000416A0029F6D0C5F3400220468021FDF797
:103AA0000BFC204640210122FDF706FC386800216E
:103AB000416200BF416A31B9416A21B9416A11B915
:103AC000416A0029F6D02046402100220026FDF759
:103AD000F3FB3868466200BF416A31B9416A21B9D7
:103AE000416A11B9416A0029F6D005F00102204669
:103AF0008021FDF7E1FB204640210122FDF7DCFBA0
:103B000038680021416200BF416A31B9416A21B978
:103B1000416A11B9416A0029F6D0204640210022AD
:103B20000025FDF7C9FB3868456200BF416A31B91D
:103B3000416A21B9416A11B9416A0029F6D020468B
:103B4000802100220025FDF7B7FB204640210122FD
:103B5000FDF7B2FB38684562416A31B9416A21B963
:103B6000416A11B9416A0029F6D02046402100225D
:103B70000024FDF7A1FB3868446200BF416A31B9F7
:103B8000416A21B9416A11B9416A0029F6D0002180
:103B9000C8F80410416200BF416A31B9416A21B9D5
:103BA000416A11B9416A0029F6D00021C8F8001015
:103BB000416200BF416A31B9416A21B9416A11B914
:103BC000416A0029F6D00121C8F8001000214162A5
:103BD000416A31B9416A21B9416A11B9416A002982
:103BE000F6D00120C8F80400BDE8F081704700005D
:103BF000FDF76EBB7047000040F23020C2F20000BB
:103C0000FEF718BA40F27820C2F20000FEF712BAAE
:103C1000406A0021C185C184FEF77ABB81B090F86B
:103C20004210222921D183680246B3F5805F09D171
:103C300052F8281F52F8183C002B63D003685B68C9
:103C40000AE000BF52F8281F13B90369002BF5D012
:103C500003685B6803F07F030B701168013111602A
:103C6000C18D01390A04C18502D001B0704700BF7F
:103C70000168CA6822F02002CA60CA6822F4807211
:103C8000CA604A6922F001024A61202180F842108C
:103C900000214163026B012A3CD10163016851E8B4
:103CA000031F026821F0100142E80313DBB1016831
:103CB00051E8031F026821F0100142E8031393B199
:103CC000016851E8031F026821F0100142E8031364
:103CD0004BB1016851E8031F026821F0100142E86E
:103CE0000313002BDAD101680A68D20606D5002238
:103CF00000920A680092496800910099818D01B094
:103D0000FEF704BB026852686FF35F2221F8022BB2
:103D10008162A5E701B0FEF711BF000040F2C020AC
:103D2000C2F20000FEF7F6BA40F20830C2F200001C
:103D3000FEF7F0BA40F25030C2F20000FEF7EABAE5
:103D4000FEE70000F0B581B040F2D801C2F20001F8
:103D5000097A009004291BD80446DFE801F0030922
:103D60000F191D0040F2C020C2F200000AE000BF9F
:103D700040F20830C2F2000004E000BF40F25030D0
:103D8000C2F20000694601224FF0FF33FFF7C4F989
:103D90005DF8040BF0BD00BF40F20005C2F2000563
:103DA000A87924F00F0140EA010646F00107F8B2B5
:103DB000FFF7D2FB46F00500C0B2FFF7CDFB07F0DE
:103DC000FB00FFF7C9FBA87940EA041444F00105A1
:103DD000E8B2FFF7C1FB44F00500C0B2FFF7BCFB3F
:103DE00005F0FB00FFF7B8FB5DF8040BF0BD000029
:103DF000A2B0FDF77BFA00240120CDE91D44CDE9F6
:103E00001B4418901C904FF4E0104FF480314FF495
:103E100000320225219018A819911A92CDE91F515C
:103E2000FDF71EFC20B1EFF3108072B6FEE700BF75
:103E30000F20CDE912054FF48060CDE9150412A8DA
:103E400002211494FDF7FAFA20B1EFF3108072B654
:103E5000FEE700BF41F21800C4F20200016840F61C
:103E6000000941F0100101600168C4F2010901F08C
:103E7000100118911899016809F5006641F02001B8
:103E800001600168002201F0200118911899016871
:103E90004FF4005741F0040101600168002401F073
:103EA000040118911899016841F008010160006847
:103EB0004FF4005100F00800189018983046FDF7B4
:103EC000FBF909F58065284645F2FC31002245F2F0
:103ED000FC3AFDF7F1F948464FF419410022FDF78D
:103EE000EBF9189718AF4FF0010B4FF0020830466E
:103EF0003946CDE919B4CDF86C80FDF7D5F8F3203B
:103F0000CDE91804484639461A94FDF7CDF82846FD
:103F10003946CDE918ABCDE91A48FDF7C5F84FF49D
:103F20001940CDE9180B48463946CDE91A48FDF746
:103F3000BBF840F2E81009F51051C2F200004FF64C
:103F4000FF731B94CDE91944CDE91244482280E85F
:103F50001600C0E90334C0E90544FDF763FE28B14B
:103F6000EFF3108072B600BFFEE700BF4FF4805041
:103F7000189040F2E810C2F2000018A9FDF788FF7F
:103F800020B1EFF3108072B6FEE700BF40F2E810F8
:103F9000C2F2000012A9FDF705FE28B1EFF3108070
:103FA00072B600BFFEE700BF40F2C02009F54051E5
:103FB000C2F2000000240C254FF4E13280E8160024
:103FC000C0E90344C0E90554C461FEF75BFC28B1B5
:103FD000EFF3108072B600BFFEE700BF40F208307A
:103FE000A9F54441C2F200004FF4FA2280E816001D
:103FF000C0E90344C0E90554C461FEF743FC28B19D
:10400000EFF3108072B600BFFEE700BF40F29010E1
:10401000A9F55041C2F200004FF4827200244FF41F
:10402000007380E816000A21C0E90344C0E9054393
:10403000C461C0E90844C0E90A41FDF711FD28B197
:10404000EFF3108072B600BFFEE700BF40F23020F1
:10405000C2F200004FF080414FF6FF731B94CDE990
:104060001944CDE912444FF4E15280E81600C0E94A
:1040700003348461FDF7D6FD20B1EFF3108072B6F2
:10408000FEE700BF4FF48050189040F23020C2F29B
:10409000000018A9FDF7FCFE20B1EFF3108072B606
:1040A000FEE700BF40F23026C2F2000612A93046F9
:1040B000FDF778FD20B1EFF3108072B6FEE700BF88
:1040C00040F25030A9F54041C2F2000000240C2318
:1040D0004FF4E13280E81600C0E90344C0E905343A
:1040E000C461FEF7CFFB18B1EFF3108072B6FEE7A4
:1040F00040F27820A9F58231C2F200004FF6FF733A
:104100001B94CDE91944CDE9124448F6A04280E859
:104110001600C0E903348461FDF784FD20B1EFF39C
:10412000108072B6FEE700BF4FF48050189040F246
:104130007820C2F2000018A9FDF7AAFE20B1EFF323
:10414000108072B6FEE700BF40F27820C2F2000095
:1041500012A9FDF727FD18B1EFF3108072B6FEE744
:1041600040F2E81048F28C1740F20014C2F200004E
:10417000C4F22127C4F22124FDF71EFE4FF00008EF
:104180004FF0010AC7F82480C7F82C80C7F814A0A4
:10419000C7F808A0C7F804A0C7F800A0C4F8BCA0DE
:1041A000C4F8B0A0C4F8ACA0FFF7F6F8C4F8A0A01B
:1041B00040F2D804C2F2000440F250300225E11D62
:1041C000C2F20000012225721191FEF78DFC40F22F
:1041D000C020C2F20000214601222572FEF784FCB5
:1041E00040F20830E11CC2F200000122FEF77CFC24
:1041F00030684FF6DC7141623046FDF711FE40F247
:10420000000BC2F2000BC7F818A007E00020C5F8A9
:10421000BC00C5F8B000C5F8AC00A0749BF8050060
:10422000002867D094F82800002863D1022020726B
:104230000FF634700D210A22FCF708F8032084F8E9
:104240002700607E30B1607E20B1607E10B1607E5C
:104250000028F6D14FF4FA7084F828A0FCF710FF7C
:10426000022084F819A0207284F827A040F2503070
:104270001199C2F200000122FEF736FC48F68310C5
:10428000C0F60000222122220D230A260096FBF709
:10429000DDFFA07D30B9A07D20B9A07D10B9A07D43
:1042A0000028F6D00FF6D0601A21FBF7CFFF0320CD
:1042B00084F8168084F82700607E30B1607E20B1DB
:1042C000607E10B1607E0028F6D10FF6C0600D212F
:1042D0000A22FBF7BBFF032084F82700607E30B181
:1042E000607E20B1607E10B1607E0028F6D104208F
:1042F00084F8270094F8300040F2541A0028C2F2E3
:10430000000A4BD084F8308094F82500012803D1AE
:104310009AF80C0030381FE094F82500012809D1E4
:104320009AF80C009AF80D1000EB800001EB4000A9
:10433000103811E094F8250001280FD19AF80C00EC
:104340009AF80D106422504301EB81019AF80E2077
:1043500000EB41001044303084F82600607E30B11C
:10436000607E20B1607E10B1607E0028F6D194F8A6
:1043700026100FF628600D220A23FBF767FF0320A3
:1043800084F82700607E30B1607E20B1607E10B17D
:10439000607E0028F6D1042084F827009BF80650A0
:1043A000042065F07F062072F0B2FFF7D5F845F0E3
:1043B0008400C0B2FFF7D0F806F0FB00FFF7CCF89E
:1043C0009BF8065065F06F06F0B2FFF7C5F845F0B0
:1043D0009400C0B2FFF7C0F806F0FB00FFF7BCF88E
:1043E00094F826100FF6C450FBF730FF9BF802003C
:1043F000012840F09580E07A012840F02B819BF85D
:10440000065065F07F06F0B2FFF7A6F845F084008D
:10441000C0B2FFF7A1F806F0FB00FFF79DF89BF88C
:1044200006502846FFF798F845F00400FFF794F887
:1044300005F0FB00FFF790F848F2D570C0F60000D9
:10444000FBF704FF9BF8065065F03F06F0B2FFF75C
:1044500083F845F0C400C0B2FFF77EF806F0FB0019
:10446000FFF77AF89BF806502846FFF775F845F0F5
:104470000400FFF771F805F0FB00FFF76DF8216C01
:1044800048F60F00C0F60000FBF7E0FE9BF8065070
:1044900065F06F06F0B2FFF75FF845F09400C0B228
:1044A000FFF75AF806F0FB00FFF756F89BF80650A6
:1044B00045F04006F0B2FFF74FF845F04400C0B2B7
:1044C000FFF74AF806F0FB00FFF746F8E16C48F604
:1044D0000200C0F60000FBF7B9FE9BF8065065F03D
:1044E0002F06F0B2FFF738F845F0D400C0B2FFF75E
:1044F00033F806F0FB00FFF72FF89BF8065045F065
:104500004006F0B2FFF728F845F04400C0B2FFF7CC
:1045100023F806F0FB00FFF71FF8DAF814005BE160
:104520009BF80200022840F0BD80A07B012840F0EB
:1045300061819BF8065065F07F06F0B2FFF70CF83A
:1045400045F08400C0B2FFF707F806F0FB00FFF764
:1045500003F89BF806502846FEF7FEFF45F00400DE
:10456000FEF7FAFF05F0FB00FEF7F6FF48F2E470F5
:10457000C0F60000FBF76AFE9BF8065065F03F06A8
:10458000F0B2FEF7E9FF45F0C400C0B2FEF7E4FF69
:1045900006F0FB00FEF7E0FF9BF806502846FEF70A
:1045A000DBFF45F00400FEF7D7FF05F0FB00FEF748
:1045B000D3FF616E48F60F00C0F60000FBF746FE21
:1045C0009BF8065065F06F06F0B2FEF7C5FF45F0A8
:1045D0009400C0B2FEF7C0FF06F0FB00FEF7BCFF80
:1045E0009BF8065045F04006F0B2FEF7B5FF45F0E7
:1045F0004400C0B2FEF7B0FF06F0FB00FEF7ACFFD0
:10460000A16E48F60200C0F60000FBF71FFE9BF803
:10461000065065F02F06F0B2FEF79EFF45F0D4007D
:10462000C0B2FEF799FF06F0FB00FEF795FF9BF87E
:10463000065045F04006F0B2FEF78EFF45F044000C
:10464000C0B2FEF789FF06F0FB00FEF785FF606D44
:10465000C2E000BF9BF80650CAF8148065F07F06E0
:10466000F0B2C4F84080C4F84C80FEF775FF45F006
:104670008400C0B2FEF770FF06F0FB00FEF76CFF8F
:104680009BF806502846FEF767FF45F00400FEF74A
:1046900063FF05F0FB00FEF75FFF48F2D570C0F640
:1046A0000000F6E09BF80200032840F06181607C86
:1046B000012840F0C7809BF8065065F07F06F0B2F5
:1046C000FEF74AFF45F08400C0B2FEF745FF06F052
:1046D000FB00FEF741FF9BF806502846FEF73CFF23
:1046E00045F00400FEF738FF05F0FB00FEF734FF4D
:1046F00048F2F370C0F60000FBF7A8FD9BF80650E7
:1047000065F03F06F0B2FEF727FF45F0C400C0B2E7
:10471000FEF722FF06F0FB00FEF71EFF9BF8065097
:104720002846FEF719FF45F00400FEF715FF05F0D7
:10473000FB00FEF711FFDAF8041048F60F00C0F690
:104740000000FBF783FD9BF8065065F06F06F0B2A2
:10475000FEF702FF45F09400C0B2FEF7FDFE06F042
:10476000FB00FEF7F9FE9BF8065045F04006F0B25C
:10477000FEF7F2FE45F04400C0B2FEF7EDFE06F093
:10478000FB00FEF7E9FEDAF8081048F60200C0F672
:104790000000FBF75BFD9BF8065065F02F06F0B2BA
:1047A000FEF7DAFE45F0D400C0B2FEF7D5FE06F003
:1047B000FB00FEF7D1FE9BF8065045F04006F0B234
:1047C000FEF7CAFE45F04400C0B2FEF7C5FE06F093
:1047D000FB00FEF7C1FE206F03F010FB024648F617
:1047E0001C00C0F600000B46DF210091FBF72EFDF8
:1047F000BEE000BF9BF80650C4F8548065F07F0609
:10480000F0B2C4F86480C4F86880FEF7A5FE45F0F5
:104810008400C0B2FEF7A0FE06F0FB00FEF79CFE8F
:104820009BF806502846FEF797FE45F00400FEF779
:1048300093FE05F0FB00FEF78FFE48F2E470C0F631
:10484000000026E09BF80650C4F8708065F07F06F3
:10485000F0B2CAF80480CAF80880FEF77DFE45F081
:104860008400C0B2FEF778FE06F0FB00FEF774FE8F
:104870009BF806502846FEF76FFE45F00400FEF751
:104880006BFE05F0FB00FEF767FE48F2F370C0F622
:104890000000FBF7DBFC9BF8065065F03F06F0B22A
:1048A000FEF75AFE45F0C400C0B2FEF755FE06F012
:1048B000FB00FEF751FE9BF806502846FEF74CFE23
:1048C00045F00400FEF748FE05F0FB00FEF744FE4D
:1048D00048F2C779C0F600094846FBF7B7FC9BF8D9
:1048E000065065F06F06F0B2FEF736FE45F0940014
:1048F000C0B2FEF731FE06F0FB00FEF72DFE9BF87E
:10490000065045F04006F0B2FEF726FE45F04400A2
:10491000C0B2FEF721FE06F0FB00FEF71DFE48F6D2
:104920002B00C0F60000FBF791FC9BF8065065F0E9
:104930002F06F0B2FEF710FE45F0D400C0B2FEF72D
:104940000BFE06F0FB00FEF707FE9BF8065045F055
:104950004006F0B2FEF700FE45F04400C0B2FEF79C
:10496000FBFD06F0FB00FEF7F7FD4846FBF76EFC8B
:104970009BF8065065F07F06F0B2FEF7EDFD45F0BE
:104980008400C0B2FEF7E8FD06F0FB00FEF7E4FD90
:104990009BF8065065F01F06F0B2FEF7DDFD45F00E
:1049A000E400C0B2FEF7D8FD06F0FB00FEF7D4FD30
:1049B00078690FF2FC7100280FF2FC7008BF0846FE
:1049C000FBF744FC9BF8065065F03F06F0B2FEF79B
:1049D000C3FD45F0C400C0B2FEF7BEFD06F0FB000B
:1049E000FEF7BAFD9BF8065065F01F06F0B2FEF721
:1049F000B3FD45F0E400C0B2FEF7AEFD06F0FB00EB
:104A0000FEF7AAFDB8680FF2B87100280FF2B8706F
:104A100008BF0846FBF71AFC9BF8065065F05F06D6
:104A2000F0B2FEF799FD45F0A400C0B2FEF794FD88
:104A300006F0FB00FEF790FD9BF8065045F02006BF
:104A4000F0B2FEF789FD45F02400C0B2FEF784FD08
:104A500006F0FB00FEF780FD78680FF27471002805
:104A60000FF2747008BF0846FBF7F0FB9BF8065086
:104A700065F01F06F0B2FEF76FFD45F0E400C0B22E
:104A8000FEF76AFD06F0FB00FEF766FD9BF8065098
:104A900045F02006F0B2FEF75FFD45F02400C0B2FD
:104AA000FEF75AFD06F0FB00FEF756FD38680FF2E0
:104AB000307100280FF2307008BF0846FBF7C6FBC4
:104AC000E07D012800F05681E07D022800F0178289
:104AD000E07D032840F0C1809BF8440048F2A063C9
:104AE00049F6B067C0F20103CFF6AE779BF84510E8
:104AF00000FB037042F210789BF8462001FB08008F
:104B00004FF47A769BF8473002FB06009BF848107A
:104B1000642703FB070001EB81019BF8492000EBB0
:104B200041001044E06603F023FB0021C4F2483149
:104B300003F09AFB4FF0565103F096FB0021CCF2A4
:104B4000482103F087F920679BF84A009BF84B1037
:104B50009BF84C20794300FB061002EB82029BF885
:104B60004D1000EB420008444DF25001401AA0677E
:104B700003F0FEFA01464CF20000C4F27F4003F05D
:104B800001FA0021CBF6807103F064F90021C4F230
:104B9000201103F069FBCAF8000003F02FF94EF270
:104BA000481644F2AE77C1F27A46C4F20D07324697
:104BB0003B4602F0F9FB01F081FD0B460021024665
:104BC0000020C3F6F47103F02BF84CF6CD49CCF677
:104BD000CC494CF6CC434A46C3F6DC7302F0E4FB06
:104BE0000025C4F2240502460B460020294601F0A8
:104BF000D7FD02F06FFD404528BF4046DAF80010AF
:104C0000CAF80400084603F0F9F832463B4602F0C1
:104C1000CBFB01F053FD0B464CF6CC410246484617
:104C2000C3F6F87102F0FCFF45F6294242F6F5039F
:104C3000CCF28F22C3F6DC7302F0B6FB02460B46C1
:104C40000020294601F0ACFD02F044FD404528BF9C
:104C50004046CAF808000020E0759BF80400DAF826
:104C600014A04FF0000803F083FA05465046294689
:104C700003F060F968BB40F20000C2F20000266C4D
:104C8000D0F810B05E4524D8E16C8769B94220D8CD
:104C9000606D89462946109003F04CF9C8B9606EE2
:104CA00058450F9015D8A06EB8420E9011D8206FBD
:104CB00029460D9003F03EF958B940F25410C2F263
:104CC000000045685D4504D8D0F808B0BB4540F207
:104CD000DD81607D48F28C1740F2001540F2000B38
:104CE0000228C4F22127C4F221254FF000084FF01A
:104CF000010AC2F2000B18D040F2012084F818809B
:104D0000A08248F67B10C0F60000532101225023F8
:104D1000C7F8188084F808A0FBF798FA607D01288E
:104D200000F0E482022840F0318484F814A094F862
:104D30002800002800F02C84207E002840F02884E1
:104D4000607E002840F02484022084F819A020729C
:104D500084F8270040F250301199C2F2000001227D
:104D6000FDF7C2FE0FF620500D210A22FBF76EFA66
:104D700000F00EBC9BF81C0048F2A06349F6B06737
:104D8000C0F20103CFF6AE779BF81D1000FB037055
:104D900042F210799BF81E2001FB09004FF47A764D
:104DA0009BF81F3002FB06009BF82010642703FBD2
:104DB000070001EB81019BF8212000EB410010442A
:104DC000A06303F0D5F90021C4F2483103F04CFA96
:104DD0004FF0565103F048FA0021CCF2482103F07D
:104DE00039F8CAF814009BF822009BF823109BF8AE
:104DF0002420794300FB061002EB82029BF8251069
:104E000000EB420008444DF25001401A606403F088
:104E1000AFF901464CF20000C4F27F4003F0B2F853
:104E20000021CBF6807103F015F80021C4F22011A7
:104E300003F01AFAA06402F0E1FF4EF2481644F2C1
:104E4000AE77C1F27A46C4F20D0732463B4602F015
:104E5000ABFA01F033FC0B46002102460020C3F6FA
:104E6000F47102F0DDFE4CF6CD45CCF6CC454CF6A7
:104E7000CC432A46C3F6DC7302F096FAD04640F2E1
:104E8000000AC4F2240A02460B460020514601F0F3
:104E900087FC02F01FFC484528BF4846A16C2064EF
:104EA000084602F0ABFF32463B4602F07DFA01F0C5
:104EB00005FC0B464CF6CC4102462846C3F6F87179
:104EC00002F0AEFE45F6294242F6F503CCF28F22FF
:104ED000C3F6DC7302F068FA02460B460020514626
:104EE000C246002501F05CFC02F0F4FB484528BFF7
:104EF0004846E064E575E07D02287FF4E9AD9BF863
:104F0000300048F2A06349F6B067C0F20103CFF663
:104F1000AE779BF8311000FB037042F210799BF8DA
:104F2000322001FB09004FF47A769BF8333002FB04
:104F300006009BF83410642703FB070001EB810196
:104F40009BF8352000EB41001044206503F010F978
:104F50000021C4F2483103F087F94FF0565103F0B5
:104F600083F90021CCF2482102F074FF60659BF8C0
:104F700036009BF837109BF83820794300FB061069
:104F800002EB82029BF8391000EB420008444DF21C
:104F90005001401AE06503F0EBF801464CF20000C6
:104FA000C4F27F4002F0EEFF0021CBF6807102F0E8
:104FB00051FF0021C4F2201103F056F9206602F0DF
:104FC0001DFF4EF2481844F2AE77C1F27A48C4F29F
:104FD0000D0742463B4602F0E7F901F06FFB0B4636
:104FE000002102460020C3F6F47102F019FE4CF6CF
:104FF000CD45CCF6CC454CF6CC432A46C3F6DC7303
:1050000002F0D2F9564640F2000AC4F2240A0246DF
:105010000B460020514601F0C3FB02F05BFB484504
:1050200028BF4846216E6066084602F0E7FE424609
:105030003B464FF0000802F0B7F901F03FFB0B468A
:105040004CF6CC4102462846C3F6F87102F0E8FD62
:1050500045F6294242F6F503CCF28F22C3F6DC7303
:1050600002F0A2F902460B4600205146B24601F07A
:1050700097FB02F02FFB484528BF4846A06684F8FE
:105080001780E07D03283FF427ADE6E540F20000FD
:10509000C2F20000C07803F06BF80746504639466C
:1050A00002F048FFA0B1E56B0021284602F034FF72
:1050B00040B95046294603F0A3F94FF0804102F071
:1050C00047FFC0B90120C4F83CA084F8290012E0D1
:1050D00040F20000C2F20000C068864209D840F2E7
:1050E0000001C2F2000149698B4598BF854240F238
:1050F0000782C4F83C801098394602F029FFA8B90D
:10510000A56D0021284602F007FF40B910982946F6
:1051100003F076F94FF0804102F01AFF40B9109881
:10512000A065012084F82A0002E000BFC4F858807E
:105130000D98394602F00CFF002859D1656F002107
:10514000284602F0E9FE48B90D98294603F058F9BF
:105150004FF0804102F0FCFE00284BD10D986067B3
:10516000012084F82B0045E041542B434D47463D38
:10517000312563256300000053797374656D2069E0
:1051800073204163746976652563000041542B43A5
:105190004D47443D312C34256325630041542B4356
:1051A0004D4752443D257525632563002575000054
:1051B00044313A204F4E000044313A4F46460000F9
:1051C00044323A204F4E000044323A4F46460000E7
:1051D00044333A204F4E000044333A4F46460000D5
:1051E00044343A204F4E000044343A4F46460000C3
:1051F000C4F87480607D022866D048F28C1740F2B3
:10520000001540F2000B0028C4F22127C4F221252A
:105210004FF000084FF0010AC2F2000B7FF47FAD9F
:1052200084F815A094F8280000285FD0607E00283C
:105230007FF474AD022084F819A0207284F827A0AE
:1052400040F250301199C2F2000001220025FDF712
:105250004BFC48F68310C0F60000222122220D23C9
:105260000A270097FAF7F2FFA07D30B9A07D20B998
:10527000A07D10B9A07D0028F6D0032084F8270077
:105280000FF2F0701A21FAF7E1FFA575607E30B1D8
:10529000607E20B1607E10B1607E0028F6D148F2B9
:1052A0008C1740F2001540F2000B0420C4F22127B5
:1052B000C4F221254FF000084FF0010AC2F2000BA2
:1052C00084F827002AE500BF48F28C1740F2001549
:1052D00040F2000B4FF0010AC4F22127C4F221254D
:1052E0004FF00008C2F2000B84F815A084F8148077
:1052F00094F82800002800F04B81607E002840F0E0
:10530000478194F829004FF001080027002842D077
:10531000022084F82970207284F8278040F25030EF
:105320001199C2F200000122FDF7DEFB48F683105E
:10533000C0F60000222122220D230A260096FAF749
:1053400085FFA07D30B9A07D20B9A07D10B9A07DDA
:105350000028F6D0032084F82700D4E90F05E66C76
:1053600002F04CFD024648F65F00C0F600000B4616
:105370001A21CDE900560291FAF768FFA775607E01
:1053800030B1607E20B1607E10B1607E0028F6D121
:10539000042084F8270094F82A00002842D0022034
:1053A00084F82A70207284F8278040F250301199D6
:1053B000C2F200000122FDF797FB48F68310C0F609
:1053C0000000222122220D230A260096FAF73EFF32
:1053D000A07D30B9A07D20B9A07D10B9A07D0028A6
:1053E000F6D0032084F82700A06DD4E9195602F006
:1053F00005FD024648F6B300C0F600000B461A2130
:10540000CDE900560291FAF721FFA775607E30B111
:10541000607E20B1607E10B1607E0028F6D104204D
:1054200084F8270094F82B0048F28C1740F20015FE
:1054300040F2000B0028C4F22127C4F221254FF0CE
:1054400000084FF0010AC2F2000B00F0A180022018
:1054500084F82B80207284F827A040F250301199F4
:10546000C2F2000001220025FDF73EFB48F6831042
:10547000C0F60000222122220D230A270097FAF706
:10548000E5FEA07D30B9A07D20B9A07D10B9A07D3A
:105490000028F6D0032084F82700606F02F0AEFCED
:1054A000024640F25410C2F2000083684068CDE921
:1054B000000348F60710C0F600000B461A210291BF
:1054C000FAF7C4FEA575607E30B1607E20B1607EC3
:1054D00010B1607E0028F6D148F28C1740F200151A
:1054E00040F2000B0420C4F22127C4F221254FF022
:1054F00000084FF0010AC2F2000B84F8270047E0D1
:105500000E9A8A423FF6F5AD0F9A82423FF6F1AD10
:1055100089453FF6EEAD1098394602F00BFD0028A4
:105520007FF4E7AD0D98394602F004FD00287FF4C2
:10553000E0AD607D012811D148F28C10C4F2212029
:10554000012184F81480816148F67B102172C0F635
:105550000000532100225023FAF778FE48F28C17FE
:1055600040F2001540F2000B4FF00008C4F2212772
:10557000C4F221254FF0010AC2F2000B84F8158015
:10558000C4F83C80C4F85880C4F8748084F814804F
:1055900094F82C00002849D094F82800002843D023
:1055A000607E002840D10220207284F827A040F2BB
:1055B00050301199C2F200000122FDF795FA48F629
:1055C0008310C0F60000222122220D230A26009615
:1055D000FAF73CFEA07D30B9A07D20B9A07D10B9BE
:1055E000A07D0028F6D0032084F82700E07A0FF28F
:1055F000AC41012848F63800C0F6000008BF084654
:105600001A21FAF723FEC82084F81680FBF738FD2C
:10561000607E30B1607E20B1607E10B1607E002877
:10562000F6D1042084F8270084F82C8094F82D000B
:1056300000284BD094F82800002845D0607E002830
:1056400042D10220207284F827A040F250301199F4
:10565000C2F200000122FDF747FA48F68310C0F6B7
:105660000000222122220D230A260096FAF7EEFDE1
:10567000A07D30B9A07D20B9A07D10B9A07D002803
:10568000F6D0032084F82700A07B48F65B110128A0
:1056900048F64500C0F60000C0F6000108BF084605
:1056A0001A21FAF7D3FDC82084F81680FBF7E8FC2E
:1056B000607E30B1607E20B1607E10B1607E0028D7
:1056C000F6D1042084F8270084F82D8094F82E0069
:1056D00000284BD094F82800002845D0607E002890
:1056E00042D10220207284F827A040F25030119954
:1056F000C2F200000122FDF7F7F948F68310C0F668
:105700000000222122220D230A260096FAF79EFD90
:10571000A07D30B9A07D20B9A07D10B9A07D002862
:10572000F6D0032084F82700607C48F66711012832
:1057300048F65200C0F60000C0F6000108BF084657
:105740001A21FAF783FDC82084F81680FBF798FC2D
:10575000607E30B1607E20B1607E10B1607E002836
:10576000F6D1042084F8270084F82E8084F808A05D
:105770002868C0B90A20FBF783FC286898B9286814
:1057800030B9286820B9286810B928680028F6D0F0
:105790009BF8020001308BF802009BF802000428FD
:1057A00028BF8BF802A0686810BB0A20FBF768FCD2
:1057B0006868E8B9686830B9686820B9686810B97D
:1057C00068680028F6D078695023C043786178690A
:1057D000A179B0FA80F0400921F001010844A071DC
:1057E000C2B248F67310C0F600005321FAF72EFD3E
:1057F000286918BB0A20FBF743FC2869F0B928691F
:1058000030B9286920B9286910B928690028F6D06C
:10581000B8685023C043B860B868A179B0FA80F086
:10582000400921F0020141EA4000A071C2B248F6ED
:105830007310C0F600005321FAF708FD686918BB21
:105840000A20FBF71DFC6869F0B9686930B968691E
:1058500020B9686910B968690028F6D078685023C3
:10586000C04378607868A179B0FA80F0400921F0EF
:10587000040141EA8000A071C2B248F67310C0F67C
:1058800000005321FAF7E2FCA86918BB0A20FBF7D5
:10589000F7FBA869F0B9A86930B9A86920B9A86967
:1058A00010B9A8690028F6D038685023C043386082
:1058B0003868A179B0FA80F0400921F0080141EA86
:1058C000C000A071C2B248F67310C0F600005321A8
:1058D000FAF7BCFCE869E8B9207DD8B90A20FBF7E3
:1058E000CFFBE869B0B9E86930B9E86920B9E8697F
:1058F00010B9E8690028F6D0B8695321C043B861EF
:10590000B86950232AEA000248F67B10C0F600006E
:10591000FAF79CFC94F82F0040B148F67B10C0F6D3
:105920000000532101225023FAF790FCA07947F29E
:1059300007522AEA0001796100F002018AEA510166
:10594000B96000F0040100F008008AEA91018AEAD7
:10595000D00079603860606B4AF68B710130C8F610
:10596000F8214143C0F25072914260634FD840F237
:105970005412C2F20002D2E90410D2E9017301F11B
:105980000108CDE90D73C2F8108084F808A002F078
:1059900035FACDE90F10606D616ED4F840B0D4F8DF
:1059A0004C900C9102F02AFA0746206FD4F868A0B8
:1059B0000D4602F023FA0E460D99069008910E99B5
:1059C00048F69E10CDE9091850210B910C99DDE99C
:1059D0000F32CDF800B040F2000BCDE9019748F24C
:1059E0008C17039540F20015CDE9041AC0F60000AB
:1059F00053214FF00008C2F2000BC4F22127C4F279
:105A000021254FF0010A0796FAF720FC606B4CF64F
:105A1000CD41CCF6CC41484349F699114FEA70008C
:105A2000C1F6991188423EF6F9ABA07C01283EF4FC
:105A3000EDABA07C00287EF4F1ABE07A48F28C1745
:105A4000002808BFC5F8BCA0A07B40F2000B0028CE
:105A500008BFC5F8B0A0607CC4F2212700284FF031
:105A600001004FF00008C2F2000B08BFC5F8AC00FF
:105A7000FEF7D3BB5741524E494E47204C45564541
:105A80004C2031256300000041544430383638330F
:105A900039303434323B2563256300004E4F444592
:105AA0002031204F4E2563005FEA400C08BF91F083
:105AB000000F4FEA8C234FEAC12243EA51514FEACB
:105AC0001C5018BF00F5F0404FEA300018BF41F0FD
:105AD00000415FEA6C5C00F02980BCF1FF3F08BF29
