:020000040800F2
:10000000A00900200D0200084535000889330008CA
:10001000413500087D0F0008353D00080000000054
:10002000000000000000000000000000E13B0008AC
:10003000810F00080000000049350008E53B00087A
:1000400027020008270200082702000827020008EC
:1000500027020008270200082702000827020008DC
:1000600027020008270200082702000827020008CC
:1000700027020008270200082702000827020008BC
:1000800027020008270200082702000827020008AC
:10009000270200082702000827020008270200089C
:1000A000270200082702000827020008270200088C
:1000B000ED3B0008F93B0008270200082702000872
:1000C000270200082702000827020008270200086C
:1000D00027020008113D00081D3D0008293D0008C9
:1000E00027020008270200082702000800F002F893
:1000F00000F07DF814A696E8000CB244B344DA454B
:1001000001D100F074F8BAE80F000FA696E83000AD
:10011000A5EB040504EB0607AAEB0704A7F101070A
:100120004FEA15154FEA3414A4F10104AC4201D38F
:1001300000F05DF813F0010F18BFFB1A43F0010344
:1001400000F001F8DBE718475486000074860000D1
:10015000103A24BF78C878C1FAD8520724BF30C8F3
:1001600030C144BF04680C60704700007047000055
:100170000023002400250026103A28BF78C1FBD8B0
:10018000520728BF30C148BF0B607047662908F08E
:100190008280692900F0C880642900F0C580752933
:1001A00000F0C2806F2900F05981782900F0808129
:1001B0000368DB0928BF41F08001632900F0E78470
:1001C000E32900F00D85002070471FB500F040FDC9
:1001D00004000020002106F0EBFE401C60600020BF
:1001E000002106F0CFFEE0601FBD10B510BD00F08D
:1001F0004FFE1146FFF7E9FF03F0F4FD00F06DFE3E
:1002000003B4FFF7F2FF03BC00F0B0FE09488047DB
:1002100009480047FEE7FEE7FEE7FEE7FEE7FEE7E8
:10022000FEE7FEE7FEE7FEE704480549054A064B00
:1002300070470000E93B0008ED000008A003002023
:10024000A0090020A0050020A00500200FB404494B
:1002500010B503AA029800F0A7FC10BC5DF814FBCF
:100260009001002070B5044685690068C10601D57B
:10027000302600E02026C00707D070BDD4E9012158
:1002800030469047206A401C20626D1EF6D570BD36
:1002900070B5044685690078C00707D170BDD4E900
:1002A000012120209047206A401C20626D1EF6D557
:1002B00070BD09684A0501D540B27047C905FCD533
:1002C00000B2704709684A0501D5C0B27047C90538
:1002D000FCD580B2704770B50C460546012A05D0A2
:1002E0002878800600D5EA69002302E0012305E0B2
:1002F0005B1C934202D2E05C0028F9D1A869E618A1
:10030000C01AA861286A184428622846FFF7AAFF85
:1003100004E0D5E9012114F8010B9047B442F8D369
:100320002846FFF7B5FF70BD2DE9F04106460024D1
:1003300010687529314616A510D0FFF7BAFF0028BE
:1003400002DA404213A507E031688A0701D512A5F9
:1003500002E0490704D511A5012401E0FFF7B2FF2F
:1003600000210A2206F1240709E0B0FBF2FCB0FBF1
:10037000F2F302FB1C00303078541846491C002868
:10038000F3D123462A463046BDE8F04100F08EB94D
:10039000000000002D0000002B00000020000000E5
:1003A0002DE9FF5F15468A460446DFF8AC80F84425
:1003B0000027D8E900103E46CDE9001010E03AF8D9
:1003C00016106A4602A800F017FC411C07D02178DD
:1003D000890603D5E269391891420DD80744761C85
:1003E0002078800602D5E069B84205DDAE42E6DB42
:1003F0003AF816000028E2D1A069C01BA06120468F
:10040000FFF730FFD8E90010CDE90010002017E019
:100410003AF818106A4602A800F0EEFBB0F1FF3F70
:1004200081460BD000250DF1080B05E0D4E9012130
:100430001BF8050090476D1C4D45F7D308F10100EE
:10044000B0428046E4DB206A384420622046FFF751
:100450001FFFBDE8FF9F0000DA7F000070B5044673
:1004600021461068FFF72EFF002104F1240505E066
:1004700000F007023032C0086A54491C0028F7D146
:100480002068002308A2050708D500F020000843D3
:1004900004D0E069012305A2401EE0612046BDE8CA
:1004A000704000F003B900000000000030000000C0
:1004B00070B504460D4621461068FFF703FF2188FA
:1004C000090502D50F4A7A4402E00E4A7A440E32F8
:1004D000002104F1240305E000F00F060009965DF9
:1004E0005E54491C0028F7D120780023000704D56A
:1004F000702D02D009B1022311322046BDE87040B0
:1005000000F0D4B8CA7E00002DE9F05F89460446A9
:100510004FF0000ADFF874B1FB44C0F820A0204679
:10052000E1688847002874D0252806D0D4E9012145
:100530009047206A401C2062F1E700265F46204673
:10054000E16888472028054607DB312D05D2781958
:1005500010F8200C08B10643F1E7B00701D526F0EA
:100560000406C4F81CA00027C4F818A02A2D09D03E
:10057000284605F0C3FD38B304EB8708303DC8F8C2
:10058000185019E059F8041B204604EB87029161CA
:10059000E1688847012F054618D1E069002820DA74
:1005A00026F020061DE0D8F8180000EB800005EBCF
:1005B00040003038C8F818002046E16888470546F2
:1005C00005F09CFD0028EED1012F0AD02E2D08D178
:1005D0002046E16888477F1C0546022F46F020062A
:1005E000C4DBA069002803DA404246F00106A0619E
:1005F000F00701D026F010066C2D0BD0682D09D025
:100600004C2D39D06A2D35D0742D35D07A2D33D07C
:1006100016E038E0E1682F4620468847B842054694
:1006200009D16C2F26D04FF48060E1680643204644
:100630008847054604E06C2F1AD04FF480700643BB
:100640000DB3A5F14100192802D8203546F4006603
:100650004A462946204626604E46FFF797FD80B160
:1006600001280BD0F61D26F0070000F1080956E717
:100670004020E4E78020D8E70020D6E706F104090F
:100680004DE7284652E7206ABDE8F09FA07E0000B3
:1006900070477047704710B500F0DEFA006810BD73
:1006A00010B5044600F0D8FA046010BD2DE9F047FB
:1006B0000D4699469246044600F1240801688806D2
:1006C00004D5E06921F01001216000E00120A8427A
:1006D00001DD471B00E00027A1697A1902EB090040
:1006E000081AA0612078C00602D42046FFF7BAFDA0
:1006F000002608E0D4E901211AF806009047206A94
:10070000401C761C20624E45F4DB2078C0060AD5DA
:100710002046FFF7A7FD06E0D4E9012130209047ED
:10072000206A401C2062381EA7F10107F4DC07E0B4
:10073000D4E9012118F805009047206A401C206286
:10074000281EA5F10105F3DC2046FFF7A1FD207866
:10075000000602D50220BDE8F0870120FBE72DE965
:10076000FF4F0C461E464FF0FF378BB0D2E9000119
:10077000DDF860800A908A46C1F30A5505B93D4606
:10078000002108464FF00000BAF1000F00F44000CD
:1007900005DA00EB80004FF4400101EA50004FEA17
:1007A0009059B9F1010F00DDB9460A9850EA4A00A4
:1007B0000ED044F61050A5F2FF3545432F14B8F182
:1007C000000F1ED07542291E1EDDC9F100021CE07B
:1007D000B8F1010F4FF0000001D0302103E0F243E7
:1007E00005E02154401CB042FBDB304600220021D2
:1007F00021540B99C1F80880C1E900200FB0BDE871
:10080000F08FBD1B6D1CDEE74A4600DA694206A880
:1008100000F0C4FA06AB93E8070003AB83E80700D7
:1008200050460A9905F016F88DE80700A0F500502B
:100830001F3800900398002D0ADD42F21F014A463E
:100840000844002303A90390684605F07FFA09E0F5
:10085000A0F500504A461F38002303A903906846BC
:1008600005F089FA8DE807000004000C03D04FF072
:10087000FF30410800E01046B8F1000F03D000221D
:10088000009215461EE0751E05D400F0E9F93032DD
:1008900062556D1EF9D5B3460122084302D00022ED
:1008A0007F1C04E02078302801D100227F1E002A1E
:1008B000099784D01DE0112D07DA00F0D1F930320C
:1008C00062556D1C50EA0102F5D1084302D0009830
:1008D000C8B10EE00021681E05E0235C625C635431
:1008E0002254401E491C8142F7DBAB46A81B401E28
:1008F0000990002004F80B000B98099AC0F80880B2
:10090000C0E9002B7AE711264FF0000857E72DE9E0
:10091000F04F88460446D21D22F0070191B0D1E97C
:100920000001CDE90A0105F05DFB02460B98C00FFE
:1009300001D02D2007E02068810701D52B2002E09F
:10094000202101EAC000032A099001D0072A05DB13
:1009500003464146204600F0E1F90BE1207880068D
:1009600001D5E06900E00620B8F1650F814606D0A8
:10097000B8F1660F18D0B8F1670F70D131E00020E0
:10098000B9F1110F009001DB112301E009F101031E
:100990000AAA01A90CA8FFF7E2FEDDE90C70002607
:1009A00009F10105834647E001204B4600904FF0D6
:1009B00000470AAA01A90CA8FFF7D1FEDDE90DB096
:1009C0000C995D46002610B909F101000D18B9EB2C
:1009D000050003D4C0F1FF3609F10105A5EB0900BC
:1009E0002BE0B9F1010F01DA4FF001090020B9F154
:1009F000110F0090484601DD112300E003460AAACA
:100A000001A90CA8FFF7ABFEDDE90C704D460026EE
:100A10008346207800070AD4AB4500DA5D4601A87A
:100A2000012D04DD411911F8011C302907D04F4573
:100A300002DA17F1040F04DA012082460FE06D1E7E
:100A4000EEE7002F02DCED1B3E4403E0781CA842D9
:100A500000DD7D1CB81B00F1010A4FF00047207833
:100A6000000703D4AA4501DB4FF0FF3A0021B7F19C
:100A7000004F0DF143088DF8431024D002202B23A2
:100A8000002F01DA7F422D230A21021EA0F101006E
:100A900000DC5FB197FBF1FC97FBF1F201FB1C7CE2
:100AA00017460CF1300C08F801CDEEE7A8F1010073
:100AB00003702188090501D5452100E06521A0F1D9
:100AC000010800F8011C09980FA9A1EB0807FF1DF8
:100AD00000B10120411901EBEA70A1693844081AFC
:100AE000401EA0612078C00602D42046FFF7BAFB62
:100AF000099828B1D4E901219047206A401C20625E
:100B00002078C00622D52046FFF7ACFB1EE0002E61
:100B100004DBB34502DD01A8805D00E03020D4E9AC
:100B200001219047206A401C2062761CAAF1010036
:100B30005FEA000A0AD100F08BF8C0680168405CE7
:100B4000D4E901219047206A401C2062281EA5F1AB
:100B50000105DCDC07E0D4E9012118F8010B90471E
:100B6000206A401C2062381EA7F10107F3DC2046F2
:100B7000FFF78EFB032011B041E610B5436913B1B6
:100B8000AFF3008001E0FFF7A6FB012010BD127853
:100B900000F124010A7000224A700122EDE7116879
:100BA0004FF0FF32E9E70000074B70B50D467B447C
:100BB00000F0A1F80446284600F062F910B14FF0A9
:100BC000FF3070BD204670BD8731000010B543690D
:100BD00013B1AFF3008001E0FFF7E2FB012010BD8D
:100BE000128800F1240182840022C2840122EDE7F0
:100BF00011684FF0FF32E9E72DE9F04116460C4647
:100C0000054600F01DF8036893F80101012807D09C
:100C1000FF2C12D8185D80B101202C70BDE8F08146
:100C2000D3F807013246214603F20713C7182846B6
:100C3000BC46BDE8F041002360474FF0FF30EDE7D0
:100C400010B500F005F8001D10BD00BF6563000081
:100C50000048704798000020004870477800002046
:100C600030B5B0F10A0271F100034FEA900E4EEA7E
:100C7000817EB0EB0E0061EB91014FEA101E4EEA4F
:100C8000017E10EB0E0041EB11114FEA102E4EEADF
:100C9000016E10EB0E0041EB11214FEA104E4EEAAF
:100CA000014E10EB0E0041EB1141401841F10001E3
:100CB0004FEAD00040EA41704FEAD1014FEA810487
:100CC00044EA907410EB800544EB01046D1944EB89
:100CD0000404521BA3414FF0000348BF0A3200D561
:100CE00030BD401C41F1000130BD000001694A1CCB
:100CF00002610878704700B58FB0CDE9013100215D
:100D0000059105497944CDE9031011466846FFF77E
:100D1000FBFB0FB000BD0000E5FFFFFF2DE9F04138
:100D20001F46044603260168072A01F4006004DB1D
:100D300008B116A505E016A503E008B115A500E069
:100D400015A521F010002060A069C01EA0610FB1A0
:100D5000401EA0612046FFF785FA4FB1D4E901217A
:100D600038469047206A401C2062C01C206206E082
:100D7000206AFAE7D4E9012115F8010B9047761EA5
:100D8000F8D22046FFF784FABDE8F0814E414E00CC
:100D90006E616E00494E4600696E66002DE9F047AF
:100DA000814616468AB0354878440DC88DE80D0056
:100DB00032487844801C03AC0DC884E80D0041F62D
:100DC0009B300844372190FBF1F290FBF1F5A5F13F
:100DD000800501FB12041B3C02D56442012000E0A7
:100DE0000020DFF898A080460027FA44AAF1BE0A46
:100DF0000EE0E0070AD03246684607EB47010123C0
:100E00000AEB810104F0B7FF8DE8070064107F1C36
:100E1000002CEED1194F7F44AE3F19E0E80715D002
:100E200007EB04100DF1180A90E80E008AE80E0096
:100E3000C068F04201D1981908903246012306A9F2
:100E400003A804F098FF03AB83E807006D10641C4F
:100E5000002DE3D14FF0010332466946B8F1000F8F
:100E600003A802D004F072FF01E004F084FFC9E996
:100E70000001C9F808200AB0BDE8F08768770000D3
:100E8000007B00F080007047004870477800002029
:100E90007546FFF7F9FFAE4605006946534620F058
:100EA0000700854618B020B5FFF7BEF9BDE8204021
:100EB0004FF000064FF000074FF000084FF0000B16
:100EC000AC46ACE8C009ACE8C009ACE8C009ACE885
:100ED000C00921F007018D46704710B50446AFF3F5
:100EE00000802046BDE81040FFF78AB94FF0013C72
:100EF00050F8042B51F8043B9A4221D1A2EB0C0389
:100F0000934313EACC1317D150F8042B51F8043B48
:100F10009A4215D1A2EB0C03934313EACC130BD1E5
:100F200050F8042B51F8043B9A4209D1A2EB0C0370
:100F3000934313EACC13DBD04FF00000704700BF9F
:100F4000D01A01BAB1FA81F101F0180122FA01F0C8
:100F5000CB40DBB2C0B2C01AC1F120012CFA01F3C0
:100F6000D11A914311EAC311E6D170470149182003
:100F7000ABBEFEE72600020070470000FEE700005F
:100F800070470000014690F82100022816D1086839
:100F9000D1E90FC3026822F00E020260026822F05B
:100FA00001020260012000FA03F2CCF8042081F86B
:100FB00021000020002281F820207047042088634F
:100FC0000120002281F820207047000090F82110B5
:100FD000022923D10268116821F00E0111602F212E
:100FE0001368C4F202018A4240F20401C4F2020111
:100FF00023F00103136015DD3023C4F202039A428B
:101000001CD04423C4F202039A421BD05823C4F2DA
:1010100002039A421CD14FF4803321E00421816302
:10102000012070470823C4F202039A420ED01C2309
:10103000C4F202039A420BD1102311E04FF48073E3
:101040000EE000BF4FF480530AE000BF012307E029
:1010500001F1680C4FF08073624508BF4FF48013B4
:101060000B60012180F82110426B002180F82010D4
:1010700022B180B590470021BDE880400846704706
:10108000B0B5044600F01EF9054640F25800C2F221
:1010900000000078611C18BF044400BF00F012F982
:1010A000401BA042FAD3B0BD2DE9F04F82B00E68CC
:1010B000002E00F0FD8041F20042C4F20102042340
:1010C00040F2004E904208BF03234FF6FF7CC4F26B
:1010D000010E009300240123C1F2100C4FF0000A0E
:1010E0004FF0000944E000BF012704F00C030F2279
:1010F0009A402BEA020207FA03F34FEA9A051A43D1
:1011000046F825204E6840F20C45F202DEF8082031
:1011100054BF22EA080242EA0802C4F20105CEF8EE
:1011200008202A68B30254BF22EA080242EA0802F1
:101130002A60B303DEF8042054BF22EA080242EA20
:101140000802F303CEF80420DEF800204FF001037C
:1011500054BF22EA080242EA0802CEF800200E68D4
:101160000AF1010A36FA0AF204F1040400F0A08040
:1011700003FA0AFB16EA0B08F1D04E68664511DC4B
:10118000122E55D8DFE806F0340A4448545454541B
:101190005454545454545454544C5000D1F80C905A
:1011A00046E000BF4FF6FF72C1F2210296420FDC0B
:1011B0000022C1F2110296421AD00022C1F212029C
:1011C000964215D00022C1F22102964210D02FE0A3
:1011D0000022C1F2220296420AD00022C1F231025C
:1011E000964205D00022C1F23202964220D100BFC1
:1011F0008A684AB1012A14BFC0F814B0C0F810B010
:101200004FF0080914E000BF4FF0040910E000BFE0
:10121000CA6802F108090BE04FF0000908E000BFBE
:10122000CA6802F1040903E0CA6802F10C0900BFB0
:1012300022460646B8F5807F24BF203A0436376838
:101240000F25954027EA050509FA02F22A43326084
:10125000CA79D2067FF583AF41F21803C4F20203C4
:101260001A68AEF57E7642F001021A601A6802F042
:1012700001020192019A2AF0030256F802B040F6E8
:101280000002C4F20102904210D040F60042C4F2C3
:10129000010290423FF428AF41F20002C4F2010281
:1012A000009F904208BF02271FE700BF00271CE7EE
:1012B00002B0BDE8F08F0000002A08BF09040161F8
:1012C0007047000040F29C30C2F200000068704796
:1012D00040F2580040F29C31C2F20000C2F200011C
:1012E00000780A68104408607047000080B542F238
:1012F0000000C4F20200016841F010010160032007
:1013000000F08CF80F2000F005F800F027F800201E
:1013100080BD000070B540F25806C2F2000640F2EF
:1013200060013278C2F200014FF47A730968B3FBAE
:10133000F2F20446B1FBF2F1084600F019FC0F2C62
:101340004FF0010508D838B94FF0FF302146002290
:10135000002500F037F87460284670BD82B041F275
:101360001800C4F202000168022241F0010101608C
:10137000016801F0010101910199416841F080513A
:101380004160406800F08050009000980420C4F252
:101390000100016862F31A61016002B07047000049
:1013A000002848BF704700F01F01012202FA01F136
:1013B0001C2202EAD0004EF20012CEF2000281504E
:1013C0007047000010B54EF60C5CCEF2000CDCF855
:1013D0000030C3F3022E8EF00704042C28BF04242F
:1013E000BEF103034FF0FF3E0EFA04F438BF0023B2
:1013F000A14399400EFA03F39A43114300F00F0200
:1014000000F160430901043A03F564436244002893
:1014100048BF02F10C03197010BD00004EF60C51CC
:10142000CEF200010A684FF6FF031A4060F30A2269
:1014300042F0806040F0FD7008607047002804BFF3
:10144000012070472DE9F04381B042F20008C4F258
:1014500002080446D8F800000D4600F00700884254
:101460000CD2D8F8000020F007002843C8F800008C
:10147000D8F8000000F00700A8426ED1206841F2C1
:1014800004098107C4F2020917D5410705D5D9F827
:10149000001041F4E061C9F80010010705D5D9F842
:1014A000001041F46051C9F80010D9F80010A2688A
:1014B00021F0F0011143C9F80010C00744D1D8F859
:1014C000000000F00700A8420CD9D8F8000020F076
:1014D00007002843C8F80000D8F8000000F0070013
:1014E000A8423AD12068410707D5D9F80010E26830
:1014F00021F4E0611143C9F80010000708D5D9F8BC
:101500000000216920F4605040EAC100C9F80000E1
:10151000D9F8001042F2004001F00C02042AC0F297
:10152000F40059D0082A45D148F25453C1F38342FC
:10153000C0F600039A5CC90342D440F60010C0F222
:101540003D00504348E000BF606802280AD00128EF
:101550002AD159F8041C890308D4012001B0BDE840
:10156000F08300BF59F8041C8901F6D5D9F80010A2
:1015700021F003010843C9F80000FFF7A3FE064667
:1015800041F28837D9F80000616800F00C00B0EB38
:10159000810F94D0FFF796FE801BB842F2D903204A
:1015A00001B0BDE8F08300BF59F8041C8907D4D509
:1015B000DCE700BF41F20020C0F27A000CE000BF7F
:1015C000D9F8001048F24453C1F34041C0F600037B
:1015D000595C5043B0FBF1F0D9F8001048F22C529E
:1015E000C1F30311C0F60002515C40F2600220FA20
:1015F00001F140F25C00C2F200000068C2F2000299
:101600001160FFF787FE002001B0BDE8F083000005
:1016100040F2600041F20401C2F20000C4F2020193
:101620000068096848F23C52C1F30221C0F600028A
:10163000515CC8407047000040F2600041F2040174
:10164000C2F20000C4F202010068096848F23C528C
:10165000C1F3C221C0F60002515CC84070470000CF
:10166000002804BF012070472DE9F04182B00446F4
:10167000007841F20006C007C4F202060CD0706880
:1016800000F00C00042840F081803068800303D50E
:101690006068002800F04E81207880071BD57068B4
:1016A00010F00C0F09D0706800F00C00082840F012
:1016B0008B807068C00300F187803068800703D595
:1016C0002069012840F036813068616920F0F80017
:1016D00040EAC10030602078000713D4207840072A
:1016E0002CD4E569002D00F02081706800F00C001A
:1016F000082840F0AF80012D40F00C81012002B09D
:10170000BDE8F081A069002800F08C800020C4F2C0
:1017100042200121C0F88014FFF7D4FD054600BF28
:10172000706A800700F1BA80FFF7CCFD401B0228E9
:10173000F6D9032002B0BDE8F08100BFF0695FEA8E
:10174000C00808D4F06940F08050F061F06900F002
:1017500080500090009847F20007C4F200073868F4
:10176000C0054DD4386840F480703860FFF7AAFD9A
:10177000054600BF3868C00542D4FFF7A3FD401BF3
:101780006428F7D9032002B0BDE8F081706800F04A
:101790000C00082803D17068C0033FF576AF60687D
:1017A000002800F00981B0F5A02F00F01D81B0F5F0
:1017B000803F00F01D81306820F480303060306858
:1017C00020F4802017E100BF2069002840F20000CB
:1017D000C4F2422000F08C8001210160FFF772FD0D
:1017E000054600BF306880073FF56EAFFFF76AFD22
:1017F000401B0228F6D9032002B0BDE8F08100BFEB
:10180000E068002800F09A80052800F0B1800128E7
:1018100000F0B280306A20F001003062306A20F0BF
:101820000400ACE00020C4F242200021C0F8801483
:10183000FFF748FD054600BF706A80077FF54EAF91
:10184000FFF740FD401B0228F6D9032002B0BDE897
:10185000F08100BF0027C4F2422700203866FFF75E
:1018600031FD022D05460DD13068800140F1D68052
:10187000FFF728FD401B02284FF00300F4D902B007
:10188000BDE8F081306880014FD5FFF71BFD401B9C
:1018900002284FF00300F5D9F1E700BF40F26000E5
:1018A000C2F20000006844F6D351C1F26201A0FB0D
:1018B0000101480A019000BF00BF0198411E0028A5
:1018C00001913FF40BAF00BF0198411E0028019128
:1018D0003FF404AF00BF0198411E002801913FF47E
:1018E000FDAE00BF0198411E00280191E4D1F5E64C
:1018F00000210160FFF7E6FC054600BF3068800765
:101900007FF5E9AEFFF7DEFC401B02284FF0030035
:10191000F4D9B4E77068216A00F480328A4209D1B0
:10192000616A00F47010884204D1002002B0BDE862
:10193000F08100BF012002B0BDE8F081306A20F0E4
:1019400001003062306A20F004003062FFF7BAFC18
:10195000054641F2883700BF306A800722D5FFF77D
:10196000B1FC401BB8424FF00300F5D987E700BF38
:10197000306A40F004003062306A40F001003062AA
:10198000FFF7A0FC054641F2883700BF306A8007A8
:1019900008D4FFF797FC401BB842F7D9032002B0E8
:1019A000BDE8F081B8F1000F3FF59BAEF06920F083
:1019B0008050F06195E600BF306820F480303060E0
:1019C000306820F480203060FFF77CFC054600BFC3
:1019D000306880037FF560AEFFF774FC401B64281D
:1019E0004FF00300F4D94AE7306840F480203060BB
:1019F000306840F480303060FFF764FC054600BF7B
:101A0000306880033FF548AEFFF75CFC401B64285C
:101A1000F6D9032002B0BDE8F08100BF206AB0F51E
:101A2000803F05D17168A26821F4003111437160D3
:101A30007168626A21F474111143084370600120D7
:101A40003866FFF73FFC0446306880013FF56DAF14
:101A5000FFF738FC001B02284FF00300F4D90EE713
:101A600070B538B10446406A30B10020206104F1FD
:101A7000140007E0012070BD6068B0F5827F03D0DC
:101A800004F11C00002101600026A66294F85100B8
:101A900020B9204684F8506000F038F8022084F81D
:101AA000510094E8071001F48271036802F40442C3
:101AB00023F040030360236911440CF400621144D5
:101AC00003F002026369114403F00102A369E569AE
:101AD000114403F40072114405F03802256A1144E0
:101AE00005F08002A56A114305F40052114301601C
:101AF000042101EA13414160C16921F40061C1611F
:101B00000120666584F85100304670BD80B586B00E
:101B100043F600010068C4F20001002288420492EA
:101B200002D006B080BD00BF41F21800C4F202002E
:101B3000426842F480424260426802F4804201926C
:101B4000019A026842F008020260006800F0080092
:101B5000019001984FF4204002900220039003204E
:101B6000059001F5544002A9FFF79EFA06B080BD2A
:101B7000411E0020B0EB116F1CBF012070474EF2D8
:101B80001002CEF2000251604EF62351CEF2000157
:101B9000F0230B70072190601160704770470000C0
:101BA0007047000090F83C20012A4FF0020236D026
:101BB00010B580F83D200268D2F804E0D2F808C0E1
:101BC0000C682EF07003234340F2FF74C4F200044B
:101BD000A24253600ADCB2F1804F13D040F20043BE
:101BE000C4F200039A420DD011E000BF42F6004358
:101BF000C4F201039A4205D040F60003C4F2000388
:101C00009A4204D149682CF0800319439160012164
:101C1000002280F83D1080F83C20BDE810401046BE
:101C200070470000002804BF0120704710B504462B
:101C300090F83D0028B9002084F83C00204600F0D0
:101C400067F8022084F83D00206840F2FF730268C4
:101C5000C4F2000342F6004C9842C4F2010C15DCB9
:101C6000B0F1804F1AD040F20041C4F20001884226
:101C700014D0984218DCB0F1804F1DD040F20041E2
:101C8000C4F20001884217D01AE000BF604505D0B9
:101C900040F60001C4F200018842EAD1A16822F0B6
:101CA00070020A439842E6DD604505D040F6000127
:101CB000C4F20001884203D1216922F440720A4330
:101CC000A36922F08001D4F804E0E268194360457A
:101CD0000160C262C0F828E002D16169CCF830101E
:101CE00001214161002084F8461084F83E1084F8F8
:101CF0003F1084F8401084F8411084F8421084F8B2
:101D0000431084F8441084F8451084F83D1010BD49
:101D100080B584B00068B0F1804F1DD040F2004122
:101D2000C4F2000188422FD042F60041C4F2010102
:101D300088420FD141F21C00C4F2020050F8041C8A
:101D400041F4006140F8041C50F8040C00F40060F9
:101D50000390039804B080BD41F21C00C4F202005D
:101D60000168002241F00101016000680E2100F0CD
:101D70000100029002981C20FFF724FB1C2004B0F5
:101D8000BDE88040FFF70CBB41F21C00C4F202002A
:101D90000168002241F00201016000680D2100F09D
:101DA0000200019001981D20FFF70CFB1D2004B0DC
:101DB000BDE88040FFF7F4BA90F83D1001291CBF40
:101DC00001207047022180F83D10006840F2FF7149
:101DD000C4F20001884209DCB0F1804F12D040F219
:101DE0000041C4F2000188420CD012E042F60041EA
:101DF000C4F20101884205D040F60001C4F200019E
:101E0000884206D1816801F00701062904BF00203D
:101E10007047016841F00101016000207047000037
:101E200090F83D1001291CBF01207047022180F865
:101E30003D10006840F2FF72C168C4F20002904297
:101E400041F00101C16009DCB0F1804F12D040F2D5
:101E50000041C4F2000188420CD012E042F6004179
:101E6000C4F20101884205D040F60001C4F200012D
:101E7000884206D1816801F00701062904BF0020CD
:101E80007047016841F001010160002070470000C7
:101E900090F83C20012A4FF0020200F0C58080B586
:101EA00080F83D20D0F800C04FF67772DCF808309B
:101EB00023EA0202CCF808200B684F2B28DC1F2BEA
:101EC00044DD202B45D0302B43D0402B40F0AE805A
:101ED000D1F804E0C968DCF82030DCF8202022F0DA
:101EE0000102CCF82020DCF8182022F0F00242EAAF
:101EF000011123F00A0242EA0E02CCF81810CCF8C5
:101F00002020DCF8081041F0470121F0300180E08A
:101F10006F2B27DDB3F5005F48D0B3F5805F7AD033
:101F2000702B40F08380D1E901E3C968DCF8082018
:101F300043EA0E0322F47F4243EA01211143CCF825
:101F40000810DCF8081041F0770162E00BB1102BAB
:101F50006CD1DCF8081021F07001194341F0070141
:101F600057E000BF502B35D0602B5FD1D1F804E093
:101F7000C968DCF82030DCF8202022F01002CCF810
:101F80002020DCF8182022F4704242EA013123F0CC
:101F9000A00242EA0E12CCF81810CCF82020DCF88F
:101FA000081041F0670121F0100132E0D1E901E3AE
:101FB000C968DCF8082043EA0E0322F47F4243EAB2
:101FC00001211143CCF80810DCF8081041F48041DD
:101FD0001FE000BFD1F804E0C968DCF82030DCF86D
:101FE000202022F00102CCF82020DCF8182022F07A
:101FF000F00242EA011123F00A0242EA0E02CCF892
:102000001810CCF82020DCF8081041F0570121F01E
:102010002001CCF808100022012180F83D10002199
:1020200080F83C10BDE88040104670470122F3E77D
:102030007047000010B5016804460869800744BF76
:10204000C8685FEA807039D40869400744BFC8682F
:102050005FEA40703ED40869000744BFC8685FEA81
:10206000007045D40869C00644BFC8685FEAC06014
:102070004AD40869C0071CBFC8685FEAC07051D164
:102080000869000644BFC8685FEA006052D4086966
:10209000400644BFC8685FEA406053D408698006C0
:1020A00046BFC8685FEA806010BD6FF0200220461E
:1020B0000A61BDE81040FFF773BD00BF6FF002007A
:1020C0000861012020778869800743D02046FFF708
:1020D000AFFF45E06FF004000861022020778869B7
:1020E00010F4407F40D02046FFF7A2FF42E000BF3F
:1020F0006FF00800086104202077C86980073DD090
:102100002046FFF795FF3FE06FF0100008610820C0
:102110002077C86910F4407F3AD02046FFF788FF47
:102120003CE000BF6FF001000861204600F03EF87F
:102130002168A5E76FF0800008612046FFF72EFDBB
:102140002168A4E76FF040000861204600F0DCF849
:102150002168A3E7204600F025F8204600F024F887
:102160002168002020776FE7204600F01BF820460A
:1021700000F01AF82168002020776CE7204600F074
:1021800011F8204600F010F821680020207769E758
:10219000204600F007F8204600F006F821680020ED
:1021A000207766E770470000704700000068B0F1D4
:1021B000804F18BF704710B540F20004C2F200040F
:1021C0002078032822D002283ED0012860D1312077
:1021D000E07140F2C420A11DC2F2000003224FF0C2
:1021E000FF3300F093FF40F2D800C2F2000000215C
:1021F0004172C17B002979D010F8111F0029A0F18C
:1022000001013FD100F11E023AE000BF3320E0712E
:1022100040F2C420A11DC2F2000003224FF0FF33A0
:1022200000F074FF40F2D800C2F200000021C17338
:10223000017B00293ED010F80E1F0029A0F10101FA
:1022400020D100F120021BE03220E07140F2C420D6
:10225000A11DC2F2000003224FF0FF3300F056FF31
:1022600040F2D800C2F2000000210173417A79B334
:1022700010F80B1F0029A0F1010103D100F1220287
:1022800001231370024608460121117000210170DC
:1022900020780130C1B2032988BF0120207040F2AC
:1022A0003420C2F2000000684FF23B614162BDE899
:1022B00010407047417B01314173417B627891420C
:1022C000E6D910F80E1F0129E0D100F12002DBE76A
:1022D000817A01318172817A62789142D8D910F87D
:1022E0000B1F0129D2D100F12202CDE7017C01317F
:1022F0000174017C62789142CAD910F8111F01293A
:10230000C4D100F11E02BFE7704700007047000013
:1023100070470000B0B582B0044600680168C36829
:10232000426901F02F05202D03F0200506D12DB1C3
:10233000204602B0BDE8B04001F06ABC5FEA017C13
:102340001EBF02F0010E03F4907212EB0E0243D195
:10235000226BCD0618D5012A16D113F0100213D026
:102360000021019101680191416801910199406941
:1023700040063BD4A08DE18DE28D002A18BF884233
:1023800040F0F28102B0B0BD0A0640F1E78013F0E0
:10239000800200F0E38094F841102129F2D1A16875
:1023A000B1F5805F03D12169002900F06382216AC1
:1023B0004A1C226209784160E18C01390A04E184F7
:1023C000E0D1C16821F08001C160C16841F04001E5
:1023D000C16002B0B0BD00BFCA0718BF13F480725D
:1023E00040F0D0804A0700F1D380D8E0E06B01686C
:1023F00049688AB2002AC5D0A38D9A42C2D2E1852B
:102400008069202800F09E80206850E8030F216832
:1024100020F4807041E80302DAB1206850E8030F2D
:10242000216820F4807041E8030292B1206850E8EE
:10243000030F216820F4807041E803024AB120684C
:1024400050E8030F216820F4807041E80302002A5D
:10245000DAD1206850E8050F216820F0010041E83A
:102460000502C2B3206850E8050F216820F0010082
:1024700041E805027AB3206850E8050F216820F092
:10248000010041E8050232B3206850E8050F2168D9
:1024900020F0010041E80502002ADAD11BE000BF6C
:1024A000206850E8050F216820F0400041E805024F
:1024B000DAB1206850E8050F216820F0400041E8BB
:1024C000050292B1206850E8050F216820F0400015
:1024D00041E805024AB1206850E8050F216820F064
:1024E000400041E80502002ADAD1202084F84200A9
:1024F00000202063206850E8030F216820F01000BE
:1025000041E80302DAB1206850E8030F216820F0A7
:10251000100041E8030292B1206850E8030F2168DF
:1025200020F0100041E803024AB1206850E8030F90
:10253000216820F0100041E80302002ADAD1E06BA4
:10254000FEF720FD02206063A08DE18D401A81B26C
:10255000204602B0BDE8B040FFF7D8BE49067FF57F
:1025600011AF13F040013FF40DAFC16821F04001FD
:10257000C1602021204684F8411002B0BDE8B0407F
:1025800000F000BF626C42F0010262644A0706D5A7
:10259000BEF1000F03D0626C42F0020262648A074F
:1025A00006D5BEF1000F03D0626C42F004026264F3
:1025B000BCF1000F06D55EEA050203D0626C42F062
:1025C00008026264626C002A3FF4DCAE890604D51E
:1025D0001DB1204601F01CFB20684069616C00F0D1
:1025E000400001F00801401800F0B680206850E873
:1025F000030F216820F4907041E80302BAB3206809
:1026000050E8030F216820F4907041E8030272B390
:10261000206850E8030F216820F4907041E803021D
:102620002AB3206850E8030F216820F4907041E835
:102630000302002ADAD11AE0206850E8050F216869
:1026400020F0010041E80502DAB1206850E8050FEA
:10265000216820F0010041E8050292B1206850E8AD
:10266000050F216820F0010041E805024AB1206809
:1026700050E8050F216820F0010041E80502002A1A
:10268000DAD1206B012824D1206850E8030F21689B
:1026900020F0100041E80302DAB1206850E8030F8F
:1026A000216820F0100041E8030292B1206850E850
:1026B000030F216820F0100041E803024AB12068AE
:1026C00050E8030F216820F0100041E80302002ABF
:1026D000DAD1202084F8420000202063206840697D
:1026E000400640F1C180206850E8050F216820F0C5
:1026F000400041E80502DAB1206850E8050F216882
:1027000020F0400041E8050292B1206850E8050F32
:10271000216820F0400041E805024AB1206850E8F5
:10272000050F216820F0400041E80502002ADAD1B7
:10273000E06B002800F0988043F60541C0F60001E8
:102740004163FEF743FC00283FF41CAEE06B416B95
:1027500002B0BDE8B04008472046FFF7D9FD002091
:10276000606402B0B0BD00BF401A00BF216851E8EC
:10277000031F226821F4907142E80313BBB3216860
:1027800051E8031F226821F4907142E8031373B3E8
:10279000216851E8031F226821F4907142E8031375
:1027A0002BB3216851E8031F226821F4907142E89D
:1027B0000313002BDAD11AE0216851E8051F2268C3
:1027C00021F0010142E80513DBB1216851E8051F42
:1027D000226821F0010142E8051393B1216851E814
:1027E000051F226821F0010142E805134BB1216861
:1027F00051E8051F226821F0010142E80513002B72
:10280000DAD1202184F8421000212163216851E8A7
:10281000031F226821F0100142E80313DBB1216895
:1028200051E8031F226821F0100142E8031393B11D
:10283000216851E8031F226821F0100142E80313C8
:102840004BB1216851E8031F226821F0100142E8D2
:102850000313002BDAD1022281B22046626302B058
:10286000BDE8B040FFF752BD204602B0BDE8B04021
:10287000FFF74EBD216A31F8022B6FF35F224260F1
:10288000216299E5002804BF0120704710B5044675
:1028900090F8410028B9002084F84000204600F05C
:1028A00063F8242084F841002068D4E90212C36848
:1028B00023F40053C360036923F440531A430261B5
:1028C000D4E904231143C268194341F20C639A43CB
:1028D0001143C1604169A26921F44071114343F67B
:1028E0000002C4F201029042416103D0FEF790FE63
:1028F00002E000BFFEF7A0FED4E9002319214843FF
:102900009900B0FBF1F048F21F5CC5F2EB1CA0FB94
:102910000C314FF69C734909C0F6FF7301FB0300AD
:10292000322303EB0010A0FB0C03F02000EA53104D
:1029300000EB0110C3F3431108449060106920219B
:1029400020F490401061506920F02A005061D06856
:1029500040F40050D0600020606484F8411084F896
:102960004210606310BD000070B586B0006844F28C
:102970000041C4F20001002688420596CDE90366B5
:10298000029641D044F60001C4F2000188426DD0A5
:1029900043F60001C4F20101884240F0A28041F2F6
:1029A0001800C4F20200016840F6000441F48041BE
:1029B00001600168C4F2010401F4804101910199B0
:1029C000016802AD41F0040101600068294600F091
:1029D0000400019001984FF40070029002200390CF
:1029E000032005902046FEF75FFB4FF480600290C5
:1029F0000020CDE9030020462946FEF755FB25209F
:102A000002210022252467E041F21800C4F20200EE
:102A1000416840F6000441F4003141604168C4F26D
:102A2000010401F4003101910199016802AD41F006
:102A3000040101600068294600F00400019001983B
:102A40000420029002200390032005902046FEF708
:102A50002BFB0820CDE90206204629460496FEF706
:102A600023FB262000210022262435E041F2180015
:102A7000C4F20200416802AD41F480214160416826
:102A800001F4802101910199016841F00801016080
:102A90000068294600F00800019001984FF480601A
:102AA0000290022003900320059040F60000C4F23B
:102AB000010000F580642046FEF7F6FA4FF400604E
:102AC00002900020CDE9030020462946FEF7ECFAEB
:102AD0002720012100222724FEF774FC2046FEF760
:102AE0005FFC06B070BD000090F84230202B07D18B
:102AF00000294FF0010318BF002A05D1184670477E
:102B000002231846704700BF00230363816222211D
:102B10008285C285436480F842100169006819B15A
:102B2000C16841F48071C160416941F001014161B6
:102B3000C16841F02001C160184670472DE9F04F8F
:102B400087B0006844F20041C4F2000188421BD003
:102B500044F60001C4F20001884223D043F600018C
:102B6000C4F2010188421CBF07B0BDE8F08F40F2FB
:102B7000D800C2F20000017853293FD101218170B1
:102B8000411C0020087068E040F2D800C2F200004A
:102B9000C178532946D101214171011D00220A70DB
:102BA00025E100BF40F2D804C2F2000494F82800E6
:102BB000002861D094F82800012840F08180E07955
:102BC0003E2840F0EB8140F2EC10C2F200000068B9
:102BD0000021416242F20F7142F21072436A8B424D
:102BE00008D8436A8B4205D8436A8B4202D8436AAD
:102BF0009342F3D30120A075D0E100BF8278502921
:102C000026D0012A24D1427840F25413C2F20003A4
:102C1000134483F82610511CCAB20F2A41701CD9E4
:102C2000811CAEE74279502900F0DC80012A40F097
:102C3000D980037940F254174278C2F200071F444A
:102C40003977591C032A017140F2D180811CA5E714
:102C5000502908BF012A00F0D58040F2C42040F27C
:102C6000D801C2F20000C2F20001012207B0BDE8A3
:102C7000F04FFFF739BF00BFE079502804D10121A0
:102C80002177002184F82110217F002900F086811E
:102C900094F8211048F26752C0F60002515C81425C
:102CA0001CBF0020207794F82100013084F8210017
:102CB00094F82100072824BF012084F827006DE143
:102CC00094F82800022840F01781E079422803D1C7
:102CD0000121A1760021E177A17E89B1E17F48F24F
:102CE0004652C0F60002515C81421CBF0021A17611
:102CF000E17F0131E177E17F052924BF01212176C0
:102D0000432804D10121E176002184F82010E17EDE
:102D1000002900F0438194F8201048F24C52C0F68C
:102D20000002515C81421CBF0020E07694F8200034
:102D3000013084F8200094F820000728C0F02E818C
:102D4000002140F2EC106176C2F2000000684EF6FD
:102D5000602241624EF65F21436A8B4208D8436A83
:102D60008B4205D8436A8B4202D8436A9342F3D31D
:102D7000002141624EF65F214EF66022436A8B428B
:102D800008D8436A8B4205D8436A8B4202D8436A0B
:102D90009342F3D3002141624EF65F214EF660224A
:102DA000436A8B4208D8436A8B4205D8436A8B42F8
:102DB00002D8436A9342F3D3002141624EF65F2169
:102DC0004EF66022436A8B4200F2E880436A8B42EF
:102DD00000F2E480436A8B4200F2E080436A93424F
:102DE000F0D3DBE0502908BF012A00F0A980C11C04
:102DF00040F20C30C2F20000012207B0BDE8F04FF3
:102E0000FFF772BE40F25412C2F2000292F826306E
:102E1000591ECCB2022C00F102013FF6B2AE8EA7D1
:102E200057F824C08FA795A557F8247055F824505B
:102E3000069705959AA555F824809CA555F82490E9
:102E40009DA555F824A09FA555F824B0A0A555F838
:102E5000245087A70495A1A555F8245057F824E0DD
:102E60000395A1A555F8245087A60295A1A555F86C
:102E7000245088A70195A2A556F8246057F824701D
:102E800055F8244001258CF80050C37592F82700AE
:102E9000069B187092F828008EF8000092F829001E
:102EA000059B187092F82A00307092F82B00387049
:102EB00092F82C0088F8000092F82D0089F80000A4
:102EC00092F82E008AF8000092F82F008BF800008C
:102ED00092F83000049B187092F83100039B187030
:102EE00092F83200029B187092F83300019B187020
:102EF00092F83400207044E694F82800032833D177
:102F0000E0794F2804D101216177002184F8221053
:102F1000617F002942D094F8221048F26452C0F632
:102F20000002515C814235D194F82200013084F8CE
:102F3000220094F82200022830D304F119002BE07B
:102F400040F25411C2F200010B7F4A7F572B00F16F
:102F5000050180F8333080F8342033D0462B39D047
:102F6000432B08BF827119E694F8280004281DD16C
:102F700094F8240080B394F82400B8B1E0790D28C7
:102F800058D101200021607684F8241084F83100A3
:102F90000CE000BF04F11D000021017040F254302C
:102FA000E11DC2F200000122FFF79EFD40F2543005
:102FB000E11DC2F20000012207B0BDE8F04FFFF7AB
:102FC00093BD00BF037D012B2AD1012280F8302060
:102FD000E4E500BFC274E1E5E079542805D10121A0
:102FE0006176A177002184F82310A17F0029DDD02C
:102FF00094F8231040F26402C2F20002515C814254
:1030000026D194F82300013084F8230094F823009B
:103010000928CBD3012084F82400002015E000BF4C
:10302000012323EA020248F2A413C4F221231A6006
:10303000B4E500BF94F8251040F25412C2F2000229
:103040001144087494F82500013084F82500ADE798
:103050000020A0776076A9E7E1000020E4000020CE
:10306000E70000201C000020300000204400002069
:103070001D00002031000020450000201E0000201F
:1030800032000020460000201F00002033000020F6
:1030900047000020200000203400002048000020CD
:1030A00021000020350000204900002022000020DF
:1030B000360000204A0000202300002037000020B6
:1030C0004B00002024000020380000204C0000208D
:1030D00025000020390000204D000020260000209F
:1030E0003A0000204E000020270000203B00002076
:1030F0004F000020280000203C000020500000204D
:10310000290000203D000020510000202DE9F0435F
:1031100081B0044690F84100202840F0B1808846F4
:1031200000294FF0010000F0D6801646002A00F07A
:10313000D2800020606421201D4684F84100FEF703
:10314000C1F8A684E684A1680646B1F5805F03D184
:103150002069002800F0988047464FF00008E18C75
:103160002068002900F0968005F101090BE000BFFE
:1031700047B317F8011B4160E18C0139E184E18C10
:10318000002900F0878001680906F1D4B9F1000F29
:103190000AD0EDB1FEF796F8801BA84218D8206837
:1031A00001680906F6D5E3E701680906E0D401687D
:1031B00009065CBF01685FEA0161D9D401680906AC
:1031C000F2D5D5E738F8021B00276FF35F21D2E76D
:1031D000206850E8030F216820F4D07041E8030212
:1031E000BAB3206850E8030F216820F4D07041E89A
:1031F000030272B3206850E8030F216820F4D070F6
:1032000041E803022AB3206850E8030F216820F444
:10321000D07041E80302002ADAD11AE0206850E8B1
:10322000050F216820F0010041E80502DAB12068AD
:1032300050E8050F216820F0010041E8050292B135
:10324000206850E8050F216820F0010041E80502E0
:103250004AB1206850E8050F216820F0010041E8DC
:103260000502002ADAD1202084F8410084F84200C7
:10327000002084F84000032001B0BDE8F08300BFC7
:10328000022001B0BDE8F0830027E18C206800290E
:103290007FF46AAF0168490619D4FDB1691C0DD1EC
:1032A0000168490613D4016849065CBF01685FEAFA
:1032B00041610CD401684906F2D508E0FEF702F836
:1032C000801BA8420AD8206800684006F6D5202056
:1032D00084F84100002001B0BDE8F083206850E888
:1032E000030F216820F4D07041E80302002A3ED089
:1032F000206850E8030F216820F4D07041E80302F1
:10330000AAB3206850E8030F216820F4D07041E888
:10331000030262B3206850E8030F216820F4D070E4
:1033200041E80302002AD9D121E000BF206850E81B
:10333000050F216820F0010041E80502002A3FF452
:1033400092AF206850E8050F216820F0010041E8A5
:103350000502002A3FF487AF206850E8050F216876
:1033600020F0010041E80502002A3FF47CAF20680C
:1033700050E8050F216820F0010041E80502002A0D
:10338000D4D170E770470000FEE7000070B514204C
:10339000FDF776FE40F20005C2F200056C7944F0BC
:1033A0003006F0B200F0D2F844F03400C0B200F0C1
:1033B000CDF806F0FB0000F0C9F80520FDF760FE2F
:1033C0006C7944F03006F0B200F0C0F844F03400FC
:1033D000C0B200F0BBF806F0FB0000F0B7F8012027
:1033E000FDF74EFE6C7944F03006F0B200F0AEF816
:1033F00044F03400C0B200F0A9F806F0FB0000F081
:10340000A5F86C7944F02006F0B200F09FF844F083
:103410002400C0B200F09AF806F0FB0000F096F825
:103420006C7944F02006F0B200F090F844F02400EB
:10343000C0B200F08BF806F0FB0000F087F86C7962
:1034400064F07F06F0B200F081F844F08400C0B26E
:1034500000F07CF806F0FB0000F078F86C7920466C
:1034600000F074F844F0040000F070F804F0FB0081
:1034700000F06CF86C7964F07F06F0B200F066F84A
:1034800044F08400C0B200F061F806F0FB0000F0E8
:103490005DF86C79204600F059F844F0040000F023
:1034A00055F804F0FB0000F051F86C7944F0100678
:1034B000F0B200F04BF844F01400C0B200F046F84F
:1034C00006F0FB0000F042F80220FDF7D9FD6C7910
:1034D000204600F03BF844F0040000F037F804F018
:1034E000FB0000F033F86C7964F03F06F0B200F0B6
:1034F0002DF844F0C400C0B200F028F806F0FB003C
:1035000000F024F86C7964F07F06F0B200F01EF849
:1035100044F08400C0B200F019F806F0FB0000F09F
:1035200015F86C79204600F011F844F0040000F022
:103530000DF804F0FB00BDE8704000F007B8000093
:10354000FEE70000FEE70000704700002DE9F041B3
:1035500048F298180546C4F22128012040F2EC17E1
:10356000C8F80400C2F2000738680021416200BFB9
:10357000416A31B9416A21B9416A11B9416A0029E8
:10358000F6D00121C8F8001000214162416A31B92A
:10359000416A21B9416A11B9416A0029F6D0002176
:1035A000C8F80410416200BF416A31B9416A21B9CB
:1035B000416A11B9416A0029F6D040F60044C4F2CC
:1035C00001040026204680210022C8F80060FDF793
:1035D00073FE204640210122FDF76EFE38684662E8
:1035E000416A31B9416A21B9416A11B9416A002978
:1035F000F6D02046402100220026FDF75DFE386807
:10360000466200BF416A31B9416A21B9416A11B9C4
:10361000416A0029F6D0204680210122FDF74CFEA8
:10362000204640210122FDF747FE38680021416213
:10363000416A31B9416A21B9416A11B9416A002927
:10364000F6D02046402100220026FDF735FE3868DE
:10365000466200BF416A31B9416A21B9416A11B974
:10366000416A0029F6D0204680210122FDF724FE80
:10367000204640210122FDF71FFE386800214162EB
:10368000416A31B9416A21B9416A11B9416A0029D7
:10369000F6D02046402100220026FDF70DFE3868B6
:1036A000466200BF416A31B9416A21B9416A11B924
:1036B000416A0029F6D0204680210122FDF7FCFD59
:1036C000204640210122FDF7F7FD386800214162C4
:1036D000416A31B9416A21B9416A11B9416A002987
:1036E000F6D02046402100220026FDF7E5FD38688F
:1036F000466200BF416A31B9416A21B9416A11B9D4
:10370000416A0029F6D0204680210122FDF7D4FD30
:10371000204640210122FDF7CFFD3868002141629B
:10372000416A31B9416A21B9416A11B9416A002936
:10373000F6D02046402100220026FDF7BDFD386866
:10374000466200BF416A31B9416A21B9416A11B983
:10375000416A0029F6D0204680210122FDF7ACFD08
:10376000204640210122FDF7A7FD38680021416273
:10377000416A31B9416A21B9416A11B9416A0029E6
:10378000F6D02046402100220026FDF795FD38683E
:10379000466200BF416A31B9416A21B9416A11B933
:1037A000416A0029F6D0204680210122FDF784FDE0
:1037B000204640210122FDF77FFD3868002141624B
:1037C000416A31B9416A21B9416A11B9416A002996
:1037D000F6D02046402100220026FDF76DFD386816
:1037E000466200BF416A31B9416A21B9416A11B9E3
:1037F000416A0029F6D02046802100220026FDF7EC
:103800005BFD204640210122FDF756FD38684662E7
:10381000416A31B9416A21B9416A11B9416A002945
:10382000F6D02046402100220026FDF745FD3868ED
:10383000466200BF416A31B9416A21B9416A11B992
:10384000416A0029F6D02046802100220026FDF79B
:1038500033FD204640210122FDF72EFD38684662E7
:10386000416A31B9416A21B9416A11B9416A0029F5
:10387000F6D02046402100220026FDF71DFD3868C5
:10388000466200BF416A31B9416A21B9416A11B942
:10389000416A0029F6D0EA0920468021FDF70CFD97
:1038A000204640210122FDF707FD386800214162D2
:1038B000416A31B9416A21B9416A11B9416A0029A5
:1038C000F6D02046402100220026FDF7F5FC38689E
:1038D000466200BF416A31B9416A21B9416A11B9F2
:1038E000416A0029F6D0C5F3801220468021FDF7F9
:1038F000E3FC204640210122FDF7DEFC3868002170
:10390000416200BF416A31B9416A21B9416A11B9C6
:10391000416A0029F6D02046402100220026FDF70A
:10392000CBFC3868466200BF416A31B9416A21B9AF
:10393000416A11B9416A0029F6D0C5F34012204608
:103940008021FDF7B9FC204640210122FDF7B4FC9F
:1039500038680021416200BF416A31B9416A21B92A
:10396000416A11B9416A0029F6D02046402100225F
:103970000026FDF7A1FC3868466200BF416A31B9F4
:10398000416A21B9416A11B9416A0029F6D0C5F3EB
:10399000001220468021FDF78FFC204640210122A5
:1039A000FDF78AFC38680021416200BF416A31B9E5
:1039B000416A21B9416A11B9416A0029F6D020460D
:1039C000402100220026FDF777FC3868466200BFE0
:1039D000416A31B9416A21B9416A11B9416A002984
:1039E000F6D0C5F3C00220468021FDF765FC2046D5
:1039F00040210122FDF760FC38680021416200BFD0
:103A0000416A31B9416A21B9416A11B9416A002953
:103A1000F6D02046402100220026FDF74DFC3868F4
:103A2000466200BF416A31B9416A21B9416A11B9A0
:103A3000416A0029F6D0C5F3800220468021FDF7B7
:103A40003BFC204640210122FDF736FC386800216E
:103A5000416200BF416A31B9416A21B9416A11B975
:103A6000416A0029F6D02046402100220026FDF7B9
:103A700023FC3868466200BF416A31B9416A21B906
:103A8000416A11B9416A0029F6D0C5F340022046C7
:103A90008021FDF711FC204640210122FDF70CFC9E
:103AA00038680021416200BF416A31B9416A21B9D9
:103AB000416A11B9416A0029F6D02046402100220E
:103AC0000026FDF7F9FB3868466200BF416A31B94C
:103AD000416A21B9416A11B9416A0029F6D005F05D
:103AE000010220468021FDF7E7FB2046402101220C
:103AF000FDF7E2FB38680021416200BF416A31B93D
:103B0000416A21B9416A11B9416A0029F6D02046BB
:103B1000402100220025FDF7CFFB3868456200BF39
:103B2000416A31B9416A21B9416A11B9416A002932
:103B3000F6D02046802100220025FDF7BDFB20465F
:103B400040210122FDF7B8FB38684562416A31B96E
:103B5000416A21B9416A11B9416A0029F6D020466B
:103B6000402100220024FDF7A7FB3868446200BF13
:103B7000416A31B9416A21B9416A11B9416A0029E2
:103B8000F6D00021C8F80410416200BF416A31B983
:103B9000416A21B9416A11B9416A0029F6D0002170
:103BA000C8F80010416200BF416A31B9416A21B9C9
:103BB000416A11B9416A0029F6D00121C8F8001004
:103BC00000214162416A31B9416A21B9416A11B9A2
:103BD000416A0029F6D00120C8F80400BDE8F08150
:103BE00070470000FDF774BB7047000040F23420BE
:103BF000C2F20000FEF71EBA40F27C20C2F20000C2
:103C0000FEF718BA406A0021C185C184FEF780BB67
:103C100081B090F84210222921D183680246B3F581
:103C2000805F09D152F8281F52F8183C002B63D04E
:103C300003685B680AE000BF52F8281F13B90369E4
:103C4000002BF5D003685B6803F07F030B701168ED
:103C500001311160C18D01390A04C18502D001B062
:103C6000704700BF0168CA6822F02002CA60CA68B3
:103C700022F48072CA604A6922F001024A6120215E
:103C800080F8421000214163026B012A3CD101639C
:103C9000016851E8031F026821F0100142E8031394
:103CA000DBB1016851E8031F026821F0100142E80E
:103CB000031393B1016851E8031F026821F010015A
:103CC00042E803134BB1016851E8031F026821F079
:103CD000100142E80313002BDAD101680A68D2060A
:103CE00006D5002200920A68009249680091009966
:103CF000818D01B0FEF70ABB026852686FF35F2244
:103D000021F8022B8162A5E701B0FEF717BF000082
:103D100040F2C420C2F20000FEF7FCBA40F20C30C0
:103D2000C2F20000FEF7F6BA40F25430C2F20000D0
:103D3000FEF7F0BAFEE70000F0B581B040F2D8011E
:103D4000C2F20001097A009004291BD80446DFE87A
:103D500001F003090F191D0040F2C420C2F2000057
:103D60000AE000BF40F20C30C2F2000004E000BFE5
:103D700040F25430C2F20000694601224FF0FF3396
:103D8000FFF7C4F95DF8040BF0BD00BF40F2000579
:103D9000C2F20005687924F00F0140EA010646F0FE
:103DA0000107F8B2FFF7D2FB46F00500C0B2FFF7FB
:103DB000CDFB07F0FB00FFF7C9FB687940EA04146C
:103DC00044F00105E8B2FFF7C1FB44F00500C0B2C2
:103DD000FFF7BCFB05F0FB00FFF7B8FB5DF8040B39
:103DE000F0BD0000A2B0FDF781FA00240120CDE96A
:103DF0001D44CDE91B4418901C904FF4E0104FF483
:103E000080314FF400320225219018A819911A929E
:103E1000CDE91F51FDF724FC20B1EFF3108072B6FD
:103E2000FEE700BF0F20CDE912054FF48060CDE919
:103E3000150412A802211494FDF700FB20B1EFF342
:103E4000108072B6FEE700BF41F21800C4F2020013
:103E5000016840F6000941F0100101600168C4F2F8
:103E6000010901F0100118911899016809F500661F
:103E700041F0200101600168002201F02001189149
:103E8000189901684FF4005741F00401016001687E
:103E9000002401F0040118911899016841F008010B
:103EA000016000684FF4005100F008001890189865
:103EB0003046FDF701FA09F58065284645F2FC31E8
:103EC000002245F2FC3AFDF7F7F948464FF4194154
:103ED0000022FDF7F1F9189718AF4FF0010B4FF0E2
:103EE000020830463946CDE919B4CDF86C80FDF7AB
:103EF000DBF8F320CDE91804484639461A94FDF75B
:103F0000D3F828463946CDE918ABCDE91A48FDF774
:103F1000CBF84FF41940CDE9180B48463946CDE9A6
:103F20001A48FDF7C1F840F2EC1009F51051C2F241
:103F300000004FF6FF731B94CDE91944CDE91244FC
:103F4000482280E81600C0E90334C0E90544FDF7C3
:103F500069FE28B1EFF3108072B600BFFEE700BF24
:103F60004FF48050189040F2EC10C2F2000018A9F3
:103F7000FDF78EFF20B1EFF3108072B6FEE700BFB1
:103F800040F2EC10C2F2000012A9FDF70BFE28B1BE
:103F9000EFF3108072B600BFFEE700BF40F2C4200E
:103FA00009F54051C2F2000000240C254FF4E13223
:103FB00080E81600C0E90344C0E90554C461FEF777
:103FC00061FC28B1EFF3108072B600BFFEE700BFBE
:103FD00040F20C30A9F54441C2F200004FF4FA223D
:103FE00080E81600C0E90344C0E90554C461FEF747
:103FF00049FC28B1EFF3108072B600BFFEE700BFA6
:1040000040F29410A9F55041C2F200004FF48272C0
:1040100000244FF4007380E816000A21C0E903442D
:10402000C0E90543C461C0E90844C0E90A41FDF79D
:1040300017FD28B1EFF3108072B600BFFEE700BF96
:1040400040F23420C2F200004FF080414FF6FF737F
:104050001B94CDE91944CDE912444FF4E15280E8B4
:104060001600C0E903348461FDF7DCFD20B1EFF3F5
:10407000108072B6FEE700BF4FF48050189040F2F7
:104080003420C2F2000018A9FDF702FF20B1EFF3BF
:10409000108072B6FEE700BF40F23426C2F200067E
:1040A00012A93046FDF77EFD20B1EFF3108072B605
:1040B000FEE700BF40F25430A9F54041C2F20000D3
:1040C00000240C234FF4E13280E81600C0E90344D9
:1040D000C0E90534C461FEF7D5FB18B1EFF31080D9
:1040E00072B6FEE740F27C20A9F58231C2F20000F0
:1040F0004FF6FF731B94CDE91944CDE9124448F6FD
:10410000A04280E81600C0E903348461FDF78AFD0F
:1041100020B1EFF3108072B6FEE700BF4FF480507D
:10412000189040F27C20C2F2000018A9FDF7B0FE02
:1041300020B1EFF3108072B6FEE700BF40F27C20A2
:10414000C2F2000012A9FDF72DFD18B1EFF31080A7
:1041500072B6FEE740F2EC1048F28C1840F2001400
:10416000C2F20000C4F22128C4F22124FDF724FE8B
:104170004FF000094FF0010BC8F82490C8F82C90BC
:10418000C8F814B0C8F808B0C8F804B0C8F800B04F
:10419000C4F8BCB0C4F8B0B0C4F8ACB0C8F818B03B
:1041A000FFF7F4F8C4F8A0B040F2D804C2F200045B
:1041B00040F254300225E11DC2F2000001222572B6
:1041C0001191FEF791FC40F2C420C2F2000021469A
:1041D00001222572FEF788FC40F20C30E11CC2F28D
:1041E00000000122FEF780FC30684FF6DC7141626E
:1041F0003046FDF715FE40F20007C2F2000707E067
:104200000020C5F8BC00C5F8B000C5F8AC00A0742B
:1042100094F8270000285BD094F82900002857D193
:10422000022020720FF29C400D210A22FCF70EF8AA
:10423000032084F82800607E30B1607E20B1607E6B
:1042400010B1607E0028F6D14FF4FA7084F829B0DE
:10425000FCF716FF022084F819B0207284F828B009
:1042600040F254301199C2F200000122FEF73CFCEA
:1042700048F24670C0F60000222122220D230A26B1
:104280000096FBF7E3FFA07D30B9A07D20B9A07DAB
:1042900010B9A07D0028F6D00FF63C701A21FBF76C
:1042A000D5FF032084F8169084F82800607E30B192
:1042B000607E20B1607E10B1607E0028F6D10FF6DE
:1042C0002C700D210A22FBF7C1FF032084F828007F
:1042D000E07A40F2541BC2F2000B28B9CBF81890D8
:1042E000C4F84490C4F85090A07B002804BFC4F8E0
:1042F0005890C4E91A99607C00284FF0040004BF6C
:10430000C4F87490CBE902992072B878012840F083
:104310009780E67A7D7965F07F07F8B2FFF716F9A6
:1043200045F08400C0B2FFF711F907F0FB00FFF77A
:104330000DF940F20000C2F2000045792846FFF76F
:1043400005F945F00400FFF701F905F0FB00FFF760
:10435000FDF80FF6E860FBF779FF40F20000C2F2CB
:104360000000457965F03F07F8B2FFF7EFF845F038
:10437000C400C0B2FFF7EAF807F0FB0040F2000704
:10438000C2F20007FFF7E2F87D792846FFF7DEF872
:1043900045F00400FFF7DAF805F0FB00FFF7D6F868
:1043A000012E40F09781616C48F28A50C0F60000FF
:1043B000FBF74CFF7D7965F06F06F0B2FFF7C6F8AA
:1043C00045F09400C0B2FFF7C1F806F0FB00FFF71C
:1043D000BDF87D7945F04006F0B2FFF7B7F845F03B
:1043E0004400C0B2FFF7B2F806F0FB00FFF7AEF8EA
:1043F000216D48F27D50C0F60000FBF727FF7D7964
:1044000065F02F06F0B2FFF7A1F845F0D400C0B276
:10441000FFF79CF806F0FB00FFF798F87D7945F070
:104420004006F0B2FFF792F845F04400C0B2FFF743
:104430008DF806F0FB00FFF789F8DBF8180033E190
:10444000B878022840F09680A67B7D7965F07F07DA
:10445000F8B2FFF77BF845F08400C0B2FFF776F8BA
:1044600007F0FB00FFF772F840F20000C2F2000014
:1044700045792846FFF76AF845F00400FFF766F82B
:1044800005F0FB00FFF762F80FF6C050FBF7DEFE09
:1044900040F20000C2F20000457965F03F07F8B233
:1044A000FFF754F845F0C400C0B2FFF74FF807F02B
:1044B000FB0040F20007C2F20007FFF747F87D79E2
:1044C0002846FFF743F845F00400FFF73FF805F0F2
:1044D000FB00FFF73BF8012E40F0FC80A16E48F294
:1044E0008A50C0F60000FBF7B1FE7D7965F06F06DB
:1044F000F0B2FFF72BF845F09400C0B2FFF726F8B2
:1045000006F0FB00FFF722F87D7945F04006F0B297
:10451000FFF71CF845F04400C0B2FFF717F806F0AB
:10452000FB00FFF713F8E16E48F27D50C0F6000083
:10453000FBF78CFE7D7965F02F06F0B2FFF706F8E9
:1045400045F0D400C0B2FFF701F806F0FB00FEF71B
:10455000FDFF7D7945F04006F0B2FEF7F7FF45F02C
:104560004400C0B2FEF7F2FF06F0FB00FEF7EEFFDC
:10457000A06D99E0B878032840F0F880667C7D79DA
:1045800065F07F07F8B2FEF7E1FF45F08400C0B2A6
:10459000FEF7DCFF07F0FB00FEF7D8FF40F200005B
:1045A000C2F2000045792846FEF7D0FF45F004002E
:1045B000FEF7CCFF05F0FB00FEF7C8FF0FF69C40AE
:1045C000FBF744FE40F20000C2F20000457965F0BE
:1045D0003F07F8B2FEF7BAFF45F0C400C0B2FEF7DD
:1045E000B5FF07F0FB0040F20007C2F20007FEF73C
:1045F000ADFF7D792846FEF7A9FF45F00400FEF7E0
:10460000A5FF05F0FB00FEF7A1FF012E62D1DBF84C
:10461000081048F28A50C0F60000FBF717FE7D79BB
:1046200065F06F06F0B2FEF791FF45F09400C0B25E
:10463000FEF78CFF06F0FB00FEF788FF7D7945F062
:104640004006F0B2FEF782FF45F04400C0B2FEF72C
:104650007DFF06F0FB00FEF779FFDBF80C1048F257
:104660007D50C0F60000FBF7F1FD7D7965F02F0667
:10467000F0B2FEF76BFF45F0D400C0B2FEF766FF64
:1046800006F0FB00FEF762FF7D7945F04006F0B2D0
:10469000FEF75CFF45F04400C0B2FEF757FF06F09E
:1046A000FB00FEF753FF606F03F07EFA024648F20C
:1046B0009750C0F600000B46DF210091FBF7C6FDC6
:1046C00054E000BF41542B434D47463D31256325FF
:1046D0006300000048F26F59C0F600094846FBF736
:1046E000B5FD7D7965F06F06F0B2FEF72FFF45F05E
:1046F0009400C0B2FEF72AFF06F0FB00FEF726FF8B
:104700007D7945F04006F0B2FEF720FF45F0440009
:10471000C0B2FEF71BFF06F0FB00FEF717FF48F2E2
:10472000A650C0F60000FBF791FD7D7965F02F06DD
:10473000F0B2FEF70BFF45F0D400C0B2FEF706FF63
:1047400006F0FB00FEF702FF7D7945F04006F0B26F
:10475000FEF7FCFE45F04400C0B2FEF7F7FE06F09F
:10476000FB00FEF7F3FE4846FBF770FD7D7965F030
:104770007F06F0B2FEF7EAFE45F08400C0B2FEF715
:10478000E5FE06F0FB00FEF7E1FE7D7965F01F0611
:10479000F0B2FEF7DBFE45F0E400C0B2FEF7D6FE55
:1047A00006F0FB00FEF7D2FED8F814000FF6BC218D
:1047B00000280FF6C02008BF0846FBF747FD7D79AB
:1047C00065F03F06F0B2FEF7C1FE45F0C400C0B28E
:1047D000FEF7BCFE06F0FB00FEF7B8FE7D7965F043
:1047E0001F06F0B2FEF7B2FE45F0E400C0B2FEF7DD
:1047F000ADFE06F0FB00FEF7A9FED8F808000FF6A4
:104800007C2100280FF67C2008BF0846FBF71EFD20
:104810007D7965F05F06F0B2FEF798FE45F0A400E2
:10482000C0B2FEF793FE06F0FB00FEF78FFE7D7927
:1048300045F02006F0B2FEF789FE45F02400C0B234
:10484000FEF784FE06F0FB00FEF780FED8F80400B9
:104850000FF6382100280FF63C2008BF0846FBF76A
:10486000F5FC7D7965F01F06F0B2FEF76FFE45F0AE
:10487000E400C0B2FEF76AFE06F0FB00FEF766FE3B
:104880007D7945F02006F0B2FEF760FE45F0240089
:10489000C0B2FEF75BFE06F0FB00FEF757FED8F84D
:1048A00000000FF6F81100280FF6F81008BF0846B0
:1048B000FBF7CCFCE07D012800F05881E07D022868
:1048C00000F01582E07D032840F0C28097F8440094
:1048D00048F2A06349F6B066C0F20103CFF6AE76A7
:1048E00097F8451000FB036042F2107897F84620D5
:1048F00001FB08004FF47A7697F8473002FB060078
:1049000097F84810642503FB050001EB810197F837
:10491000492000EB41001044206703F0FFFA00211A
:10492000C4F2483103F076FB4FF0565103F072FBAE
:104930000021CCF2482103F063F9606797F84A0040
:1049400097F84B1097F84C20694300FB061002EBD8
:10495000820297F84D1000EB420008444DF25001DE
:10496000401ACBF8000003F0D9FA01464CF20000DF
:10497000C4F27F4003F0DCF90021CBF6807103F034
:104980003FF90021C4F2201103F044FBCBF80400EE
:1049900003F00AF94EF2481944F2AE7AC1F27A49AC
:1049A000C4F20D0A4A46534602F0D4FB01F05CFD06
:1049B0000B46002102460020C3F6F47103F006F80E
:1049C0004CF6CD46CCF6CC464CF6CC433246C3F63C
:1049D000DC7302F0BFFB5D4640F2000BC4F2240B17
:1049E00002460B460020594601F0B0FD02F048FD9A
:1049F000404528BF40466968A860084603F0D4F8DF
:104A00004A46534602F0A6FB01F02EFD0B464CF63B
:104A1000CC4102463046C3F6F87102F0D7FF45F6A6
:104A2000294242F6F503CCF28F22C3F6DC7302F082
:104A300091FB02460B4600205946AB4601F086FD2D
:104A400002F01EFD404528BF4046E8600020E075AA
:104A50003879DBF818A04FF0000803F05FFA05463C
:104A60005046294603F03CF968BB40F20000C2F210
:104A70000000676CD0F810B05F4524D8216D8669BE
:104A8000B14220D8A06D89462946109003F028F93C
:104A9000C8B9A06E58450F9015D8E06EB0420E9080
:104AA00011D8606F29460D9003F01AF958B940F2F9
:104AB0005410C2F2000085685D4504D8D0F80CB0EF
:104AC000B34540F2DB81607D48F28C1840F200155E
:104AD00040F200070228C4F22128C4F221254FF039
:104AE00000094FF0010BC2F2000718D040F201207C
:104AF00084F81890A08248F23E70C0F6000053215E
:104B000001225023C8F8189084F808B0FBF79EFBE8
:104B1000607D012800F07A82022840F0FE8384F84C
:104B200014B094F82900002800F0F983207E0028B2
:104B300040F0F583607E002840F0F183022084F885
:104B400019B0207284F8280040F254301199C2F252
:104B500000000122FDF7C8FF48F22370C0F60000F4
:104B60000D210A22FBF772FBD9E300BF387F48F220
:104B7000A06349F6B066C0F20103CFF6AE76797F46
:104B800000FB036042F21078BA7F01FB08004FF48B
:104B90007A76FB7F02FB060097F82010642503FB62
:104BA000050001EB810197F8212000EB4100104442
:104BB000E06303F0B3F90021C4F2483103F02AFAAC
:104BC0004FF0565103F026FA0021CCF2482103F0B1
:104BD00017F8CBF8180097F8220097F8231097F8E9
:104BE0002420694300FB061002EB820297F825108F
:104BF00000EB420008444DF25001401AA06403F05B
:104C00008DF901464CF20000C4F27F4003F090F8A9
:104C10000021CBF6807102F0F3FF0021C4F22011D5
:104C200003F0F8F9E06402F0BFFF4EF2481544F2D9
:104C3000AE76C1F27A45C4F20D062A46334602F03A
:104C400089FA01F011FC0B46002102460020C3F650
:104C5000F47102F0BBFE4CF6CD4ACCF6CC4A4CF6D1
:104C6000CC435246C3F6DC7302F074FAD94640F2E4
:104C7000000BC4F2240B02460B460020594601F0FB
:104C800065FC02F0FDFB404528BF4046E16C6064D6
:104C9000084602F089FF2A46334602F05BFA01F02B
:104CA000E3FB0B464CF6CC4102465046C3F6F87186
:104CB000002502F08BFE45F6294242F6F503CCF2C0
:104CC0008F22C3F6DC7302F045FA02460B46002041
:104CD0005946CB4601F03AFC02F0D2FB404528BFD2
:104CE00040462065E575E07D02287FF4EBAD97F83E
:104CF000300048F2A06349F6B066C0F20103CFF677
:104D0000AE7697F8311000FB036042F2107897F806
:104D1000322001FB08004FF47A7697F8333002FB1B
:104D2000060097F83410642503FB050001EB8101B0
:104D300097F8352000EB41001044606503F0EEF871
:104D40000021C4F2483103F065F94FF0565103F0E9
:104D500061F90021CCF2482102F052FFA06597F8DA
:104D6000360097F8371097F83820694300FB061093
:104D700002EB820297F8391000EB420008444DF232
:104D80005001401A206603F0C9F801464CF20000B9
:104D9000C4F27F4002F0CCFF0021CBF6807102F01C
:104DA0002FFF0021C4F2201103F034F9606602F0F5
:104DB000FBFE4EF2481944F2AE7AC1F27A49C4F2CF
:104DC0000D0A4A46534602F0C5F901F04DFB0B4669
:104DD000002102460020C3F6F47102F0F7FD4CF604
:104DE000CD46CCF6CC464CF6CC433246C3F6DC730B
:104DF00002F0B0F95D4640F2000BC4F2240B02460B
:104E00000B460020594601F0A1FB02F039FB40455A
:104E100028BF4046616EA066084602F0C5FE4A46BD
:104E200053464FF0000902F095F901F01DFB0B46C7
:104E30004CF6CC4102463046C3F6F87102F0C6FD8E
:104E400045F6294242F6F503CCF28F22C3F6DC7315
:104E500002F080F902460B4600205946AB4601F0AD
:104E600075FB02F00DFB404528BF4046E06684F824
:104E70001790E07D03283FF429ADE9E540F20000FA
:104E8000C2F20000C07803F049F8064650463146A9
:104E900002F026FFA0B1256C0021284602F012FF87
:104EA00040B95046294603F081F94FF0804102F0A5
:104EB00025FFC0B90120C4F840A084F82A0012E000
:104EC00040F20000C2F20000C068874209D840F2F8
:104ED0000001C2F2000149698B4598BF854240F24A
:104EE000E581C4F840801098314602F007FFA8B968
:104EF000E56D0021284602F0E5FE40B910982946EC
:104F000003F054F94FF0804102F0F8FE40B91098D8
:104F1000E065012084F82B0002E000BFC4F85C804B
:104F20000D98314602F0EAFEA0B9A56F002128468F
:104F300002F0C8FE40B90D98294603F037F94FF04A
:104F4000804102F0DBFE38B90D98A067012084F89B
:104F50002C0001E0C4F87880607D022800F04E81CA
:104F600048F28C1840F2001540F200070028C4F205
:104F70002128C4F221254FF000094FF0010BC2F2A5
:104F800000077FF4C6AD84F815B094F82900E8B3A3
:104F9000607E00287FF4BCAD022084F819B0207236
:104FA00084F828B040F254301199C2F20000012276
:104FB000FDF79AFD48F24670C0F600002221222239
:104FC0000D230A270097FBF741F9A07D30B9A07D9A
:104FD00020B9A07D10B9A07D0028F6D0032084F868
:104FE00028000FF65C001A21FBF730F94FF000099A
:104FF00048F28C1840F2001584F81690C4F221286B
:10500000C4F221254FF0010B13E100BF84F8149086
:1050100094F82900002800F08281607E002840F08A
:105020007E8194F82A000127C8B3022084F82A90D0
:10503000207284F8287040F254301199C2F20000B6
:105040000122FDF751FD48F24670C0F60000222112
:1050500022220D230A260096FBF7F8F8A07D30B92E
:10506000A07D20B9A07D10B9A07D0028F6D0032036
:1050700084F82800D4E91005266D02F095FD02465B
:1050800048F2FA50C0F600000B461A21CDE900564E
:105090000291FBF7DBF84FF0000984F8169094F8C2
:1050A0002B00C8B3022084F82B90207284F828705B
:1050B00040F254301199C2F200000122FDF714FDB4
:1050C00048F24670C0F60000222122220D230A2752
:1050D0000097FBF7BBF8A07D30B9A07D20B9A07D7B
:1050E00010B9A07D0028F6D0032084F82800E06DD8
:1050F000D4E91A5602F058FD024648F24C60C0F658
:1051000000000B461A21CDE900560291FBF79EF8EC
:105110004FF0000984F8169094F82C0048F28C188F
:1051200040F2001540F200070028C4F22128C4F222
:1051300021254FF0010BC2F2000700F0F0800220A1
:1051400084F82C90207284F828B040F254301199E1
:10515000C2F200000122FDF7C7FC48F24670C0F61B
:105160000000222122220D230A270097FBF76EF868
:10517000A07D30B9A07D20B9A07D10B9A07D002808
:10518000F6D0032084F82800A06F02F00DFD02463F
:1051900040F25410C2F20000C3688068CDE90003F9
:1051A00048F29E60C0F600000B461A210291FBF700
:1051B0004DF848F28C1840F2001540F200074FF00D
:1051C0000009C4F22128C4F221254FF0010BC2F2DC
:1051D000000784F81690A2E053797374656D206916
:1051E00073204163746976652563000041542B4345
:1051F0004D47443D312C34256325630048F28C181B
:1052000048F23E704FF0010BC4F22128C0F60000B6
:1052100053210022502384F815B0C8F818B084F840
:1052200008B0FBF713F840F20015C4F221254FF047
:10523000000940F20007C2F2000769E44E4F4445FE
:1052400020313A2020202020202000004E4F4445CD
:1052500020323A2020202020202000004E4F4445BC
:1052600020333A20202020202020000044313A2002
:105270004F4E000044313A4F4646000044323A2037
:105280004F4E000044323A4F4646000044333A2025
:105290004F4E000044333A4F4646000044343A2013
:1052A0004F4E000044343A4F464600000E9A8A4260
:1052B0003FF617AE0F9A82423FF613AE89453FF68E
:1052C00010AE1098314602F00BFD00287FF409AEB5
:1052D0000D98314602F004FD00287FF402AE607D97
:1052E00048F28C1840F2001540F200074FF0000918
:1052F000C4F22128C4F221254FF0010BC2F20007AD
:10530000012804BF012084F8320084F81590C4F805
:105310004090C4F85C90C4F8789084F8149094F8A5
:105320002D00E8B394F82900C0B3607EB0BB022022
:10533000207284F828B040F254301199C2F2000073
:105340000122FDF7D1FB48F24670C0F60000222191
:1053500022220D230A260096FAF778FFA07D30B9A5
:10536000A07D20B9A07D10B9A07D0028F6D0032033
:1053700084F82800E07A48F2F061012848F2B3503E
:10538000C0F60000C0F6000108BF08461A21FAF76F
:105390005DFFC82084F81690FBF772FE84F82D900C
:1053A00094F82E00E8B394F82900C0B3607EB0BB37
:1053B0000220207284F828B040F254301199C2F2D1
:1053C00000000122FDF790FB48F24670C0F6000095
:1053D000222122220D230A260096FAF737FFA07D0C
:1053E00030B9A07D20B9A07D10B9A07D0028F6D0ED
:1053F000032084F82800A07B48F2FC61012848F2D1
:10540000C050C0F60000C0F6000108BF08461A21CF
:10541000FAF71CFFC82084F81690FBF731FE84F8D9
:105420002E9094F82F00E8B394F82900C0B3607E62
:10543000B0BB0220207284F828B040F25430119999
:10544000C2F200000122FDF74FFB48F24670C0F6A1
:105450000000222122220D230A260096FAF7F6FEEA
:10546000A07D30B9A07D20B9A07D10B9A07D002815
:10547000F6D0032084F82800607C48F20D710128E2
:1054800048F2D250C0F60000C0F6000108BF08463E
:105490001A21FAF7DBFEC82084F81690FBF7F0FD1E
:1054A00084F82F9094F83200A0B394F8290078B3D0
:1054B000607E68BB022084F819B0207284F828B09E
:1054C00040F254301199C2F200000122FDF70CFBAA
:1054D00048F24670C0F60000222122220D230A263F
:1054E0000096FAF7B3FEA07D30B9A07D20B9A07D6B
:1054F00010B9A07D0028F6D0032084F8280048F2D7
:10550000E950C0F600001A21FAF7A0FE84F81690C0
:1055100084F8329084F808B02868A8B90A20FBF70C
:10552000AFFD286880B9286830B9286820B9286894
:1055300010B928680028F6D0B8780130B870B8786B
:10554000042828BF87F802B0686828BB0A20FBF748
:1055500097FD686800BB686830B9686820B96868FA
:1055600010B968680028F6D0D8F814005023C0435A
:10557000C8F81400D8F81400A179B0FA80F04009F6
:1055800021F001010844A071C2B248F23670C0F6A1
:1055900000005321FAF75AFE286930BB0A20FBF7B6
:1055A0006FFD286908BB286930B9286920B92869C6
:1055B00010B928690028F6D0D8F808005023C04355
:1055C000C8F80800D8F80800A179B0FA80F04009BE
:1055D00021F0020141EA4000A071C2B248F23670E7
:1055E000C0F600005321FAF731FE686930BB0A208B
:1055F000FBF746FD686908BB686930B9686920B97E
:10560000686910B968690028F6D0D8F804005023FA
:10561000C043C8F80400D8F80400A179B0FA80F0BB
:10562000400921F0040141EA8000A071C2B248F2B1
:105630003670C0F600005321FAF708FEA86930BBA7
:105640000A20FBF71DFDA86908BBA86930B9A86945
:1056500020B9A86910B9A8690028F6D0D8F80000C8
:105660005023C043C8F80000D8F80000A179B0FA70
:1056700080F0400921F0080141EAC000A071C2B2E7
:1056800048F23670C0F600005321FAF7DFFDE869F2
:1056900000BB207DF0B90A20FBF7F2FCE869C8B92D
:1056A000E86930B9E86920B9E86910B9E869002803
:1056B000F6D0D8F818005321C043C8F81800D8F81D
:1056C000180050232BEA000248F23E70C0F600009A
:1056D000FAF7BCFD94F8300040B148F23E70C0F6D5
:1056E0000000532101225023FAF7B0FDA07947F2C0
:1056F00007522BEA0001C8F8141000F002018BEAEF
:105700005101C8F8081000F0040100F008008BEA0D
:1057100091018BEAD000C8F80410C8F80000A06B13
:105720004AF68B710130C8F6F8214143C0F250723D
:105730009142A06350D840F25412C2F20002D2E962
:105740000510D2E9027301F10109CDE90D73C2F828
:10575000149084F808B002F027FACDE90F10A06D7C
:10576000A16ED4F844B0D4F850800C9102F01CFA29
:105770000746606FD4F86CA00D4602F015FA0E468D
:105780000D99069008910E9948F26170CDE90919BA
:1057900050210B910C99DDE90F32CDF8048048F2CD
:1057A0008C18029740F20007039540F20015CDE9EE
:1057B000041AC0F600005321CDF800B04FF0010BE1
:1057C000C4F22128C2F20007C4F221254FF00009DB
:1057D0000796FAF73BFDA06B4CF6CD41CCF6CC41D9
:1057E000484349F699114FEA7000C1F69911884271
:1057F0003EF60EADA07C01283EF402ADA07C002850
:105800007EF406ADE07A48F28C18002808BFC5F88F
:10581000BCB0A07B40F20007002808BFC5F8B0B0BC
:10582000607CC4F2212800284FF001004FF00009ED
:10583000C2F2000708BFC5F8AC00FEF7E8BC00BF25
:105840005741524E494E47204C4556454C20312534
:10585000630000005FEA400C08BF91F0000F4FEAC0
:105860008C234FEAC12243EA51514FEA1C5018BF22
:1058700000F5F0404FEA300018BF41F000415FEA08
:105880006C5C00F02980BCF1FF3F08BF40F0804015
:105890007047130C06BF12044FF0100C4FF0000CB1
:1058A000130E04BF12020CF1080C130F04BF1201F7
:1058B0000CF1040C930F04BF92000CF1020CD30FF7
:1058C00004BF52000CF1010C11464FF00002A0F190
:1058D0001F00A0EB0C00704711F0004F08BF70478D
:1058E00031F000413FF4D5AF0B0C06BF09044FF077
:1058F000100C4FF0000C0B0E04BF09020CF1080C49
:105900000B0F04BF09010CF1040C8B0F04BF8900BD
:105910000CF1020CCB0F04BF49000CF1010CCCF1CF
:10592000200322FA03F341EA030102FA0CF2A0EB8E
:105930000C0000F10100704723F07F4720F07F4CFE
:1059400080EA030000F00040ACEB070303F57C5352
:1059500003F1FF032DE9804909B44FEA144324EA17
:1059600003484FEA154B25EA0B4E0FF2042606EBCF
:1059700013273E7803FB0667C7F5000707FB06F60B
:105980004FEAD64606F102064FEA543707FB066C8B
:10599000CCF1005C4FEA1C472CEA074C0CFB06F5E7
:1059A00007FB06F404EB15464FEA961649085FEA32
:1059B000320234BF00204FF000404FEAD13706FBDF
:1059C00007FC4FEA1C4C0CFB0BF7D21B03FB0CF73C
:1059D00061EB07010CFB0EF7B0EB074072EB1742CF
:1059E0000CFB08F734BFA2EB0742B2EB074261EBB6
:1059F00017414FEA0C444FEA910706FB07FC4FEAB8
:105A00001C4C0CFB0BF7B0EBC74072EB573203FB9F
:105A10000CF734BFA2EBC742B2EBC74261EB573180
:105A20000CFB0EF7B0EBC70072EB57720CFB08F7DC
:105A300034BFA2EBC702B2EBC70261EB57714FEA6A
:105A4000816141EA92114FEA826242EA90124FEA82
:105A5000806004EBCC04039F4FEAD13706FB07FCC0
:105A60004FEA1C4C0CFB0BF7D21B03FB0CF761EB52
:105A700007010CFB0EF7B0EB074072EB17420CFB73
:105A800008F734BFA2EB0742B2EB074261EB1741C4
:105A90004FEA8C5504EB9C244FEA910706FB07FC68
:105AA0004FEA1C4C0CFB0BF7B0EBC74072EB5732C4
:105AB00003FB0CF734BFA2EBC742B2EBC74261EB6A
:105AC00057310CFB0EF7B0EBC70072EB57720CFBB3
:105AD00008F734BFA2EBC702B2EBC70261EB577104
