:020000040800F2
:10000000980900200D020008AD350008F133000802
:10001000A93500087D0F00089D3D00080000000084
:10002000000000000000000000000000493C000843
:10003000810F000800000000B13500084D3C0008A9
:1000400027020008270200082702000827020008EC
:1000500027020008270200082702000827020008DC
:1000600027020008270200082702000827020008CC
:1000700027020008270200082702000827020008BC
:1000800027020008270200082702000827020008AC
:10009000270200082702000827020008270200089C
:1000A000270200082702000827020008270200088C
:1000B000553C0008613C00082702000827020008A0
:1000C000270200082702000827020008270200086C
:1000D00027020008793D0008853D0008913D000891
:1000E00027020008270200082702000800F002F893
:1000F00000F07DF814A696E8000CB244B344DA454B
:1001000001D100F074F8BAE80F000FA696E83000AD
:10011000A5EB040504EB0607AAEB0704A7F101070A
:100120004FEA15154FEA3414A4F10104AC4201D38F
:1001300000F05DF813F0010F18BFFB1A43F0010344
:1001400000F001F8DBE718474087000060870000F7
:10015000103A24BF78C878C1FAD8520724BF30C8F3
:1001600030C144BF04680C60704700007047000055
:100170000023002400250026103A28BF78C1FBD8B0
:10018000520728BF30C148BF0B607047662908F08E
:100190002481692900F0C880642900F0C580752990
:1001A00000F0C2806F2900F05981782900F0808129
:1001B0000368DB0928BF41F08001632900F0E78470
:1001C000E32900F00D85002070471FB500F040FDC9
:1001D00004000020002106F049FF401C6060002060
:1001E000002106F02DFFE0601FBD10B510BD00F02E
:1001F0004FFE1146FFF7E9FF03F028FE00F06DFE09
:1002000003B4FFF7F2FF03BC00F0B0FE09488047DB
:1002100009480047FEE7FEE7FEE7FEE7FEE7FEE7E8
:10022000FEE7FEE7FEE7FEE704480549054A064B00
:1002300070470000513C0008ED00000898030020C2
:100240009809002098050020980500200FB4044963
:1002500010B503AA029800F0A7FC10BC5DF814FBCF
:10026000CC01002070B5044685690068C10601D53F
:10027000302600E02026C00707D070BDD4E9012158
:1002800030469047206A401C20626D1EF6D570BD36
:1002900070B5044685690078C00707D170BDD4E900
:1002A000012120209047206A401C20626D1EF6D557
:1002B00070BD09684A0501D540B27047C905FCD533
:1002C00000B2704709684A0501D5C0B27047C90538
:1002D000FCD580B2704770B50C460546012A05D0A2
:1002E0002878800600D5EA69002302E0012305E0B2
:1002F0005B1C934202D2E05C0028F9D1A869E618A1
:10030000C01AA861286A184428622846FFF7AAFF85
:1003100004E0D5E9012114F8010B9047B442F8D369
:100320002846FFF7B5FF70BD2DE9F04106460024D1
:1003300010687529314616A510D0FFF7BAFF0028BE
:1003400002DA404213A507E031688A0701D512A5F9
:1003500002E0490704D511A5012401E0FFF7B2FF2F
:1003600000210A2206F1240709E0B0FBF2FCB0FBF1
:10037000F2F302FB1C00303078541846491C002868
:10038000F3D123462A463046BDE8F04100F08EB94D
:10039000000000002D0000002B00000020000000E5
:1003A0002DE9FF5F15468A460446DFF8AC80F84425
:1003B0000027D8E900103E46CDE9001010E03AF8D9
:1003C00016106A4602A800F017FC411C07D02178DD
:1003D000890603D5E269391891420DD80744761C85
:1003E0002078800602D5E069B84205DDAE42E6DB42
:1003F0003AF816000028E2D1A069C01BA06120468F
:10040000FFF730FFD8E90010CDE90010002017E019
:100410003AF818106A4602A800F0EEFBB0F1FF3F70
:1004200081460BD000250DF1080B05E0D4E9012130
:100430001BF8050090476D1C4D45F7D308F10100EE
:10044000B0428046E4DB206A384420622046FFF751
:100450001FFFBDE8FF9F00001E81000070B504462D
:1004600021461068FFF72EFF002104F1240505E066
:1004700000F007023032C0086A54491C0028F7D146
:100480002068002308A2050708D500F020000843D3
:1004900004D0E069012305A2401EE0612046BDE8CA
:1004A000704000F003B900000000000030000000C0
:1004B00070B504460D4621461068FFF703FF2188FA
:1004C000090502D50F4A7A4402E00E4A7A440E32F8
:1004D000002104F1240305E000F00F060009965DF9
:1004E0005E54491C0028F7D120780023000704D56A
:1004F000702D02D009B1022311322046BDE87040B0
:1005000000F0D4B80E8000002DE9F05F8946044663
:100510004FF0000ADFF874B1FB44C0F820A0204679
:10052000E1688847002874D0252806D0D4E9012145
:100530009047206A401C2062F1E700265F46204673
:10054000E16888472028054607DB312D05D2781958
:1005500010F8200C08B10643F1E7B00701D526F0EA
:100560000406C4F81CA00027C4F818A02A2D09D03E
:10057000284605F021FE38B304EB8708303DC8F863
:10058000185019E059F8041B204604EB87029161CA
:10059000E1688847012F054618D1E069002820DA74
:1005A00026F020061DE0D8F8180000EB800005EBCF
:1005B00040003038C8F818002046E16888470546F2
:1005C00005F0FAFD0028EED1012F0AD02E2D08D11A
:1005D0002046E16888477F1C0546022F46F020062A
:1005E000C4DBA069002803DA404246F00106A0619E
:1005F000F00701D026F010066C2D0BD0682D09D025
:100600004C2D39D06A2D35D0742D35D07A2D33D07C
:1006100016E038E0E1682F4620468847B842054694
:1006200009D16C2F26D04FF48060E1680643204644
:100630008847054604E06C2F1AD04FF480700643BB
:100640000DB3A5F14100192802D8203546F4006603
:100650004A462946204626604E46FFF797FD80B160
:1006600001280BD0F61D26F0070000F1080956E717
:100670004020E4E78020D8E70020D6E706F104090F
:100680004DE7284652E7206ABDE8F09FE47F00006E
:1006900070477047704710B500F0DEFA006810BD73
:1006A00010B5044600F0D8FA046010BD2DE9F047FB
:1006B0000D4699469246044600F1240801688806D2
:1006C00004D5E06921F01001216000E00120A8427A
:1006D00001DD471B00E00027A1697A1902EB090040
:1006E000081AA0612078C00602D42046FFF7BAFDA0
:1006F000002608E0D4E901211AF806009047206A94
:10070000401C761C20624E45F4DB2078C0060AD5DA
:100710002046FFF7A7FD06E0D4E9012130209047ED
:10072000206A401C2062381EA7F10107F4DC07E0B4
:10073000D4E9012118F805009047206A401C206286
:10074000281EA5F10105F3DC2046FFF7A1FD207866
:10075000000602D50220BDE8F0870120FBE72DE965
:10076000FF4F0C461E464FF0FF378BB0D2E9000119
:10077000DDF860800A908A46C1F30A5505B93D4606
:10078000002108464FF00000BAF1000F00F44000CD
:1007900005DA00EB80004FF4400101EA50004FEA17
:1007A0009059B9F1010F00DDB9460A9850EA4A00A4
:1007B0000ED044F61050A5F2FF3545432F14B8F182
:1007C000000F1ED07542291E1EDDC9F100021CE07B
:1007D000B8F1010F4FF0000001D0302103E0F243E7
:1007E00005E02154401CB042FBDB304600220021D2
:1007F00021540B99C1F80880C1E900200FB0BDE871
:10080000F08FBD1B6D1CDEE74A4600DA694206A880
:1008100000F0C4FA06AB93E8070003AB83E80700D7
:1008200050460A9905F074F88DE80700A0F50050CD
:100830001F3800900398002D0ADD42F21F014A463E
:100840000844002303A90390684605F0DDFA09E097
:10085000A0F500504A461F38002303A903906846BC
:1008600005F0E7FA8DE807000004000C03D04FF014
:10087000FF30410800E01046B8F1000F03D000221D
:10088000009215461EE0751E05D400F0E9F93032DD
:1008900062556D1EF9D5B3460122084302D00022ED
:1008A0007F1C04E02078302801D100227F1E002A1E
:1008B000099784D01DE0112D07DA00F0D1F930320C
:1008C00062556D1C50EA0102F5D1084302D0009830
:1008D000C8B10EE00021681E05E0235C625C635431
:1008E0002254401E491C8142F7DBAB46A81B401E28
:1008F0000990002004F80B000B98099AC0F80880B2
:10090000C0E9002B7AE711264FF0000857E72DE9E0
:10091000F04F88460446D21D22F0070191B0D1E97C
:100920000001CDE90A0105F0BBFB02460B98C00FA0
:1009300001D02D2007E02068810701D52B2002E09F
:10094000202101EAC000032A099001D0072A05DB13
:1009500003464146204600F0E1F90BE1207880068D
:1009600001D5E06900E00620B8F1650F814606D0A8
:10097000B8F1660F18D0B8F1670F70D131E00020E0
:10098000B9F1110F009001DB112301E009F101031E
:100990000AAA01A90CA8FFF7E2FEDDE90C70002607
:1009A00009F10105834647E001204B4600904FF0D6
:1009B00000470AAA01A90CA8FFF7D1FEDDE90DB096
:1009C0000C995D46002610B909F101000D18B9EB2C
:1009D000050003D4C0F1FF3609F10105A5EB0900BC
:1009E0002BE0B9F1010F01DA4FF001090020B9F154
:1009F000110F0090484601DD112300E003460AAACA
:100A000001A90CA8FFF7ABFEDDE90C704D460026EE
:100A10008346207800070AD4AB4500DA5D4601A87A
:100A2000012D04DD411911F8011C302907D04F4573
:100A300002DA17F1040F04DA012082460FE06D1E7E
:100A4000EEE7002F02DCED1B3E4403E0781CA842D9
:100A500000DD7D1CB81B00F1010A4FF00047207833
:100A6000000703D4AA4501DB4FF0FF3A0021B7F19C
:100A7000004F0DF143088DF8431024D002202B23A2
:100A8000002F01DA7F422D230A21021EA0F101006E
:100A900000DC5FB197FBF1FC97FBF1F201FB1C7CE2
:100AA00017460CF1300C08F801CDEEE7A8F1010073
:100AB00003702188090501D5452100E06521A0F1D9
:100AC000010800F8011C09980FA9A1EB0807FF1DF8
:100AD00000B10120411901EBEA70A1693844081AFC
:100AE000401EA0612078C00602D42046FFF7BAFB62
:100AF000099828B1D4E901219047206A401C20625E
:100B00002078C00622D52046FFF7ACFB1EE0002E61
:100B100004DBB34502DD01A8805D00E03020D4E9AC
:100B200001219047206A401C2062761CAAF1010036
:100B30005FEA000A0AD100F08BF8C0680168405CE7
:100B4000D4E901219047206A401C2062281EA5F1AB
:100B50000105DCDC07E0D4E9012118F8010B90471E
:100B6000206A401C2062381EA7F10107F3DC2046F2
:100B7000FFF78EFB032011B041E610B5436913B1B6
:100B8000AFF3008001E0FFF7A6FB012010BD127853
:100B900000F124010A7000224A700122EDE7116879
:100BA0004FF0FF32E9E70000074B70B50D467B447C
:100BB00000F0A1F80446284600F062F910B14FF0A9
:100BC000FF3070BD204670BDEF31000010B54369A5
:100BD00013B1AFF3008001E0FFF7E2FB012010BD8D
:100BE000128800F1240182840022C2840122EDE7F0
:100BF00011684FF0FF32E9E72DE9F04116460C4647
:100C0000054600F01DF8036893F80101012807D09C
:100C1000FF2C12D8185D80B101202C70BDE8F08146
:100C2000D3F807013246214603F20713C7182846B6
:100C3000BC46BDE8F041002360474FF0FF30EDE7D0
:100C400010B500F005F8001D10BD00BF21640000C4
:100C50000048704798000020004870477800002046
:100C600030B5B0F10A0271F100034FEA900E4EEA7E
:100C7000817EB0EB0E0061EB91014FEA101E4EEA4F
:100C8000017E10EB0E0041EB11114FEA102E4EEADF
:100C9000016E10EB0E0041EB11214FEA104E4EEAAF
:100CA000014E10EB0E0041EB1141401841F10001E3
:100CB0004FEAD00040EA41704FEAD1014FEA810487
:100CC00044EA907410EB800544EB01046D1944EB89
:100CD0000404521BA3414FF0000348BF0A3200D561
:100CE00030BD401C41F1000130BD000001694A1CCB
:100CF00002610878704700B58FB0CDE9013100215D
:100D0000059105497944CDE9031011466846FFF77E
:100D1000FBFB0FB000BD0000E5FFFFFF2DE9F04138
:100D20001F46044603260168072A01F4006004DB1D
:100D300008B116A505E016A503E008B115A500E069
:100D400015A521F010002060A069C01EA0610FB1A0
:100D5000401EA0612046FFF785FA4FB1D4E901217A
:100D600038469047206A401C2062C01C206206E082
:100D7000206AFAE7D4E9012115F8010B9047761EA5
:100D8000F8D22046FFF784FABDE8F0814E414E00CC
:100D90006E616E00494E4600696E66002DE9F047AF
:100DA000814616468AB0354878440DC88DE80D0056
:100DB00032487844801C03AC0DC884E80D0041F62D
:100DC0009B300844372190FBF1F290FBF1F5A5F13F
:100DD000800501FB12041B3C02D56442012000E0A7
:100DE0000020DFF898A080460027FA44AAF1BE0A46
:100DF0000EE0E0070AD03246684607EB47010123C0
:100E00000AEB810105F015F88DE8070064107F1CDE
:100E1000002CEED1194F7F44AE3F19E0E80715D002
:100E200007EB04100DF1180A90E80E008AE80E0096
:100E3000C068F04201D1981908903246012306A9F2
:100E400003A804F0F6FF03AB83E807006D10641CF1
:100E5000002DE3D14FF0010332466946B8F1000F8F
:100E600003A802D004F0D0FF01E004F0E2FFC9E9DA
:100E70000001C9F808200AB0BDE8F087B07800008A
:100E8000007B00F080007047004870477800002029
:100E90007546FFF7F9FFAE4605006946534620F058
:100EA0000700854618B020B5FFF7BEF9BDE8204021
:100EB0004FF000064FF000074FF000084FF0000B16
:100EC000AC46ACE8C009ACE8C009ACE8C009ACE885
:100ED000C00921F007018D46704710B50446AFF3F5
:100EE00000802046BDE81040FFF78AB94FF0013C72
:100EF00050F8042B51F8043B9A4221D1A2EB0C0389
:100F0000934313EACC1317D150F8042B51F8043B48
:100F10009A4215D1A2EB0C03934313EACC130BD1E5
:100F200050F8042B51F8043B9A4209D1A2EB0C0370
:100F3000934313EACC13DBD04FF00000704700BF9F
:100F4000D01A01BAB1FA81F101F0180122FA01F0C8
:100F5000CB40DBB2C0B2C01AC1F120012CFA01F3C0
:100F6000D11A914311EAC311E6D170470149182003
:100F7000ABBEFEE72600020070470000FEE700005F
:100F800070470000014690F82100022816D1086839
:100F9000D1E90FC3026822F00E020260026822F05B
:100FA00001020260012000FA03F2CCF8042081F86B
:100FB00021000020002281F820207047042088634F
:100FC0000120002281F820207047000090F82110B5
:100FD000022923D10268116821F00E0111602F212E
:100FE0001368C4F202018A4240F20401C4F2020111
:100FF00023F00103136015DD3023C4F202039A428B
:101000001CD04423C4F202039A421BD05823C4F2DA
:1010100002039A421CD14FF4803321E00421816302
:10102000012070470823C4F202039A420ED01C2309
:10103000C4F202039A420BD1102311E04FF48073E3
:101040000EE000BF4FF480530AE000BF012307E029
:1010500001F1680C4FF08073624508BF4FF48013B4
:101060000B60012180F82110426B002180F82010D4
:1010700022B180B590470021BDE880400846704706
:10108000B0B5044600F01EF9054640F25800C2F221
:1010900000000078611C18BF044400BF00F012F982
:1010A000401BA042FAD3B0BD2DE9F04F82B00E68CC
:1010B000002E00F0FD8041F20042C4F20102042340
:1010C00040F2004E904208BF03234FF6FF7CC4F26B
:1010D000010E009300240123C1F2100C4FF0000A0E
:1010E0004FF0000944E000BF012704F00C030F2279
:1010F0009A402BEA020207FA03F34FEA9A051A43D1
:1011000046F825204E6840F20C45F202DEF8082031
:1011100054BF22EA080242EA0802C4F20105CEF8EE
:1011200008202A68B30254BF22EA080242EA0802F1
:101130002A60B303DEF8042054BF22EA080242EA20
:101140000802F303CEF80420DEF800204FF001037C
:1011500054BF22EA080242EA0802CEF800200E68D4
:101160000AF1010A36FA0AF204F1040400F0A08040
:1011700003FA0AFB16EA0B08F1D04E68664511DC4B
:10118000122E55D8DFE806F0340A4448545454541B
:101190005454545454545454544C5000D1F80C905A
:1011A00046E000BF4FF6FF72C1F2210296420FDC0B
:1011B0000022C1F2110296421AD00022C1F212029C
:1011C000964215D00022C1F22102964210D02FE0A3
:1011D0000022C1F2220296420AD00022C1F231025C
:1011E000964205D00022C1F23202964220D100BFC1
:1011F0008A684AB1012A14BFC0F814B0C0F810B010
:101200004FF0080914E000BF4FF0040910E000BFE0
:10121000CA6802F108090BE04FF0000908E000BFBE
:10122000CA6802F1040903E0CA6802F10C0900BFB0
:1012300022460646B8F5807F24BF203A0436376838
:101240000F25954027EA050509FA02F22A43326084
:10125000CA79D2067FF583AF41F21803C4F20203C4
:101260001A68AEF57E7642F001021A601A6802F042
:1012700001020192019A2AF0030256F802B040F6E8
:101280000002C4F20102904210D040F60042C4F2C3
:10129000010290423FF428AF41F20002C4F2010281
:1012A000009F904208BF02271FE700BF00271CE7EE
:1012B00002B0BDE8F08F0000002A08BF09040161F8
:1012C0007047000040F29030C2F2000000687047A2
:1012D00040F2580040F29031C2F20000C2F2000128
:1012E00000780A68104408607047000080B542F238
:1012F0000000C4F20200016841F010010160032007
:1013000000F08CF80F2000F005F800F027F800201E
:1013100080BD000070B540F25806C2F2000640F2EF
:1013200060013278C2F200014FF47A730968B3FBAE
:10133000F2F20446B1FBF2F1084600F019FC0F2C62
:101340004FF0010508D838B94FF0FF302146002290
:10135000002500F037F87460284670BD82B041F275
:101360001800C4F202000168022241F0010101608C
:10137000016801F0010101910199416841F080513A
:101380004160406800F08050009000980420C4F252
:101390000100016862F31A61016002B07047000049
:1013A000002848BF704700F01F01012202FA01F136
:1013B0001C2202EAD0004EF20012CEF2000281504E
:1013C0007047000010B54EF60C5CCEF2000CDCF855
:1013D0000030C3F3022E8EF00704042C28BF04242F
:1013E000BEF103034FF0FF3E0EFA04F438BF0023B2
:1013F000A14399400EFA03F39A43114300F00F0200
:1014000000F160430901043A03F564436244002893
:1014100048BF02F10C03197010BD00004EF60C51CC
:10142000CEF200010A684FF6FF031A4060F30A2269
:1014300042F0806040F0FD7008607047002804BFF3
:10144000012070472DE9F04381B042F20008C4F258
:1014500002080446D8F800000D4600F00700884254
:101460000CD2D8F8000020F007002843C8F800008C
:10147000D8F8000000F00700A8426ED1206841F2C1
:1014800004098107C4F2020917D5410705D5D9F827
:10149000001041F4E061C9F80010010705D5D9F842
:1014A000001041F46051C9F80010D9F80010A2688A
:1014B00021F0F0011143C9F80010C00744D1D8F859
:1014C000000000F00700A8420CD9D8F8000020F076
:1014D00007002843C8F80000D8F8000000F0070013
:1014E000A8423AD12068410707D5D9F80010E26830
:1014F00021F4E0611143C9F80010000708D5D9F8BC
:101500000000216920F4605040EAC100C9F80000E1
:10151000D9F8001042F2004001F00C02042AC0F297
:10152000F40059D0082A45D148F29C63C1F38342A4
:10153000C0F600039A5CC90342D440F60010C0F222
:101540003D00504348E000BF606802280AD00128EF
:101550002AD159F8041C890308D4012001B0BDE840
:10156000F08300BF59F8041C8901F6D5D9F80010A2
:1015700021F003010843C9F80000FFF7A3FE064667
:1015800041F28837D9F80000616800F00C00B0EB38
:10159000810F94D0FFF796FE801BB842F2D903204A
:1015A00001B0BDE8F08300BF59F8041C8907D4D509
:1015B000DCE700BF41F20020C0F27A000CE000BF7F
:1015C000D9F8001048F28C63C1F34041C0F6000323
:1015D000595C5043B0FBF1F0D9F8001048F2746246
:1015E000C1F30311C0F60002515C40F2600220FA20
:1015F00001F140F25C00C2F200000068C2F2000299
:101600001160FFF787FE002001B0BDE8F083000005
:1016100040F2600041F20401C2F20000C4F2020193
:101620000068096848F28462C1F30221C0F6000232
:10163000515CC8407047000040F2600041F2040174
:10164000C2F20000C4F202010068096848F2846234
:10165000C1F3C221C0F60002515CC84070470000CF
:10166000002804BF012070472DE9F04182B00446F4
:10167000007841F20006C007C4F202060CD0706880
:1016800000F00C00042840F081803068800303D50E
:101690006068002800F04E81207880071BD57068B4
:1016A00010F00C0F09D0706800F00C00082840F012
:1016B0008B807068C00300F187803068800703D595
:1016C0002069012840F036813068616920F0F80017
:1016D00040EAC10030602078000713D4207840072A
:1016E0002CD4E569002D00F02081706800F00C001A
:1016F000082840F0AF80012D40F00C81012002B09D
:10170000BDE8F081A069002800F08C800020C4F2C0
:1017100042200121C0F88014FFF7D4FD054600BF28
:10172000706A800700F1BA80FFF7CCFD401B0228E9
:10173000F6D9032002B0BDE8F08100BFF0695FEA8E
:10174000C00808D4F06940F08050F061F06900F002
:1017500080500090009847F20007C4F200073868F4
:10176000C0054DD4386840F480703860FFF7AAFD9A
:10177000054600BF3868C00542D4FFF7A3FD401BF3
:101780006428F7D9032002B0BDE8F081706800F04A
:101790000C00082803D17068C0033FF576AF60687D
:1017A000002800F00981B0F5A02F00F01D81B0F5F0
:1017B000803F00F01D81306820F480303060306858
:1017C00020F4802017E100BF2069002840F20000CB
:1017D000C4F2422000F08C8001210160FFF772FD0D
:1017E000054600BF306880073FF56EAFFFF76AFD22
:1017F000401B0228F6D9032002B0BDE8F08100BFEB
:10180000E068002800F09A80052800F0B1800128E7
:1018100000F0B280306A20F001003062306A20F0BF
:101820000400ACE00020C4F242200021C0F8801483
:10183000FFF748FD054600BF706A80077FF54EAF91
:10184000FFF740FD401B0228F6D9032002B0BDE897
:10185000F08100BF0027C4F2422700203866FFF75E
:1018600031FD022D05460DD13068800140F1D68052
:10187000FFF728FD401B02284FF00300F4D902B007
:10188000BDE8F081306880014FD5FFF71BFD401B9C
:1018900002284FF00300F5D9F1E700BF40F26000E5
:1018A000C2F20000006844F6D351C1F26201A0FB0D
:1018B0000101480A019000BF00BF0198411E0028A5
:1018C00001913FF40BAF00BF0198411E0028019128
:1018D0003FF404AF00BF0198411E002801913FF47E
:1018E000FDAE00BF0198411E00280191E4D1F5E64C
:1018F00000210160FFF7E6FC054600BF3068800765
:101900007FF5E9AEFFF7DEFC401B02284FF0030035
:10191000F4D9B4E77068216A00F480328A4209D1B0
:10192000616A00F47010884204D1002002B0BDE862
:10193000F08100BF012002B0BDE8F081306A20F0E4
:1019400001003062306A20F004003062FFF7BAFC18
:10195000054641F2883700BF306A800722D5FFF77D
:10196000B1FC401BB8424FF00300F5D987E700BF38
:10197000306A40F004003062306A40F001003062AA
:10198000FFF7A0FC054641F2883700BF306A8007A8
:1019900008D4FFF797FC401BB842F7D9032002B0E8
:1019A000BDE8F081B8F1000F3FF59BAEF06920F083
:1019B0008050F06195E600BF306820F480303060E0
:1019C000306820F480203060FFF77CFC054600BFC3
:1019D000306880037FF560AEFFF774FC401B64281D
:1019E0004FF00300F4D94AE7306840F480203060BB
:1019F000306840F480303060FFF764FC054600BF7B
:101A0000306880033FF548AEFFF75CFC401B64285C
:101A1000F6D9032002B0BDE8F08100BF206AB0F51E
:101A2000803F05D17168A26821F4003111437160D3
:101A30007168626A21F474111143084370600120D7
:101A40003866FFF73FFC0446306880013FF56DAF14
:101A5000FFF738FC001B02284FF00300F4D90EE713
:101A600070B538B10446406A30B10020206104F1FD
:101A7000140007E0012070BD6068B0F5827F03D0DC
:101A800004F11C00002101600026A66294F85100B8
:101A900020B9204684F8506000F038F8022084F81D
:101AA000510094E8071001F48271036802F40442C3
:101AB00023F040030360236911440CF400621144D5
:101AC00003F002026369114403F00102A369E569AE
:101AD000114403F40072114405F03802256A1144E0
:101AE00005F08002A56A114305F40052114301601C
:101AF000042101EA13414160C16921F40061C1611F
:101B00000120666584F85100304670BD80B586B00E
:101B100043F600010068C4F20001002288420492EA
:101B200002D006B080BD00BF41F21800C4F202002E
:101B3000426842F480424260426802F4804201926C
:101B4000019A026842F008020260006800F0080092
:101B5000019001984FF4204002900220039003204E
:101B6000059001F5544002A9FFF79EFA06B080BD2A
:101B7000411E0020B0EB116F1CBF012070474EF2D8
:101B80001002CEF2000251604EF62351CEF2000157
:101B9000F0230B70072190601160704770470000C0
:101BA0007047000090F83C20012A4FF0020236D026
:101BB00010B580F83D200268D2F804E0D2F808C0E1
:101BC0000C682EF07003234340F2FF74C4F200044B
:101BD000A24253600ADCB2F1804F13D040F20043BE
:101BE000C4F200039A420DD011E000BF42F6004358
:101BF000C4F201039A4205D040F60003C4F2000388
:101C00009A4204D149682CF0800319439160012164
:101C1000002280F83D1080F83C20BDE810401046BE
:101C200070470000002804BF0120704710B504462B
:101C300090F83D0028B9002084F83C00204600F0D0
:101C400067F8022084F83D00206840F2FF730268C4
:101C5000C4F2000342F6004C9842C4F2010C15DCB9
:101C6000B0F1804F1AD040F20041C4F20001884226
:101C700014D0984218DCB0F1804F1DD040F20041E2
:101C8000C4F20001884217D01AE000BF604505D0B9
:101C900040F60001C4F200018842EAD1A16822F0B6
:101CA00070020A439842E6DD604505D040F6000127
:101CB000C4F20001884203D1216922F440720A4330
:101CC000A36922F08001D4F804E0E268194360457A
:101CD0000160C262C0F828E002D16169CCF830101E
:101CE00001214161002084F8461084F83E1084F8F8
:101CF0003F1084F8401084F8411084F8421084F8B2
:101D0000431084F8441084F8451084F83D1010BD49
:101D100080B584B00068B0F1804F1DD040F2004122
:101D2000C4F2000188422FD042F60041C4F2010102
:101D300088420FD141F21C00C4F2020050F8041C8A
:101D400041F4006140F8041C50F8040C00F40060F9
:101D50000390039804B080BD41F21C00C4F202005D
:101D60000168002241F00101016000680E2100F0CD
:101D70000100029002981C20FFF724FB1C2004B0F5
:101D8000BDE88040FFF70CBB41F21C00C4F202002A
:101D90000168002241F00201016000680D2100F09D
:101DA0000200019001981D20FFF70CFB1D2004B0DC
:101DB000BDE88040FFF7F4BA90F83D1001291CBF40
:101DC00001207047022180F83D10006840F2FF7149
:101DD000C4F20001884209DCB0F1804F12D040F219
:101DE0000041C4F2000188420CD012E042F60041EA
:101DF000C4F20101884205D040F60001C4F200019E
:101E0000884206D1816801F00701062904BF00203D
:101E10007047016841F00101016000207047000037
:101E200090F83D1001291CBF01207047022180F865
:101E30003D10006840F2FF72C168C4F20002904297
:101E400041F00101C16009DCB0F1804F12D040F2D5
:101E50000041C4F2000188420CD012E042F6004179
:101E6000C4F20101884205D040F60001C4F200012D
:101E7000884206D1816801F00701062904BF0020CD
:101E80007047016841F001010160002070470000C7
:101E900090F83C20012A4FF0020200F0C58080B586
:101EA00080F83D20D0F800C04FF67772DCF808309B
:101EB00023EA0202CCF808200B684F2B28DC1F2BEA
:101EC00044DD202B45D0302B43D0402B40F0AE805A
:101ED000D1F804E0C968DCF82030DCF8202022F0DA
:101EE0000102CCF82020DCF8182022F0F00242EAAF
:101EF000011123F00A0242EA0E02CCF81810CCF8C5
:101F00002020DCF8081041F0470121F0300180E08A
:101F10006F2B27DDB3F5005F48D0B3F5805F7AD033
:101F2000702B40F08380D1E901E3C968DCF8082018
:101F300043EA0E0322F47F4243EA01211143CCF825
:101F40000810DCF8081041F0770162E00BB1102BAB
:101F50006CD1DCF8081021F07001194341F0070141
:101F600057E000BF502B35D0602B5FD1D1F804E093
:101F7000C968DCF82030DCF8202022F01002CCF810
:101F80002020DCF8182022F4704242EA013123F0CC
:101F9000A00242EA0E12CCF81810CCF82020DCF88F
:101FA000081041F0670121F0100132E0D1E901E3AE
:101FB000C968DCF8082043EA0E0322F47F4243EAB2
:101FC00001211143CCF80810DCF8081041F48041DD
:101FD0001FE000BFD1F804E0C968DCF82030DCF86D
:101FE000202022F00102CCF82020DCF8182022F07A
:101FF000F00242EA011123F00A0242EA0E02CCF892
:102000001810CCF82020DCF8081041F0570121F01E
:102010002001CCF808100022012180F83D10002199
:1020200080F83C10BDE88040104670470122F3E77D
:102030007047000010B5016804460869800744BF76
:10204000C8685FEA807039D40869400744BFC8682F
:102050005FEA40703ED40869000744BFC8685FEA81
:10206000007045D40869C00644BFC8685FEAC06014
:102070004AD40869C0071CBFC8685FEAC07051D164
:102080000869000644BFC8685FEA006052D4086966
:10209000400644BFC8685FEA406053D408698006C0
:1020A00046BFC8685FEA806010BD6FF0200220461E
:1020B0000A61BDE81040FFF773BD00BF6FF002007A
:1020C0000861012020778869800743D02046FFF708
:1020D000AFFF45E06FF004000861022020778869B7
:1020E00010F4407F40D02046FFF7A2FF42E000BF3F
:1020F0006FF00800086104202077C86980073DD090
:102100002046FFF795FF3FE06FF0100008610820C0
:102110002077C86910F4407F3AD02046FFF788FF47
:102120003CE000BF6FF001000861204600F03EF87F
:102130002168A5E76FF0800008612046FFF72EFDBB
:102140002168A4E76FF040000861204600F0DCF849
:102150002168A3E7204600F025F8204600F024F887
:102160002168002020776FE7204600F01BF820460A
:1021700000F01AF82168002020776CE7204600F074
:1021800011F8204600F010F821680020207769E758
:10219000204600F007F8204600F006F821680020ED
:1021A000207766E770470000704700000068B0F1D4
:1021B000804F18BF704710B540F20004C2F200040F
:1021C0002078032822D002283ED0012860D1312077
:1021D000E07140F2B820A11DC2F2000003224FF0CE
:1021E000FF3300F0C7FF40F2D800C2F20000002128
:1021F0004172C17B002979D010F8111F0029A0F18C
:1022000001013FD100F11D023AE000BF3320E0712F
:1022100040F2B820A11DC2F2000003224FF0FF33AC
:1022200000F0A8FF40F2D800C2F200000021C17304
:10223000017B00293ED010F80E1F0029A0F10101FA
:1022400020D100F11F021BE03220E07140F2B820E3
:10225000A11DC2F2000003224FF0FF3300F08AFFFD
:1022600040F2D800C2F2000000210173417A79B334
:1022700010F80B1F0029A0F1010103D100F1210288
:1022800001231370024608460121117000210170DC
:1022900020780130C1B2032988BF0120207040F2AC
:1022A0002820C2F2000000684FF23B614162BDE8A5
:1022B00010407047417B01314173417B627891420C
:1022C000E6D910F80E1F0129E0D100F11F02DBE76B
:1022D000817A01318172817A62789142D8D910F87D
:1022E0000B1F0129D2D100F12102CDE7017C013180
:1022F0000174017C62789142CAD910F8111F01293A
:10230000C4D100F11D02BFE7704700007047000014
:1023100070470000B0B582B0044600680168C36829
:10232000426901F02F05202D03F0200506D12DB1C3
:10233000204602B0BDE8B04001F09EBC5FEA017CDF
:102340001EBF02F0010E03F4907212EB0E0243D195
:10235000226BCD0618D5012A16D113F0100213D026
:102360000021019101680191416801910199406941
:1023700040063BD4A08DE18DE28D002A18BF884233
:1023800040F0F28102B0B0BD0A0640F1E78013F0E0
:10239000800200F0E38094F841102129F2D1A16875
:1023A000B1F5805F03D12169002900F06382216AC1
:1023B0004A1C226209784160E18C01390A04E184F7
:1023C000E0D1C16821F08001C160C16841F04001E5
:1023D000C16002B0B0BD00BFCA0718BF13F480725D
:1023E00040F0D0804A0700F1D380D8E0E06B01686C
:1023F00049688AB2002AC5D0A38D9A42C2D2E1852B
:102400008069202800F09E80206850E8030F216832
:1024100020F4807041E80302DAB1206850E8030F2D
:10242000216820F4807041E8030292B1206850E8EE
:10243000030F216820F4807041E803024AB120684C
:1024400050E8030F216820F4807041E80302002A5D
:10245000DAD1206850E8050F216820F0010041E83A
:102460000502C2B3206850E8050F216820F0010082
:1024700041E805027AB3206850E8050F216820F092
:10248000010041E8050232B3206850E8050F2168D9
:1024900020F0010041E80502002ADAD11BE000BF6C
:1024A000206850E8050F216820F0400041E805024F
:1024B000DAB1206850E8050F216820F0400041E8BB
:1024C000050292B1206850E8050F216820F0400015
:1024D00041E805024AB1206850E8050F216820F064
:1024E000400041E80502002ADAD1202084F84200A9
:1024F00000202063206850E8030F216820F01000BE
:1025000041E80302DAB1206850E8030F216820F0A7
:10251000100041E8030292B1206850E8030F2168DF
:1025200020F0100041E803024AB1206850E8030F90
:10253000216820F0100041E80302002ADAD1E06BA4
:10254000FEF720FD02206063A08DE18D401A81B26C
:10255000204602B0BDE8B040FFF7D8BE49067FF57F
:1025600011AF13F040013FF40DAFC16821F04001FD
:10257000C1602021204684F8411002B0BDE8B0407F
:1025800000F034BF626C42F0010262644A0706D573
:10259000BEF1000F03D0626C42F0020262648A074F
:1025A00006D5BEF1000F03D0626C42F004026264F3
:1025B000BCF1000F06D55EEA050203D0626C42F062
:1025C00008026264626C002A3FF4DCAE890604D51E
:1025D0001DB1204601F050FB20684069616C00F09D
:1025E000400001F00801401800F0B680206850E873
:1025F000030F216820F4907041E80302BAB3206809
:1026000050E8030F216820F4907041E8030272B390
:10261000206850E8030F216820F4907041E803021D
:102620002AB3206850E8030F216820F4907041E835
:102630000302002ADAD11AE0206850E8050F216869
:1026400020F0010041E80502DAB1206850E8050FEA
:10265000216820F0010041E8050292B1206850E8AD
:10266000050F216820F0010041E805024AB1206809
:1026700050E8050F216820F0010041E80502002A1A
:10268000DAD1206B012824D1206850E8030F21689B
:1026900020F0100041E80302DAB1206850E8030F8F
:1026A000216820F0100041E8030292B1206850E850
:1026B000030F216820F0100041E803024AB12068AE
:1026C00050E8030F216820F0100041E80302002ABF
:1026D000DAD1202084F8420000202063206840697D
:1026E000400640F1C180206850E8050F216820F0C5
:1026F000400041E80502DAB1206850E8050F216882
:1027000020F0400041E8050292B1206850E8050F32
:10271000216820F0400041E805024AB1206850E8F5
:10272000050F216820F0400041E80502002ADAD1B7
:10273000E06B002800F0988043F66D41C0F6000180
:102740004163FEF743FC00283FF41CAEE06B416B95
:1027500002B0BDE8B04008472046FFF7D9FD002091
:10276000606402B0B0BD00BF401A00BF216851E8EC
:10277000031F226821F4907142E80313BBB3216860
:1027800051E8031F226821F4907142E8031373B3E8
:10279000216851E8031F226821F4907142E8031375
:1027A0002BB3216851E8031F226821F4907142E89D
:1027B0000313002BDAD11AE0216851E8051F2268C3
:1027C00021F0010142E80513DBB1216851E8051F42
:1027D000226821F0010142E8051393B1216851E814
:1027E000051F226821F0010142E805134BB1216861
:1027F00051E8051F226821F0010142E80513002B72
:10280000DAD1202184F8421000212163216851E8A7
:10281000031F226821F0100142E80313DBB1216895
:1028200051E8031F226821F0100142E8031393B11D
:10283000216851E8031F226821F0100142E80313C8
:102840004BB1216851E8031F226821F0100142E8D2
:102850000313002BDAD1022281B22046626302B058
:10286000BDE8B040FFF752BD204602B0BDE8B04021
:10287000FFF74EBD216A31F8022B6FF35F224260F1
:10288000216299E5002804BF0120704710B5044675
:1028900090F8410028B9002084F84000204600F05C
:1028A00063F8242084F841002068D4E90212C36848
:1028B00023F40053C360036923F440531A430261B5
:1028C000D4E904231143C268194341F20C639A43CB
:1028D0001143C1604169A26921F44071114343F67B
:1028E0000002C4F201029042416103D0FEF790FE63
:1028F00002E000BFFEF7A0FED4E9002319214843FF
:102900009900B0FBF1F048F21F5CC5F2EB1CA0FB94
:102910000C314FF69C734909C0F6FF7301FB0300AD
:10292000322303EB0010A0FB0C03F02000EA53104D
:1029300000EB0110C3F3431108449060106920219B
:1029400020F490401061506920F02A005061D06856
:1029500040F40050D0600020606484F8411084F896
:102960004210606310BD000070B586B0006844F28C
:102970000041C4F20001002688420596CDE90366B5
:10298000029641D044F60001C4F2000188426DD0A5
:1029900043F60001C4F20101884240F0A28041F2F6
:1029A0001800C4F20200016840F6000441F48041BE
:1029B00001600168C4F2010401F4804101910199B0
:1029C000016802AD41F0040101600068294600F091
:1029D0000400019001984FF40070029002200390CF
:1029E000032005902046FEF75FFB4FF480600290C5
:1029F0000020CDE9030020462946FEF755FB25209F
:102A000002210022252467E041F21800C4F20200EE
:102A1000416840F6000441F4003141604168C4F26D
:102A2000010401F4003101910199016802AD41F006
:102A3000040101600068294600F00400019001983B
:102A40000420029002200390032005902046FEF708
:102A50002BFB0820CDE90206204629460496FEF706
:102A600023FB262000210022262435E041F2180015
:102A7000C4F20200416802AD41F480214160416826
:102A800001F4802101910199016841F00801016080
:102A90000068294600F00800019001984FF480601A
:102AA0000290022003900320059040F60000C4F23B
:102AB000010000F580642046FEF7F6FA4FF400604E
:102AC00002900020CDE9030020462946FEF7ECFAEB
:102AD0002720012100222724FEF774FC2046FEF760
:102AE0005FFC06B070BD000090F84230202B07D18B
:102AF00000294FF0010318BF002A05D1184670477E
:102B000002231846704700BF00230363816222211D
:102B10008285C285436480F842100169006819B15A
:102B2000C16841F48071C160416941F001014161B6
:102B3000C16841F02001C160184670472DE9F04F8F
:102B400087B0006844F20041C4F20001884219D005
:102B500044F60001C4F20001884221D043F600018E
:102B6000C4F20101884240F0918240F2D800C2F2E2
:102B70000000017853293FD101218170411C0020C0
:102B800008701FE140F2D800C2F20000C17853295A
:102B900048D101214171011D00220A7025E100BFC9
:102BA00040F2D805C2F2000595F8270000284FD062
:102BB00095F8270001286FD1E8793E2840F034824B
:102BC00040F25410C2F20000006B0021416242F258
:102BD0000F7142F2107200BF436A8B4208D8436AF9
:102BE0008B4205D8436A8B4202D8436A9342F3D39F
:102BF0000120A87518E200BF8278502900F0DE801D
:102C0000012A40F0DB80427840F25413C2F2000304
:102C100013449976511CCAB20F2A417040F2D280F7
:102C2000811CACE74279502900F0DA80012A40F09B
:102C3000D780037940F254174278C2F200071F444C
:102C40003974591C032A017140F2CF80811CA3E71B
:102C5000E879502804D101212977002185F8211035
:102C6000297F002900F0E08195F8211048F2AF6239
:102C7000C0F60002515C81421CBF0020287795F805
:102C80002100013085F8210095F82100072824BF94
:102C9000012085F82600C7E195F82700022840F0BA
:102CA000AF80E879422803D10121A9760021E97794
:102CB000A97E89B1E97F48F28E62C0F60002515CBC
:102CC00081421CBF0021A976E97F0131E977E97FC4
:102CD000052924BF01212976432804D10121E97661
:102CE000002185F82010E97E002900F09D8195F8EB
:102CF000201048F29462C0F60002515C81421CBF71
:102D00000020E87695F82000013085F8200095F83D
:102D100020000728C0F08881002140F25410697615
:102D2000C2F20000006B4EF6602241624EF65F2157
:102D3000436A8B4208D8436A8B4205D8436A8B4268
:102D400002D8436A9342F3D3002141624EF65F21D9
:102D50004EF66022436A8B4208D8436A8B4205D8FC
:102D6000436A8B4202D8436A9342F3D30021416203
:102D70004EF65F214EF66022436A8B4208D8436AC2
:102D80008B4205D8436A8B4202D8436A9342F3D3FD
:102D9000002141624EF65F214EF66022436A8B426B
:102DA00000F24281436A8B4200F23E81436A8B42C9
:102DB00000F23A81436A9342F0D335E1502908BFCB
:102DC000012A45D040F2B82040F2D801C2F20000FA
:102DD000C2F20001012207B0BDE8F04FFFF784BE48
:102DE000502908BF012A00F0A780C11C40F2003022
:102DF000C2F20000012207B0BDE8F04FFFF774BE39
:102E000095F82700032840F0AD80E8794F2804D1D9
:102E100001216977002185F82210697F002900F0DF
:102E2000038195F8221048F2AC62C0F60002515CB2
:102E3000814240F0F58095F82200013085F82200AB
:102E400095F822000228C0F0EF8005F11900E9E0B2
:102E500040F25412C2F20002937E591ECFB2022FEA
:102E600000F102013FF68BAE9EA454F8274094A6D1
:102E700006949FA454F8274056F827C005949FA4B1
:102E800054F827E0A0A454F82780A2A454F827906F
:102E9000A3A454F827A0A5A454F827B0A6A454F8D6
:102EA00027408AA60494A7A454F827408AA503942F
:102EB000A7A454F8274056F827600294A7A454F812
:102EC000274055F827500194A7A454F827700124EF
:102ED0008CF80040C375D07E3070107F2870507F12
:102EE000069B1870907F059B1870D07F8EF80000AD
:102EF00092F8200088F8000092F8210089F800007C
:102F000092F822008AF8000092F823008BF8000063
:102F100092F82400049B187092F82500039B187007
:102F200092F82600029B187092F82700019B1870F7
:102F300092F82800387022E640F25411C2F20001E3
:102F40000B7C4A7C432B00F1050180F8303080F87F
:102F5000312075D0572B75D0462B7FF41DAE00F174
:102F6000130371E095F82700042840F08F8095F84E
:102F7000240000286AD0032085F82500E8790D2870
:102F800040F08880002085F8250095F8230040F265
:102F9000640BC2F2000B1BF800002C2839D040F261
:102FA00000084FF0000AC4F2240895F8250004F048
:102FB00039FB95F8232081461BF802000E46303875
:102FC00004F019FB07465FFA8AF00C4604F02AFB6E
:102FD00002460B460020414603F016FB02460B4614
:102FE0003846214604F06EFB4A46334604F054F856
:102FF00004F0A4FA85F8250095F823000AF1010AE7
:10300000013885F8230095F823001BF800002C28D0
:10301000CBD1002085F82400687607B0BDE8F08F9A
:1030200005F11D000021017040F24830E91DC2F297
:103030000000012207B0BDE8F04FFFF755BD00BF0B
:10304000831D01E000F114031A70A5E5E8794D280D
:1030500005D101216976A977002185F82310A97F80
:10306000A1B195F8231040F26402C2F20002515C53
:1030700081421FD195F82300013085F8230095F88F
:103080002200052802D3012085F8240007B0BDE8FE
:10309000F08F00BF95F8231040F26402013185F8EB
:1030A000231095F82310C2F20002505407B0BDE877
:1030B000F08F00BF0020A87707B0BDE8F08F00BFF9
:1030C000E1000020E4000020E70000201C000020B8
:1030D00030000020440000201D00002031000020AE
:1030E000450000201E000020320000204600002085
:1030F0001F00002033000020470000202000002097
:10310000340000204800002021000020350000206D
:103110004900002022000020360000204A00002044
:1031200023000020370000204B0000202400002056
:10313000380000204C00002025000020390000202D
:103140004D000020260000203A0000204E00002004
:10315000270000203B0000204F0000202800002016
:103160003C00002050000020290000203D000020ED
:10317000510000202DE9F04381B0044690F8410051
:10318000202840F0B180884600294FF0010000F06F
:10319000D6801646002A00F0D280002060642120EC
:1031A0001D4684F84100FEF78DF8A684E684A168E8
:1031B0000646B1F5805F03D12069002800F09880B1
:1031C00047464FF00008E18C2068002900F0968007
:1031D00005F101090BE000BF47B317F8011B41607F
:1031E000E18C0139E184E18C002900F087800168DD
:1031F0000906F1D4B9F1000F0AD0EDB1FEF762F87B
:10320000801BA84218D8206801680906F6D5E3E7B4
:1032100001680906E0D4016809065CBF01685FEA3D
:103220000161D9D401680906F2D5D5E738F8021B47
:1032300000276FF35F21D2E7206850E8030F216871
:1032400020F4D07041E80302BAB3206850E8030FBD
:10325000216820F4D07041E8030272B3206850E87E
:10326000030F216820F4D07041E803022AB32068DC
:1032700050E8030F216820F4D07041E80302002ACF
:10328000DAD11AE0206850E8050F216820F001002B
:1032900041E80502DAB1206850E8050F216820F006
:1032A000010041E8050292B1206850E8050F21684D
:1032B00020F0010041E805024AB1206850E8050FFE
:1032C000216820F0010041E80502002ADAD120201F
:1032D00084F8410084F84200002084F84000032074
:1032E00001B0BDE8F08300BF022001B0BDE8F0836B
:1032F0000027E18C206800297FF46AAF0168490645
:1033000019D4FDB1691C0DD10168490613D40168B7
:1033100049065CBF01685FEA41610CD40168490657
:10332000F2D508E0FDF7CEFF801BA8420AD820683E
:1033300000684006F6D5202084F84100002001B046
:10334000BDE8F083206850E8030F216820F4D070B6
:1033500041E80302002A3ED0206850E8030F2168AC
:1033600020F4D07041E80302AAB3206850E8030FAC
:10337000216820F4D07041E8030262B3206850E86D
:10338000030F216820F4D07041E80302002AD9D14C
:1033900021E000BF206850E8050F216820F00100FF
:1033A00041E80502002A3FF492AF206850E8050F7B
:1033B000216820F0010041E80502002A3FF487AFB0
:1033C000206850E8050F216820F0010041E805025F
:1033D000002A3FF47CAF206850E8050F216820F0F8
:1033E000010041E80502002AD4D170E770470000CF
:1033F000FEE7000070B51420FDF742FE40F2000524
:10340000C2F200056C7944F03006F0B200F0D2F858
:1034100044F03400C0B200F0CDF806F0FB0000F03C
:10342000C9F80520FDF72CFE6C7944F03006F0B2A7
:1034300000F0C0F844F03400C0B200F0BBF806F071
:10344000FB0000F0B7F80120FDF71AFE6C7944F09C
:103450003006F0B200F0AEF844F03400C0B200F034
:10346000A9F806F0FB0000F0A5F86C7944F02006FE
:10347000F0B200F09FF844F02400C0B200F09AF8D7
:1034800006F0FB0000F096F86C7944F02006F0B2EC
:1034900000F090F844F02400C0B200F08BF806F081
:1034A000FB0000F087F86C7964F07F06F0B200F062
:1034B00081F844F08400C0B200F07CF806F0FB0014
:1034C00000F078F86C79204600F074F844F00400BD
:1034D00000F070F804F0FB0000F06CF86C7964F018
:1034E0007F06F0B200F066F844F08400C0B200F04D
:1034F00061F806F0FB0000F05DF86C79204600F002
:1035000059F844F0040000F055F804F0FB0000F016
:1035100051F86C7944F01006F0B200F04BF844F02A
:103520001400C0B200F046F806F0FB0000F042F8CC
:103530000220FDF7A5FD6C79204600F03BF844F031
:10354000040000F037F804F0FB0000F033F86C7969
:1035500064F03F06F0B200F02DF844F0C400C0B2B1
:1035600000F028F806F0FB0000F024F86C7964F015
:103570007F06F0B200F01EF844F08400C0B200F004
:1035800019F806F0FB0000F015F86C79204600F001
:1035900011F844F0040000F00DF804F0FB00BDE861
:1035A000704000F007B80000FEE70000FEE70000F2
:1035B000704700002DE9F04148F298180546C4F222
:1035C0002128012040F25417C8F80400C2F2000775
:1035D000386B0021416200BF416A31B9416A21B9AB
:1035E000416A11B9416A0029F6D00121C8F80010DA
:1035F00000214162416A31B9416A21B9416A11B978
:10360000416A0029F6D00021C8F80410416200BFC9
:10361000416A31B9416A21B9416A11B9416A002947
:10362000F6D040F60044C4F2010400262046802172
:103630000022C8F80060FDF73FFE2046402101222D
:10364000FDF73AFE386B4662416A31B9416A21B9E9
:10365000416A11B9416A0029F6D020464021002272
:103660000026FDF729FE386B466200BF416A31B97A
:10367000416A21B9416A11B9416A0029F6D0204650
:1036800080210122FDF718FE204640210122FDF78E
:1036900013FE386B00214162416A31B9416A21B998
:1036A000416A11B9416A0029F6D020464021002222
:1036B0000026FDF701FE386B466200BF416A31B952
:1036C000416A21B9416A11B9416A0029F6D0204600
:1036D00080210122FDF7F0FD204640210122FDF767
:1036E000EBFD386B00214162416A31B9416A21B971
:1036F000416A11B9416A0029F6D0204640210022D2
:103700000026FDF7D9FD386B466200BF416A31B92A
:10371000416A21B9416A11B9416A0029F6D02046AF
:1037200080210122FDF7C8FD204640210122FDF73E
:10373000C3FD386B00214162416A31B9416A21B948
:10374000416A11B9416A0029F6D020464021002281
:103750000026FDF7B1FD386B466200BF416A31B902
:10376000416A21B9416A11B9416A0029F6D020465F
:1037700080210122FDF7A0FD204640210122FDF716
:103780009BFD386B00214162416A31B9416A21B920
:10379000416A11B9416A0029F6D020464021002231
:1037A0000026FDF789FD386B466200BF416A31B9DA
:1037B000416A21B9416A11B9416A0029F6D020460F
:1037C00080210122FDF778FD204640210122FDF7EE
:1037D00073FD386B00214162416A31B9416A21B9F8
:1037E000416A11B9416A0029F6D0204640210022E1
:1037F0000026FDF761FD386B466200BF416A31B9B2
:10380000416A21B9416A11B9416A0029F6D02046BE
:1038100080210122FDF750FD204640210122FDF7C5
:103820004BFD386B00214162416A31B9416A21B9CF
:10383000416A11B9416A0029F6D020464021002290
:103840000026FDF739FD386B466200BF416A31B989
:10385000416A21B9416A11B9416A0029F6D020466E
:10386000802100220026FDF727FD2046402101226D
:10387000FDF722FD386B4662416A31B9416A21B9D0
:10388000416A11B9416A0029F6D020464021002240
:103890000026FDF711FD386B466200BF416A31B961
:1038A000416A21B9416A11B9416A0029F6D020461E
:1038B000802100220026FDF7FFFC20464021012246
:1038C000FDF7FAFC386B4662416A31B9416A21B9A9
:1038D000416A11B9416A0029F6D0204640210022F0
:1038E0000026FDF7E9FC386B466200BF416A31B93A
:1038F000416A21B9416A11B9416A0029F6D0EA0941
:1039000020468021FDF7D8FC204640210122FDF70A
:10391000D3FC386B00214162416A31B9416A21B957
:10392000416A11B9416A0029F6D02046402100229F
:103930000026FDF7C1FC386B466200BF416A31B911
:10394000416A21B9416A11B9416A0029F6D0C5F32B
:10395000801220468021FDF7AFFC20464021012245
:10396000FDF7AAFC386B0021416200BF416A31B902
:10397000416A21B9416A11B9416A0029F6D020464D
:10398000402100220026FDF797FC386B466200BFFD
:10399000416A31B9416A21B9416A11B9416A0029C4
:1039A000F6D0C5F3401220468021FDF785FC204665
:1039B00040210122FDF780FC386B0021416200BFED
:1039C000416A31B9416A21B9416A11B9416A002994
:1039D000F6D02046402100220026FDF76DFC386B12
:1039E000466200BF416A31B9416A21B9416A11B9E1
:1039F000416A0029F6D0C5F3001220468021FDF768
:103A00005BFC204640210122FDF756FC386B00216B
:103A1000416200BF416A31B9416A21B9416A11B9B5
:103A2000416A0029F6D02046402100220026FDF7F9
:103A300043FC386B466200BF416A31B9416A21B923
:103A4000416A11B9416A0029F6D0C5F3C002204687
:103A50008021FDF731FC204640210122FDF72CFC9E
:103A6000386B0021416200BF416A31B9416A21B916
:103A7000416A11B9416A0029F6D02046402100224E
:103A80000026FDF719FC386B466200BF416A31B968
:103A9000416A21B9416A11B9416A0029F6D0C5F3DA
:103AA000800220468021FDF707FC204640210122AC
:103AB000FDF702FC386B0021416200BF416A31B959
:103AC000416A21B9416A11B9416A0029F6D02046FC
:103AD000402100220026FDF7EFFB386B466200BF55
:103AE000416A31B9416A21B9416A11B9416A002973
:103AF000F6D0C5F3400220468021FDF7DDFB2046CD
:103B000040210122FDF7D8FB386B0021416200BF44
:103B1000416A31B9416A21B9416A11B9416A002942
:103B2000F6D02046402100220026FDF7C5FB386B69
:103B3000466200BF416A31B9416A21B9416A11B98F
:103B4000416A0029F6D005F0010220468021FDF7E8
:103B5000B3FB204640210122FDF7AEFB386B00216C
:103B6000416200BF416A31B9416A21B9416A11B964
:103B7000416A0029F6D02046402100220025FDF7A9
:103B80009BFB386B456200BF416A31B9416A21B97C
:103B9000416A11B9416A0029F6D0204680210022ED
:103BA0000025FDF789FB204640210122FDF784FB1B
:103BB000386B4562416A31B9416A21B9416A11B92C
:103BC000416A0029F6D02046402100220024FDF75A
:103BD00073FB386B446200BF416A31B9416A21B955
:103BE000416A11B9416A0029F6D00021C8F80410D1
:103BF000416200BF416A31B9416A21B9416A11B9D4
:103C0000416A0029F6D00021C8F80010416200BFC7
:103C1000416A31B9416A21B9416A11B9416A002941
:103C2000F6D00121C8F8001000214162416A31B983
:103C3000416A21B9416A11B9416A0029F6D00120CF
:103C4000C8F80400BDE8F08170470000FDF740BBF4
:103C50007047000040F22820C2F20000FEF7EAB9E7
:103C600040F27020C2F20000FEF7E4B9406A002181
:103C7000C185C184FEF74CBB81B090F84210222967
:103C800021D183680246B3F5805F09D152F8281F1D
:103C900052F8183C002B63D003685B680AE000BF51
:103CA00052F8281F13B90369002BF5D003685B682D
:103CB00003F07F030B70116801311160C18D013970
:103CC0000A04C18502D001B0704700BF0168CA680C
:103CD00022F02002CA60CA6822F48072CA604A696F
:103CE00022F001024A61202180F842100021416344
:103CF000026B012A3CD10163016851E8031F02688D
:103D000021F0100142E80313DBB1016851E8031F01
:103D1000026821F0100142E8031393B1016851E8F1
:103D2000031F026821F0100142E803134BB1016840
:103D300051E8031F026821F0100142E80313002B31
:103D4000DAD101680A68D20606D5002200920A6814
:103D50000092496800910099818D01B0FEF7D6BAB2
:103D6000026852686FF35F2221F8022B8162A5E797
:103D700001B0FEF7E3BE000040F2B820C2F200003E
:103D8000FEF7C8BA40F20030C2F20000FEF7C2BA35
:103D900040F24830C2F20000FEF7BCBAFEE7000075
:103DA000F0B581B040F2D801C2F20001097A00906A
:103DB00004291BD80446DFE801F003090F191D0090
:103DC00040F2B820C2F200000AE000BF40F200302A
:103DD000C2F2000004E000BF40F24830C2F200002E
:103DE000694601224FF0FF33FFF7C4F95DF8040B79
:103DF000F0BD00BF40F20005C2F20005687924F072
:103E00000F0140EA010646F00107F8B2FFF7D2FBC6
:103E100046F00500C0B2FFF7CDFB07F0FB00FFF74F
:103E2000C9FB687940EA041444F00105E8B2FFF7E1
:103E3000C1FB44F00500C0B2FFF7BCFB05F0FB007E
:103E4000FFF7B8FB5DF8040BF0BD0000A0B0FDF774
:103E50004DFA00240120CDE91B44CDE91944169008
:103E60001A904FF4E0104FF480314FF400320225E5
:103E70001F9016A817911892CDE91D51FDF7F0FB80
:103E800020B1EFF3108072B6FEE700BF0F20CDE93E
:103E900010054FF48060CDE9130410A8022112949C
:103EA000FDF7CCFA20B1EFF3108072B6FEE700BF49
:103EB00041F21800C4F20200016840F6000941F026
:103EC000100101600168C4F2010901F010011691AE
:103ED0001699016809F5006641F02001016001684A
:103EE000002201F020011691169901684FF4005745
:103EF00041F0040101600168002401F00401169101
:103F00001699016841F00801016000684FF4005102
:103F100000F00800169016983046FDF7CDF909F527
:103F20008065284645F2FC31002245F2FC3AFDF757
:103F3000C3F948464FF419410022FDF7BDF9169721
:103F400016AF4FF0010B4FF0020830463946CDE96D
:103F500017B4CDF86480FDF7A7F8F320CDE9160477
:103F6000484639461894FDF79FF828463946CDE96A
:103F700016ABCDE91848FDF797F84FF41940CDE995
:103F8000160B48463946CDE918484F46FDF78CF8E0
:103F900009F5105140F25419C2F20009484640F8A0
:103FA000301F48214FF6FF721994CDE91744CDE92F
:103FB0001044C0E90114C0E90324C0E90544FDF739
:103FC00031FE28B1EFF3108072B600BFFEE700BFEC
:103FD0004FF4805009F13005169016A92846FDF7D8
:103FE00057FF28B1EFF3108072B600BFFEE700BFA5
:103FF00010A92846FDF7D6FD20B1EFF3108072B668
:10400000FEE700BF40F2B82007F54051C2F20000C1
:1040100000240C264FF4E13280E81600C0E9034486
:10402000C0E90564C461FEF72DFC28B1EFF31080F0
:1040300072B600BFFEE700BF40F20030A7F5444172
:10404000C2F200004FF4612280E81600C0E9034488
:10405000C0E90564C461FEF715FC28B1EFF31080D8
:1040600072B600BFFEE700BF40F2D010A7F5504186
:10407000C2F200004FF4827200244FF4007380E813
:1040800016000A21C0E90344C0E90543C461C0E940
:104090000844C0E90A41FDF7E3FC28B1EFF31080C2
:1040A00072B600BFFEE700BF40F22820C2F2000057
:1040B0004FF080414FF6FF731994CDE91744CDE9D5
:1040C00010444FF4E15280E81600C0E903348461E3
:1040D000FDF7A8FD20B1EFF3108072B6FEE700BF38
:1040E0004FF48050169040F22820C2F2000016A92A
:1040F000FDF7CEFE20B1EFF3108072B6FEE700BFF1
:1041000040F2282AC2F2000A10A95046FDF74AFDE3
:1041100020B1EFF3108072B6FEE700BF40F24830E6
:10412000A7F54041C2F2000000240C234FF4E13215
:1041300080E81600C0E90344C0E90534C461FEF715
:10414000A1FB18B1EFF3108072B6FEE740F27020C9
:10415000A7F58231C2F200004FF6FF731994CDE942
:104160001744CDE9104448F6A04280E81600C0E9A3
:1041700003348461FDF756FD20B1EFF3108072B671
:10418000FEE700BF4FF48050169040F27020C2F25C
:10419000000016A9FDF77CFE20B1EFF3108072B687
:1041A000FEE700BF40F27020C2F2000010A9FDF748
:1041B000F9FC18B1EFF3108072B6FEE748F2A418CC
:1041C00040F200172846C4F22128C4F22127FDF747
:1041D000F3FD00200126C8F80C00C8F8140048F8C8
:1041E000046C48F8106C48F8146C48F8186CC7F860
:1041F000BC60C7F8B060C7F8AC60FFF7FBF840F2EE
:10420000D80BC2F2000B40F2483002250BF1070137
:10421000C2F200000122C7F8A0608BF808500F918D
:10422000FEF762FC40F2B820C2F2000059460122BB
:104230008BF80850FEF758FC40F200300BF10301F8
:10424000C2F200000122FEF74FFCDAF800004FF640
:10425000DC71416250464FF0000AFDF7E1FD40F28B
:104260000004C2F20004C8F8006008E00020C5F8AD
:10427000BC00C5F8B000C5F8AC008BF812009BF884
:104280002600002853D09BF8280000284FD1022098
:104290008BF808000FF644500D210A22FBF7D6FFD9
:1042A00003208BF827009BF8190048B19BF81900F0
:1042B00030B19BF8190018B19BF819000028F2D111
:1042C0004FF4FA708BF82860FCF7DAFE02208BF8C6
:1042D00019608BF808008BF8276040F248300F997E
:1042E000C2F200000122FEF7FFFB48F63500C0F6DF
:1042F0000000222122220D230A270097FBF7A6FFA8
:104300009BF8160048B99BF8160030B99BF81600C8
:1043100018B99BF816000028F2D003208BF827006C
:104320000FF6C8401A21FBF791FF8BF816A09BF8F7
:104330000B0028B9C9F80CA0CBF840A0CBF84CA0D2
:104340009BF80E00002804BFCBF854A0CBE919AAB3
:104350009BF8110000284FF0040004BFCBF870A0B8
:10436000C9E901AA8BF80800A078012840F08E80E6
:104370009BF80B60657965F07F07F8B2FFF71AF9D3
:1043800045F08400C0B2FFF715F907F0FB00FFF716
:1043900011F965792846FFF70DF945F00400FFF79C
:1043A00009F905F0FB00FFF705F90FF63C70FBF784
:1043B0004DFF657965F03F07F8B2FFF7FBF845F070
:1043C000C400C0B2FFF7F6F807F0FB00FFF7F2F801
:1043D00065792846FFF7EEF845F00400FFF7EAF8A4
:1043E00005F0FB00FFF7E6F8012E40F07F81DBF8D7
:1043F000401048F2DF60C0F60000FBF727FF657948
:1044000065F06F06F0B2FFF7D5F845F09400C0B242
:10441000FFF7D0F806F0FB00FFF7CCF8657945F020
:104420004006F0B2FFF7C6F845F04400C0B2FFF70F
:10443000C1F806F0FB00FFF7BDF8DBF84C1048F2BE
:10444000D460C0F60000FBF701FF657965F02F0628
:10445000F0B2FFF7AFF845F0D400C0B2FFF7AAF80A
:1044600006F0FB00FFF7A6F8657945F04006F0B2CC
:10447000FFF7A0F845F04400C0B2FFF79BF806F044
:10448000FB00FFF797F8D9F80C0021E1A07802288B
:1044900040F08E809BF80E60657965F07F07F8B27A
:1044A000FFF788F845F08400C0B2FFF783F807F003
:1044B000FB00FFF77FF865792846FFF77BF845F0AA
:1044C0000400FFF777F805F0FB00FFF773F80FF62D
:1044D0002060FBF7BBFE657965F03F07F8B2FFF798
:1044E00069F845F0C400C0B2FFF764F807F0FB00BC
:1044F000FFF760F865792846FFF75CF845F004009F
:10450000FFF758F805F0FB00FFF754F8012E40F0D4
:10451000ED80DBF8641048F2DF60C0F60000FBF7C6
:1045200095FE657965F06F06F0B2FFF743F845F048
:104530009400C0B2FFF73EF806F0FB00FFF73AF830
:10454000657945F04006F0B2FFF734F845F04400D5
:10455000C0B2FFF72FF806F0FB00FFF72BF8DBF8EF
:10456000681048F2D460C0F60000FBF76FFE657972
:1045700065F02F06F0B2FFF71DF845F0D400C0B289
:10458000FFF718F806F0FB00FFF714F8657945F01F
:104590004006F0B2FFF70EF845F04400C0B2FFF756
:1045A00009F806F0FB00FFF705F8DBF854008FE090
:1045B000A078032840F0E6809BF81160657965F0EB
:1045C0007F07F8B2FEF7F6FF45F08400C0B2FEF7B1
:1045D000F1FF07F0FB00FEF7EDFF65792846FEF7D7
:1045E000E9FF45F00400FEF7E5FF05F0FB00FEF7EC
:1045F000E1FF0FF60450FBF729FE657965F03F07F0
:10460000F8B2FEF7D7FF45F0C400C0B2FEF7D2FF04
:1046100007F0FB00FEF7CEFF65792846FEF7CAFFDC
:1046200045F00400FEF7C6FF05F0FB00FEF7C2FFF1
:10463000012E5BD1D9F8041048F2DF60C0F600000B
:10464000FBF704FE657965F06F06F0B2FEF7B2FF86
:1046500045F09400C0B2FEF7ADFF06F0FB00FEF798
:10466000A9FF657945F04006F0B2FEF7A3FF45F0DB
:104670004400C0B2FEF79EFF06F0FB00FEF79AFF73
:10468000D9F8081048F2D460C0F60000FBF7DEFD50
:10469000657965F02F06F0B2FEF78CFF45F0D40087
:1046A000C0B2FEF787FF06F0FB00FEF783FF6579D7
:1046B00045F04006F0B2FEF77DFF45F04400C0B281
:1046C000FEF778FF06F0FB00FEF774FFDBF87000E2
:1046D00003F00CFB024648F2C560C0F600000B4632
:1046E000DF210091FBF7B2FD4CE000BF48F2B76755
:1046F000C0F600073846FBF7A9FD657965F06F063F
:10470000F0B2FEF757FF45F09400C0B2FEF752FF3B
:1047100006F0FB00FEF74EFF657945F04006F0B26B
:10472000FEF748FF45F04400C0B2FEF743FF06F035
:10473000FB00FEF73FFF48F2EA60C0F60000FBF71F
:1047400085FD657965F02F06F0B2FEF733FF45F081
:10475000D400C0B2FEF72EFF06F0FB00FEF72AFFE2
:10476000657945F04006F0B2FEF724FF45F04400BD
:10477000C0B2FEF71FFF06F0FB00FEF71BFF384636
:10478000FBF764FD657965F07F06F0B2FEF712FF76
:1047900045F08400C0B2FEF70DFF06F0FB00FEF707
:1047A00009FF657965F01F06F0B2FEF703FF45F0DB
:1047B000E400C0B2FEF7FEFE06F0FB00FEF7FAFED4
:1047C00058F8040C0FF6383100280FF63C3008BFBB
:1047D0000846FBF73BFD657965F03F06F0B2FEF752
:1047E000E9FE45F0C400C0B2FEF7E4FE06F0FB00AF
:1047F000FEF7E0FE657965F01F06F0B2FEF7DAFE1F
:1048000045F0E400C0B2FEF7D5FE06F0FB00FEF76F
:10481000D1FE58F8100C0FF6F82100280FF6F820FA
:1048200008BF0846FBF712FD657965F05F06F0B238
:10483000FEF7C0FE45F0A400C0B2FEF7BBFE06F0D6
:10484000FB00FEF7B7FE657945F02006F0B2FEF7F3
:10485000B1FE45F02400C0B2FEF7ACFE06F0FB004E
:10486000FEF7A8FE58F8140C0FF6B42100280FF636
:10487000B82008BF0846FBF7E9FC657965F01F061C
:10488000F0B2FEF797FE45F0E400C0B2FEF792FEEC
:1048900006F0FB00FEF78EFE657945F02006F0B2CB
:1048A000FEF788FE45F02400C0B2FEF783FE06F056
:1048B000FB00FEF77FFE58F8180C0FF67421002855
:1048C0000FF6742008BF0846FBF7C0FC9BF81700E2
:1048D000012800F063819BF81700022800F0258270
:1048E0009BF81700032840F0C68094F8440048F273
:1048F000A06349F6B067C0F20103CFF6AE7794F833
:10490000451000FB037042F2107894F8462001FB3A
:1049100008004FF47A7694F8473002FB060094F8CA
:104920004810642703FB070001EB810194F849203C
:1049300000EB41001044CBF86C0003F091FB002128
:10494000C4F2483103F008FC4FF0565103F004FC68
:104950000021CCF2482103F0F5F9CBF8700094F86F
:104960004A0094F84B1094F84C20794300FB061051
:1049700002EB820294F84D1000EB420008444DF225
:104980005001401ACBF8780003F06AFB01464CF264
:104990000000C4F27F4003F06DFA0021CBF6807175
:1049A00003F0D0F90021C4F2201103F0D5FBC9F8BF
:1049B000000003F09BF94EF2481644F2AE77C1F2C4
:1049C0007A46C4F20D0732463B4602F021FC01F064
:1049D000A9FD0B46002102460020C3F6F47103F046
:1049E00097F84CF6CD45CCF6CC454CF6CC432A4650
:1049F000C3F6DC7302F00CFC40F2000AC4F2240A95
:104A000002460B460020514601F0FEFD02F0C6FDB5
:104A1000404528BF4046D9F80010C9F804000846B0
:104A200003F064F932463B4602F0F2FB01F07AFDF6
:104A30000B464CF6CC4102462846C3F6F87103F00B
:104A400067F845F6294242F6F503CCF28F22C3F609
:104A5000DC7302F0DDFB02460B460020514601F0FC
:104A6000D3FD02F09BFD404528BF4046C9F8080031
:104A700000208BF817002079D9F80C5003F0F0FAD9
:104A800004462846214603F0CDF980BB40F20000E1
:104A9000C2F20000DBF84070D0F810A0574526D8CD
:104AA000DBF84C108669B14221D8DBF85400884607
:104AB00021460E9003F0B6F9C8B9DBF86400504502
:104AC0000D9014D8DBF86800B0420C900FD8DBF8DA
:104AD000700021460B9003F0A5F940B9D9F80440C5
:104AE000544504D8D9F808A0B24540F2EB819BF8B0
:104AF000150048F2A41840F2001540F20004022804
:104B0000C4F22128C4F221254FF0000A4FF001061B
:104B1000C2F2000418D040F201208BF818A0ABF8C4
:104B2000140048F62D00C0F6000053210122502346
:104B30008BF80860FBF78AFB9BF81500012800F052
:104B4000DB82022840F03084C8F800A08BF81460A3
:104B50009BF82800002800F031849BF818000028FA
:104B600040F02C849BF81900002840F02784022094
:104B70008BF819608BF808008BF8270040F248305A
:104B80000F99C2F200000122FDF7AEFF0FF6505060
:104B90000D210A22FBF75AFB00F010BC207F48F2DF
:104BA000A06349F6B067C0F20103CFF6AE77617F2C
:104BB00000FB037042F21078A27F01FB08004FF463
:104BC0007A76E37F02FB060094F82010642703FB4B
:104BD000070001EB810194F8212000EB4100104413
:104BE000CBF8380003F03CFA0021C4F2483103F05E
:104BF000B3FA4FF0565103F0AFFA0021CCF248213E
:104C000003F0A0F8C9F80C0094F8220094F82310DF
:104C100094F82420794300FB061002EB820294F8FA
:104C2000251000EB420008444DF25001401ACBF829
:104C3000440003F015FA01464CF20000C4F27F4034
:104C400003F018F90021CBF6807103F07BF8002106
:104C5000C4F2201103F080FACBF8480003F046F8C4
:104C60004EF2481644F2AE77C1F27A46C4F20D070E
:104C700032463B4602F0CCFA01F054FC0B460021D0
:104C800002460020C3F6F47102F042FF4CF6CD4517
:104C9000CCF6CC454CF6CC432A46C3F6DC7302F086
:104CA000B7FA40F2000AC4F2240A02460B4600207A
:104CB000514601F0A9FC02F071FC404528BF404676
:104CC000DBF84810CBF84000084603F00FF83246F6
:104CD0003B4602F09DFA01F025FC0B464CF6CC4118
:104CE00002462846C3F6F87102F012FF45F6294243
:104CF00042F6F503CCF28F22C3F6DC7302F088FA99
:104D000002460B4600205146002501F07DFC02F0D2
:104D100045FC404528BF4046CBF84C008BF8175067
:104D20009BF8170002287FF4DBAD94F8300048F2BE
:104D3000A06349F6B067C0F20103CFF6AE7794F8EE
:104D4000311000FB037042F2107894F8322001FB1E
:104D500008004FF47A7694F8333002FB060094F89A
:104D60003410642703FB070001EB810194F8352020
:104D700000EB41001044CBF8500003F071F9002122
:104D8000C4F2483103F0E8F94FF0565103F0E4F96A
:104D90000021CCF2482102F0D5FFCBF8540094F862
:104DA000360094F8371094F83820794300FB061049
:104DB00002EB820294F8391000EB420008444DF2F5
:104DC0005001401ACBF85C0003F04AF901464CF25E
:104DD0000000C4F27F4003F04DF80021CBF6807153
:104DE00002F0B0FF0021C4F2201103F0B5F9CBF8B6
:104DF000600002F07BFF4EF2481644F2AE77C1F23B
:104E00007A46C4F20D0732463B4602F001FA01F041
:104E100089FB0B46002102460020C3F6F47102F024
:104E200077FE4CF6CD45CCF6CC454CF6CC432A4625
:104E3000C3F6DC7302F0ECF940F2000AC4F2240A73
:104E400002460B460020514601F0DEFB02F0A6FBB5
:104E5000404528BF4046DBF86010CBF864000846A8
:104E600002F044FF32463B4602F0D2F901F05AFB11
:104E70000B464CF6CC4102462846C3F6F87102F0C8
:104E800047FE45F6294242F6F503CCF28F22C3F6DF
:104E9000DC7302F0BDF902460B46002051460025A6
:104EA00001F0B2FB02F07AFB404528BF4046CBF848
:104EB00068008BF817509BF8170003283FF415ADD6
:104EC000D9E500BF40F20000C2F20000C07803F054
:104ED000C7F806462846314602F0A4FFE0B140F28A
:104EE000D800C2F20000C76B0021384602F08CFFE8
:104EF00040B92846394603F0FBF94FF0804102F0F3
:104F00009FFF00BB40F2D801C2F200010120CD6337
:104F100081F8290017E000BF40F20000C2F2000053
:104F2000C068874209D840F20001C2F20001496915
:104F30008A4598BF844240F2038240F2D800C2F210
:104F400000000021C1630E98314602F079FFE8B9F4
:104F500040F2D800C2F20000856D0021284602F020
:104F600053FF40B90E98294603F0C2F94FF0804133
:104F700002F066FF80B940F2D8010E98C2F200013B
:104F80008865012081F82A0006E000BF40F2D800C1
:104F9000C2F20000002181650B98314602F050FFFB
:104FA00070BB40F2D800C2F20000456F00212846D5
:104FB00002F02AFF40B90B98294603F099F94FF007
:104FC000804102F03DFF08BB40F2D8010B98C2F2CD
:104FD00000014867012081F82B0017E041542B4362
:104FE0004D47463D312563256300000053797374B6
:104FF000656D2069732041637469766525630000DF
:1050000040F2D800C2F200000021416740F2D80B04
:10501000C2F2000B9BF8150048F2A41840F20015EC
:1050200040F200040028C4F22128C4F221254FF0E8
:10503000000A4FF00106C2F200047FF47FAD8BF846
:1050400015609BF82800002856D09BF8190000280E
:105050007FF472AD02208BF819608BF808008BF892
:10506000276040F248300F99C2F200000122FDF79C
:105070003BFD48F63500C0F60000222122220D2318
:105080000A270097FBF7E2F840F2D800C2F20000CE
:10509000807D90B940F2D800C2F20000807D60B9F6
:1050A00040F2D800C2F20000807D30B940F2D80052
:1050B000C2F20000807D0028E6D040F2D80BC2F298
:1050C000000B03208BF827000FF600001A21FBF7D6
:1050D000BDF848F2A41840F2001540F200044FF069
:1050E000000AC4F22128C4F221250126C2F20004DC
:1050F0008BF816A020E500BF8BF82F609BF82800E6
:10510000002800F05B819BF81900002840F05681D0
:105110009BF82900012400283FD002208BF829A009
:105120008BF808008BF8274040F248300F99C2F204
:1051300000000122FDF7D8FC48F63500C0F600005B
:10514000222122220D230A270097FBF77FF89BF8E4
:10515000160048B99BF8160030B99BF8160018B92C
:105160009BF816000028F2D003208BF82700DBE91B
:105170000F05DBF84C6002F0B9FD024648F21170F1
:10518000C0F600000B461A21CDE900560291FBF74C
:105190005DF84FF0000A8BF816A09BF82A00002853
:1051A0003FD002208BF82AA08BF808008BF827400C
:1051B00040F248300F99C2F200000122FDF794FC42
:1051C00048F63500C0F60000222122220D230A27CE
:1051D0000097FBF73BF89BF8160048B99BF81600C0
:1051E00030B99BF8160018B99BF816000028F2D0C9
:1051F00003208BF82700DBF85800DBE9195602F092
:1052000075FD024648F26570C0F600000B461A2193
:10521000CDE900560291FBF719F84FF0000A8BF820
:1052200016A09BF82B0048F2A41840F2001540F29B
:1052300000040028C4F22128C4F221254FF0010601
:10524000C2F2000400F0BA8002208BF82BA08BF889
:1052500008008BF8276040F248300F99C2F2000036
:105260000122FDF741FC48F63500C0F6000022217E
:1052700022220D230A270097FAF7E8FF9BF8160071
:1052800048B99BF8160030B99BF8160018B99BF87E
:1052900016000028F2D003208BF82700DBF87400FA
:1052A00002F024FD0246D9E90103CDE9000348F2EA
:1052B000B970C0F600000B461A210291FAF7C6FF3A
:1052C0004FF0000A012648F2A41840F2001540F2FF
:1052D00000048BF816A08BF82F60C4F22128C4F2CA
:1052E0002125C2F2000469E04E4F444520313A00C6
:1052F0004E4F444520323A004E4F444520333A0049
:1053000044313A204F4E000044313A4F46460000A7
:1053100044323A204F4E000044323A4F4646000095
:1053200044333A204F4E000044333A4F4646000083
:1053300044343A204F4E000044343A4F4646000071
:105340000C9A8A423FF6F9AD0D9A82423FF6F5ADCE
:1053500088453FF6F2AD0E98314602F063FD002815
:105360007FF4EBAD0B98314602F05CFD00287FF432
:10537000E4AD40F2D80B48F2A41840F2001540F218
:1053800000044FF0000AC2F2000BC4F22128C4F25C
:1053900021250126C2F200048BF815A0CBF83CA011
:1053A000CBF858A0CBF874A09BF82F0000281EBFA4
:1053B0008BF814A0C8F800608BF82FA09BF82C0085
:1053C000002840D09BF82800D8B39BF81900C0BB38
:1053D00002208BF808008BF8276040F248300F99C4
:1053E000C2F200000122FDF77FFB48F63500C0F64F
:1053F0000000222122220D230A270097FAF726FF18
:105400009BF8160048B99BF8160030B99BF81600B7
:1054100018B99BF816000028F2D003208BF827005B
:105420009BF80B000FF2CC4101280FF2D44008BFCB
:1054300008461A21FAF70AFFC8208BF816A0FBF7D6
:105440001FFE8BF82CA09BF82D00002845D09BF860
:10545000280000283FD09BF81900E0BB02208BF801
:1054600008008BF8276040F248300F99C2F2000024
:105470000122FDF739FB48F63500C0F60000222175
:1054800022220D230A270097FAF7E0FE9BF8160068
:1054900048B99BF8160030B99BF8160018B99BF86C
:1054A00016000028F2D003208BF827009BF80E008E
:1054B00048F60D01012848F2F760C0F60000C0F67A
:1054C000000108BF08461A21FAF7C0FEC8208BF871
:1054D00016A0FBF7D5FD8BF82DA09BF82E00002819
:1054E00045D09BF8280000283FD09BF81900E0BB6E
:1054F00002208BF808008BF8276040F248300F99A3
:10550000C2F200000122FDF7EFFA48F63500C0F6BE
:105510000000222122220D230A270097FAF796FE87
:105520009BF8160048B99BF8160030B99BF8160096
:1055300018B99BF816000028F2D003208BF827003A
:105540009BF8110048F61901012848F20470C0F6D2
:105550000000C0F6000108BF08461A21FAF776FEDF
:10556000C8208BF816A0FBF78BFD8BF82EA08BF8CC
:1055700008602868A0B90A20FBF782FD286878B97E
:10558000286830B9286820B9286810B92868002828
:10559000F6D0A0780130A070A078042828BFA670AB
:1055A000686838BB0A20FBF76BFD686810BB686849
:1055B00030B9686820B9686810B968680028F6D002
:1055C00058F8040C5023C04348F8040C58F8040C55
:1055D0009BF80610B0FA80F0400921F00101084460
:1055E0008BF80600C2B248F62500C0F60000532131
:1055F000FAF72CFE286940BB0A20FBF741FD286919
:1056000018BB286930B9286920B9286910B92869F8
:105610000028F6D058F8100C5023C04348F8100C5E
:1056200058F8100C9BF80610B0FA80F0400921F0F1
:10563000020141EA40008BF80600C2B248F625009C
:10564000C0F600005321FAF701FE686940BB0A204A
:10565000FBF716FD686918BB686930B9686920B93D
:10566000686910B968690028F6D058F8140C5023FE
:10567000C04348F8140C58F8140C9BF80610B0FA04
:1056800080F0400921F0040141EA80008BF8060017
:10569000C2B248F62500C0F600005321FAF7D6FD45
:1056A000A86940BB0A20FBF7EBFCA86918BBA869F6
:1056B00030B9A86920B9A86910B9A8690028F6D03E
:1056C00058F8180C5023C04348F8180C58F8180C18
:1056D0009BF80610B0FA80F0400921F0080141EA79
:1056E000C0008BF80600C2B248F62500C0F60000E4
:1056F0005321FAF7ABFDE86908BB0A20FBF7C0FCB1
:10570000E869E0B9E86930B9E86920B9E86910B931
:10571000E8690028F6D0D8F800005321C043C8F843
:105720000000D8F800005023B0FA80F0420948F693
:105730002D00C0F600008BF81420FAF787FD9BF8C7
:1057400006004BF6510226EA000148F8041C00F05E
:10575000020186EA510148F8101C00F0040100F033
:10576000080086EA910186EAD00048F8141C48F83F
:10577000180C9BF8140045F62941B0FA80F0400956
:10578000C8F80000DBF83400CCF28F21013041432F
:105790004FEA7101C0F21E529142CBF834005CD83E
:1057A000D9F804008BF808600C90D9F808000B9029
:1057B000D9F80C0002F09AFACDE90D1040F2D800A9
:1057C000C2F2000040F2D801D0F840B0C46C406D85
:1057D000C2F20001D1F8648002F088FA064640F275
:1057E000D800C2F20000D0F868A0006F0D4602F0A9
:1057F0007DFA0F460C99069008910B9948F65000D7
:1058000009915021DDE90D320A91CDF800B040F246
:10581000D80BCDE90146CDE9035840F2001548F216
:10582000A41840F20004C0F600005321C2F2000B9D
:10583000C4F22125C4F22128CDF814A04FF0000AAB
:10584000C2F2000401260797FAF700FD58F81C0C75
:10585000C04348F81C0CDBF834004CF6CD41CCF6C4
:10586000CC41484349F699114FEA7000C1F69911AD
:1058700088423EF604AD9BF8120001283EF4F6ACD7
:105880009BF8120000287EF4FAAC9BF80B0048F25B
:10589000A418002808BFC5F8BC609BF80E0040F2B1
:1058A0000004002808BFC5F8B0609BF81100C4F2DE
:1058B000212800284FF001004FF0000AC2F2000436
:1058C00008BFC5F8AC00FEF7D8BC00BF5741524E28
:1058D000494E47204C4556454C2031256300000079
:1058E000415444303836383339303434323B256310
:1058F000256300004E4F44452031204F4E25630064
:105900004E4F44452031204F46462563000000009D
:105910005FEA400C08BF91F0000F4FEA8C234FEA7A
:10592000C12243EA51514FEA1C5018BF00F5F04024
:105930004FEA300018BF41F000415FEA6C5C00F0B4
:105940002980BCF1FF3F08BF40F080407047130C36
:1059500006BF12044FF0100C4FF0000C130E04BFE2
:1059600012020CF1080C130F04BF12010CF1040C0D
:10597000930F04BF92000CF1020CD30F04BF52002E
:105980000CF1010C11464FF00002A0F11F00A0EB3A
:105990000C00704711F0004F08BF704731F0004114
:1059A0003FF4D5AF0B0C06BF09044FF0100C4FF0BD
:1059B000000C0B0E04BF09020CF1080C0B0F04BF06
:1059C00009010CF1040C8B0F04BF89000CF1020CCF
:1059D000CB0F04BF49000CF1010CCCF1200322FADB
:1059E00003F341EA030102FA0CF2A0EB0C0000F110
:1059F0000100704723F07F4720F07F4C80EA0300CE
:105A000000F00040ACEB070303F57C5303F1FF0308
:105A10002DE9804909B44FEA144324EA03484FEAC8
:105A2000154B25EA0B4E0FF2042606EB13273E78A2
:105A300003FB0667C7F5000707FB06F64FEAD646E5
:105A400006F102064FEA543707FB066CCCF1005C06
:105A50004FEA1C472CEA074C0CFB06F507FB06F443
:105A600004EB15464FEA961649085FEA320234BF46
:105A700000204FF000404FEAD13706FB07FC4FEA09
:105A80001C4C0CFB0BF7D21B03FB0CF761EB070163
:105A90000CFB0EF7B0EB074072EB17420CFB08F75C
:105AA00034BFA2EB0742B2EB074261EB17414FEA6A
:105AB0000C444FEA910706FB07FC4FEA1C4C0CFB19
:105AC0000BF7B0EBC74072EB573203FB0CF734BF58
:105AD000A2EBC742B2EBC74261EB57310CFB0EF7AA
