:020000040800F2
:1000000080090020D901000891310008D52F00088F
:100010008D310008390D000881390008000000000A
:100020000000000000000000000000002D38000863
:100030003D0D00080000000095310008313800082F
:10004000F3010008F3010008F3010008F3010008C0
:10005000F3010008F3010008F3010008F3010008B0
:10006000F3010008F3010008F3010008F3010008A0
:10007000F3010008F3010008F3010008F301000890
:10008000F3010008F3010008F3010008F301000880
:10009000F3010008F3010008F3010008F301000870
:1000A000F3010008F3010008F3010008F301000860
:1000B0003938000845380008F3010008F30100084A
:1000C000F3010008F3010008F3010008F301000840
:1000D000F30100085D390008693900087539000826
:1000E000F3010008F3010008F301000800F002F832
:1000F00000F063F814A696E8000CB244B344DA4565
:1001000001D100F05AF8BAE80F000FA696E83000C7
:10011000A5EB040504EB0607AAEB0704A7F101070A
:100120004FEA15154FEA3414A4F10104AC4201D38F
:1001300000F043F813F0010F18BFFB1A43F001035E
:1001400000F001F8DBE71847947F0000B47F00005F
:10015000103A24BF78C878C1FAD8520724BF30C8F3
:1001600030C144BF04680C60704700007047000055
:100170000023002400250026103A28BF78C1FBD8B0
:10018000520728BF30C148BF0B607047662907F08F
:10019000FC85752900F09C80632900F018840020FC
:1001A00070471FB500F032FC04000020002106F06B
:1001B00079FCE0601FBD10B510BD00F047FD114691
:1001C000FFF7EFFF03F034FC00F065FD03B4FFF729
:1001D000F2FF03BC00F0A8FD09488047094800472A
:1001E000FEE7FEE7FEE7FEE7FEE7FEE7FEE7FEE7E7
:1001F000FEE7FEE704480549054A064B7047000044
:1002000035380008ED000008800300208009002038
:1002100080050020800500200FB4044910B503AA12
:10022000029800F0E1FB10BC5DF814FBB401002063
:1002300070B5044685690068C10601D5302600E026
:100240002026C00707D070BDD4E901213046904771
:10025000206A401C20626D1EF6D570BD70B5044644
:1002600085690078C00707D170BDD4E9012120203D
:100270009047206A401C20626D1EF6D570BD70B597
:100280000C460546012A05D02878800600D5EA6983
:10029000002302E0012305E05B1C934202D2E05CF4
:1002A0000028F9D1A869E618C01AA861286A18447C
:1002B00028622846FFF7BCFF04E0D5E9012114F8C5
:1002C000010B9047B442F8D32846FFF7C7FF70BD33
:1002D0002DE9F0410646002410687529314616A51F
:1002E00010D0AFF30080002802DA404213A507E0E7
:1002F00031688A0701D512A502E0490704D511A586
:10030000012401E0AFF3008000210A2206F1240756
:1003100009E0B0FBF2FCB0FBF2F302FB1C00303052
:1003200078541846491C0028F3D123462A46304603
:10033000BDE8F04100F0DAB8000000002D00000038
:100340002B000000200000002DE9F05F89460446E4
:100350004FF0000ADFF874B1FB44C0F820A020463B
:10036000E1688847002874D0252806D0D4E9012107
:100370009047206A401C2062F1E700265F46204635
:10038000E16888472028054607DB312D05D278191A
:1003900010F8200C08B10643F1E7B00701D526F0AC
:1003A0000406C4F81CA00027C4F818A02A2D09D000
:1003B000284605F033FC38B304EB8708303DC8F815
:1003C000185019E059F8041B204604EB870291618C
:1003D000E1688847012F054618D1E069002820DA36
:1003E00026F020061DE0D8F8180000EB800005EB91
:1003F00040003038C8F818002046E16888470546B4
:1004000005F00CFC0028EED1012F0AD02E2D08D1CA
:100410002046E16888477F1C0546022F46F02006EB
:10042000C4DBA069002803DA404246F00106A0615F
:10043000F00701D026F010066C2D0BD0682D09D0E6
:100440004C2D39D06A2D35D0742D35D07A2D33D03E
:1004500016E038E0E1682F4620468847B842054656
:1004600009D16C2F26D04FF48060E1680643204606
:100470008847054604E06C2F1AD04FF4807006437D
:100480000DB3A5F14100192802D8203546F40066C5
:100490004A462946204626604E46FFF777FE80B141
:1004A00001280BD0F61D26F0070000F1080956E7D9
:1004B0004020E4E78020D8E70020D6E706F10409D1
:1004C0004DE7284652E7206ABDE8F09F227B0000F6
:1004D00070477047704710B500F09CFA006810BD77
:1004E00010B5044600F096FA046010BD2DE9F047FF
:1004F0000D4699469246044600F124080168880694
:1005000004D5E06921F01001216000E00120A8423B
:1005100001DD471B00E00027A1697A1902EB090001
:10052000081AA0612078C00602D42046FFF780FE9A
:10053000002608E0D4E901211AF806009047206A55
:10054000401C761C20624E45F4DB2078C0060AD59C
:100550002046FFF76DFE06E0D4E9012130209047E8
:10056000206A401C2062381EA7F10107F4DC07E076
:10057000D4E9012118F805009047206A401C206248
:10058000281EA5F10105F3DC2046FFF767FE207861
:10059000000602D50220BDE8F0870120FBE72DE927
:1005A000FF4F0C461E464FF0FF378BB0D2E90001DB
:1005B000DDF860800A908A46C1F30A5505B93D46C8
:1005C000002108464FF00000BAF1000F00F440008F
:1005D00005DA00EB80004FF4400101EA50004FEAD9
:1005E0009059B9F1010F00DDB9460A9850EA4A0066
:1005F0000ED044F61050A5F2FF3545432F14B8F144
:10060000000F1ED07542291E1EDDC9F100021CE03C
:10061000B8F1010F4FF0000001D0302103E0F243A8
:1006200005E02154401CB042FBDB30460022002193
:1006300021540B99C1F80880C1E900200FB0BDE832
:10064000F08FBD1B6D1CDEE74A4600DA694206A842
:1006500000F082FA06AB93E8070003AB83E80700DB
:1006600050460A9904F086FE8DE80700A0F5005078
:100670001F3800900398002D0ADD42F21F014A4600
:100680000844002303A90390684605F0EFF809E049
:10069000A0F500504A461F38002303A9039068467E
:1006A00005F0F9F88DE807000004000C03D04FF0C6
:1006B000FF30410800E01046B8F1000F03D00022DF
:1006C000009215461EE0751E05D400F0A7F93032E1
:1006D00062556D1EF9D5B3460122084302D00022AF
:1006E0007F1C04E02078302801D100227F1E002AE0
:1006F000099784D01DE0112D07DA00F08FF9303210
:1007000062556D1C50EA0102F5D1084302D00098F1
:10071000C8B10EE00021681E05E0235C625C6354F2
:100720002254401E491C8142F7DBAB46A81B401EE9
:100730000990002004F80B000B98099AC0F8088073
:10074000C0E9002B7AE711264FF0000857E72DE9A2
:10075000F04F88460446D21D22F0070191B0D1E93E
:100760000001CDE90A0105F0CDF902460B98C00F52
:1007700001D02D2007E02068810701D52B2002E061
:10078000202101EAC000032A099001D0072A05DBD5
:1007900003464146204600F09FF90BE12078800691
:1007A00001D5E06900E00620B8F1650F814606D06A
:1007B000B8F1660F18D0B8F1670F70D131E00020A2
:1007C000B9F1110F009001DB112301E009F10103E0
:1007D0000AAA01A90CA8FFF7E2FEDDE90C700026C9
:1007E00009F10105834647E001204B4600904FF098
:1007F00000470AAA01A90CA8FFF7D1FEDDE90DB058
:100800000C995D46002610B909F101000D18B9EBED
:10081000050003D4C0F1FF3609F10105A5EB09007D
:100820002BE0B9F1010F01DA4FF001090020B9F115
:10083000110F0090484601DD112300E003460AAA8B
:1008400001A90CA8FFF7ABFEDDE90C704D460026B0
:100850008346207800070AD4AB4500DA5D4601A83C
:10086000012D04DD411911F8011C302907D04F4535
:1008700002DA17F1040F04DA012082460FE06D1E40
:10088000EEE7002F02DCED1B3E4403E0781CA8429B
:1008900000DD7D1CB81B00F1010A4FF000472078F5
:1008A000000703D4AA4501DB4FF0FF3A0021B7F15E
:1008B000004F0DF143088DF8431024D002202B2364
:1008C000002F01DA7F422D230A21021EA0F1010030
:1008D00000DC5FB197FBF1FC97FBF1F201FB1C7CA4
:1008E00017460CF1300C08F801CDEEE7A8F1010035
:1008F00003702188090501D5452100E06521A0F19B
:10090000010800F8011C09980FA9A1EB0807FF1DB9
:1009100000B10120411901EBEA70A1693844081ABD
:10092000401EA0612078C00602D42046FFF780FC5C
:10093000099828B1D4E901219047206A401C20621F
:100940002078C00622D52046FFF772FC1EE0002E5C
:1009500004DBB34502DD01A8805D00E03020D4E96E
:1009600001219047206A401C2062761CAAF10100F8
:100970005FEA000A0AD100F049F8C0680168405CEB
:10098000D4E901219047206A401C2062281EA5F16D
:100990000105DCDC07E0D4E9012118F8010B9047E0
:1009A000206A401C2062381EA7F10107F3DC2046B4
:1009B000FFF754FC032011B041E610B5436913B1B1
:1009C000AFF3008001E0FFF75AFC012010BD127860
:1009D00000F124010A7000224A700122EDE711683B
:1009E0004FF0FF32E9E70000074B70B50D467B443E
:1009F00000F05FF80446284600F020F910B14FF0EF
:100A0000FF3070BD204670BD932F00000048704736
:100A100088000020004870476800002030B5B0F121
:100A20000A0271F100034FEA900E4EEA817EB0EBAC
:100A30000E0061EB91014FEA101E4EEA017E10EBB1
:100A40000E0041EB11114FEA102E4EEA016E10EB31
:100A50000E0041EB11214FEA104E4EEA014E10EB11
:100A60000E0041EB1141401841F100014FEAD00066
:100A700040EA41704FEAD1014FEA810444EA9074A0
:100A800010EB800544EB01046D1944EB0404521B88
:100A9000A3414FF0000348BF0A3200D530BD401CCF
:100AA00041F1000130BD000001694A1C0261087873
:100AB000704700B58FB0CDE901310021059105499E
:100AC0007944CDE9031011466846FFF73DFC0FB0AD
:100AD00000BD0000E5FFFFFF2DE9F0411F46044681
:100AE00003260168072A01F4006004DB08B116A59B
:100AF00005E016A503E008B115A500E015A521F055
:100B000010002060A069C01EA0610FB1401EA0614E
:100B10002046FFF78DFB4FB1D4E9012138469047BD
:100B2000206A401C2062C01C206206E0206AFAE7AE
:100B3000D4E9012115F8010B9047761EF8D2204622
:100B4000FFF78CFBBDE8F0814E414E006E616E00F8
:100B5000494E4600696E66002DE9F047814616460B
:100B60008AB0354878440DC88DE80D003248784485
:100B7000801C03AC0DC884E80D0041F69B3008448E
:100B8000372190FBF1F290FBF1F5A5F1800501FB17
:100B900012041B3C02D56442012000E00020DFF873
:100BA00098A080460027FA44AAF1BE0A0EE0E007AA
:100BB0000AD03246684607EB470101230AEB810160
:100BC00004F069FE8DE8070064107F1C002CEED154
:100BD000194F7F44AE3F19E0E80715D007EB04102A
:100BE0000DF1180A90E80E008AE80E00C068F04285
:100BF00001D1981908903246012306A903A804F0F0
:100C00004AFE03AB83E807006D10641C002DE3D19E
:100C10004FF0010332466946B8F1000F03A802D035
:100C200004F024FE01E004F036FEC9E90001C9F831
:100C300008200AB0BDE8F0876C740000007B00F06B
:100C40008000704700487047680000207546FFF735
:100C5000F9FFAE4605006946534620F00700854679
:100C600018B020B5FFF7C6FABDE820404FF00006E7
:100C70004FF000074FF000084FF0000BAC46ACE817
:100C8000C009ACE8C009ACE8C009ACE8C00921F073
:100C900007018D46704710B50446AFF3008020462B
:100CA000BDE81040FFF792BA4FF0013C50F8042B1A
:100CB00051F8043B9A4221D1A2EB0C03934313EA6F
:100CC000CC1317D150F8042B51F8043B9A4215D19C
:100CD000A2EB0C03934313EACC130BD150F8042B73
:100CE00051F8043B9A4209D1A2EB0C03934313EA57
:100CF000CC13DBD04FF00000704700BFD01A01BA10
:100D0000B1FA81F101F0180122FA01F0CB40DBB217
:100D1000C0B2C01AC1F120012CFA01F3D11A9143DB
:100D200011EAC311E6D1704701491820ABBEFEE7B6
:100D30002600020070470000FEE700007047000038
:100D4000014690F82100022816D10868D1E90FC3A6
:100D5000026822F00E020260026822F001020260C4
:100D6000012000FA03F2CCF8042081F821000020D1
:100D7000002281F82020704704208863012000228F
:100D800081F820207047000090F82110022923D11B
:100D90000268116821F00E0111602F211368C4F25E
:100DA00002018A4240F20401C4F2020123F001036D
:100DB000136015DD3023C4F202039A421CD0442391
:100DC000C4F202039A421BD05823C4F202039A428F
:100DD0001CD14FF4803321E004218163012070474E
:100DE0000823C4F202039A420ED01C23C4F2020369
:100DF0009A420BD1102311E04FF480730EE000BF34
:100E00004FF480530AE000BF012307E001F1680CB2
:100E10004FF08073624508BF4FF480130B600121CF
:100E200080F82110426B002180F8201022B180B59B
:100E300090470021BDE8804008467047B0B50446A1
:100E400000F01EF9054640F25800C2F2000000789A
:100E5000611C18BF044400BF00F012F9401BA042FF
:100E6000FAD3B0BD2DE9F04F82B00E68002E00F02D
:100E7000FD8041F20042C4F20102042340F2004E20
:100E8000904208BF03234FF6FF7CC4F2010E00938B
:100E900000240123C1F2100C4FF0000A4FF00009AA
:100EA00044E000BF012704F00C030F229A402BEA14
:100EB000020207FA03F34FEA9A051A4346F825207F
:100EC0004E6840F20C45F202DEF8082054BF22EAD8
:100ED000080242EA0802C4F20105CEF808202A6896
:100EE000B30254BF22EA080242EA08022A60B303AE
:100EF000DEF8042054BF22EA080242EA0802F303A3
:100F0000CEF80420DEF800204FF0010354BF22EA9F
:100F1000080242EA0802CEF800200E680AF1010A2F
:100F200036FA0AF204F1040400F0A08003FA0AFB86
:100F300016EA0B08F1D04E68664511DC122E55D822
:100F4000DFE806F0340A444854545454545454547A
:100F500054545454544C5000D1F80C9046E000BF07
:100F60004FF6FF72C1F2210296420FDC0022C1F25D
:100F7000110296421AD00022C1F21202964215D0F6
:100F80000022C1F22102964210D02FE00022C1F2CD
:100F9000220296420AD00022C1F23102964205D0C6
:100FA0000022C1F23202964220D100BF8A684AB1C3
:100FB000012A14BFC0F814B0C0F810B04FF00809EF
:100FC00014E000BF4FF0040910E000BFCA6802F14E
:100FD00008090BE04FF0000908E000BFCA6802F101
:100FE000040903E0CA6802F10C0900BF2246064664
:100FF000B8F5807F24BF203A043637680F25954026
:1010000027EA050509FA02F22A433260CA79D206B4
:101010007FF583AF41F21803C4F202031A68AEF5FC
:101020007E7642F001021A601A6802F00102019213
:10103000019A2AF0030256F802B040F60002C4F208
:101040000102904210D040F60042C4F201029042E8
:101050003FF428AF41F20002C4F20102009F904227
:1010600008BF02271FE700BF00271CE702B0BDE84A
:10107000F08F0000002A08BF0904016170470000DA
:1010800040F27830C2F200000068704740F2580029
:1010900040F27831C2F20000C2F2000100780A6822
:1010A000104408607047000080B542F20000C4F2AE
:1010B0000200016841F010010160032000F08CF88B
:1010C0000F2000F005F800F027F8002080BD000098
:1010D00070B540F25806C2F2000640F26001327864
:1010E000C2F200014FF47A730968B3FBF2F20446CE
:1010F000B1FBF2F1084600F019FC0F2C4FF001058E
:1011000008D838B94FF0FF3021460022002500F002
:1011100037F87460284670BD82B041F21800C4F2FE
:1011200002000168022241F001010160016801F042
:10113000010101910199416841F08051416040688D
:1011400000F08050009000980420C4F20100016873
:1011500062F31A61016002B070470000002848BFC6
:10116000704700F01F01012202FA01F11C2202EA7D
:10117000D0004EF20012CEF2000281507047000003
:1011800010B54EF60C5CCEF2000CDCF80030C3F368
:10119000022E8EF00704042C28BF0424BEF10303A2
:1011A0004FF0FF3E0EFA04F438BF0023A1439940EC
:1011B0000EFA03F39A43114300F00F0200F160436B
:1011C0000901043A03F564436244002848BF02F170
:1011D0000C03197010BD00004EF60C51CEF2000148
:1011E0000A684FF6FF031A4060F30A2242F080605B
:1011F00040F0FD7008607047002804BF0120704770
:101200002DE9F04381B042F20008C4F2020804461E
:10121000D8F800000D4600F0070088420CD2D8F83C
:10122000000020F007002843C8F80000D8F80000AC
:1012300000F00700A8426ED1206841F2040981073E
:10124000C4F2020917D5410705D5D9F8001041F4B9
:10125000E061C9F80010010705D5D9F8001041F484
:101260006051C9F80010D9F80010A26821F0F0010F
:101270001143C9F80010C00744D1D8F8000000F0AD
:101280000700A8420CD9D8F8000020F00700284336
:10129000C8F80000D8F8000000F00700A8423AD1D2
:1012A0002068410707D5D9F80010E26821F4E06111
:1012B0001143C9F80010000708D5D9F800002169CA
:1012C00020F4605040EAC100C9F80000D9F80010CD
:1012D00042F2004001F00C02042AC0F2F40059D09E
:1012E000082A45D148F21403C1F38342C0F6000333
:1012F0009A5CC90342D440F60010C0F23D0050434E
:1013000048E000BF606802280AD001282AD159F8B5
:10131000041C890308D4012001B0BDE8F08300BF9C
:1013200059F8041C8901F6D5D9F8001021F0030101
:101330000843C9F80000FFF7A3FE064641F28837CC
:10134000D9F80000616800F00C00B0EB810F94D078
:10135000FFF796FE801BB842F2D9032001B0BDE82A
:10136000F08300BF59F8041C8907D4D5DCE700BF1F
:1013700041F20020C0F27A000CE000BFD9F8001062
:1013800048F20403C1F34041C0F60003595C5043E6
:10139000B0FBF1F0D9F8001047F6EC72C1F303117D
:1013A000C0F60002515C40F2600220FA01F140F206
:1013B0005C00C2F200000068C2F200021160FFF798
:1013C00087FE002001B0BDE8F083000040F260001D
:1013D00041F20401C2F20000C4F20201006809688F
:1013E00047F6FC72C1F30221C0F60002515CC8400E
:1013F0007047000040F2600041F20401C2F20000B8
:10140000C4F202010068096847F6FC72C1F3C22108
:10141000C0F60002515CC84070470000002804BFBD
:10142000012070472DE9F04182B00446007841F276
:101430000006C007C4F202060CD0706800F00C0071
:10144000042840F081803068800303D5606800285C
:1014500000F04E81207880071BD5706810F00C0FCB
:1014600009D0706800F00C00082840F08B8070688C
:10147000C00300F187803068800703D52069012808
:1014800040F036813068616920F0F80040EAC10020
:1014900030602078000713D4207840072CD4E56909
:1014A000002D00F02081706800F00C00082840F04A
:1014B000AF80012D40F00C81012002B0BDE8F08129
:1014C000A069002800F08C800020C4F24220012195
:1014D000C0F88014FFF7D4FD054600BF706A80078E
:1014E00000F1BA80FFF7CCFD401B0228F6D903209B
:1014F00002B0BDE8F08100BFF0695FEAC00808D41F
:10150000F06940F08050F061F06900F08050009088
:10151000009847F20007C4F200073868C0054DD4B0
:10152000386840F480703860FFF7AAFD054600BFB8
:101530003868C00542D4FFF7A3FD401B6428F7D9E3
:10154000032002B0BDE8F081706800F00C000828AC
:1015500003D17068C0033FF576AF6068002800F0E3
:101560000981B0F5A02F00F01D81B0F5803F00F09B
:101570001D81306820F480303060306820F4802095
:1015800017E100BF2069002840F20000C4F24220A9
:1015900000F08C8001210160FFF772FD054600BF5D
:1015A000306880073FF56EAFFFF76AFD401B0228E9
:1015B000F6D9032002B0BDE8F08100BFE068002842
:1015C00000F09A80052800F0B180012800F0B28078
:1015D000306A20F001003062306A20F00400ACE094
:1015E0000020C4F242200021C0F88014FFF748FD1B
:1015F000054600BF706A80077FF54EAFFFF740FDDC
:10160000401B0228F6D9032002B0BDE8F08100BFDC
:101610000027C4F2422700203866FFF731FD022D73
:1016200005460DD13068800140F1D680FFF728FDD6
:10163000401B02284FF00300F4D902B0BDE8F0814E
:10164000306880014FD5FFF71BFD401B02284FF08B
:101650000300F5D9F1E700BF40F26000C2F20000DC
:10166000006844F6D351C1F26201A0FB0101480AAF
:10167000019000BF00BF0198411E002801913FF476
:101680000BAF00BF0198411E002801913FF404AF49
:1016900000BF0198411E002801913FF4FDAE00BF3C
:1016A0000198411E00280191E4D1F5E60021016076
:1016B000FFF7E6FC054600BF306880077FF5E9AE1E
:1016C000FFF7DEFC401B02284FF00300F4D9B4E71B
:1016D0007068216A00F480328A4209D1616A00F49C
:1016E0007010884204D1002002B0BDE8F08100BF34
:1016F000012002B0BDE8F081306A20F001003062C4
:10170000306A20F004003062FFF7BAFC054641F26F
:10171000883700BF306A800722D5FFF7B1FC401B35
:10172000B8424FF00300F5D987E700BF306A40F0B8
:1017300004003062306A40F001003062FFF7A0FC24
:10174000054641F2883700BF306A800708D4FFF7AA
:1017500097FC401BB842F7D9032002B0BDE8F081E6
:10176000B8F1000F3FF59BAEF06920F08050F061BA
:1017700095E600BF306820F480303060306820F497
:1017800080203060FFF77CFC054600BF3068800396
:101790007FF560AEFFF774FC401B64284FF0030038
:1017A000F4D94AE7306840F480203060306840F473
:1017B00080303060FFF764FC054600BF306880036E
:1017C0003FF548AEFFF75CFC401B6428F6D90320C8
:1017D00002B0BDE8F08100BF206AB0F5803F05D1BE
:1017E0007168A26821F40031114371607168626A06
:1017F00021F4741111430843706001203866FFF72B
:101800003FFC0446306880013FF56DAFFFF738FCC0
:10181000001B02284FF00300F4D90EE770B538B171
:101820000446406A30B10020206104F1140007E052
:10183000012070BD6068B0F5827F03D004F11C0008
:10184000002101600026A66294F8510020B92046CC
:1018500084F8506000F038F8022084F8510094E8D1
:10186000071001F48271036802F4044223F040037C
:101870000360236911440CF40062114403F0020276
:101880006369114403F00102A369E569114403F49B
:101890000072114405F03802256A114405F08002F7
:1018A000A56A114305F4005211430160042101EAC5
:1018B00013414160C16921F40061C1610120666585
:1018C00084F85100304670BD80B586B043F6000103
:1018D0000068C4F2000100228842049202D006B0DF
:1018E00080BD00BF41F21800C4F20200426842F419
:1018F00080424260426802F480420192019A02688A
:1019000042F008020260006800F0080001900198AF
:101910004FF420400290022003900320059001F52F
:10192000544002A9FFF79EFA06B080BD411E002078
:10193000B0EB116F1CBF012070474EF21002CEF2C7
:10194000000251604EF62351CEF20001F0230B70DD
:1019500007219060116070477047000070470000D9
:1019600090F83C20012A4FF0020236D010B580F8E2
:101970003D200268D2F804E0D2F808C00C682EF0CE
:101980007003234340F2FF74C4F20004A242536088
:101990000ADCB2F1804F13D040F20043C4F20003DE
:1019A0009A420DD011E000BF42F60043C4F2010399
:1019B0009A4205D040F60003C4F200039A4204D1D3
:1019C00049682CF08003194391600121002280F8BE
:1019D0003D1080F83C20BDE81040104670470000E4
:1019E000002804BF0120704710B5044690F83D0060
:1019F00028B9002084F83C00204600F067F8022057
:101A000084F83D00206840F2FF730268C4F20003CE
:101A100042F6004C9842C4F2010C15DCB0F1804F44
:101A20001AD040F20041C4F20001884214D098421A
:101A300018DCB0F1804F1DD040F20041C4F200012B
:101A4000884217D01AE000BF604505D040F600017B
:101A5000C4F200018842EAD1A16822F070020A4370
:101A60009842E6DD604505D040F60001C4F2000171
:101A7000884203D1216922F440720A43A36922F00B
:101A80008001D4F804E0E268194360450160C26255
:101A9000C0F828E002D16169CCF830100121416121
:101AA000002084F8461084F83E1084F83F1084F833
:101AB000401084F8411084F8421084F8431084F8F0
:101AC000441084F8451084F83D1010BD80B584B0F2
:101AD0000068B0F1804F1DD040F20041C4F2000117
:101AE00088422FD042F60041C4F2010188420FD152
:101AF00041F21C00C4F2020050F8041C41F40061E1
:101B000040F8041C50F8040C00F4006003900398A3
:101B100004B080BD41F21C00C4F202000168002242
:101B200041F00101016000680E2100F00100029007
:101B300002981C20FFF724FB1C2004B0BDE8804065
:101B4000FFF70CBB41F21C00C4F202000168002246
:101B500041F00201016000680D2100F002000190D7
:101B600001981D20FFF70CFB1D2004B0BDE880404C
:101B7000FFF7F4BA90F83D1001291CBF012070470F
:101B8000022180F83D10006840F2FF71C4F20001AC
:101B9000884209DCB0F1804F12D040F20041C4F21B
:101BA000000188420CD012E042F60041C4F201016B
:101BB000884205D040F60001C4F20001884206D1F7
:101BC000816801F00701062904BF00207047016801
:101BD00041F00101016000207047000090F83D10C5
:101BE00001291CBF01207047022180F83D100068C8
:101BF00040F2FF72C168C4F20002904241F001015C
:101C0000C16009DCB0F1804F12D040F20041C4F253
:101C1000000188420CD012E042F60041C4F20101FA
:101C2000884205D040F60001C4F20001884206D186
:101C3000816801F00701062904BF00207047016890
:101C400041F00101016000207047000090F83C2045
:101C5000012A4FF0020200F0C58080B580F83D20D7
:101C6000D0F800C04FF67772DCF8083023EA0202A1
:101C7000CCF808200B684F2B28DC1F2B44DD202BD1
:101C800045D0302B43D0402B40F0AE80D1F804E05B
:101C9000C968DCF82030DCF8202022F00102CCF802
:101CA0002020DCF8182022F0F00242EA011123F093
:101CB0000A0242EA0E02CCF81810CCF82020DCF818
:101CC000081041F0470121F0300180E06F2B27DD43
:101CD000B3F5005F48D0B3F5805F7AD0702B40F049
:101CE0008380D1E901E3C968DCF8082043EA0E03E8
:101CF00022F47F4243EA01211143CCF80810DCF8BA
:101D0000081041F0770162E00BB1102B6CD1DCF8C8
:101D1000081021F07001194341F0070157E000BF9E
:101D2000502B35D0602B5FD1D1F804E0C968DCF8C6
:101D30002030DCF8202022F01002CCF82020DCF843
:101D4000182022F4704242EA013123F0A00242EA54
:101D50000E12CCF81810CCF82020DCF8081041F056
:101D6000670121F0100132E0D1E901E3C968DCF834
:101D7000082043EA0E0322F47F4243EA0121114383
:101D8000CCF80810DCF8081041F480411FE000BFD7
:101D9000D1F804E0C968DCF82030DCF8202022F01B
:101DA0000102CCF82020DCF8182022F0F00242EAF0
:101DB000011123F00A0242EA0E02CCF81810CCF806
:101DC0002020DCF8081041F0570121F02001CCF868
:101DD00008100022012180F83D10002180F83C10FD
:101DE000BDE88040104670470122F3E770470000CD
:101DF00010B5016804460869800744BFC8685FEAF7
:101E0000807039D40869400744BFC8685FEA4070F1
:101E10003ED40869000744BFC8685FEA007045D433
:101E20000869C00644BFC8685FEAC0604AD4086950
:101E3000C0071CBFC8685FEAC07051D108690006BE
:101E400044BFC8685FEA006052D40869400644BFD6
:101E5000C8685FEA406053D40869800646BFC86816
:101E60005FEA806010BD6FF0200220460A61BDE885
:101E70001040FFF773BD00BF6FF002000861012042
:101E800020778869800743D02046FFF7AFFF45E001
:101E90006FF00400086102202077886910F4407F09
:101EA00040D02046FFF7A2FF42E000BF6FF00800DD
:101EB000086104202077C86980073DD02046FFF7DD
:101EC00095FF3FE06FF01000086108202077C86997
:101ED00010F4407F3AD02046FFF788FF3CE000BF77
:101EE0006FF001000861204600F03EF82168A5E788
:101EF0006FF0800008612046FFF72EFD2168A4E7FF
:101F00006FF040000861204600F0ECF82168A3E77C
:101F1000204600F025F8204600F024F82168002033
:101F200020776FE7204600F01BF8204600F01AF8F3
:101F30002168002020776CE7204600F011F8204649
:101F400000F010F821680020207769E7204600F0B3
:101F500007F8204600F006F821680020207766E7A1
:101F60007047000070470000006840F20041C4F272
:101F7000000188422AD0B0F1804F18BF704710B5D9
:101F800040F20004C2F20004207803283AD002286C
:101F900054D001286FD13120E07140F2A020A11D62
:101FA000C2F2000003224FF0FF3300F0D5FE40F2F2
:101FB000C801C2F20001CA7B00204872002A01F168
:101FC000110071D0024601F1100050E040F2C8004B
:101FD000C2F20000807D01285ED148F2A410C4F254
:101FE00021200168C9430160016840F25820C2F213
:101FF00000000068012914BF4DF6EF014BF2DF111C
:10200000416270473320E07140F2A020A11DC2F26E
:10201000000003224FF0FF3300F09EFE40F2C801A3
:10202000C2F200010A7B0020C873002A01F10E00F1
:1020300044D0024601F10D0019E000BF3220E071EA
:1020400040F2A020A11DC2F2000003224FF0FF3396
:1020500000F082FE40F2C801C2F200014A7A00207C
:10206000087301F10B009AB3024601F10A00012145
:1020700011700021017020780130C1B2032988BF9E
:102080000120207040F21020C2F2000000684FF2E0
:102090003B61416210BD00BF40F25820C2F2000017
:1020A00000680021416270470A7C91F812C0013239
:1020B000D3B263450A74DCD8DDE700BF4A7B91F8F0
:1020C00012C00132D3B263454A73D2D8D3E700BFFE
:1020D0008A7A91F812C00132D3B263458A72C8D8A5
:1020E000C9E700007047000070470000704700001B
:1020F000B0B582B0044600680168C368426901F067
:102100002F05202D03F0200506D12DB1204602B069
:10211000BDE8B04001F0A2BB5FEA017C1EBF02F047
:10212000010E03F4907212EB0E0243D1226BCD0626
:1021300018D5012A16D113F0100213D000210191F5
:1021400001680191416801910199406940063BD4C1
:10215000A08DE18DE28D002A18BF884240F0F28107
:1021600002B0B0BD0A0640F1E78013F0800200F033
:10217000E38094F841102129F2D1A168B1F5805F84
:1021800003D12169002900F06382216A4A1C22627E
:1021900009784160E18C01390A04E184E0D1C16829
:1021A00021F08001C160C16841F04001C16002B00E
:1021B000B0BD00BFCA0718BF13F4807240F0D080D2
:1021C0004A0700F1D380D8E0E06B016849688AB221
:1021D000002AC5D0A38D9A42C2D2E1858069202809
:1021E00000F09E80206850E8030F216820F4807082
:1021F00041E80302DAB1206850E8030F216820F4B7
:10220000807041E8030292B1206850E8030F216812
:1022100020F4807041E803024AB1206850E8030FBF
:10222000216820F4807041E80302002ADAD1206896
:1022300050E8050F216820F0010041E80502C2B313
:10224000206850E8050F216820F0010041E80502F0
:102250007AB3206850E8050F216820F0010041E8BA
:10226000050232B3206850E8050F216820F0010014
:1022700041E80502002ADAD11BE000BF206850E8DF
:10228000050F216820F0400041E80502DAB120681E
:1022900050E8050F216820F0400041E8050292B1A6
:1022A000206850E8050F216820F0400041E8050251
:1022B0004AB1206850E8050F216820F0400041E84D
:1022C0000502002ADAD1202084F842000020206391
:1022D000206850E8030F216820F0100041E8030255
:1022E000DAB1206850E8030F216820F0100041E8BF
:1022F000030292B1206850E8030F216820F010001B
:1023000041E803024AB1206850E8030F216820F039
:10231000100041E80302002ADAD1E06BFEF710FD5D
:1023200002206063A08DE18D401A81B2204602B088
:10233000BDE8B040FFF7D8BE49067FF511AF13F0F6
:1023400040013FF40DAFC16821F04001C160202180
:10235000204684F8411002B0BDE8B04000F038BE1D
:10236000626C42F0010262644A0706D5BEF1000FBA
:1023700003D0626C42F0020262648A0706D5BEF1A5
:10238000000F03D0626C42F004026264BCF1000FE3
:1023900006D55EEA050203D0626C42F00802626470
:1023A000626C002A3FF4DCAE890604D51DB12046DC
:1023B00001F054FA20684069616C00F0400001F0BF
:1023C0000801401800F0B680206850E8030F21682B
:1023D00020F4907041E80302BAB3206850E8030F7C
:1023E000216820F4907041E8030272B3206850E83D
:1023F000030F216820F4907041E803022AB320689B
:1024000050E8030F216820F4907041E80302002A8D
:10241000DAD11AE0206850E8050F216820F00100A9
:1024200041E80502DAB1206850E8050F216820F084
:10243000010041E8050292B1206850E8050F2168CB
:1024400020F0010041E805024AB1206850E8050F7C
:10245000216820F0010041E80502002ADAD1206B52
:10246000012824D1206850E8030F216820F01000D3
:1024700041E80302DAB1206850E8030F216820F038
:10248000100041E8030292B1206850E8030F216870
:1024900020F0100041E803024AB1206850E8030F21
:1024A000216820F0100041E80302002ADAD1202040
:1024B00084F842000020206320684069400640F113
:1024C000C180206850E8050F216820F0400041E8F5
:1024D0000502DAB1206850E8050F216820F04000BD
:1024E00041E8050292B1206850E8050F216820F00C
:1024F000400041E805024AB1206850E8050F216814
:1025000020F0400041E80502002ADAD1E06B002803
:1025100000F0988043F65101C0F600014163FEF7D8
:1025200033FC00283FF41CAEE06B416B02B0BDE809
:10253000B04008472046FFF7D9FD0020606402B094
:10254000B0BD00BF401A00BF216851E8031F2268D8
:1025500021F4907142E80313BBB3216851E8031FD3
:10256000226821F4907142E8031373B3216851E8A3
:10257000031F226821F4907142E803132BB32168F2
:1025800051E8031F226821F4907142E80313002BE5
:10259000DAD11AE0216851E8051F226821F0010113
:1025A00042E80513DBB1216851E8051F226821F0DC
:1025B000010142E8051393B1216851E8051F226823
:1025C00021F0010142E805134BB1216851E8051FD4
:1025D000226821F0010142E80513002BDAD1202105
:1025E00084F8421000212163216851E8031F22680A
:1025F00021F0100142E80313DBB1216851E8031F09
:10260000226821F0100142E8031393B1216851E8D8
:10261000031F226821F0100142E803134BB1216827
:1026200051E8031F226821F0100142E80313002B38
:10263000DAD1022281B22046626302B0BDE8B04026
:10264000FFF752BD204602B0BDE8B040FFF74EBDD7
:10265000216A31F8022B6FF35F224260216299E513
:10266000002804BF0120704710B5044690F84100CF
:1026700028B9002084F84000204600F063F82420A8
:1026800084F841002068D4E90212C36823F400539F
:10269000C360036923F440531A430261D4E904235D
:1026A0001143C268194341F20C639A431143C1605C
:1026B0004169A26921F44071114343F60002C4F25A
:1026C00001029042416103D0FEF780FE02E000BFAC
:1026D000FEF790FED4E90023192148439900B0FB8E
:1026E000F1F048F21F5CC5F2EB1CA0FB0C314FF679
:1026F0009C734909C0F6FF7301FB0300322303EB0F
:102700000010A0FB0C03F02000EA531000EB0110B6
:10271000C3F34311084490601069202120F49040D5
:102720001061506920F02A005061D06840F40050D8
:10273000D0600020606484F8411084F84210606327
:1027400010BD000070B586B0006844F20041C4F2CC
:102750000001002688420596CDE90366029641D025
:1027600044F60001C4F2000188426DD043F6000136
:10277000C4F20101884240F0A28041F21800C4F284
:102780000200016840F6000441F4804101600168E4
:10279000C4F2010401F4804101910199016802AD84
:1027A00041F0040101600068294600F00400019036
:1027B00001984FF4007002900220039003200590CE
:1027C0002046FEF74FFB4FF4806002900020CDE9D9
:1027D000030020462946FEF745FB25200221002262
:1027E000252467E041F21800C4F20200416840F677
:1027F000000441F4003141604168C4F2010401F475
:10280000003101910199016802AD41F004010160BC
:102810000068294600F0040001900198042002900D
:1028200002200390032005902046FEF71BFB0820A2
:10283000CDE90206204629460496FEF713FB262022
:1028400000210022262435E041F21800C4F20200E3
:10285000416802AD41F480214160416801F480216A
:1028600001910199016841F0080101600068294661
:1028700000F00800019001984FF48060029002205F
:1028800003900320059040F60000C4F2010000F51B
:1028900080642046FEF7E6FA4FF4006002900020C4
:1028A000CDE9030020462946FEF7DCFA2720012166
:1028B00000222724FEF764FC2046FEF74FFC06B0FA
:1028C00070BD000090F84230202B07D100294FF056
:1028D000010318BF002A05D1184670470223184685
:1028E000704700BF00230363816222218285C28575
:1028F000436480F842100169006819B1C16841F46D
:102900008071C160416941F001014161C16841F0DC
:102910002001C1601846704780B5006844F200414C
:10292000C4F20001884247D044F60001C4F200011D
:10293000884213D043F60001C4F20101884249D114
:1029400040F2C801C2F200010878532844D10120A6
:102950008870481C002101703CE100BF40F2C80CA7
:10296000C2F2000C9CF82410002963D09CF82410BB
:10297000012940F08B809CF807103E2940F0AD8182
:1029800040F24411C2F20001896A00224A6242F216
:102990000F7242F2107300BF486A904208D8486A2A
:1029A000904205D8486A904202D8486A9842F3D3C8
:1029B00001208CF8170090E140F2C800C2F200003C
:1029C000C17853291ED101214171011D00220A70D5
:1029D00012E100BF80BD00BF8A78502800F0F68069
:1029E000012A40F0F3804A7840F24413C2F2000317
:1029F00013449874501CC2B20F2A487040F2EA8007
:102A0000881CA7E74279502900F0F280012A40F0A3
:102A1000EF80037940F2441290F801C0C2F2000244
:102A20001A441172591CBCF1030F017140F2E48089
:102A3000811CCBE79CF80710502905D101228CF8A6
:102A40001E2000228CF822209CF81E20002A00F074
:102A500044819CF8222048F22703C0F600039A5CC8
:102A60008A421CBF00218CF81E109CF822100131F4
:102A70008CF822109CF822100729C0F02E8140F219
:102A80000001C2F2000101220A7126E19CF8240033
:102A9000022840F0BB809CF80710422905D1012094
:102AA0008CF81C0000208CF820009CF81C00B8B1A9
:102AB0009CF8200048F20602C0F60002105C884232
:102AC0001CBF00208CF81C009CF8200001308CF802
:102AD00020009CF82000052824BF01208CF8190054
:102AE000432905D101208CF81D0000208CF821001D
:102AF0009CF81D00002800F0F0809CF8210048F2AE
:102B00000C02C0F60002105C88421CBF00208CF84A
:102B10001D009CF8210001308CF821009CF8210058
:102B20000728C0F0DA80002040F244118CF81A0027
:102B3000C2F20001896A4EF65F224EF660234862B7
:102B4000486A904208D8486A904205D8486A90423C
:102B500002D8486A9842F3D300204EF65F224EF620
:102B600060234862486A904208D8486A904205D873
:102B7000486A904202D8486A9842F3D300204EF641
:102B80005F224EF660234862486A904208D8486A3D
:102B9000904205D8486A904202D8486A9842F3D3D6
:102BA00000204EF65F224EF660234862486A90424B
:102BB00000F29380486A904200F28F80486A904207
:102BC00000F28B80486A9842F0D386E0502808BF14
:102BD000012A47D040F2A02040F2C801C2F2000012
:102BE000C2F200010122BDE88040FFF76BBE00BFCA
:102BF000502908BF012A57D0C11C40F2E820C2F278
:102C000000000122BDE88040FFF75CBE9CF8240074
:102C1000032818BF80BD9CF807104F2905D101205B
:102C20008CF81F0000208CF823009CF81F0000285F
:102C300053D09CF8230048F22402C0F60002105C36
:102C4000884247D19CF8230001308CF823009CF87F
:102C50002300022841D300208CF81A0001208CF8B0
:102C60001B003AE040F24412C2F20002937C881C3E
:102C7000032B3DD0022B53D0012B7FF46BAE0123ED
:102C80004B720B76D2F813E0D2F81730D2F81BC093
:102C900040F20001B2F81F20C2F20001C1E907E3CF
:102CA000C1F824C00A8555E640F24411C2F2000181
:102CB0000B7A4A7A432B00F1050180F8273080F81F
:102CC000282043D0572B43D0462B7FF47FAE00F112
:102CD00014033FE000208CF81F0040F230300CF16C
:102CE0000701C2F200000122BDE88040FFF7EABD03
:102CF0000123CB7303230B76D2F813E0D2F81730FD
:102D0000D2F81BC040F20001B2F81F20C2F200014D
:102D1000C1E911E3C1F84CC0A1F850201AE600BF88
:102D200001230B7302230B76D2F813E0D2F817308D
:102D3000D2F81BC040F20001B2F81F20C2F200011D
:102D4000C1E90CE3C1F838C08A8703E6831D01E0BE
:102D500000F115031A7039E62DE9F04381B00446FD
:102D600090F84100202840F0B180884600294FF0BB
:102D7000010000F0D6801646002A00F0D280002024
:102D8000606421201D4684F84100FEF779F9A6848D
:102D9000E684A1680646B1F5805F03D1206900286A
:102DA00000F0988047464FF00008E18C2068002929
:102DB00000F0968005F101090BE000BF47B317F85A
:102DC000011B4160E18C0139E184E18C002900F0B4
:102DD000878001680906F1D4B9F1000F0AD0EDB17E
:102DE000FEF74EF9801BA84218D820680168090632
:102DF000F6D5E3E701680906E0D4016809065CBF7F
:102E000001685FEA0161D9D401680906F2D5D5E706
:102E100038F8021B00276FF35F21D2E7206850E8E3
:102E2000030F216820F4D07041E80302BAB3206890
:102E300050E8030F216820F4D07041E8030272B318
:102E4000206850E8030F216820F4D07041E80302A5
:102E50002AB3206850E8030F216820F4D07041E8BD
:102E60000302002ADAD11AE0206850E8050F216831
:102E700020F0010041E80502DAB1206850E8050FB2
:102E8000216820F0010041E8050292B1206850E875
:102E9000050F216820F0010041E805024AB12068D1
:102EA00050E8050F216820F0010041E80502002AE2
:102EB000DAD1202084F8410084F84200002084F810
:102EC0004000032001B0BDE8F08300BF022001B044
:102ED000BDE8F0830027E18C206800297FF46AAF09
:102EE0000168490619D4FDB1691C0DD10168490674
:102EF00013D4016849065CBF01685FEA41610CD4E4
:102F000001684906F2D508E0FEF7BAF8801BA8422E
:102F10000AD8206800684006F6D5202084F84100D1
:102F2000002001B0BDE8F083206850E8030F21685D
:102F300020F4D07041E80302002A3ED0206850E817
:102F4000030F216820F4D07041E80302AAB320687F
:102F500050E8030F216820F4D07041E8030262B307
:102F6000206850E8030F216820F4D07041E8030284
:102F7000002AD9D121E000BF206850E8050F216860
:102F800020F0010041E80502002A3FF492AF2068DA
:102F900050E8050F216820F0010041E80502002AF1
:102FA0003FF487AF206850E8050F216820F001004A
:102FB00041E80502002A3FF47CAF206850E8050F85
:102FC000216820F0010041E80502002AD4D170E711
:102FD00070470000FEE7000070B51420FDF72EFFDB
:102FE00040F20005C2F200056C7944F03006F0B200
:102FF00000F0D2F844F03400C0B200F0CDF806F092
:10300000FB0000F0C9F80520FDF718FF6C7944F0CB
:103010003006F0B200F0C0F844F03400C0B200F066
:10302000BBF806F0FB0000F0B7F80120FDF706FF43
:103030006C7944F03006F0B200F0AEF844F03400A1
:10304000C0B200F0A9F806F0FB0000F0A5F86C791A
:1030500044F02006F0B200F09FF844F02400C0B223
:1030600000F09AF806F0FB0000F096F86C7944F056
:103070002006F0B200F090F844F02400C0B200F056
:103080008BF806F0FB0000F087F86C7964F07F069F
:10309000F0B200F081F844F08400C0B200F07CF897
:1030A00006F0FB0000F078F86C79204600F074F828
:1030B00044F0040000F070F804F0FB0000F06CF83D
:1030C0006C7964F07F06F0B200F066F844F084009A
:1030D000C0B200F061F806F0FB0000F05DF86C791A
:1030E000204600F059F844F0040000F055F804F0D0
:1030F000FB0000F051F86C7944F01006F0B200F0DB
:103100004BF844F01400C0B200F046F806F0FB00A3
:1031100000F042F80220FDF791FE6C79204600F0A5
:103120003BF844F0040000F037F804F0FB0000F036
:1031300033F86C7964F03F06F0B200F02DF844F0FB
:10314000C400C0B200F028F806F0FB0000F024F83C
:103150006C7964F07F06F0B200F01EF844F0840051
:10316000C0B200F019F806F0FB0000F015F86C7919
:10317000204600F011F844F0040000F00DF804F0CF
:10318000FB00BDE8704000F007B80000FEE700005B
:10319000FEE70000704700002DE9F04148F2981862
:1031A0000546C4F22128012040F24417C8F8040063
:1031B000C2F20007B86A0021416200BF416A31B91A
:1031C000416A21B9416A11B9416A0029F6D0012149
:1031D000C8F8001000214162416A31B9416A21B941
:1031E000416A11B9416A0029F6D00021C8F80410DB
:1031F000416200BF416A31B9416A21B9416A11B9DE
:10320000416A0029F6D040F60044C4F201040026C9
:10321000204680210022C8F80060FDF72BFF2046E1
:1032200040210122FDF726FFB86A4662416A31B9A2
:10323000416A21B9416A11B9416A0029F6D0204694
:10324000402100220026FDF715FFB86A466200BF44
:10325000416A31B9416A21B9416A11B9416A00290B
:10326000F6D0204680210122FDF704FF20464021B0
:103270000122FDF7FFFEB86A00214162416A31B9BF
:10328000416A21B9416A11B9416A0029F6D0204644
:10329000402100220026FDF7EDFEB86A466200BF1D
:1032A000416A31B9416A21B9416A11B9416A0029BB
:1032B000F6D0204680210122FDF7DCFE2046402189
:1032C0000122FDF7D7FEB86A00214162416A31B997
:1032D000416A21B9416A11B9416A0029F6D02046F4
:1032E000402100220026FDF7C5FEB86A466200BFF5
:1032F000416A31B9416A21B9416A11B9416A00296B
:10330000F6D0204680210122FDF7B4FE2046402160
:103310000122FDF7AFFEB86A00214162416A31B96E
:10332000416A21B9416A11B9416A0029F6D02046A3
:10333000402100220026FDF79DFEB86A466200BFCC
:10334000416A31B9416A21B9416A11B9416A00291A
:10335000F6D0204680210122FDF78CFE2046402138
:103360000122FDF787FEB86A00214162416A31B946
:10337000416A21B9416A11B9416A0029F6D0204653
:10338000402100220026FDF775FEB86A466200BFA4
:10339000416A31B9416A21B9416A11B9416A0029CA
:1033A000F6D0204680210122FDF764FE2046402110
:1033B0000122FDF75FFEB86A00214162416A31B91E
:1033C000416A21B9416A11B9416A0029F6D0204603
:1033D000402100220026FDF74DFEB86A466200BF7C
:1033E000416A31B9416A21B9416A11B9416A00297A
:1033F000F6D0204680210122FDF73CFE20464021E8
:103400000122FDF737FEB86A00214162416A31B9F5
:10341000416A21B9416A11B9416A0029F6D02046B2
:10342000402100220026FDF725FEB86A466200BF53
:10343000416A31B9416A21B9416A11B9416A002929
:10344000F6D02046802100220026FDF713FE2046FC
:1034500040210122FDF70EFEB86A4662416A31B989
:10346000416A21B9416A11B9416A0029F6D0204662
:10347000402100220026FDF7FDFDB86A466200BF2C
:10348000416A31B9416A21B9416A11B9416A0029D9
:10349000F6D02046802100220026FDF7EBFD2046D5
:1034A00040210122FDF7E6FDB86A4662416A31B962
:1034B000416A21B9416A11B9416A0029F6D0204612
:1034C000402100220026FDF7D5FDB86A466200BF04
:1034D000416A31B9416A21B9416A11B9416A002989
:1034E000F6D0EA0920468021FDF7C4FD20464021A0
:1034F0000122FDF7BFFDB86A00214162416A31B97E
:10350000416A21B9416A11B9416A0029F6D02046C1
:10351000402100220026FDF7ADFDB86A466200BFDB
:10352000416A31B9416A21B9416A11B9416A002938
:10353000F6D0C5F3801220468021FDF79BFD204682
:1035400040210122FDF796FDB86A0021416200BFCB
:10355000416A31B9416A21B9416A11B9416A002908
:10356000F6D02046402100220026FDF783FDB86AF0
:10357000466200BF416A31B9416A21B9416A11B955
:10358000416A0029F6D0C5F3401220468021FDF79C
:1035900071FD204640210122FDF76CFDB86A002133
:1035A000416200BF416A31B9416A21B9416A11B92A
:1035B000416A0029F6D02046402100220026FDF76E
:1035C00059FDB86A466200BF416A31B9416A21B902
:1035D000416A11B9416A0029F6D0C5F300122046AC
:1035E0008021FDF747FD204640210122FDF742FDE5
:1035F000B86A0021416200BF416A31B9416A21B90C
:10360000416A11B9416A0029F6D0204640210022C2
:103610000026FDF72FFDB86A466200BF416A31B946
:10362000416A21B9416A11B9416A0029F6D0C5F34E
:10363000C00220468021FDF71DFD204640210122C9
:10364000FDF718FDB86A0021416200BF416A31B937
:10365000416A21B9416A11B9416A0029F6D0204670
:10366000402100220026FDF705FDB86A466200BF32
:10367000416A31B9416A21B9416A11B9416A0029E7
:10368000F6D0C5F3800220468021FDF7F3FC2046EA
:1036900040210122FDF7EEFCB86A0021416200BF23
:1036A000416A31B9416A21B9416A11B9416A0029B7
:1036B000F6D02046402100220026FDF7DBFCB86A48
:1036C000466200BF416A31B9416A21B9416A11B904
:1036D000416A0029F6D0C5F3400220468021FDF75B
:1036E000C9FC204640210122FDF7C4FCB86A002134
:1036F000416200BF416A31B9416A21B9416A11B9D9
:10370000416A0029F6D02046402100220026FDF71C
:10371000B1FCB86A466200BF416A31B9416A21B959
:10372000416A11B9416A0029F6D005F0010220462C
:103730008021FDF79FFC204640210122FDF79AFCE5
:10374000B86A0021416200BF416A31B9416A21B9BA
:10375000416A11B9416A0029F6D020464021002271
:103760000025FDF787FCB86A456200BF416A31B9A0
:10377000416A21B9416A11B9416A0029F6D020464F
:10378000802100220025FDF775FC20464021012202
:10379000FDF770FCB86A4562416A31B9416A21B9E6
:1037A000416A11B9416A0029F6D020464021002221
:1037B0000024FDF75FFCB86A446200BF416A31B97A
:1037C000416A21B9416A11B9416A0029F6D0002144
:1037D000C8F80410416200BF416A31B9416A21B999
:1037E000416A11B9416A0029F6D00021C8F80010D9
:1037F000416200BF416A31B9416A21B9416A11B9D8
:10380000416A0029F6D00121C8F800100021416268
:10381000416A31B9416A21B9416A11B9416A002945
:10382000F6D00120C8F80400BDE8F0817047000020
:10383000FDF72CBC7047000040F21020C2F20000DF
:10384000FEF7D6BA40F25820C2F20000FEF7D0BA16
:10385000406A0021C185C184FEF748BC81B090F860
:103860004210222921D183680246B3F5805F09D135
:1038700052F8281F52F8183C002B63D003685B688D
:103880000AE000BF52F8281F13B90369002BF5D0D6
:1038900003685B6803F07F030B70116801311160EE
:1038A000C18D01390A04C18502D001B0704700BF43
:1038B0000168CA6822F02002CA60CA6822F48072D5
:1038C000CA604A6922F001024A61202180F8421050
:1038D00000214163026B012A3CD10163016851E878
:1038E000031F026821F0100142E80313DBB10168F5
:1038F00051E8031F026821F0100142E8031393B15D
:10390000016851E8031F026821F0100142E8031327
:103910004BB1016851E8031F026821F0100142E831
:103920000313002BDAD101680A68D20606D50022FB
:1039300000920A680092496800910099818D01B057
:10394000FEF7D2BB026852686FF35F2221F8022BA8
:103950008162A5E701B0FEF7DFBF000040F2A020C2
:10396000C2F20000FEF7C4BB40F2E820C2F2000041
:10397000FEF7BEBB40F23030C2F20000FEF7B8BB2B
:10398000FEE70000F0B581B040F2C801C2F20001CC
:10399000097A009004291BD80446DFE801F00309E6
:1039A0000F191D0040F2A020C2F200000AE000BF83
:1039B00040F2E820C2F2000004E000BF40F23030E4
:1039C000C2F20000694601224FF0FF33FFF7C4F94D
:1039D0005DF8040BF0BD00BF40F20005C2F2000527
:1039E000687924F00F0140EA010646F00107F8B2B9
:1039F000FFF7D2FB46F00500C0B2FFF7CDFB07F0A2
:103A0000FB00FFF7C9FB687940EA041444F00105A4
:103A1000E8B2FFF7C1FB44F00500C0B2FFF7BCFB02
:103A200005F0FB00FFF7B8FB5DF8040BF0BD0000EC
:103A3000A2B0FDF739FB00240120CDE91D44CDE9FA
:103A40001B4418901C904FF4E0104FF480314FF459
:103A500000320225219018A819911A92CDE91F5120
:103A6000FDF7DCFC20B1EFF3108072B6FEE700BF7B
:103A70000F20CDE912054FF48060CDE9150412A89E
:103A800002211494FDF7B8FB20B1EFF3108072B659
:103A9000FEE700BF41F21800C4F20200016840F6E0
:103AA000000841F0100101600168C4F2010801F052
:103AB000100118911899016808F5006641F020017D
:103AC00001600168002201F0200118911899016835
:103AD0004FF4005741F0040101600168002401F037
:103AE000040118911899016841F00801016000680B
:103AF0004FF4005100F00800189018983046FDF778
:103B0000B9FA08F58065284645F2FC31002245F2F5
:103B1000FC3AFDF7AFFA40464FF419410022FDF799
:103B2000A9FA189718AF4FF0010B4FF00209304671
:103B30003946CDE919B4CDF86C90FDF793F9F3202F
:103B4000CDE91804404639461A94FDF78BF928460A
:103B50003946CDE918ABCDE91A49FDF783F94FF4A1
:103B60001940CDE9180B40463946CDE91A49474678
:103B7000FDF778F908F5105140F24418C2F2000838
:103B8000404640F8281F48214FF6FF721B94CDE9AC
:103B90001944CDE91244C0E90114C0E90324C0E985
:103BA0000544FDF71DFF28B1EFF3108072B600BF8A
:103BB000FEE700BF4FF4805008F12805189018A9BF
:103BC0002846FEF743F828B1EFF3108072B600BF25
:103BD000FEE700BF12A92846FDF7C2FE20B1EFF3B1
:103BE000108072B6FEE700BF40F2A02007F54051FA
:103BF000C2F2000000240C264FF4E13280E81600E7
:103C0000C0E90344C0E90564C461FEF729FD28B199
:103C1000EFF3108072B600BFFEE700BF40F2E8206D
:103C2000A7F54441C2F200004FF4612280E816007B
:103C3000C0E90344C0E90564C461FEF711FD28B181
:103C4000EFF3108072B600BFFEE700BF40F2B8107D
:103C5000A7F55041C2F200004FF4827200244FF4E5
:103C6000007380E816000A21C0E90344C0E9054357
:103C7000C461C0E90844C0E90A41FDF7CFFD28B19D
:103C8000EFF3108072B600BFFEE700BF40F21020D5
:103C9000C2F200004FF080414FF6FF731B94CDE954
:103CA0001944CDE912444FF4E15280E81600C0E90E
:103CB00003348461FDF794FE20B1EFF3108072B6F7
:103CC000FEE700BF4FF48050189040F21020C2F27F
:103CD000000018A9FDF7BAFF20B1EFF3108072B60B
:103CE000FEE700BF40F21026C2F2000612A93046DD
:103CF000FDF736FE20B1EFF3108072B6FEE700BF8D
:103D000040F23030A7F54041C2F2000000240C23FD
:103D10004FF4E13280E81600C0E90344C0E90534FD
:103D2000C461FEF79DFC18B1EFF3108072B6FEE798
:103D300040F25820A7F58231C2F200004FF6FF731F
:103D40001B94CDE91944CDE9124448F6A04280E81D
:103D50001600C0E903348461FDF742FE20B1EFF3A1
:103D6000108072B6FEE700BF4FF48050189040F20A
:103D70005820C2F2000018A9FDF768FF20B1EFF348
:103D8000108072B6FEE700BF40F2582AC2F2000A65
:103D900012A95046FDF7E4FD20B1EFF3108072B692
:103DA000FEE700BF48F28C1B40F200142846C4F224
:103DB000212BC4F22124FDF7DDFE00270125CBF8DD
:103DC0002470CBF82C70CBF81450CBF80850CBF8FB
:103DD0000450CBF80050C4F8BC50C4F8B050C4F83C
:103DE000AC50FFF7F9F8C4F8A05040F2C804C2F292
:103DF000000440F230304FF00209E11DC2F2000031
:103E0000012284F808900E91FEF75CFD40F2A0209C
:103E1000C2F200002146012284F80890FEF752FD0C
:103E200040F2E820E11CC2F200000122FEF74AFD48
:103E300030684FF6DC71416230462646FDF7CEFE13
:103E4000DAF8000040F200094FF6FA71C2F20009F8
:103E50004162CBF8185013E0F07A002804BF01202B
:103E6000C4F8BC00B07B002804BF0120C4F8B00037
:103E7000707C00284FF0010008BFC4F8AC00F0745B
:103E800099F8040090B196F8250078B9012086F8D9
:103E900025000220307269A00D210A22FCF7BCF92E
:103EA000032086F824001420FCF7C8FF99F8054089
:103EB000042064F07F053072E8B2FFF76DF944F03A
:103EC0008400C0B2FFF768F905F0FB00FFF764F962
:103ED00099F8054064F06F05E8B2FFF75DF944F02A
:103EE0009400C0B2FFF758F905F0FB00FFF754F952
:103EF000B17E56A0FCF790F999F80100032800F074
:103F0000A780022800F03C81012840F0A183F07ACC
:103F1000012840F0D78199F80540042064F07F051E
:103F20003072E8B2FFF738F944F08400C0B2FFF70E
:103F300033F905F0FB00FFF72FF999F805502846F3
:103F4000FFF72AF945F00400FFF726F905F0FB001A
:103F5000FFF722F948F23D00C0F60000FCF75CF9DB
:103F600099F8054064F03F05E8B2FFF715F944F011
:103F7000C400C0B2FFF710F905F0FB00FFF70CF921
:103F800099F805502846FFF707F945F00400FFF7B8
:103F900003F905F0FB00FFF7FFF8B16B48F26F0083
:103FA000C0F60000FCF738F999F8054064F06F0599
:103FB000E8B2FFF7F1F844F09400C0B2FFF7ECF874
:103FC00005F0FB00FFF7E8F899F8054044F04005DC
:103FD000E8B2FFF7E1F844F04400C0B2FFF7DCF8C4
:103FE00005F0FB00FFF7D8F8716C48F26400C0F6EA
:103FF0000000FCF711F999F8054064F02F05E8B2CC
:10400000FFF7CAF844F0D400C0B2FFF7C5F805F0D6
:10401000FB00FFF7C1F899F8054044F04005E8B20D
:10402000FFF7BAF844F04400C0B2FFF7B5F805F066
:10403000FB00FFF7B1F8D8F8040036E141542B43F8
:104040004D47463D3125632563000000257500007E
:10405000707C012840F0CE8199F80540042064F07E
:104060007F053072E8B2FFF797F844F08400C0B2E1
:10407000FFF792F805F0FB00FFF78EF899F805506E
:104080002846FFF789F845F00400FFF785F805F0AA
:10409000FB00FFF781F848F24D00C0F60000FCF786
:1040A000BBF899F8054064F03F05E8B2FFF774F8F3
:1040B00044F0C400C0B2FFF76FF805F0FB00FFF753
:1040C0006BF899F805502846FFF766F845F00400AC
:1040D000FFF762F805F0FB00FFF75EF8B16F48F2FA
:1040E0006F00C0F60000FCF797F899F8054064F0FF
:1040F0006F05E8B2FFF750F844F09400C0B2FFF744
:104100004BF805F0FB00FFF747F899F8054044F03D
:104110004005E8B2FFF740F844F04400C0B2FFF7B2
:104120003BF805F0FB00FFF737F8D8F8001048F22D
:104130006400C0F60000FCF76FF899F8054064F0E1
:104140002F05E8B2FFF728F844F0D400C0B2FFF71B
:1041500023F805F0FB00FFF71FF899F8054044F03D
:104160004005E8B2FFF718F844F04400C0B2FFF78A
:1041700013F805F0FB00FFF70FF8B06E95E000BFF5
:10418000B07B012840F0CE8199F80540042064F00E
:104190007F053072E8B2FEF7FFFF44F08400C0B242
:1041A000FEF7FAFF05F0FB00FEF7F6FF99F8055061
:1041B0002846FEF7F1FF45F00400FEF7EDFF05F09D
:1041C000FB00FEF7E9FF48F24500C0F60000FCF7EF
:1041D00023F899F8054064F03F05E8B2FEF7DCFFEC
:1041E00044F0C400C0B2FEF7D7FF05F0FB00FEF7B5
:1041F000D3FF99F805502846FEF7CEFF45F004009E
:10420000FEF7CAFF05F0FB00FEF7C6FFF16D48F2AE
:104210006F00C0F60000FBF7FFFF99F8054064F05F
:104220006F05E8B2FEF7B8FF44F09400C0B2FEF7A5
:10423000B3FF05F0FB00FEF7AFFF99F8054044F02F
:104240004005E8B2FEF7A8FF44F04400C0B2FEF714
:10425000A3FF05F0FB00FEF79FFF316E48F26400FC
:10426000C0F60000FBF7D8FF99F8054064F02F0571
:10427000E8B2FEF791FF44F0D400C0B2FEF78CFF25
:1042800005F0FB00FEF788FF99F8054044F0400573
:10429000E8B2FEF781FF44F04400C0B2FEF77CFFB5
:1042A00005F0FB00FEF778FFF06C03F0F7F902462B
:1042B00048F25500C0F600000B46DF210091FBF7E5
:1042C000ABFFC5E199F8054064F07F05E8B2FEF761
:1042D00063FF44F08400C0B2FEF75EFF05F0FB0010
:1042E000FEF75AFF99F805502846FEF755FF45F0AE
:1042F0000400FEF751FF05F0FB00FEF74DFF48F20A
:104300003D00C0F60000FBF787FF99F8054064F018
:104310003F05E8B2FEF740FF44F0C400C0B2FEF72C
:104320003BFF05F0FB00FEF737FF99F805502846E4
:10433000FEF732FF45F00400FEF72EFF05F0FB000C
:10434000FEF72AFF48F22F0AC0F6000A5046FBF794
:1043500063FF99F8054064F06F05E8B2FEF71CFFB3
:1043600044F09400C0B2FEF717FF05F0FB00FEF723
:1043700013FF99F8054044F04005E8B2FEF70CFF42
:1043800044F04400C0B2FEF707FF05F0FB00FEF763
:1043900003FF48F27A00C0F60000FBF73DFF99F8F2
:1043A000054064F02F05E8B2FEF7F6FE44F0D400B5
:1043B000C0B2FEF7F1FE05F0FB00FEF7EDFE99F846
:1043C000054044F04005E8B2FEF7E6FE44F0440044
:1043D000C0B2FEF7E1FE05F0FB00FEF7DDFE504641
:1043E000FBF71AFF0020C4F22010C8F80400B763DE
:1043F00077642DE199F8054064F07F05E8B2FEF797
:10440000CBFE44F08400C0B2FEF7C6FE05F0FB0010
:10441000FEF7C2FE99F805502846FEF7BDFE45F0AE
:104420000400FEF7B9FE05F0FB00FEF7B5FE48F20A
:104430004D00C0F60000FBF7EFFE99F8054064F070
:104440003F05E8B2FEF7A8FE44F0C400C0B2FEF794
:10445000A3FE05F0FB00FEF79FFE99F805502846E5
:10446000FEF79AFE45F00400FEF796FE05F0FB000D
:10447000FEF792FE48F22F0AC0F6000A5046FBF7FC
:10448000CBFE99F8054064F06F05E8B2FEF784FEB4
:1044900044F09400C0B2FEF77FFE05F0FB00FEF78B
:1044A0007BFE99F8054044F04005E8B2FEF774FE43
:1044B00044F04400C0B2FEF76FFE05F0FB00FEF7CB
:1044C0006BFE48F27A00C0F60000FBF7A5FE99F8F3
:1044D000054064F02F05E8B2FEF75EFE44F0D4001C
:1044E000C0B2FEF759FE05F0FB00FEF755FE99F845
:1044F000054044F04005E8B2FEF74EFE44F04400AB
:10450000C0B2FEF749FE05F0FB00FEF745FE50463F
:10451000FBF782FE0020C4F22010B066B767C8F82F
:10452000007095E099F8054064F07F05E8B2FEF769
:1045300033FE44F08400C0B2FEF72EFE05F0FB000F
:10454000FEF72AFE99F805502846FEF725FE45F0AD
:104550000400FEF721FE05F0FB00FEF71DFE48F209
:104560004500C0F60000FBF757FE99F8054064F0DF
:104570003F05E8B2FEF710FE44F0C400C0B2FEF7FB
:104580000BFE05F0FB00FEF707FE99F805502846E4
:10459000FEF702FE45F00400FEF7FEFD05F0FB000D
:1045A000FEF7FAFD48F22F0AC0F6000A5046FBF764
:1045B00033FE99F8054064F06F05E8B2FEF7ECFDB4
:1045C00044F09400C0B2FEF7E7FD05F0FB00FEF7F3
:1045D000E3FD99F8054044F04005E8B2FEF7DCFD44
:1045E00044F04400C0B2FEF7D7FD05F0FB00FEF733
:1045F000D3FD48F27A00C0F60000FBF70DFE99F8F3
:10460000054064F02F05E8B2FEF7C6FD44F0D40083
:10461000C0B2FEF7C1FD05F0FB00FEF7BDFD99F845
:10462000054044F04005E8B2FEF7B6FD44F0440012
:10463000C0B2FEF7B1FD05F0FB00FEF7ADFD504640
:10464000FBF7EAFD0020C4F22010F064C6E91777FA
:1046500099F8054064F07F05E8B2FEF79DFD44F04F
:104660008400C0B2FEF798FD05F0FB00FEF794FD54
:1046700099F8054064F01F05E8B2FEF78DFD44F09F
:10468000E400C0B2FEF788FD05F0FB00FEF784FDF4
:10469000DBF814000FF6644100280FF6684008BFED
:1046A0000846FBF7B9FD99F8054064F03F05E8B20C
:1046B000FEF772FD44F0C400C0B2FEF76DFD05F0D8
:1046C000FB00FEF769FD99F8054064F01F05E8B2AC
:1046D000FEF762FD44F0E400C0B2FEF75DFD05F0B8
:1046E000FB00FEF759FDDBF808000FF6204100281B
:1046F0000FF6204008BF0846FBF78EFD99F80540ED
:1047000064F05F05E8B2FEF747FD44F0A400C0B2D4
:10471000FEF742FD05F0FB00FEF73EFD99F805406F
:1047200044F02005E8B2FEF737FD44F02400C0B2A3
:10473000FEF732FD05F0FB00FEF72EFDDBF804006E
:104740000FF6D83100280FF6DC3008BF0846FBF71B
:1047500063FD99F8054064F01F05E8B2FEF71CFD03
:1047600044F0E400C0B2FEF717FD05F0FB00FEF7D1
:1047700013FD99F8054044F02005E8B2FEF70CFD62
:1047800044F02400C0B2FEF707FD05F0FB00FEF781
:1047900003FDDBF800000FF6943100280FF694308B
:1047A00008BF0846FBF738FD307E012800F09E82E6
:1047B000307E022800F05D83307E032840F0BF8009
:1047C00099F8440048F2A06349F6B067C0F20103CB
:1047D000CFF6AE7799F8451000FB037042F2107ADD
:1047E00099F8462001FB0A004FF47A7599F8473092
:1047F00002FB050099F84810642703FB070001EB52
:10480000810199F8492000EB41001044706603F0E3
:10481000FFF80021C4F2483103F076F94FF0565109
:1048200003F072F90021CCF2482102F063FF99F8FD
:104830004B10B06699F84A0099F84C20794300FB78
:10484000051002EB820299F84D1000EB420008447B
:104850004DF25001401A306703F0DAF801464CF28D
:104860000000C4F27F4002F0DDFF0021CBF6807132
:1048700002F040FF0021C4F2201103F045F97067F7
:1048800002F00CFF4EF2481544F2AE77C1F27A45C1
:10489000C4F20D072A463B4602F0D6F901F074FB3C
:1048A0000B46002102460020C3F6F47102F008FE18
:1048B0004CF6CD44CCF6CC444CF6CC432246C3F661
:1048C000DC7302F0C1F940F2000BC4F2240B024683
:1048D0000B460020594601F0C9FB02F04BFB504546
:1048E00028BF5046716FB067084602F0D7FE2A46CF
:1048F0003B4602F0A9F901F047FB0B464CF6CC41D0
:1049000002462046C3F6F87102F0DAFD45F6294268
:1049100042F6F503CCF28F22C3F6DC7302F094F971
:1049200002460B460020594601F0A0FB02F022FB94
:10493000504528BF5046C8F800000020307699F84E
:104940000300D8F8045003F063F882462846514625
:1049500002F040FF48F28C1BC4F2212B50BB40F206
:104960000000C2F20000B76B0469A74222D8716C44
:10497000D0F81890119149451CD8F06C5146109010
:1049800002F028FFB0B9F06DA0420F9012D8306E3F
:1049900048450D900ED8B06E51460C9002F01AFFAB
:1049A00040B9D6F878A0A24504D8D8F800404C45C4
:1049B00040F22283B07D0027022802D00220B07589
:1049C0007776CBF8187096F8250040F2001440F284
:1049D0000009C4F22124C2F20009B8B1707EA8B95E
:1049E000B07E98B90120B0760220307286F824009B
:1049F00040F230300E99C2F200000122FDF762FF52
:104A00000FF654100D210A22FBF706FC012030722C
:104A10002068B0B90A20FCF711FA206888B920682C
:104A200030B9206820B9206810B920680028F6D075
:104A300099F801000130C1B2032988BF012089F82B
:104A40000100606828BB0A20FCF7F8F9606800BB29
:104A5000606830B9606820B9606810B96068002883
:104A6000F6D0DBF814005023C043CBF81400DBF879
:104A70001400B179B0FA80F0400921F00101084436
:104A8000B071C2B248F28700C0F600005321FBF7B4
:104A9000C3FB206930BB0A20FCF7D0F9206908BBB2
:104AA000206930B9206920B9206910B9206900282F
:104AB000F6D0DBF808005023C043CBF80800DBF841
:104AC0000800B179B0FA80F0400921F0020141EA12
:104AD0004000B071C2B248F28700C0F60000532116
:104AE000FBF79AFB606930BB0A20FCF7A7F9606905
:104AF00008BB606930B9606920B9606910B9606944
:104B00000028F6D0DBF804005023C043CBF80400A3
:104B1000DBF80400B179B0FA80F0400921F004011B
:104B200041EA8000B071C2B248F28700C0F60000CE
:104B30005321FBF771FBA06930BB0A20FCF77EF91B
:104B4000A06908BBA06930B9A06920B9A06910B9F3
:104B5000A0690028F6D0DBF800005023C043CBF852
:104B60000000DBF80000B179B0FA80F0400921F0D4
:104B7000080141EAC000B071C2B248F28700C0F635
:104B800000005321FBF748FBE069F0B90A20FCF76D
:104B900055F9E069C8B9E06930B9E06920B9E06960
:104BA00010B9E0690028F6D0DBF818005321C043A3
:104BB000CBF81800DBF818005023B0FA80F0420957
:104BC0000FF2A8707275FBF727FBB079012222EA79
:104BD0000001CBF8141000F0020182EA5101CBF879
:104BE000081000F0040100F0080082EA910182EA56
:104BF000D000CBF80410CBF80000F06A47F6D501DE
:104C00000130C2F2E961414342F2DD424FEA7101F3
:104C1000C0F206129142F0624AD8D8E900100F9112
:104C200002F03CFDCDE91010F06CD6F83890776CAE
:104C3000D6F85CA002F032FD064640F2C800C2F28F
:104C40000000D0F860B0806E0C4602F027FD40F204
:104C5000C802C2F20002926F0D460F9908920991A4
:104C60005021069048F2AA00DDE910320A91CDF8F1
:104C7000009040F20009CDE9017640F2C8060394A5
:104C800040F20014CDF814B048F28C1BC0F60000BE
:104C90005321C2F20009C2F20006C4F22124CDF869
:104CA00010A00027C4F2212B0795FBF7B5FAF06A94
:104CB0004CF6CD41CCF6CC41484349F699114FEA28
:104CC0007000C1F6991188423FF6DAA8F07C0028FE
:104CD0003FF4C2A801287FF4D3A80020C4F8BC0088
:104CE000C4F8B000C4F8AC00FFF7C9B899F81C00CC
:104CF00048F2A06349F6B067C0F20103CFF6AE7781
:104D000099F81D1000FB037042F2107A99F81E20EA
:104D100001FB0A004FF47A7599F81F3002FB050079
:104D200099F82010642703FB070001EB810199F833
:104D3000212000EB41001044306302F069FE0021A5
:104D4000C4F2483102F0E0FE4FF0565102F0DCFEB2
:104D50000021CCF2482102F0CDFC99F82310C8F8CC
:104D6000040099F8220099F82420794300FB0510EB
:104D700002EB820299F8251000EB420008444DF244
:104D80005001401AF06302F043FE01464CF200006D
:104D9000C4F27F4002F046FD0021CBF6807102F0A4
:104DA000A9FC0021C4F2201102F0AEFE306402F032
:104DB00075FC4EF2481544F2AE77C1F27A45C4F262
:104DC0000D072A463B4601F03FFF01F0DDF80B4698
:104DD000002102460020C3F6F47102F071FB4CF68C
:104DE000CD44CCF6CC444CF6CC432246C3F6DC731F
:104DF00001F02AFF40F2000BC4F2240B02460B46DE
:104E00000020594601F032F902F0B4F8504528BFAD
:104E10005046316CB063084602F040FC2A463B46DF
:104E2000002501F011FF01F0AFF80B464CF6CC4124
:104E300002462046C3F6F87102F042FB45F62942CD
:104E400042F6F503CCF28F22C3F6DC7301F0FCFED0
:104E500002460B460020594601F008F902F08AF894
:104E6000504528BF504670643576307E02287FF466
:104E7000A3AC99F8300048F2A06349F6B067C0F2DD
:104E80000103CFF6AE7799F8311000FB037042F2C0
:104E9000107A99F8322001FB0A004FF47A7599F8DC
:104EA000333002FB050099F83410642703FB070038
:104EB00001EB810199F8352000EB41001044B0640A
:104EC00002F0A6FD0021C4F2483102F01DFE4FF0B1
:104ED000565102F019FE0021CCF2482102F00AFCE2
:104EE00099F83710F06499F8360099F8382079432A
:104EF00000FB051002EB820299F8391000EB42002A
:104F000008444DF25001401A706502F081FD0146DF
:104F10004CF20000C4F27F4002F084FC0021CBF68A
:104F2000807102F0E7FB0021C4F2201102F0ECFDD9
:104F3000B06502F0B3FB4EF2481544F2AE77C1F211
:104F40007A45C4F20D072A463B4601F07DFE01F08A
:104F50001BF80B46002102460020C3F6F47102F054
:104F6000AFFA4CF6CD44CCF6CC444CF6CC432246BA
:104F7000C3F6DC7301F068FE40F2000BC4F2240BB0
:104F800002460B460020594601F070F801F0F2FF8E
:104F9000504528BF5046B16DF065084602F07EFBD3
:104FA0002A463B46002501F04FFE00F0EDFF0B4680
:104FB0004CF6CC4102462046C3F6F87102F080FA66
:104FC00045F6294242F6F503CCF28F22C3F6DC7394
:104FD00001F03AFE02460B460020594601F046F821
:104FE00001F0C8FF504528BF504630663576307E08
:104FF00003283FF4E5ABA2E440F20000C2F2000057
:10500000807802F005FD06462846314602F0E2FBB4
:1050100080B940F20000C2F20000C068874209D89F
:1050200040F20001C2F2000149698C4298BF8245FA
:1050300040F2328140F2C800C2F20000807D0128B7
:1050400059D040F2C8010120C2F20001887591F8E0
:10505000250000284FD040F2C800C2F20000807E38
:10506000002848D10120022288760A7281F82400A3
:1050700040F230300E99C2F200000122FDF722FC0E
:1050800048F28F00C0F60000222122220D230A27B9
:105090000097FBF7C1F840F2C800C2F20000C07DE3
:1050A00090B940F2C800C2F20000C07D60B940F281
:1050B000C800C2F20000C07D30B940F2C800C2F2A0
:1050C0000000C07D0028E6D040F2C804C2F200040F
:1050D000032084F8240099A01A21FBF79DF80020F2
:1050E000E07540F20000C2F200008078D8F8045069
:1050F00002F08EFC06462846314602F079FBE8B9FC
:1051000040F2C800C2F20000476B0021384602F0AE
:1051100053FB48B92846394602F0C2FD0021C4F2CB
:10512000400102F065FB78B940F2C801C2F200010B
:1051300001204D6381F8260006E000BF40F2C80060
:10514000C2F200000021416340F2C800C2F2000038
:10515000D0E913573146284602F04AFB50B9384689
:10516000002102F029FB00281EBF40F2C800C2F255
:105170000000056540F2C800C2F20000D0E91A57ED
:105180003146284602F034FB50B93846002102F07F
:1051900013FB00281EBF40F2C800C2F20000C56623
:1051A00040F2C800C2F20000807D01280ED048F213
:1051B0008C1B40F2C8060228C4F2212B4FF00007D6
:1051C000C2F200063FF4FDAB8AE000BF40F2C80621
:1051D000C2F2000696F8250048F28C1B40F200143B
:1051E00040F200090028C4F2212BC4F221244FF020
:1051F0000007C2F200093FF409ACB07E00287FF43A
:1052000005AC96F8260000283FF400AC022086F892
:1052100026703072012086F8240040F230300E995A
:10522000C2F200000122FDF74DFB48F28F00C0F6EC
:105230000000222122220D230A270097FAF7ECFF13
:1052400040F2C800C2F20000C07D90B940F2C80030
:10525000C2F20000C07D60B940F2C800C2F2000096
:10526000C07D30B940F2C800C2F20000C07D002805
:10527000E6D040F2C806C2F20006032086F82400F9
:1052800030A01A21FAF7C8FF002748F28C1BF775E7
:10529000C4F2212B27E000BF0D9A8A423FF6CAAE26
:1052A0000F9A82423FF6C6AE119888423FF6C2AED0
:1052B0001098314602F08EFA00287FF4BBAE0C98AD
:1052C000314602F095FA00283FF4B4AE40F2C80629
:1052D00048F28C1B0027C2F20006C4F2212BB775DE
:1052E0000120CBF8180040F2001440F20009C4F28B
:1052F0002124C2F20009FFF789BB00BF44313A20E4
:105300004F4E000044313A4F4646000044323A20A6
:105310004F4E000044323A4F4646000044333A2094
:105320004F4E000044333A4F4646000044343A2082
:105330004F4E000044343A4F46460000484925632A
:10534000000000006775692064617461206E6F64FD
:105350006520312563000000415444303836323333
:1053600033353532313B25632563000025635725EE
:10537000632563005FEA400C08BF91F0000F4FEA1D
:105380008C234FEAC12243EA51514FEA1C5018BF07
:1053900000F5F0404FEA300018BF41F000415FEAED
:1053A0006C5C00F02980BCF1FF3F08BF40F08040FA
:1053B0007047130C06BF12044FF0100C4FF0000C96
:1053C000130E04BF12020CF1080C130F04BF1201DC
:1053D0000CF1040C930F04BF92000CF1020CD30FDC
:1053E00004BF52000CF1010C11464FF00002A0F175
:1053F0001F00A0EB0C00704711F0004F08BF704772
:1054000031F000413FF4D5AF0B0C06BF09044FF05B
:10541000100C4FF0000C0B0E04BF09020CF1080C2D
:105420000B0F04BF09010CF1040C8B0F04BF8900A2
:105430000CF1020CCB0F04BF49000CF1010CCCF1B4
:10544000200322FA03F341EA030102FA0CF2A0EB73
:105450000C0000F10100704723F07F4720F07F4CE3
:1054600080EA030000F00040ACEB070303F57C5337
:1054700003F1FF032DE9804909B44FEA144324EAFC
:1054800003484FEA154B25EA0B4E0FF2042606EBB4
:1054900013273E7803FB0667C7F5000707FB06F6F0
:1054A0004FEAD64606F102064FEA543707FB066C70
:1054B000CCF1005C4FEA1C472CEA074C0CFB06F5CC
:1054C00007FB06F404EB15464FEA961649085FEA17
:1054D000320234BF00204FF000404FEAD13706FBC4
:1054E00007FC4FEA1C4C0CFB0BF7D21B03FB0CF721
:1054F00061EB07010CFB0EF7B0EB074072EB1742B4
:105500000CFB08F734BFA2EB0742B2EB074261EB9A
:1055100017414FEA0C444FEA910706FB07FC4FEA9C
:105520001C4C0CFB0BF7B0EBC74072EB573203FB84
:105530000CF734BFA2EBC742B2EBC74261EB573165
:105540000CFB0EF7B0EBC70072EB57720CFB08F7C1
:1055500034BFA2EBC702B2EBC70261EB57714FEA4F
:10556000816141EA92114FEA826242EA90124FEA67
:10557000806004EBCC04039F4FEAD13706FB07FCA5
:105580004FEA1C4C0CFB0BF7D21B03FB0CF761EB37
:1055900007010CFB0EF7B0EB074072EB17420CFB58
:1055A00008F734BFA2EB0742B2EB074261EB1741A9
:1055B0004FEA8C5504EB9C244FEA910706FB07FC4D
:1055C0004FEA1C4C0CFB0BF7B0EBC74072EB5732A9
:1055D00003FB0CF734BFA2EBC742B2EBC74261EB4F
:1055E00057310CFB0EF7B0EBC70072EB57720CFB98
:1055F00008F734BFA2EBC702B2EBC70261EB5771E9
:105600004FEA816141EA92114FEA826242EA9012C6
:105610004FEA806015EB4C2544F100044FEAD13786
:1056200006FB07FC4FEA1C4C0CFB0BF7D21B03FBE1
:105630000CF761EB07010CFB0EF7B0EB074072EBC8
:1056400017420CFB08F734BFA2EB0742B2EB07424C
:1056500061EB17414FEA813141EA92414FEA8232D0
:1056600042EA90424FEA80304FEA0C7615EB1C1567
:1056700044F1000448EA03434EEA0B484FF0000EA1
:10568000B2EB080C71EB030724BF624639464EEBC0
:105690000E0E4FF0000B0018524149414BEB0B0B23
:1056A000B2EB080C71EB03077BF1000B24BF6246E1
:1056B00039464EEB0E0E4FF0000B00185241494197
:1056C0004BEB0B0BB2EB080C71EB03077BF1000B00
:1056D00024BF624639464EEB0E0E51EA020718BF50
:1056E00046F0010616EB0E7655F1000254F100016A
:1056F00003D5BDE88901BDE80088BDE88901BDE8A2
:105700000048B619524141EB0101A3F10103704772
:1057100080807F7E7D7C7B7A7978777676757473EE
:10572000727171706F6E6E6D6C6C6B6A6A696868AD
:10573000676666656464636362616160605F5F5E43
:105740005E5D5D5C5C5B5B5A5A59595858575756B9
:10575000565555555454535352525251515050501E
:105760004F4F4F4E4E4D4D4D4C4C4C4B4B4B4A4A70
:105770004A494949484848474747474646464545B4
:1057800045444444444343434342424242414141ED
:105790009C46002B30D477002BD04FEA37071CB53E
:1057A00003B44FF010004FF01001BAF1000F06D013
:1057B000BCF1000FDCBF40F0080040F008014FF0E2
:1057C00000000FBCBDE810400BF1010BBBF1010F55
:1057D00008BF5FEA170722BF12F1010211F10101B0
:1057E0004FF0004143F1000300F0004043EA0000A5
:1057F0007047F9D35708D0E746EA06464FEA1646FF
:1058000013F1400F1FDD13F1200FDFBF16430A46CF
:10581000002120335B42BED0C3F1200746EA064692
:105820004FEA164602FA07F746EA070622FA03F29B
:10583000C3F1200701FA07F742EA070221FA03F150
:105840004FF00003A7E746EA020646EA06464FEA9B
:10585000164646EA0106BCBF46EA0646360C4FF03D
:1058600000034FF000024FF0000194E72DE9804C57
:1058700070B49A46934691E8380007C831EA400C64
:1058800048BF34EA430C03D5FFF7E6FDFFF780FF7E
:10589000F0BCBDE8008C2DE9804C70B49A4693466C
:1058A00091E8380007C810F0804F08BF13F0804F10
:1058B00003D100F005F8FFF76BFFF0BCBDE8008CEA
:1058C00020F07F4723F07F4C80EA030000F0004087
:1058D00007EB0C03A3F57C53A3F1FE0392F0000F3A
:1058E00000F0B38095F0000F00F077802DE90149BA
:1058F0004FEA114021EA00484FEA144624EA0647DD
:1059000000FB06FC08FB06F607FB08F818EB064848
:105910004CEB164C00FB07F718EB07484CEB174015
:105920004FEA124B22EA0B4E4FEA154625EA06478C
:105930000BFB06FC0EFB06F607FB0EFE1EEB064EEF
:105940004CEB164C0BFB07F71EEB074E4CEB174BC3
:1059500018EB0B0840F1000018EB0E0B58EB000899
:1059600040F100008F1A4FF000014FF000063CBFDD
:10597000C943661B14BFB5EB040C00213CBFC943EF
:10598000F61B4FEA174427EA04454FEA1C472CEA66
:10599000074C04FB076205FB07F70CFB05F616EB4B
:1059A000074642EB174204FB0CFC16EB0C4642EB9D
:1059B0001C421BEB060658EB020241414EEA8E0EDA
:1059C00046EA9E0601D5BDE80189B619524141EB70
:1059D0000101A3F10103BDE801894FEA144524EA5E
:1059E00005464FEA114721EA074C05FB07F406FB81
:1059F00007F70CFB06F111EB074144EB174405FBDD
:105A00000CFC11EB0C4144EB1C444FEA124722EA18
:105A1000074C05FB07F206FB07F70CFB06F616EB37
:105A2000074642EB174205FB0CFC16EB0C4642EB1B
:105A30001C456A1854F1000148BF7047B61952411D
:105A400041EB0101A3F10103704795F0000F37D03E
:105A50004FEA114221EA02464FEA144724EA074C72
:105A600002FB07F106FB07F70CFB06F414EB0744F7
:105A700041EB174102FB0CFC14EB0C4441EB1C41C5
:105A80004FEA154725EA074C02FB07F506FB07F727
:105A90000CFB06F616EB074645EB174502FB0CFC24
:105AA00016EB0C4645EB1C42121951F1000148BFA0
:105AB0007047B619524141EB0101A3F10103704750
:105AC0004FEA144524EA05464FEA114721EA074CFC
:105AD00005FB07F106FB07F70CFB06F212EB07428A
